:100000000C947F020C94541E0C947F1E0C94AA1E18
:100010000C94D51E0C94001F0C942B1F0C94561F8F
:100020000C94811F0C94B0020C94B0020C94B0029A
:100030000C94B0020C94F91A0C94B0020C94B00217
:100040000C94B0020C9404110C94B0020C94B00205
:100050000C94B0020C94B0020C94B0020C943421B5
:100060000C94B0020C947B050C94B1050C94B00276
:100070000C94B0020C94B0020C94B0020C94B00238
:100080000C9432110C94B0020C94B0020C94B00297
:100090000C94E5050C941B060C94B0020C94841C83
:1000A0000C94B0020C94B0020C9460110C94B00249
:1000B0000C94B0020C94B0020C94B0020C948E110B
:1000C0000C94B0020C94B0020C94B0020C944F0645
:1000D0000C9485060C94B0020C94B9060C94EF06AF
:1000E0000C94B002041ECE1DD61DE21DEF1D101E85
:1000F0001D1E441E3A1E3C1E3E1E401E461E481E2D
:10010000A922AE22B322BD22C7224023D122D92266
:10011000E122EB22F522FF220E2318234023222383
:100120002C2336236423672356235A2360239E23DC
:100130006B236F23752379237D23832387238B23CD
:100140009E239123952399230C94D71F0C94FF226F
:100150000C94D1220C9467230C9441360C9479238F
:100160000C9403040C94041E0C94F5030C94362395
:100170000C9495230C9491230C94481E0C94CE1D42
:100180000C9464230C94BD220C940E200C943A1E03
:100190000C9448360C94101E0C9460230C949923F4
:1001A0000C949E230C94EF1D0C94DB050C94B2026E
:1001B0000C94DF350C9445060C9481350C94AC1FDF
:1001C0000C946F230C943A360C941D1E0C948504E9
:1001D0000C9483230C943D360C946B230C94D20422
:1001E0000C9440230C94441E0C94EB220C947E3609
:1001F0000C94D9220C94D61D0C948B230C942407B8
:100200000C9485350C94B3220C94E1220C943B2081
:100210000C945A230C94750D0C9422230C942604F0
:100220000C94AE220C94B41F0C94401E0C94F52236
:100230000C9472360C94C81F0C943E1E0C9416320B
:100240000C940E230C9418230C94B2350C942C238C
:100250000C94461E0C9484350C94A9220C943C1EDC
:100260000C94B51D0C94AF060C94D81F0C94170475
:100270000C94C7220C940C360C9419070C947D2313
:100280000C94E21D0C9487230C94E9030C946231C6
:100290000C9402200C9456230C9475234E414E4925
:1002A0004E495459494E46CDCCCC3D0AD7233C1734
:1002B000B7D13877CC2B329595E6241FB14F0A0081
:1002C0000020410000C84200401C4620BCBE4CCA71
:1002D0001B0E5AAEC59D7400407A10F35A00A072EE
:1002E0004E18090010A5D4E80000E8764817000071
:1002F000E40B54020000CA9A3B000000E1F505003F
:100300000080969800000040420F000000A0860187
:10031000000000102700000000E803000000006457
:1003200000000000000A00000000000100000000C2
:10033000002C76D888DC674F0823DFC1DFAE59E197
:10034000B1B796E5E3E453C63AE651997696E8E606
:10035000C28426EB898C9B62ED407C6FFCEFBC9CD9
:100360009F40F2BAA56FA5F490055A2AF75C936BEB
:100370006CF9676DC11BFCE0E40D47FEF520E6B5A6
:1003800000D0ED902E0300943577050080841E0880
:100390000000204E0A000000C80C333333330F989E
:1003A0006E12831141EF8D2114893BE65516CFFE65
:1003B000E6DB18D1844B381BF77C1D901DA4BBE4F1
:1003C00024203284725E228100C9F124ECA1E53D33
:1003D000270200000A0B02090C0D0E080703040196
:1003E000000000000000000000000000000000000D
:1003F00000000000000000000000000000001211DA
:1004000010000000000000000000000000000000DC
:100410000000000000000000010210202008081069
:100420002040102040800201020108040201010264
:10043000040810204080804020100804020180043D
:100440000201804020100804020108040201010298
:100450000408102040800102040810204080050597
:100460000505070508080808020202020A0A08082A
:100470000404040401010101010101010303030358
:1004800003030303040707070C0C0C0C0C0C0C0CE7
:100490000202020206060606060606060B0B0B0BF8
:1004A0000B0B0B0B000020002300260029002C0062
:1004B0002F003200000100000301060109010000C5
:1004C0002200250028002B002E00310034000201FC
:1004D0000000050108010B01000021002400270095
:1004E0002A002D0030003300010100000401070143
:1004F0000A018535B235DF350C3672367E36112469
:100500001FBECFEFD1E2DEBFCDBF00E00CBF14E0D5
:10051000A0E0B2E0ECE1F9E800E00BBF02C0079018
:100520000D92AC3CB107D9F72AE0ACECB4E001C0C5
:100530001D92A436B207E1F712E0CFE7D2E000E067
:1005400006C021970109802FFE010E941537C93787
:10055000D10780E00807A9F70E944E360C948C441E
:100560000C9400000E943B3C0E943B3C4F925F92E7
:100570006F927F929F92AF92BF92CF92DF92EF9253
:10058000FF920F931F93CF93DF938C01C62FFC0133
:100590001086118612861386148661E08C2F0E94C5
:1005A0009F2360E08C2F0E94DB2364E170E080E0F9
:1005B00090E00E94AF2161E08C2F0E94DB2388E253
:1005C00090E00E94EB2160E08C2F0E949F2351E17C
:1005D000E52E57E2F52E8C2F0E940A24892B39F440
:1005E000F1E0EF1AF108B9F78EEF9FEF5BC041E140
:1005F000E42E47E2F42E8C2F0E940A24019729F45E
:1006000081E0E81AF108B9F7EFCF28E2E22EF12CE9
:10061000912CD7E0AA24A394B12C91E1C92E97E2A2
:10062000D92E8C2F0E940A24892B29F4E1E0CE1ABE
:10063000D108B9F7D9CF0E948A212B013C0181E171
:10064000C82E87E2D82E8C2F0E940A24019729F405
:10065000F1E0CF1AD108B9F7C7CF0E948A21DC0197
:10066000CB0184199509A609B7098997A105B10598
:1006700060F0F801E90DF11D2085C5010D2E01C0C6
:10068000880F0A94EAF7822B8087D11103C09394D4
:10069000D7E001C0D15081E0E81AF10809F0BDCFE0
:1006A00080E090E0DF91CF911F910F91FF90EF904C
:1006B000DF90CF90BF90AF909F907F906F905F90B2
:1006C0004F9008950F931F93CF93DF93EC010E94F7
:1006D000B602009709F50885602F70E080E090E091
:1006E0000E944A38688379838A839B831A85612FA5
:1006F00070E080E090E00E944A386C837D838E83B6
:100700009F83100F81E090E02C85121302C080E0DF
:1007100090E0919581959109DF91CF911F910F9173
:1007200008950F931F93CF93DF93EC010E94B602BD
:10073000009709F049C0698588850E941E26BC0182
:1007400080E090E00E944A382DEC3CEC4CEC5DE3FC
:100750000E940139688379838A839B838A8587FF16
:1007600005C08F778A870FEF1FEF02C001E010E00E
:100770006B858A850E941E269C01029FC001039FF3
:10078000900D129F900D1124BC0180E090E00E941A
:100790004A382DEC3CEC4CEC5DE30E9401396C8353
:1007A0007D838E839F8328858985280F8A85280FDE
:1007B0008B85280F81E090E03C85231302C080E008
:1007C00090E0919581959109DF91CF911F910F91C3
:1007D0000895FC01918D228D892F90E0805C9F4FC0
:1007E000821B91098F7399270895FC01918D828D49
:1007F000981731F0828DE80FF11D858D90E00895F6
:100800008FEF9FEF0895FC01918D828D981761F015
:10081000828DDF01A80FB11D5D968C91928D9F5F37
:100820009F73928F90E008958FEF9FEF0895FC01E2
:10083000538D448D252F30E0842F90E0821B930B45
:10084000541710F0CF960895019708958BED95E019
:10085000892B41F080E090E0892B21F00E94DB059C
:10086000811125C085E496E0892B41F080E090E07D
:10087000892B21F00E94450681111CC08FEA96E069
:10088000892B41F080E090E0892B21F00E94AF0697
:10089000811113C089E197E0892BA1F080E090E0FD
:1008A000892B81F00E94190781110AC008950E94C6
:1008B0000000D8CF0E940000E1CF0E940000EACFE4
:1008C0000C9400000895FC01848DDF01A80FB11D78
:1008D000A35ABF4F2C91848D90E001968F73992776
:1008E000848FA689B7892C93A089B1898C91837054
:1008F00080648C93938D848D981306C00288F3894D
:10090000E02D80818F7D80830895EF92FF920F9379
:100910001F93CF93DF93EC0181E0888F9B8D8C8DAB
:10092000981305C0E889F989808185FD26C0F62ED7
:100930000B8D10E00F5F1F4F0F731127E02E8C8D72
:10094000E8120CC00FB607FCFACFE889F98980815C
:1009500085FFF5CFCE010E946304F1CF8B8DFE01A0
:10096000E80FF11DE35AFF4FF0829FB7F8940B8F09
:10097000EA89FB89808180620AC09FB7F894EE897A
:10098000FF896083E889F98980818370806480832E
:100990009FBF81E090E0DF91CF911F910F91FF9079
:1009A000EF900895CF93DF93EC01888D8823C9F0F1
:1009B000EA89FB89808185FD05C0A889B9898C9168
:1009C00086FD0FC00FB607FCF5CF808185FFF2CF03
:1009D000A889B9898C9185FFEDCFCE010E9463046F
:1009E000E7CFDF91CF910895CF92DF92EF92FF9200
:1009F0001F93CF93DF93EC016A017B01122FE889EB
:100A0000F98982E080834115514E61057105B1F08D
:100A100060E079E08DE390E0A70196010E94D43672
:100A2000DA01C9010197A109B109B695A795979572
:100A300087959C01211580E13807A8F0E889F9899C
:100A4000108260E874E88EE190E0A70196010E94B0
:100A5000D436DA01C9010197A109B109B695A79564
:100A6000979587959C01EC85FD853083EE85FF8504
:100A70002083188EEC89FD891083EA89FB898081A7
:100A800080618083EA89FB89808188608083EA892C
:100A9000FB89808180688083EA89FB8980818F7DE2
:100AA0008083DF91CF911F91FF90EF90DF90CF90E7
:100AB0000895CF93DF93EC01E881F9810680F781F7
:100AC000E02D1995EA89FB8980818F7E8083EA89F0
:100AD000FB898081877F8083EA89FB8980818F778A
:100AE0008083EA89FB8980818F7D80838A8D898FCD
:100AF000DF91CF9108951F920F920FB60F9211249C
:100B00000BB60F922F938F939F93EF93FF93E091E8
:100B1000DC04F091DD048081E091E204F091E304D3
:100B200082FD12C090818091E5048F5F8F732091C8
:100B3000E604821751F0E091E504F0E0E453FB4F46
:100B4000958F8093E50401C08081FF91EF919F9183
:100B50008F912F910F900BBE0F900FBE0F901F9093
:100B600018951F920F920FB60F9211240BB60F9289
:100B70002F933F934F935F936F937F938F939F93A5
:100B8000AF93BF93EF93FF938CEC94E00E946304C8
:100B9000FF91EF91BF91AF919F918F917F916F9155
:100BA0005F914F913F912F910F900BBE0F900FBE11
:100BB0000F901F9018958CEC94E00E94E90321E0BF
:100BC000892B09F420E0822F08951F920F920FB60F
:100BD0000F9211240BB60F922F938F939F93EF9345
:100BE000FF93E0917905F0917A058081E0917F058E
:100BF000F091800582FD12C09081809182058F5F07
:100C00008F7320918305821751F0E0918205F0E007
:100C1000E759FA4F958F8093820501C08081FF913B
:100C2000EF919F918F912F910F900BBE0F900FBE60
:100C30000F901F9018951F920F920FB60F921124CC
:100C40000BB60F922F933F934F935F936F937F93C6
:100C50008F939F93AF93BF93EF93FF9389E695E0B4
:100C60000E946304FF91EF91BF91AF919F918F918B
:100C70007F916F915F914F913F912F910F900BBE9C
:100C80000F900FBE0F901F90189589E695E00E9477
:100C9000E90321E0892B09F420E0822F08951F92B7
:100CA0000F920FB60F9211240BB60F922F938F93C2
:100CB0009F93EF93FF93E0911606F09117068081C2
:100CC000E0911C06F0911D0682FD12C0908180917A
:100CD0001F068F5F8F7320912006821751F0E091DD
:100CE0001F06F0E0EA5FF94F958F80931F0601C061
:100CF0008081FF91EF919F918F912F910F900BBE6B
:100D00000F900FBE0F901F9018951F920F920FB665
:100D10000F9211240BB60F922F933F934F935F9333
:100D20006F937F938F939F93AF93BF93EF93FF93B3
:100D300086E096E00E946304FF91EF91BF91AF912E
:100D40009F918F917F916F915F914F913F912F91E3
:100D50000F900BBE0F900FBE0F901F90189586E05E
:100D600096E00E94E90321E0892B09F420E0822F1C
:100D700008951F920F920FB60F9211240BB60F9287
:100D80002F938F939F93EF93FF93E091B306F0918E
:100D9000B4068081E091B906F091BA0682FD12C0D6
:100DA00090818091BC068F5F8F732091BD06821762
:100DB00051F0E091BC06F0E0ED55F94F958F80932E
:100DC000BC0601C08081FF91EF919F918F912F917F
:100DD0000F900BBE0F900FBE0F901F9018951F9293
:100DE0000F920FB60F9211240BB60F922F933F93D1
:100DF0004F935F936F937F938F939F93AF93BF9323
:100E0000EF93FF9383EA96E00E946304FF91EF91D2
:100E1000BF91AF919F918F917F916F915F914F9112
:100E20003F912F910F900BBE0F900FBE0F901F9010
:100E3000189583EA96E00E94E90321E0892B09F4E2
:100E400020E0822F089508958F929F92AF92BF92D3
:100E5000CF92DF92EF92FF920F931F93CF93DF9386
:100E60007C018B014C0182E0880E911C5701E5E06A
:100E7000AE0EB11CC0E0D0E0F40161914F014AE038
:100E800050E0C8010E94980E6C016EE2C8010E94F9
:100E9000D30D8C0D9D1DC80FD91F8A149B0461F7BB
:100EA0004AE050E0F7016581C8010E94980E8C0F5E
:100EB0009D1FDF91CF911F910F91FF90EF90DF90D9
:100EC000CF90BF90AF909F908F9008952CE133E02A
:100ED000FC013183208312821382148215820895CB
:100EE0000F93FC018CE193E09183808362834383C1
:100EF000248305830F9108952CE133E0FC013183B5
:100F0000208342835383648375830895DC018CE1DD
:100F100093E08D939D9384E0FB0101900D928A955F
:100F2000E1F70895DC0190E020E030E08AE0FB0189
:100F30004191BF01442309F150ED540F5A3088F418
:100F4000829FF001839FF00D11249F0120533109EE
:100F5000240F311D47FD3A952F3F310541F338F3FA
:100F600012C04E3281F4933071F0FD01E90FF11D92
:100F700022839F5F20E030E0DACF933021F4159692
:100F80002C9381E0089580E00895DC01129624E01E
:100F9000FB0101900D922A95E1F70895FC0142832F
:100FA00053836483758308959B01BC016E5F7F4FFB
:100FB00044E050E0C9010E94943C21E0892B09F0F3
:100FC00020E0822F0895FC01108214821382158282
:100FD0000895FC0160838FEF9FEF928381831482D9
:100FE000138215820895FC01608354834383258313
:100FF00008954F925F926F927F928F929F92AF92DD
:10100000BF92CF92DF92EF920F93CF93DF93EC01D9
:101010006B014A01590102960E94E30782E293E0C4
:10102000998388832E018CE1480E511C3E0188E58E
:10103000680E711CC2010E94E30786E0480E511C35
:1010400046145704B9F7FE01EE59FF4F9182808292
:101050003296B182A082329600833196E082379731
:10106000D182C08238968AE090E091838083329664
:1010700084EF91E09183808333961182108271977F
:101080001082118212821382C459DF4F1882DF91BD
:10109000CF910F91EF90DF90CF90BF90AF909F9046
:1010A0008F907F906F905F904F900895805A9F4FE0
:1010B000FC017183608308952F923F924F925F925B
:1010C0006F927F928F929F92AF92BF92CF92DF9258
:1010D000EF92FF920F931F93CF93DF93CDB7DEB7BD
:1010E00028970FB6F894DEBF0FBECDBF98878F83C9
:1010F00010E05C0126E6A20EB11C7C0132E6E30E94
:10110000F11CD5018C911817B8F0312CEF81F885BE
:10111000E959FF4FFC83EB83CF80D884F4E6CF0EF0
:10112000D11C412C512C320143942F8138852E59EA
:101130003F4F3E832D8360C0F701A081B181A10F95
:10114000B11DEF81F88580819181FC012081318181
:1011500042E06C918F819885F90119951F5FD1CF7D
:10116000022D10E0AD81BE818D919C91DC01A00F1C
:10117000B11F0480F581E02D6C918F8198851995C0
:10118000000F111FEF81F885E00FF11F892B09F087
:101190006FC08085918529813A81822B932B91871D
:1011A00080872394D5018C91AF81B885ED91FC9116
:1011B0002816B0F2D6018D919C91DC01AE0DBF1DB9
:1011C0000280F381E02D41E06C918F819885199523
:1011D000F60180819181DC01AE0DBF1DEF81F885A4
:1011E00080819181FC012081318140E06C918F816F
:1011F0009885F90119953394AB81BC818C9138168F
:10120000E0F5E32CF12CF601A081B181AE0DBF1DFC
:10121000EF81F88580819181FC012081318141E05D
:101220006C918F819885F9011995F601A081B181A2
:10123000AE0DBF1DEF81F88580819181FC01228177
:10124000338140E06C918F819885F9011995D30124
:10125000C201032C04C0880F991FAA1FBB1F0A9448
:10126000D2F79A8389834C0180949094212C9ACF51
:10127000808591858821992192CF28960FB6F89480
:10128000DEBF0FBECDBFDF91CF911F910F91FF90B9
:10129000EF90DF90CF90BF90AF909F908F907F9016
:1012A0006F905F904F903F902F900895FC019C01AC
:1012B000245C3F4F848D861307C0878D90A10197D2
:1012C00019F481A1811105C03696E217F30791F751
:1012D00080E00895FC0180E090E0248D261739F02D
:1012E000019636968A309105C1F78FEF9FEF0895EA
:1012F000FC0180E090E0258D368D2617370739F008
:10130000019636968A309105B1F78FEF9FEF0895D9
:10131000FC01878D90A10895FC0181A108958AE0C8
:101320000895FC01E859FF4F6115710529F481E02A
:1013300090E0918380830895718360830895865936
:101340009F4FFC0171836083089583599F4FFC0177
:10135000718360830895DC0126E0629FA00DB11DBA
:10136000112490965C934E935F9721E091962C9375
:101370009197FC01E459FF4F208131960190F08153
:10138000E02D222331F0309749F0611107C0DC01D4
:1013900002C0309719F05C968C9119940895CF9201
:1013A000DF92EF92FF920F931F93CF93DF93EC01A5
:1013B000162F042FFC0186E0689FE00DF11D11241B
:1013C00011A2878D90A181309105D1F048F0823033
:1013D000910591F1039709F03FC040E050E030C023
:1013E0004423D1F141E050E0CE010E94AB090E94BC
:1013F0007E21C85ADF4F688379838A839B832CC000
:101400000E947E21FE01E85AFF4FC080D180E28019
:10141000F380AB01BC014C195D096E097F0972961E
:1014200080819181A0E0B0E084179507A607B707F7
:1014300018F442E050E004C001110EC043E050E057
:10144000612FCE01DF91CF911F910F91FF90EF900F
:10145000DF90CF900C94AB09DF91CF911F910F914A
:10146000FF90EF90DF90CF9008952F923F924F9290
:101470005F926F927F928F929F92AF92BF92CF9224
:10148000DF92EF92FF920F931F93CF93DF9300D0E1
:1014900000D0CDB7DEB79E838D837C015C012CE349
:1014A000A20EB11CFC018FEF9FEF278D30A1232BE3
:1014B00021F4148E968F858F11A23696AE16BF0634
:1014C000A1F7512C8D819E818A599F4F9A838983E0
:1014D000AD81BE81A959BF4FBC83AB836D807E8037
:1014E000B0E66B0E711C86E0282EE981FA818081BE
:1014F000581608F05AC0412C0D811E81050D111D92
:10150000050D111D085F1F4FAB81BC818C904814E5
:1015100008F049C0F801C080D180042C02C0D694E4
:10152000C7940A94E2F7FC2DF1703F2E589C4001BD
:101530001124840C911CB4018D819E810E94780934
:1015400097FD05C0432D682F8D819E8121C0019696
:1015500041F5C0FE26C0ED81FE8160E070E0848D23
:10156000811119C0D301ED91FC91E80DF91D808125
:10157000269EF001279EF00D11242D813E81E20F61
:10158000F31F848F968E858E10A2178E432DC9016E
:101590000E94CF0906C06F5F7F4F36966A30710593
:1015A000F1F64394B1CF5394A0CF80E0D701919648
:1015B0009C91911181E0B6E0EB0EF11CAE14BF04DA
:1015C000A9F726960FB6F894DEBF0FBECDBFDF9108
:1015D000CF911F910F91FF90EF90DF90CF90BF9030
:1015E000AF909F908F907F906F905F904F903F90C3
:1015F0002F900895CF92DF92EF92FF920F931F9357
:10160000CF93DF93EC010E947E218E01045A1F4F7D
:10161000F801C080D180E280F380AB01BC014C199D
:101620005D096E097F093C9680819181A0E0B0E060
:1016300084179507A607B70778F4CE010E945C08C7
:10164000CE010E94350AC82F0E947E21F8016083D6
:1016500071838283938301C0C0E08C2FDF91CF918F
:101660001F910F91FF90EF90DF90CF9008950F930F
:101670001F93CF93DF93EC018C0104591F4F81E03E
:10168000F8018083CE010E94FA0A882349F089A1DB
:10169000882331F08F8D98A1019711F48C8D03C0B0
:1016A000F801108280E0DF91CF911F910F91089592
:1016B000CF93DF93EC01CE010E94370B8823D9F33F
:1016C000DF91CF910895FC01138212828CE293E0A6
:1016D00091838083648341872287138608950C94C5
:1016E000D10D08950895089580E0089580E008954B
:1016F00080E008950895089508951F93CF93DF9390
:10170000EC01162F6C818DE698E00E949C206B8581
:10171000612B8DE698E00E943B208DE698E0DF91FA
:10172000CF911F910C942721FC01138660E00C944B
:101730007D0B28E0FC01238760E00C947D0B611198
:101740000C94990B0C94940B0F931F93CF938C01D3
:10175000C62F64600E947D0B81E090E00E94EB2127
:101760006C2F6B7FC8010E947D0B82E390E0CF91CC
:101770001F910F910C94EB211F93CF93DF93EC01FA
:10178000162F0E947D0B612FCE01DF91CF911F910B
:101790000C94A40B0F931F93CF93DF938C01C62F50
:1017A000D42F607F642B0E94BC0B80E1C89FB001E6
:1017B00011246D2BC801DF91CF911F910F910C94D3
:1017C000BC0B61E00E94453680ED97E00C94EB2164
:1017D00062E00E94453680ED97E00C94EB21CF93B8
:1017E000DF93CDB7DEB728970FB6F894DEBF0FBEF4
:1017F000CDBF9C0188E0EEEFF2E0DE011196019092
:101800000D928A95E1F7F9018085841710F44FEF66
:10181000480FFE013196E40FF11DE40FF11D908198
:10182000690F6068C90128960FB6F894DEBF0FBE35
:10183000CDBFDF91CF910C944536FC0166816B7F63
:10184000668368600C944536FC016681262F24600F
:1018500026836C600C944536FC0166816D7F66833F
:1018600068600C9445360C942C0CFC016681262F84
:10187000226026836A600C9445360C94350CFC017A
:1018800066816E7F668368600C9445360C943F0CCD
:10189000FC016681262F2160268369600C94453601
:1018A0000C94480C68E10C9445366CE10C94453678
:1018B000FC016781262F2260278366600C944536E1
:1018C000FC0167816D7F678364600C944536FC0181
:1018D0006781262F2160278365600C944536FC01C3
:1018E00067816E7F678364600C944536EF92FF9248
:1018F0000F931F93CF93DF938C017A01677088E079
:10190000689FB00111246064C8010E944536E70158
:10191000A8E0EA0EF11C6991D801ED91FC910190CB
:10192000F081E02DC8011995CE15DF05A1F7DF91F3
:10193000CF911F910F91FF90EF9008950C94760C2A
:10194000CF93DF93EC01423018F08D8188608D8356
:101950004887222329F0413019F48D8184608D83DA
:1019600062E370E080E090E00E94AF216B85CE01E1
:101970000E947D0B68EE73E080E090E00E94AF2152
:1019800060E3CE010E94BC0B84E991E10E94EB214F
:1019900060E3CE010E94BC0B84E991E10E94EB213F
:1019A00060E3CE010E94BC0B86E990E00E94EB212F
:1019B00060E2CE010E94BC0B6D816062CE010E948C
:1019C000453684E08E83CE010E94240CCE010E9415
:1019D000E10B82E08F8366E0CE010E944536CE01A6
:1019E000DF91CF910C94E80BCF93DF93EC018DE660
:1019F00098E00E947A201D8220E04A856985CE0108
:101A0000DF91CF910C94A00C0C94F40C80E090E04A
:101A10000895089508950C9493390C9493390C9477
:101A20002B3A0C942B3AFC0171836083168A128244
:101A30000895FC01718360830895FC012689233198
:101A400061F031E0320F368BE20FF11D6283FC0151
:101A5000E30FF11D128281E0089580E00895FC01FA
:101A6000168A12820895FC0120813181D9015D918D
:101A7000428133962C5E3F4F511104C081E04423D4
:101A800049F007C0541305C05D914191A217B307F7
:101A900099F780E00895CF93DF93FB01DC01129664
:101AA000AB014C5E5F4FEB012881222331F0E4173C
:101AB000F50719F021912D93F6CFDF91CF910C947A
:101AC000330DFC017183608308950C944B0D0E94CB
:101AD0004B0D91E089270895CF93DF93EC010E948D
:101AE0001D0DCE01DF91CF910895CF92DF92EF923D
:101AF000FF920F931F93CF93DF936C017A018B01B9
:101B0000C0E0D0E0CE15DF0581F0D8016D918D01E8
:101B1000D601ED91FC910190F081E02DC60119955F
:101B2000892B11F02196EECF7E01C701DF91CF9175
:101B30001F910F91FF90EF90DF90CF900895EF925B
:101B4000FF920F931F93CF93DF938C017B01C0E033
:101B5000D0E0F701EC0FFD1F6491662361F0D8011E
:101B6000ED91FC910190F081E02DC8011995892B30
:101B700011F02196EECFCE01DF91CF911F910F9101
:101B8000FF90EF900895DB0114964D915C911597AD
:101B90006D917C91DC01ED91FC910280F381E02D4F
:101BA00019940C945D36DC01ED91FC910190F0816B
:101BB000E02D1994DB01ED91FC9111970190F081DA
:101BC000E02DBC01CD01199464E373E00C945D3603
:101BD0000F931F93CF93DF93EC010E949F0D8C0115
:101BE000CE010E94E40D800F911FDF91CF911F91D4
:101BF0000F9108950F931F93CF93DF93EC010E94F1
:101C0000C30D8C01CE010E94E40D800F911FDF9166
:101C1000CF911F910F9108950F931F93CF93DF934F
:101C2000EC010E945D368C01CE010E94E40D800F14
:101C3000911FDF91CF911F910F9108950F931F93E3
:101C4000CF93DF93EC010E94D30D8C01CE010E9453
:101C5000E40D800F911FDF91CF911F910F91089597
:101C60000F931F93CF93DF93EC010E94DA0D8C0149
:101C7000CE010E94E40D800F911FDF91CF911F9143
:101C80000F9108958F929F92AF92BF92EF92FF9221
:101C90000F931F93CF93DF93CDB7DEB7A1970FB606
:101CA000F894DEBF0FBECDBF7C01FA01CB0119A2B3
:101CB000223008F42AE08E010F5D1F4F822E912CF6
:101CC000A12CB12CBF01A50194010E94D436F901C9
:101CD000CA01015011096A3014F4605D01C0695CE9
:101CE000D8016C93232B242B252B61F7B801C70156
:101CF0000E945D36A1960FB6F894DEBF0FBECDBF31
:101D0000DF91CF911F910F91FF90EF90BF90AF9017
:101D10009F908F9008952115310541F4DC01ED91DC
:101D2000FC910190F081E02D642F19940C94420EE7
:101D30009A01462F50E060E070E00C948B0E0F93F8
:101D40001F93CF93DF93EC010E94980E8C01CE017C
:101D50000E94E40D800F911FDF91CF911F910F9191
:101D600008959A01AB0160E070E00C948B0E0F9324
:101D70001F93CF93DF93EC010E94B10E8C01CE0133
:101D80000E94E40D800F911FDF91CF911F910F9161
:101D900008950F931F93CF93DF93EC010E948B0E56
:101DA0008C01CE010E94E40D800F911FDF91CF9135
:101DB0001F910F910895CF92DF92EF92FF920F93B0
:101DC0001F93CF93DF932115310581F4DC01ED9151
:101DD000FC910190F081E02D642FDF91CF911F9154
:101DE0000F91FF90EF90DF90CF9019942A3031053A
:101DF00001F577FF1DC06A017B01EC016DE20E94D5
:101E0000D30D8C0144275527BA014C195D096E0981
:101E10007F092AE0CE010E94420E800F911FDF91C0
:101E2000CF911F910F91FF90EF90DF90CF90089589
:101E30002AE0DF91CF911F910F91FF90EF90DF90FB
:101E4000CF900C94420E9A01AB01770F660B770B83
:101E50000C94DB0E0F931F93CF93DF93EC010E9442
:101E6000230F8C01CE010E94E40D800F911FDF91A2
:101E7000CF911F910F9108950F931F93CF93DF93ED
:101E8000EC010E94DB0E8C01CE010E94E40D800F5C
:101E9000911FDF91CF911F910F9108957F928F92A3
:101EA0009F92AF92BF92CF92DF92EF92FF920F93E9
:101EB0001F93CF93DF938C016A017B01722E9A01ED
:101EC000AB01C701B6010E946E39882319F067E3A0
:101ED00073E027C046015701E894B7F82FEF3FEFB2
:101EE0004FE75FE7C501B4010E946E3981110DC053
:101EF0002FEF3FEF4FE75FE7C501B4010E94A43722
:101F000018161CF46BE373E00CC02FEF3FEF4FE7A4
:101F10005FE4C701B6010E94FC38181694F46FE321
:101F200073E0C801DF91CF911F910F91FF90EF9067
:101F3000DF90CF90BF90AF909F908F907F900C9448
:101F40005D362FEF3FEF4FE75FECC701B6010E9410
:101F5000A43787FDE4CF20E030E0A901C701B60136
:101F60000E94A43787FF0AC06DE2C8010E94D30D0A
:101F7000EC01F7FAF094F7F8F09402C0C0E0D0E07A
:101F8000B12C60E070E080E09FE37B1441F020E042
:101F900030E040E251E40E94A937B394F6CFA701A4
:101FA00096010E9438376B017C010E941B384B015F
:101FB0005C012AE0AB01BC01C8010E94420EC80FBF
:101FC000D91F7720B9F1C501B4010E944A389B019D
:101FD000AC01C701B6010E9437376B017C016EE28C
:101FE000C8010E94D30DC80FD91F20E030E040E2A5
:101FF00051E4C701B6010E9401394B015C010E9406
:102000001B386B017C014AE050E0C8010E94B10E10
:10201000C80FD91FB60180E090E00E944A389B01AA
:10202000AC01C501B4010E9437376B017C017A9481
:102030007110DBCFCE01DF91CF911F910F91FF90F7
:10204000EF90DF90CF90BF90AF909F908F907F9058
:1020500008950C944E0F0F931F93CF93DF93EC01D1
:102060000E944E0F8C01CE010E94E40D800F911F43
:10207000DF91CF911F910F910895CF92DF92EF9250
:10208000FF920F931F93CF93DF936C018B017A0123
:10209000EC01CF5BD84F888187FF04C0FB01118220
:1020A000108224C02CE02C9DC0012D9D900D112488
:1020B0002881AC01420F511D27FD5A952091400700
:1020C00030E04217530794F42881AC01420F511DB0
:1020D00027FD5A959A01FA01EE0FFF1F2E0F3F1FA1
:1020E000F901EB5BF84F208126FD19C088818F5FD5
:1020F00088832CE02C9DC0012D9D900D11242881FA
:10210000AC01420F511D27FD5A952091400730E048
:1021100042175307BCF428812C3044F113C02881A6
:10212000820F911D27FD9A95FC01EE0FFF1F8E0F68
:102130009F1FFC01EB5BF84F808160E08F730E9472
:10214000DB23D4CFF80180819181049680349C49AF
:1021500018F480E49CE904C0F80180819181049620
:10216000F701918380838FEF888345C0F801408118
:1021700051812881BC01620F711D27FD7A959B0159
:10218000FB01EE0FFF1F2E0F3F1FF901EB5BF84F16
:1021900021813281240F351FF7013183208328816B
:1021A000AC01420F511D27FD5A959A01FA01EE0F1D
:1021B000FF1F2E0F3F1FF901EB5BF84F208126FF19
:1021C0001AC02881820F911D27FD9A95FC01EE0F00
:1021D000FF1F8E0F9F1FFC01EB5BF84F808161E0BA
:1021E0008F73DF91CF911F910F91FF90EF90DF9050
:1021F000CF900C94DB23DF91CF911F910F91FF9033
:10220000EF90DF90CF9008951F920F920FB60F922C
:1022100011240BB60F922F933F934F935F936F93BD
:102220007F938F939F93AF93BF93EF93FF9348E870
:1022300050E064E870E081E090E00E943D10FF9182
:10224000EF91BF91AF919F918F917F916F915F912E
:102250004F913F912F910F900BBE0F900FBE0F909B
:102260001F9018951F920F920FB60F9211240BB664
:102270000F922F933F934F935F936F937F938F931F
:102280009F93AF93BF93EF93FF9348E950E064E9C6
:1022900070E082E090E00E943D10FF91EF91BF91CD
:1022A000AF919F918F917F916F915F914F913F91EE
:1022B0002F910F900BBE0F900FBE0F901F9018958F
:1022C0001F920F920FB60F9211240BB60F922F93FD
:1022D0003F934F935F936F937F938F939F93AF93AE
:1022E000BF93EF93FF9348EA50E064EA70E083E025
:1022F00090E00E943D10FF91EF91BF91AF919F91AF
:102300008F917F916F915F914F913F912F910F909E
:102310000BBE0F900FBE0F901F9018951F920F923B
:102320000FB60F9211240BB60F922F933F934F933A
:102330005F936F937F938F939F93AF93BF93EF932D
:10234000FF9348E251E064E271E080E090E00E9497
:102350003D10FF91EF91BF91AF919F918F917F9130
:102360006F915F914F913F912F910F900BBE0F9006
:102370000FBE0F901F901895FC019091400790336D
:10238000A0F481E0890F809340079083892F90E02B
:10239000FC01EE0FFF1F8E0F9F1FFC01EB5BF84F40
:1023A00088EB9BE09283818308958FEF808308956B
:1023B000DF92EF92FF920F931F93CF93DF93EC0185
:1023C000D62E7A0189018881803308F068C061E0E7
:1023D0008D2D0E949F238881E82FF0E09F01220F1E
:1023E000331FE20FF31FEB5BF84F9D2D9F7320818E
:1023F000207CD22ED92AD08220E232E02E193F0949
:1024000037FF02C02D5F3F4F3595279535952795AE
:10241000298320E639E0201B310B37FF02C02D5FF6
:102420003F4F35952795359527952A836CE00E9477
:10243000C8369CE0899FB001112440E050E09B0128
:10244000240F351FF901EE0FFF1F2E0F3F1FF9015B
:10245000EB5BF84F908196FD16C04F5F5F4F4C309D
:10246000510569F7813021F51092800082E0809358
:1024700081001092850010928400B19A80916F00C3
:10248000826080936F00E881F0E0CF01880F991F90
:10249000E80FF91FEB5BF84F8081806480838881AF
:1024A000DF91CF911F910F91FF90EF90DF900895F2
:1024B000823061F410929000809391001092950008
:1024C0001092940088BB80937100DDCF833069F453
:1024D0001092A00082E08093A1001092A5001092BB
:1024E000A40089BB80937200CECF8111CCCF109213
:1024F000200182E080932101109225011092240195
:102500008ABB80937300BFCF20E639E040E252E0FF
:102510000C94D811DC01EC91F0E0CF01880F991FE9
:10252000E80FF91FEB5BF84F80818F7B8083089564
:10253000FC01DB017081703308F041C0818128E823
:1025400030E0281B310987FD3395C901880F991F99
:10255000880F991FA817B90784F0828148E552E0D7
:10256000481B510987FD5395440F551F440F551FB4
:10257000CD014A175B070CF4CA0102974FB7F894D4
:10258000272F30E0092E000CAA0BBB0B54E0880F5C
:10259000991FAA1FBB1F5A95D1F763E0B695A7955F
:1025A000979587956A95D1F7F901EE0FFF1F2E0FCA
:1025B0003F1FF901EB5BF84F928381834FBF089572
:1025C000AF92BF92CF92DF92EF92FF920F931F9341
:1025D000CF93DF93EC01603282E078070CF03FC0CC
:1025E00077FD06C0653B71052CF064EB70E002C01E
:1025F00060E070E0898128E830E05901A81AB1084C
:1026000087FDB394AA0CBB1CAA0CBB1C0B2C000CA2
:10261000CC08DD08072E000C880B990B2A8108E5F1
:1026200012E0021B110927FD1395000F111F000F67
:10263000111F012E000C220B330B3F932F931F937E
:102640000F9314EBE12EF12C00E010E020E030E0DD
:10265000A9010E94DC250F900F900F900F90CE01E2
:10266000DF91CF911F910F91FF90EF90DF90CF906E
:10267000BF90AF900C949812FC0180818F3FB9F00D
:1026800090E0FC01EE0FFF1F8E0F9F1FFC01EB5B24
:10269000F84F8181928133E0880F991F3A95E1F7D5
:1026A00044E0969587954A95E1F70296089580E073
:1026B00090E008954F925F926F927F92AF92BF9297
:1026C000CF92DF92EF92FF920F931F93CF93DF93FE
:1026D00000D01F92CDB7DEB7FC01428128E532E081
:1026E000241B310947FD3395220F331F220F331F5F
:1026F000A901330F660B770B49835A836B837C8365
:10270000218148E850E02A01421A510827FD5394DC
:10271000440C551C440C551C052C000C660877080D
:102720000E943C130196BC01990F880B990B1F92D4
:102730001F921F9224EB2F93A12CB12C6501E980ED
:10274000FA800B811C81A30192010E94DC250F906D
:102750000F900F900F90CB010F900F900F900F9054
:10276000DF91CF911F910F91FF90EF90DF90CF906D
:10277000BF90AF907F906F905F904F900895FC0155
:10278000808190E0FC01EE0FFF1F8E0F9F1FFC0168
:10279000EB5BF84F808186FB882780F908950F93C3
:1027A0001F93CF93DF93EC010E947E216887798786
:1027B0008A879B87E881F9810284F385E02DCE0129
:1027C000199597FF17C00E947E21088519852A85D3
:1027D0003B85DC01CB01801B910BA20BB30B0C8161
:1027E0001D812E813F8180179107A207B30710F347
:1027F0008FEF9FEFDF91CF911F910F9108950F936E
:102800001F93CF93DF93EC010E947E216887798725
:102810008A879B87E881F9810484F585E02DCE01C4
:10282000199597FF17C00E947E21088519852A8572
:102830003B85DC01CB01801B910BA20BB30B0C8100
:102840001D812E813F8180179107A207B30710F3E6
:102850008FEF9FEFDF91CF911F910F910895FF921E
:102860000F931F93CF93DF93EC018B01F42ECE01D6
:102870000E94FF1397FD2DC08D32910519F19C0127
:10288000205331092A30310520F1FF2019F08E3212
:102890009105D1F001301105D1F00230110551F44C
:1028A0008D30910539F024F40997029718F00FC084
:1028B000809769F4E881F9810284F385E02DCE01E7
:1028C0001995D5CF8DE201C08EE290E002C08FEF66
:1028D0009FEFDF91CF911F910F91FF900895FC0121
:1028E00044835583668377830895BF92CF92DF92A6
:1028F000EF92FF920F931F93CF93DF938C01C42F1E
:1029000040E00E942F14FC0197FD47C0C12CD12C40
:102910007601B12C0C2E000CDD0BEC17FD0709F134
:10292000ED32F105E1F0CF01C0970A97D0F4AAE0AB
:10293000B0E0A70196010E941D376F01FF0FEE085E
:10294000FF08DC01CB018C0D9D1DAE1DBF1D6C0170
:102950007D0120E3C21AD108E108F10802C0BB24BE
:10296000B394D801ED91FC910284F385E02DC80168
:102970001995C8010E94FF13FC01C0970A9768F2DD
:10298000CE17DF0751F2BB2061F066277727CB0116
:102990006C197D098E099F0906C060E070E0CB01CB
:1029A00002C0C701B601DF91CF911F910F91FF9037
:1029B000EF90DF90CF90BF9008954F925F926F920B
:1029C0007F92AF92BF92CF92DF92EF92FF920F93DE
:1029D0001F93CF93DF935C01042F41E00E942F14DB
:1029E000FC0197FD6FC0412C512C80E8682E8FE3CD
:1029F000782EC12CD12C7601C0E0D0E0002E000C46
:102A0000110BE017F10769F1ED32F10539F1EE3202
:102A1000F10531F1CF01C0970A9718F5AAE0B0E0AF
:102A2000A70196010E941D376F01FF0FEE08FF08F6
:102A3000C60ED71EE81EF91E80E3C81AD108E108A9
:102A4000F108CC2371F02DEC3CEC4CEC5DE3C301C0
:102A5000B2010E9401392B013C0103C0D1E001C049
:102A6000C1E0D501ED91FC910284F385E02DC50113
:102A70001995C5010E94FF13FC01C0970A9708F23F
:102A8000EE32F10519F4CC2309F4BBCF0E171F0762
:102A900009F4B7CFDD2341F0F094E094D094C094D2
:102AA000C11CD11CE11CF11CC701B601CC2339F0BB
:102AB0000E944C38A30192010E94013906C00E9475
:102AC0004C3803C060E070E0CB01DF91CF911F91E3
:102AD0000F91FF90EF90DF90CF90BF90AF907F90DD
:102AE0006F905F904F900895CF92DF92EF92FF9298
:102AF0000F931F93CF93DF936C017A018B01C0E09A
:102B0000D0E0CE15DF0559F0C6010E94CF1397FD26
:102B100005C0F80181938F012196F3CF7E01C70193
:102B2000DF91CF911F910F91FF90EF90DF90CF90A9
:102B30000895AF92BF92CF92DF92EF92FF920F93E0
:102B40001F93CF93DF9321153105C9F089015C01F3
:102B50006A01C0E0D0E0E62E660FFF08C5010E94C2
:102B6000CF1397FD0FC08E159F0561F0F60181937D
:102B70006F0121960C171D0789F7C80104C080E07A
:102B800090E001C0CE01DF91CF911F910F91FF9096
:102B9000EF90DF90CF90BF90AF9008950F931F9369
:102BA000CF93DF93EC018B0167E873E00E949126DD
:102BB000C8010E94CF1397FD05C0682FCE010E9467
:102BC000BD28F6CFCE01DF91CF911F910F910895CF
:102BD000EF92FF920F931F93CF93DF93EC017B0152
:102BE000042F67E873E00E949126C7010E94CF136B
:102BF000002E000C110B97FD0BC08017910741F0C0
:102C0000682FCE010E94BD28C7010E94CF13F3CFC9
:102C1000CE01DF91CF911F910F91FF90EF9008951A
:102C20004F925F926F927F928F929F92AF92BF92DC
:102C3000CF92DF92EF92FF920F931F93CF93DF9388
:102C40008C01EB0186E0849F4001859F900C11244C
:102C5000860E971EFB01E815F90508F58281938120
:102C6000892B21F13696F7CF60817181448155819E
:102C7000DB01A40FB51F2C91022E000C330B821721
:102C8000930711F54F5F5F4F558344832281338152
:102C90004217530759F03696E815F90528F3C8018D
:102CA0000E94CF1397FD46C0FE01F6CFEC1BFD0B33
:102CB000F595E7952BEA3AEAE29FC001E39F900D74
:102CC000F29F900D112438C04115510521F3C480A5
:102CD000D58096012150310935832483DB01A20F71
:102CE000B31FAC910A2E000CBB0B8A179B07F9F49B
:102CF00021153105C9F05B017A01E21AF30AE60EEB
:102D0000F71E412C512CD5016D905D01D7017D90AE
:102D10007D01671006C0BFEF4B1A5B0A42165306CF
:102D200090F32415350599F6D582C482B4CF232BB0
:102D300071F6B1CF8FEF9FEFDF91CF911F910F9180
:102D4000FF90EF90DF90CF90BF90AF909F908F90CB
:102D50007F906F905F904F900895CF93DF9300D056
:102D600000D0CDB7DEB7FE01319626E0DF011D921F
:102D70002A95E9F77A8369835C834B8341E050E0CD
:102D8000BF010E94101621E0892B09F020E0822F5C
:102D900026960FB6F894DEBF0FBECDBFDF91CF9160
:102DA00008950C94AD16FB0101900020E9F73197CE
:102DB000AF01461B570B0C94AD16FF920F931F9358
:102DC000CF93DF93CDB7DEB72C970FB6F894DEBF65
:102DD0000FBECDBF2115310521F40E94AD16282F5D
:102DE00019C0FE013196ACE0FA2EDF011D92FA9473
:102DF000E9F77A8369835C834B8338872F831A874B
:102E0000098742E050E0BF010E94101621E0892BA3
:102E100009F020E0822F2C960FB6F894DEBF0FBE8B
:102E2000CDBFDF91CF911F910F91FF9008950F9328
:102E30001F939A01FA0101900020E9F731978F0161
:102E4000041B150BFB0101900020E9F73197AF013E
:102E5000461B570B0E94DD161F910F9108954F924C
:102E60005F926F927F928F929F92AF92BF92CF921A
:102E7000DF92EF92FF920F931F93CF93DF9300D0D7
:102E80001F921F92CDB7DEB78B0129013A019091B5
:102E90000002891721F09F3F09F046C305C0E1ED0C
:102EA000F3E024912D8303C180930002E1EDF3E070
:102EB00094919D839F3F09F437C3923009F47FC0FA
:102EC00068F5992309F45AC0913009F0F0C01092C6
:102ED0008000109281009091810098609093810011
:102EE00090918100916090938100282F30E0F9014A
:102EF000E25AFB4FE491F0E0EE0FFF1FE254FB4F6C
:102F0000459154915093F3074093F207F901E85E1D
:102F1000FB4FE491E093F10791E09FC02D812430B5
:102F200009F49DC008F473C0253009F0C0C01092A8
:102F3000200110922101909121019860909321012C
:102F400090912101916090932101282F30E0F901A7
:102F5000E25AFB4FE491F0E0EE0FFF1FE254FB4F0B
:102F6000459154915093D7074093D607F901E85EF5
:102F7000FB4FE491E093D50795E06FC014BC15BCFE
:102F800094B5926094BD95B5916095BD282F30E0C1
:102F9000F901E25AFB4FE491F0E0EE0FFF1FE2541B
:102FA000FB4F459154915093FA074093F907F9016B
:102FB000E85EFB4FE491E093F8071D82B1C21092E6
:102FC000B0001092B1009091B00092609093B00068
:102FD0009091B10091609093B100282F30E0F901F9
:102FE000E25AFB4FE491F0E0EE0FFF1FE254FB4F7B
:102FF000459154915093EC074093EB07F901E85E3B
:10300000FB4FE491E093EA0722E02D8389C21092FE
:10301000900010929100909191009860909391008F
:1030200090919100916090939100282F30E0F901E8
:10303000E25AFB4FE491F0E0EE0FFF1FE254FB4F2A
:10304000459154915093E5074093E407F901E85EF8
:10305000FB4FE491E093E30793E09D83B1C01092AE
:10306000A0001092A1009091A10098609093A100FF
:103070009091A10091609093A100282F30E0F90178
:10308000E25AFB4FE491F0E0EE0FFF1FE254FB4FDA
:10309000459154915093DE074093DD07F901E85EB6
:1030A000FB4FE491E093DC0724E02D8389C02D8160
:1030B00027FD3AC261E00E949F238D818D7F09F038
:1030C00082C04801A12CB12C60E072E18AE790E057
:1030D000A50194010E94D43629833A834B835C83F3
:1030E00069017A0181E0C81AD108E108F1089FEF6F
:1030F000C916D104E104F10409F008F44EC060E4FB
:1031000072E48FE090E0A50194010E94D436690139
:103110007A0181E0C81AD108E108F1089D81923056
:1031200009F52FEFC216D104E104F10409F008F407
:10313000BEC160E970ED83E090E0A50194010E94BA
:10314000D43669017A0181E0C81AD108E108F10892
:103150009FEFC916D104E104F10411F008F035C164
:1031600083E027C02FEFC216D104E104F104B9F0C7
:10317000B0F068E478EE81E090E0A50194010E944F
:10318000D43669017A0181E0C81AD108E108F10852
:103190009D81992309F48FC157C181E001C082E06C
:1031A0009D81911106C095B5987F892B85BD7EC004
:1031B00085E09091B100987F892B8093B10076C013
:1031C00061E00E949F234801A12CB12C60E072E1D4
:1031D0008AE790E0A50194010E94D43669017A0142
:1031E00081E0C81AD108E108F108C114D10491E0C6
:1031F000E906F10488F068E478EE81E090E0A5014A
:1032000094010E94D43669017A0181E0C81AD1087C
:10321000E108F10883E001C081E09D81913081F4F3
:1032200090918100987F892B8093810041145104F3
:103230006104710409F03FC02FEF3FEFA9016DC099
:103240002D81233079F490919100987F892B809380
:103250009100411451046104710469F52FEF3FEFAF
:10326000A9017DC09D81943079F49091A100987F4F
:10327000892B8093A1004114510461047104D9F495
:103280002FEF3FEFA9017DC02D81253079F490917A
:103290002101987F892B80932101411451046104FD
:1032A000710449F42FEF3FEFA9017DC0411451048F
:1032B0006104710471F0D801AA0FBB1FA301920130
:1032C0000E941D3728EE33E040E050E00E94D436E3
:1032D00003C02FEF3FEFA9018D81823081F12CF4E3
:1032E000882361F08130C9F01FC19D81943009F4B9
:1032F00048C0ACF1953009F456C016C1C7BC209344
:10330000FB073093FC074093FD075093FE07809125
:103310006E00826080936E0007C1D0928900C092D7
:1033200088002093F4073093F5074093F6075093F5
:10333000F70780916F00826080936F00F5C0C092A4
:10334000B3002093ED073093EE074093EF075093BF
:10335000F00780917000826080937000E5C0D09289
:103360009900C09298002093E6073093E7074093B6
:10337000E8075093E90780917100826080937100A3
:10338000D3C0D092A900C092A8002093DF07309349
:10339000E0074093E1075093E2078091720082605A
:1033A00080937200C1C0D0922901C092280120935D
:1033B000D8073093D9074093DA075093DB07809101
:1033C0007300826080937300AFC068E478EE81E0A0
:1033D00090E0A50194010E94D43669017A0181E050
:1033E000C81AD108E108F1089FEFC916D104E10419
:1033F000F10441F138F164E274EF80E090E0A5015E
:1034000094010E94D43669017A0181E0C81AD1087A
:10341000E108F1089FEFC916D104E104F10409F0B5
:1034200008F4C6CE62E17AE780E090E0A50194015D
:103430000E94D43669017A0181E0C81AD108E108F6
:10344000F10818C084E0B5CE2FEFC216D104E10414
:10345000F10479F170F162E17AE780E090E0A50192
:1034600094010E94D43669017A0191E0C91AD10809
:10347000E108F1088FEFC816D104E104F104A9F0C6
:10348000A0F089819A81AB81BC812AE0B695A7958D
:10349000979587952A95D1F76C017D0121E0C21A95
:1034A000D108E108F10887E084CE86E082CE82E090
:1034B00080CE84E075CE2FEFC216D104E104F10472
:1034C00069F160F162E17AE780E090E0A5019401A2
:1034D0000E94D43669017A0181E0C81AD108E10856
:1034E000F1089FEFC916D104E104F104A9F0A0F09E
:1034F00089819A81AB81BC813AE0B695A795979571
:1035000087953A95D1F76C017D0121E0C21AD10867
:10351000E108F10885E047CE84E045CE83E043CE64
:1035200061E00E949F23CDCD0F900F900F900F90E0
:103530000F90DF91CF911F910F91FF90EF90DF904F
:10354000CF90BF90AF909F908F907F906F905F9043
:103550004F9008958230A9F028F4882349F08130F3
:1035600051F00895843021F1E8F0853039F1089563
:1035700010926E00089580916F008D7F80936F0090
:103580000895809170008D7F8093700081E080931A
:10359000B0008091B100887F84608093B100109268
:1035A000B3000895809171008D7F8093710008951C
:1035B000809172008D7F80937200089580917300D6
:1035C0008D7F809373000895CF93C82F8091000260
:1035D000C81307C0E1EDF3E084919FEF90930002E0
:1035E00001C08FEF0E94AA1A60E08C2FCF910C943B
:1035F000DB231F920F920FB60F9211240BB60F927E
:103600002F933F934F935F936F937F938F939F93EA
:10361000AF93BF93EF93FF938091ED079091EE07E7
:10362000A091EF07B091F007892B8A2B8B2B51F1DA
:103630009091EA07E091EB07F091EC0780818927F0
:1036400080838091ED079091EE07A091EF07B091F4
:10365000F007181619061A061B06C4F48091ED0728
:103660009091EE07A091EF07B091F0070197A109A3
:10367000B1098093ED079093EE07A093EF07B09305
:10368000F00704C0809100020E94E41AFF91EF91BC
:10369000BF91AF919F918F917F916F915F914F916A
:1036A0003F912F910F900BBE0F900FBE0F901F9068
:1036B000189510926C0881E080936A08109269084E
:1036C00061E084E10E94DB2361E085E10E94DB236D
:1036D000E9EBF0E080818E7F808380818D7F808325
:1036E00088E48093B80085E48093BC000895ECEBF7
:1036F000F0E080818A7B808360E084E10E94DB23AC
:1037000060E085E10C94DB23880F8093BA00089574
:103710009B01AC0160E074E284EF90E00E94D4363B
:10372000DA01C9014097A109B109B695A795979506
:1037300087958093B8000895413208F043C0909176
:103740006C089111FCCF91E090936C0820936A086B
:103750002FEF2093FF0710924408240F2093430873
:1037600090936B0890916B08880F892B80936B085E
:1037700080916908813061F41092690880916B082A
:103780008093BB008091BC0083FDF8CF85EC01C025
:1037900085EE8093BC0080916C088130E1F38091CC
:1037A0004408841710F440914408A5E4B8E0962F2B
:1037B000FB018E2F891B841718F48D918193F9CF0B
:1037C000842F089580E008950F93413208F04AC095
:1037D00090916C089111FCCF32E030936C0800930B
:1037E0006A083FEF3093FF07109244084093430864
:1037F000562FA5E4B8E0FB013E2F351B341718F413
:1038000031913D93F9CF10926B0830916B08880F7E
:10381000832B80936B0880916908813061F410924A
:10382000690880916B088093BB008091BC0083FD88
:10383000F8CF85EC01C085EE8093BC00222321F0F7
:1038400080916C088230D1F38091FF078F3F79F02F
:103850008091FF07803241F08091FF07803331F083
:1038600094E005C091E003C092E001C093E0892F8D
:103870000F91089540912108262F30E0240F311D2B
:1038800021323105DCF420916C082430C9F4FC01AC
:1038900080E090E0861758F4309121082191DC01F6
:1038A000AD5DB74FA30FB11D2C930196F3CF80915F
:1038B0002108680F6093210880E0089581E0089551
:1038C00082E0089590936608809365080895909328
:1038D0006808809367080895882311F085EC01C07B
:1038E00085E88093BC00089585ED8093BC008091AD
:1038F000BC0084FDFCCF10926C08089585EC809389
:10390000BC0010926C0808951F920F920FB60F9290
:1039100011240BB60F922F933F934F935F936F93A6
:103920007F938F939F93AF93BF93EF93FF93809178
:10393000B900887F803609F49EC078F5883209F492
:103940005DC090F4803109F456C038F4882309F43E
:10395000F5C0883009F44FC0F5C0883109F44EC075
:10396000803209F45FC0EEC0803409F46AC058F4B4
:10397000803309F457C0883309F0E4C08093FF070F
:103980000E947E1CDFC0803509F44FC0883509F4E1
:103990005DC0883409F0D6C0D3C0883909F4C4C0EA
:1039A000A8F4883709F467C038F4883609F463C08E
:1039B000803709F460C0C6C0883809F4B5C08039C2
:1039C00009F45FC0803809F0BDC05BC0803B09F4DA
:1039D00083C038F4803A09F466C0883A09F47CC0A0
:1039E000B1C0803C09F4A4C0883C09F4A1C0883B64
:1039F00009F487C0A7C080916B0810C0909144085B
:103A000080914308981770F5E091440881E08E0F8B
:103A100080934408F0E0EB5BF74F80818093BB001C
:103A200085EC83C08093FF078BC0E091440881E060
:103A30008E0F809344088091BB00F0E0EB5BF74F62
:103A4000808390914408809143086BC0E0914408C2
:103A500081E08E0F809344088091BB00F0E0EB5B27
:103A6000F74F808380916A0881116AC081E080935A
:103A7000690884EA5EC083E080936C0810920008B5
:103A8000CFCF80910008803208F04EC0E09100084E
:103A900081E08E0F809300088091BB00F0E0EF5F23
:103AA000F74F8083BDCF0E947E1C8091000880323A
:103AB00030F4E0910008F0E0EF5FF74F1082609182
:103AC000000870E0E0916508F091660881E098E0F8
:103AD00019951092000836C084E080936C0810920B
:103AE000220810922108E0916708F0916808199562
:103AF00080912108811105C081E0809321081092F6
:103B00002308E091220881E08E0F80932208F0E0E4
:103B1000ED5DF74F80818093BB00909122088091EA
:103B20002108981708F47CCF85E88093BC000AC070
:103B300085EC8093BC0010926C0804C01092FF07C3
:103B40000E94741CFF91EF91BF91AF919F918F9153
:103B50007F916F915F914F913F912F910F900BBE8D
:103B60000F900FBE0F901F9018950895883008F0A1
:103B700070C0A82FB0E0AA0FBB1FAF5FBD4F11965A
:103B80007C936E9390E0FC013197E730F105A0F54E
:103B90008827EE58FF4F8F4F0C941537809169009E
:103BA0008C7F482B40936900E89A089580916900C2
:103BB000837F440F551F440F551F482B40936900C6
:103BC000E99A0895809169008F7C74E0440F551F35
:103BD0007A95E1F7482B40936900EA9A089580911D
:103BE00069008F7366E0440F551F6A95E1F7482B13
:103BF00040936900EB9A089580916A008C7F482B6E
:103C000040936A00EC9A089580916A00837F440F84
:103C1000551F440F551F482B40936A00ED9A089595
:103C200080916A008F7C24E0440F551F2A95E1F7AC
:103C3000482B40936A00EE9A089580916A008F7332
:103C400096E0440F551F9A95E1F7482B40936A0080
:103C5000EF9A0895982F883030F5482F50E0FA01F8
:103C60003197E730F10570F48827E758FF4F8F4F01
:103C70000C941537E8980DC0E9980BC0EA9809C074
:103C8000EB9807C0EC9805C0ED9803C0EE9801C012
:103C9000EF98E92FF0E0EE0FFF1FEF5FFD4F85EB90
:103CA0009DE19183808308951F920F920FB60F922A
:103CB00011240BB60F922F933F934F935F936F9303
:103CC0007F938F939F93AF93BF93EF93FF93E09175
:103CD0000502F09106021995FF91EF91BF91AF9106
:103CE0009F918F917F916F915F914F913F912F9114
:103CF0000F900BBE0F900FBE0F901F9018951F9244
:103D00000F920FB60F9211240BB60F922F933F9381
:103D10004F935F936F937F938F939F93AF93BF93D3
:103D2000EF93FF93E0910702F09108021995FF913C
:103D3000EF91BF91AF919F918F917F916F915F9123
:103D40004F913F912F910F900BBE0F900FBE0F9090
:103D50001F9018951F920F920FB60F9211240BB659
:103D60000F922F933F934F935F936F937F938F9314
:103D70009F93AF93BF93EF93FF93E0910902F0916C
:103D80000A021995FF91EF91BF91AF919F918F9189
:103D90007F916F915F914F913F912F910F900BBE4B
:103DA0000F900FBE0F901F9018951F920F920FB695
:103DB0000F9211240BB60F922F933F934F935F9363
:103DC0006F937F938F939F93AF93BF93EF93FF93E3
:103DD000E0910B02F0910C021995FF91EF91BF91C8
:103DE000AF919F918F917F916F915F914F913F9193
:103DF0002F910F900BBE0F900FBE0F901F90189534
:103E00001F920F920FB60F9211240BB60F922F93A1
:103E10003F934F935F936F937F938F939F93AF9352
:103E2000BF93EF93FF93E0910102F0910202199585
:103E3000FF91EF91BF91AF919F918F917F916F9182
:103E40005F914F913F912F910F900BBE0F900FBE3E
:103E50000F901F9018951F920F920FB60F9211247A
:103E60000BB60F922F933F934F935F936F937F9374
:103E70008F939F93AF93BF93EF93FF93E0910302D0
:103E8000F09104021995FF91EF91BF91AF919F912D
:103E90008F917F916F915F914F913F912F910F90F3
:103EA0000BBE0F900FBE0F901F9018951F920F9290
:103EB0000FB60F9211240BB60F922F933F934F938F
:103EC0005F936F937F938F939F93AF93BF93EF9382
:103ED000FF93E0910D02F0910E021995FF91EF9181
:103EE000BF91AF919F918F917F916F915F914F9112
:103EF0003F912F910F900BBE0F900FBE0F901F9010
:103F000018951F920F920FB60F9211240BB60F92B5
:103F10002F933F934F935F936F937F938F939F93D1
:103F2000AF93BF93EF93FF93E0910F02F0911002D4
:103F30001995FF91EF91BF91AF919F918F917F91D3
:103F40006F915F914F913F912F910F900BBE0F900A
:103F50000FBE0F901F9018958091A10890E02091BE
:103F6000A208821B910908959091A2088091A1084E
:103F7000981750F4E92FF0E0ED55F74F208130E02D
:103F80009F5F9093A20802C02FEF3FEFC9010895F1
:103F9000E091A2088091A108E81730F4F0E0ED5517
:103FA000F74F808190E008958FEF9FEF0895089577
:103FB000CF93DF93EC01E0917908F0917A08309784
:103FC000F1F09091A2088091A1089817C0F090E0BC
:103FD000292F30E02617370754F4DE01A20FB31F54
:103FE0004C91D901AD55B74F4C939F5FF1CF1092D3
:103FF000A2086093A108CB01DF91CF911994DF91C2
:10400000CF910895E0917B08F0917C08309729F0DA
:1040100010927F0810927E0819940895CF92DF9233
:10402000EF92FF920F931F93CF93DF937C01CB010D
:104030008A0120917D08222389F0EB016B01C40ED7
:10404000D51ECC15DD0569F06991D701ED91FC9184
:104050000190F081E02DC7011995F3CF642F0E94E4
:104060003A1CC801DF91CF911F910F91FF90EF9003
:10407000DF90CF900895CF93DF931F92CDB7DEB737
:10408000698320917D082223D1F020917E0820327F
:1040900040F021E030E0FC013383228380E090E0B7
:1040A00015C080917F08E82FF0E0E058F74F998124
:1040B00090838F5F80937F0880937E0805C061E0C6
:1040C000CE0101960E943A1C81E090E00F90DF91B2
:1040D000CF910895FC011382128288EE93E0A0E054
:1040E000B0E084839583A683B78383E593E09183CF
:1040F000808308951092A2081092A10810927F0860
:1041000010927E080E94591B82E090E20E94671C78
:1041100088ED9FE10C94621CCF93C62F0E947A20F9
:104120008C2FCF910C94841B0C948C200C94771BB7
:10413000CB01BA010C94881B81E080937D086093C9
:10414000A00810927F0810927E0808950C949C207D
:104150000F93062F21E040917E0860E878E080917F
:10416000A0080E94E41B10927F0810927E08109213
:104170007D080F9108954F925F926F927F92AF9258
:10418000BF92CF92EF92FF920F931F93CF93DF9343
:104190005C01F62ED42F28013901EE2021F10E9476
:1041A0009C20CE2DC43008F0C3E0C150C0F028E000
:1041B000C29FC0011124A301920104C056954795E6
:1041C000379527958A95D2F7CA01B901D501ED91A6
:1041D000FC910190F081E02DC5011995E6CF60E0DA
:1041E000C5010E94A8204D2FD13208F040E22C2DAD
:1041F00063EA78E08F2D0E949C1B1092A2088093A6
:10420000A108DF91CF911F910F91FF90EF90CF9078
:10421000BF90AF907F906F905F904F900895CF9236
:10422000EF920F931F93C22EE12C00E010E0980153
:104230000E94BB201F910F91EF90CF90089521E035
:104240000C940F2121E00C940F210C940F2161E0BC
:104250000C94A82070937A0860937908089570935D
:104260007C0860937B0808951F920F920FB60F92FF
:1042700011242F933F938F939F93AF93BF9380917C
:10428000C3089091C408A091C508B091C6083091A8
:10429000CB0823E0230F2D3720F40196A11DB11D7B
:1042A00005C026E8230F0296A11DB11D2093CB085F
:1042B0008093C3089093C408A093C508B093C60820
:1042C0008091C7089091C808A091C908B091CA0808
:1042D0000196A11DB11D8093C7089093C808A093B3
:1042E000C908B093CA08BF91AF919F918F913F9138
:1042F0002F910F900FBE0F901F9018952FB7F89425
:104300006091C3087091C4088091C5089091C60857
:104310002FBF08953FB7F8948091C7089091C808BF
:10432000A091C908B091CA0826B5A89B05C02F3F27
:1043300019F00196A11DB11D3FBFBA2FA92F982FCB
:104340008827820F911DA11DB11DBC01CD0142E046
:10435000660F771F881F991F4A95D1F708958F928E
:104360009F92AF92BF92CF92DF92EF92FF926B013A
:104370007C010E948A214B015C01C114D104E1043B
:10438000F10401F10E9423070E948A21DC01CB0184
:1043900088199909AA09BB09883E9340A105B1056E
:1043A00060F321E0C21AD108E108F10888EE880E16
:1043B00083E0981EA11CB11CC114D104E104F104D6
:1043C00019F7DBCFFF90EF90DF90CF90BF90AF90C9
:1043D0009F908F9008958230910538F0880F991F33
:1043E000880F991F05970197F1F70895789484B580
:1043F000826084BD84B5816084BD85B5826085BDE1
:1044000085B5816085BDEEE6F0E0808181608083C6
:10441000E1E8F0E0108280818260808380818160A9
:104420008083E0E8F0E0808181608083E1EBF0E070
:10443000808184608083E0EBF0E080818160808314
:10444000E1E9F0E080818260808380818160808307
:10445000E0E9F0E0808181608083E1EAF0E0808142
:1044600082608083808181608083E0EAF0E08081E7
:1044700081608083E1E2F1E08081826080838081DD
:1044800081608083E0E2F1E0808181608083EAE7FF
:10449000F0E080818460808380818260808380817D
:1044A000816080838081806880831092C10008953C
:1044B000809311020895863308F0865390917B0013
:1044C000282F2870977F922B90937B0020911102C8
:1044D00090E4299F900111248770822B80937C00A7
:1044E00080917A00806480937A0080917A0086FDC2
:1044F000FCCF809178002091790090E0922B089574
:104500001F93CF93DF93182FEB0161E00E949F234D
:10451000209711F460E004C0CF3FD10539F461E089
:10452000812FDF91CF911F910C94DB23E12FF0E0DD
:10453000EE52FC4FE4918E2F90E0FC013197E23176
:10454000F10508F09DC08827E058FF4F8F4F0C946D
:10455000153784B5806884BDC7BD97C084B58062B7
:1045600084BDC8BD92C08091800080688093800027
:10457000D0938900C093880088C0809180008062B9
:1045800080938000D0938B00C0938A007EC080917E
:104590008000886080938000D0938D00C0938C0051
:1045A00074C08091B00080688093B000C093B30065
:1045B0006CC08091B00080628093B000C093B40062
:1045C00064C080919000806880939000D09399009F
:1045D000C09398005AC080919000806280939000B0
:1045E000D0939B00C0939A0050C080919000886047
:1045F00080939000D0939D00C0939C0046C0809112
:10460000A00080688093A0008091A0008F7B8093A1
:10461000A000D093A900C093A80037C08091A0004B
:1046200080628093A000D093AB00C093AA002DC0FD
:104630008091A00088608093A000D093AD00C093CB
:10464000AC0023C080912001806880932001D0932A
:104650002901C093280119C08091200180628093B4
:104660002001D0932B01C0932A010FC0809120011B
:10467000886080932001D0932D01C0932C0105C048
:10468000C038D1050CF04BCF45CFDF91CF911F91B2
:10469000089590E0FC013197E231F10508F04EC039
:1046A0008827EE56FF4F8F4F0C941537809180006E
:1046B0008F7703C0809180008F7D80938000089564
:1046C00080918000877FF9CF84B58F7702C084B551
:1046D0008F7D84BD08958091B0008F7703C0809155
:1046E000B0008F7D8093B0000895809190008F7707
:1046F00007C0809190008F7D03C080919000877FDC
:104700008093900008958091A0008F7707C08091DA
:10471000A0008F7D03C08091A000877F8093A000C0
:104720000895809120018F7707C0809120018F7DAF
:1047300003C080912001877F809320010895CF934B
:10474000DF9390E0FC01E85EFB4F2491FC01E25A0C
:10475000FB4F8491882361F190E0880F991FFC0141
:10476000E852FB4FC591D491FC01E254FB4FA59157
:10477000B491611109C09FB7F89488812095822374
:104780008883EC912E230BC0623061F49FB7F894BC
:104790008881322F309583238883EC912E2B2C93A4
:1047A0009FBF06C08FB7F894E8812E2B28838FBF58
:1047B000DF91CF9108951F93CF93DF93282F30E09F
:1047C000F901EE52FC4F8491F901E85EFB4FD49160
:1047D000F901E25AFB4FC491CC23C1F0162F81118D
:1047E0000E944923EC2FF0E0EE0FFF1FE254FB4F35
:1047F000A591B4919FB7F894111104C08C91D095F4
:10480000D82302C0EC91DE2BDC939FBFDF91CF91C8
:104810001F910895CF93DF93282F30E0F901EE52D6
:10482000FC4F8491F901E85EFB4FD491F901E25A03
:10483000FB4FC491CC2391F081110E944923EC2FAE
:10484000F0E0EE0FFF1FEC55FB4FA591B491EC91FA
:10485000ED2381E090E021F480E002C080E090E070
:10486000DF91CF9108954F925F926F927F928F92D6
:104870009F92AF92BF92CF92DF92EF92FF920F93EF
:104880001F93CF93DF9349015A0190E0FC01E85E4A
:10489000FB4F1491FC01E25AFB4FC491662311F0C7
:1048A000012F01C000E00E948A216B017C01D0E051
:1048B000CC0FDD1FCC55DB4FFE01A591B4918C913F
:1048C000812308131EC00E948A21DC01CB018C19B0
:1048D0009D09AE09BF0988169906AA06BB0660F7AE
:1048E00060E070E0CB0133C00E948A21DC01CB0183
:1048F0008C199D09AE09BF0988169906AA06BB0640
:1049000078F3FE01A591B4918C9181230813ECCF2B
:104910000E948A212B013C01FE01A591B4918C914A
:10492000812308130EC00E948A21DC01CB018C195F
:104930009D09AE09BF0988169906AA06BB0660F74D
:10494000CFCF0E948A216419750986099709DF91E2
:10495000CF911F910F91FF90EF90DF90CF90BF907C
:10496000AF909F908F907F906F905F904F90089541
:10497000CF92DF92EF92FF920F931F93FC01808101
:10498000862384130BC00150110921093109B9F79D
:104990001EC00150110921093109C9F08081862307
:1049A0004813F7CFC12CD12C76019081962349135F
:1049B0000BC08FEFC81AD80AE80AF80A0C151D05B3
:1049C0002E053F0591F703C0B601C70104C060E0A2
:1049D00070E080E090E01F910F91FF90EF90DF90EA
:1049E000CF9008950F931F9390E0FC01E85EFB4F7A
:1049F0007491FC01E25AFB4FE491662311F0672F9A
:104A000001C060E0F0E0EE0FFF1FEC55FB4F859119
:104A1000949189019A013F70462F672F0E94B82414
:104A2000611571058105910549F0DC01CB01019605
:104A3000A11DB11DBC01CD019F7003C060E070E0FD
:104A4000CB011F910F910895CF92DF92EF92FF92C9
:104A50000F931F93CF93DF93F82ED62FE42E07E00A
:104A600010E0C0E087E0C82ED12C61E08D2F0E94BD
:104A7000DB238F2DE1100AC00E940A249601201B1F
:104A8000310B01C0880F2A95EAF707C00E940A245B
:104A9000002E01C0880F0A94EAF7C82B60E08D2F22
:104AA0000E94DB230150110900F78C2FDF91CF9179
:104AB0001F910F91FF90EF90DF90CF900895BF92DC
:104AC000CF92DF92EF92FF920F931F93CF93DF93DA
:104AD000C82ED62EB42EC7E0D0E0022F10E087E01B
:104AE000E82EF12CB11005C0C7018C1B9D0BB8013D
:104AF00002C0B8018C2F02C0759567958A95E2F7C0
:104B000061708C2D0E94DB2361E08D2D0E94DB23E0
:104B100060E08D2D0E94DB23219720F7DF91CF915C
:104B20001F910F91FF90EF90DF90CF90BF9008956D
:104B3000611571058105910511F00C944D3B0895A7
:104B4000CF92DF92EF92FF92611571058105910579
:104B500049F06B017C010E94FF3AA70196010E9477
:104B6000F63603C060E070E0CB01FF90EF90DF907D
:104B7000CF900895CF92DF92EF92FF920F931F9301
:104B8000621773078407950784F489019A016B0102
:104B90007C01C901B8016C197D098E099F090E9429
:104BA000A0256C0D7D1D8E1D9F1D1F910F91FF90E7
:104BB000EF90DF90CF9008954F925F926F927F9227
:104BC000AF92BF92CF92DF92EF92FF920F931F931B
:104BD000CF93DF93CDB7DEB729013A019B01AC013A
:104BE00024193509460957098A899B89AC89BD89E9
:104BF000BC01CD016A197B098C099D090E94B83658
:104C0000A801970124193509460957090E94F6366B
:104C1000CA01B9016A0D7B1D8C1D9D1DDF91CF91CD
:104C20001F910F91FF90EF90DF90CF90BF90AF90CA
:104C30007F906F905F904F900895089570E09B0172
:104C4000382BC9010895FC01808191810C942B3A85
:104C5000CF93DF93EC0188819981009711F00E9436
:104C60002B3A198218821D821C821B821A82DF91C4
:104C7000CF9108950F931F93CF93DF93EC018B0196
:104C80006F5F7F4F888199810E94563B009731F07A
:104C9000998388831B830A8381E001C080E0DF91D0
:104CA000CF911F910F910895CF93DF93EC018881ED
:104CB0009981892B29F08A819B818617970760F457
:104CC000CE010E943A26882341F08C819D81892B58
:104CD00019F4E881F981108281E0DF91CF91089584
:104CE000EF92FF920F931F93CF93DF93EC017B0121
:104CF0008A01BA010E945426811104C0CE010E948B
:104D0000282607C01D830C83B701888199810E94E2
:104D1000D03CCE01DF91CF911F910F91FF90EF908A
:104D20000895FC011182108213821282158214826E
:104D30006115710551F0FB0101900020E9F73197F1
:104D4000AF01461B570B0C9470260895EF92FF920B
:104D50000F931F93CF93DF93EC017B018A01BA017C
:104D60000E945426811104C0CE010E94282607C04B
:104D70001D830C83B701888199810E94843CCE01F8
:104D8000DF91CF911F910F91FF90EF900895CF93F6
:104D9000DF93EC01FB018617970761F06081718159
:104DA0006115710529F0448155810E94702602C069
:104DB0000E942826CE01DF91CF910895FC01118237
:104DC000108213821282158214820C94C726CF930C
:104DD000DF93EC016115710559F0FB010190002092
:104DE000E9F73197AF01461B570B0E94702602C0AE
:104DF0000E942826CE01DF91CF910895CF93DF93B3
:104E00001F921F92CDB7DEB7FC0111821082138270
:104E100012821582148269831A82BE016F5F7F4FEE
:104E20000E94E7260F900F90DF91CF9108950F9386
:104E30001F93CF93DF93CDB7DEB729970FB6F894C2
:104E4000DEBF0FBECDBF8C01862FF801118210820C
:104E5000138212821582148250E0BE016F5F7F4F71
:104E600090E00E948B3DBE016F5F7F4FC8010E94A2
:104E7000E72629960FB6F894DEBF0FBECDBFDF91AF
:104E8000CF911F910F9108950F931F93CF93DF93AD
:104E9000CDB7DEB762970FB6F894DEBF0FBECDBFB9
:104EA0008C01CB01F80111821082138212821582CB
:104EB000148250E0BE016F5F7F4F0E94193DBE011A
:104EC0006F5F7F4FC8010E94E72662960FB6F89485
:104ED000DEBF0FBECDBFDF91CF911F910F9108951F
:104EE0000F931F93CF93DF93CDB7DEB761970FB6C4
:104EF000F894DEBF0FBECDBF8C01CB01F80111824B
:104F00001082138212821582148250E0BE016F5FFC
:104F10007F4F0E948B3DBE016F5F7F4FC8010E9493
:104F2000E72661960FB6F894DEBF0FBECDBFDF91C6
:104F3000CF911F910F9108950F931F93CF93DF93FC
:104F4000CDB7DEB7A2970FB6F894DEBF0FBECDBFC8
:104F50008C01CB01BA01F8011182108213821282F6
:104F60001582148230E0AE014F5F5F4F0E942F3DEB
:104F7000BE016F5F7F4FC8010E94E726A2960FB661
:104F8000F894DEBF0FBECDBFDF91CF911F910F917F
:104F900008950F931F93CF93DF93CDB7DEB7A197FB
:104FA0000FB6F894DEBF0FBECDBF8C01CB01BA01A6
:104FB000F80111821082138212821582148230E06D
:104FC000AE014F5F5F4F0E945E3DBE016F5F7F4F3E
:104FD000C8010E94E726A1960FB6F894DEBF0FBE67
:104FE000CDBFDF91CF911F910F910895EF92FF9266
:104FF0000F931F93CF93DF93CDB7DEB7A1970FB673
:10500000F894DEBF0FBECDBF7C01CB01BA01F70122
:1050100011821082138212821582148242E0420FA2
:105020008E010F5F1F4F0E947339BC01C7010E94A0
:10503000E726A1960FB6F894DEBF0FBECDBFDF9175
:10504000CF911F910F91FF90EF900895EF92FF92F3
:105050000F931F93CF93DF93CDB7DEB7A1970FB612
:10506000F894DEBF0FBECDBF7C01CB01BA01F701C2
:1050700011821082138212821582148242E0420F42
:105080008E010F5F1F4F0E947339BC01C7010E9440
:10509000E726A1960FB6F894DEBF0FBECDBFDF9115
:1050A000CF911F910F91FF90EF9008950F931F9351
:1050B000CF93DF93EC018B016115710549F0CB01B2
:1050C0000E948B3CAC01B801CE010E94A62602C012
:1050D0000E942826CE01DF91CF911F910F91089554
:1050E000FC011182108213821282158214820C94A8
:1050F0005628EF92FF920F931F93CF93DF93611582
:10510000710511F480E01CC041155105C1F07B010F
:10511000EC018C819D818A01080F191FB801CE0115
:105120000E945426882371F3288139818C819D81C6
:10513000B701820F931F0E94D03C1D830C8381E036
:10514000DF91CF911F910F91FF90EF900895FB0198
:1051500044815581608171810C94792861157105B4
:1051600051F0FB0101900020E9F73197AF01461B98
:10517000570B0C94792880E00895CF93DF931F920A
:105180001F92CDB7DEB769831A8241E050E0BE01BD
:105190006F5F7F4F0E9479280F900F90DF91CF9122
:1051A0000895EF92FF920F931F93CF93DF9300D058
:1051B0001F92CDB7DEB77C01862F4AE050E08E010A
:1051C0000F5F1F4FB80190E00E94193DF801019058
:1051D0000020E9F73197AF01401B510BB801C7011F
:1051E0000E9479280F900F900F900F90DF91CF9130
:1051F0001F910F91FF90EF900895EF92FF920F9300
:105200001F93CF93DF93CDB7DEB728970FB6F894EF
:10521000DEBF0FBECDBF7C01CB014AE050E08E0166
:105220000F5F1F4FB8010E94193DF8010190002047
:10523000E9F73197AF01401B510BB801C7010E943C
:10524000792828960FB6F894DEBF0FBECDBFDF9148
:10525000CF911F910F91FF90EF900895EF92FF92E1
:105260000F931F93CF93DF93CDB7DEB727970FB67A
:10527000F894DEBF0FBECDBF7C01CB014AE050E009
:105280008E010F5F1F4FB8010E948B3DF801019006
:105290000020E9F73197AF01401B510BB801C7015E
:1052A0000E94792827960FB6F894DEBF0FBECDBFB7
:1052B000DF91CF911F910F91FF90EF900895EF92A2
:1052C000FF920F931F93CF93DF93CDB7DEB72E9747
:1052D0000FB6F894DEBF0FBECDBF7C01CB01BA0183
:1052E0002AE030E08E010F5F1F4FA8010E942F3D82
:1052F000F80101900020E9F73197AF01401B510BF5
:10530000B801C7010E9479282E960FB6F894DEBF27
:105310000FBECDBFDF91CF911F910F91FF90EF9006
:105320000895EF92FF920F931F93CF93DF93CDB722
:10533000DEB72D970FB6F894DEBF0FBECDBF7C0150
:10534000CB01BA012AE030E08E010F5F1F4FA801A8
:105350000E945E3DF80101900020E9F73197AF010E
:10536000401B510BB801C7010E9479282D960FB63A
:10537000F894DEBF0FBECDBFDF91CF911F910F918B
:10538000FF90EF900895EF92FF920F931F93CF93AA
:10539000DF93CDB7DEB764970FB6F894DEBF0FBECC
:1053A000CDBF7C01CB01BA018E010F5F1F4F22E000
:1053B00044E00E947339FC0101900020E9F7319725
:1053C000AF01481B590BBC01C7010E9479286496A4
:1053D0000FB6F894DEBF0FBECDBFDF91CF911F9106
:1053E0000F91FF90EF900895EF92FF920F931F930C
:1053F000CF93DF93CDB7DEB764970FB6F894DEBFD7
:105400000FBECDBF7C01CB01BA018E010F5F1F4FD4
:1054100022E044E00E947339FC0101900020E9F78A
:105420003197AF01481B590BBC01C7010E94792875
:1054300064960FB6F894DEBF0FBECDBFDF91CF915B
:105440001F910F91FF90EF900895EF92FF920F93AD
:105450001F93CF93DF936115710511F480E01EC097
:105460008B01EC01CB010E948B3C0097B1F02C81A9
:105470003D817C01E20EF31EB701CE010E9454264D
:10548000882361F3288139818C819D81B801820F45
:10549000931F0E94843CFD82EC8281E0DF91CF91DA
:1054A0001F910F91FF90EF900895CF93DF93EC0140
:1054B000FB0144815581608171810E9479288111AD
:1054C00003C0CE010E942826CE01DF91CF9108951E
:1054D000CF93DF93EC016115710561F0FB01019041
:1054E0000020E9F73197AF01461B570B0E9479283E
:1054F000811103C0CE010E942826CE01DF91CF91F9
:105500000895CF93DF93EC010E94BD28811103C061
:10551000CE010E942826CE01DF91CF910895CF932E
:10552000DF93EC010E94D128811103C0CE010E94BB
:105530002826CE01DF91CF910895CF93DF93EC0120
:105540000E94FD28811103C0CE010E942826CE01B1
:10555000DF91CF910895CF93DF93EC010E942E2924
:10556000811103C0CE010E942826CE01DF91CF9188
:105570000895CF93DF93EC010E945F29811103C04E
:10558000CE010E942826CE01DF91CF910895CF93BE
:10559000DF93EC010E949129811103C0CE010E948A
:1055A0002826CE01DF91CF910895CF93DF93EC01B0
:1055B0000E94C329811103C0CE010E942826CE017A
:1055C000DF91CF910895CF93DF93EC010E94F429EE
:1055D000811103C0CE010E942826CE01DF91CF9118
:1055E0000895CF93DF93EC010E94252A811103C017
:1055F000CE010E942826CE01DF91CF910895CF934E
:10560000DF93DC01ED91FC91EB01A881B98130972A
:1056100011F01097C9F4109759F0EB012C813D81DE
:10562000232B31F08C9190E091958195910914C0D4
:10563000309781F0DC0114968D919C911597892B00
:1056400049F0808190E008C0BD01CF01DF91CF918A
:105650000C94C73C80E090E0DF91CF910895FC016D
:1056600044815581FB01248135814217530729F478
:105670000E94FF2A21E0892B09F020E0822F089563
:10568000FC0124813581232B31F421E06115710562
:10569000A1F0FB0108C0FC018081918161157105B9
:1056A00031F421E0FC018081882339F005C00E949B
:1056B000C73C21E0892B09F020E0822F08950E9449
:1056C000FF2A892F881F8827881F08950E94FF2A94
:1056D00021E0181619060CF020E0822F08950E9490
:1056E000FF2A21E0181619060CF420E0822F0895F5
:1056F0000E94FF2A892F8095881F8827881F089578
:10570000EF92FF920F931F93CF93DF938617970724
:1057100031F1FC0124813581FB014481558124173D
:105720003507D9F4232BD9F0DC010D911C91C081F0
:10573000D181F80181918F01882389F0082E000C16
:10574000990B0E94743C7C018991082E000C990BE6
:105750000E94743CE816F90661F380E001C081E024
:10576000DF91CF911F910F91FF90EF900895DB0192
:105770001496ED91FC911597DC0114962D913C91B6
:1057800015972E1B3F0B24173507A0F02D913C9148
:105790002115310579F0DB016D917C916115710561
:1057A00049F0CA01AF01820F931F0E94D73C21E04C
:1057B000892B09F020E0822F0895FC014481558156
:1057C000FB01248135814217530720F040E050E06F
:1057D0000C94B72B80E00895FC0124813581FB01F6
:1057E0004481558124173507A0F0FC018081918107
:1057F000009779F0FB01608171816115710549F0B5
:10580000241B350B820F931F0E94C73C21E0892B7C
:1058100009F020E0822F0895FC0124813581621770
:10582000730730F480819181FC01E60FF71F4083FC
:105830000895FC01248135816217730720F480816B
:105840009181009729F41092CC088CEC98E008958F
:10585000860F971F0895FC01248135816217730715
:1058600048F480819181009729F0FC01E60FF71F31
:105870008081089580E008950C942B2C0F931F9342
:10588000CF93DF934115510519F16115710501F1B0
:10589000DC011496ED91FC9115972E173F0718F037
:1058A000FB01108215C0E21BF30BEA012197EC17F4
:1058B000FD0708F4EF018B01FC0160817181620F2B
:1058C000731FAE01C8010E94E53CC00FD11F1882B2
:1058D000DF91CF911F910F910895CF93DF93FC013A
:1058E000248135814217530778F4C081D181062E77
:1058F000000C770BCE01840F951F0E94BC3C0097D3
:1059000019F08C1B9D0B02C08FEF9FEFDF91CF91A1
:10591000089540E050E00C946D2CCF93DF93FC0190
:10592000248135814217530780F4FB01DC01CD91BE
:10593000DC9160817181CE01840F951F0E94FF3C34
:10594000009719F08C1B9D0B02C08FEF9FEFDF912A
:10595000CF91089540E050E00C948D2CDF92EF92AF
:10596000FF920F931F93CF93DF93DC0114962D9139
:105970003C9115974217530718F08FEF9FEF1DC00A
:105980008C01EA012196DC01ED91FC911197EC0F5D
:10599000FD1FD0801082ED90FC90062E000C770B3E
:1059A000C7010E94F43CCE0DDF1DD882009729F379
:1059B000F80120813181821B930BDF91CF911F91E0
:1059C0000F91FF90EF90DF900895FC014481558185
:1059D000415051090C94AE2CAF92BF92CF92DF92FE
:1059E000EF92FF920F931F93CF93DF937B018A0176
:1059F000FB01448155814115510561F1FC01248170
:105A000035812115310531F12417350718F10217B9
:105A1000130718F0890101501109FC01A080B18021
:105A2000C501DFEFCFEF6501C00ED11EC816D90644
:105A3000A0F0F701608171810E94FF3C009769F03E
:105A40009C012A193B090217130710F0D22FC32F0C
:105A50000196ECCF8FEF9FEF02C08D2F9C2FDF912F
:105A6000CF911F910F91FF90EF90DF90CF90BF905B
:105A7000AF900895FC0144815581FB01248135815B
:105A8000421B530B0C94EC2CBF92CF92DF92EF92FF
:105A9000FF920F931F93CF93DF937C016B018A01D9
:105AA000E9012417350720F4812F8901C42FD82F4D
:105AB00067E873E0C7010E949126D60114968D9184
:105AC0009C91159708171907C8F48C179D0708F4BF
:105AD000EC01D601ED91FC911197EC0FFD1FB08008
