:100000000C9463020C9445160C9470160C949B1679
:100010000C94C6160C94F1160C941C170C944717EC
:100020000C9472170C9494020C9494020C94940205
:100030000C9494020C9446150C9494020C94940223
:100040000C9494020C9494020C9494020C949402D8
:100050000C9494020C9494020C9494020C949D17AA
:100060000C9494020C945F050C9495050C949402E6
:100070000C9494020C9494020C9494020C949402A8
:100080000C9494020C9494020C9494020C94940298
:100090000C94C9050C94FF050C9494020C949402E2
:1000A0000C9494020C9494020C9494020C94940278
:1000B0000C9494020C9494020C9494020C94940268
:1000C0000C9494020C9494020C9494020C943306B5
:1000D0000C9469060C9494020C949D060C94D3061F
:1000E0000C949402F515BF15C715D315E01501162C
:1000F0000E1635162B162D162F16311637163916E5
:10010000121917191C1926193019A9193A19421967
:100110004A1954195E19681977198119A9198B1987
:1001200095199F19CD19D019BF19C319C919071AE3
:10013000D419D819DE19E219E619EC19F019F419D5
:10014000071AFA19FE19021A0C9442190C94F419A0
:100150000C9426280C94E7030C94D9030C94EC1906
:100160000C9481190C9426190C949F190C94D41991
:100170000C9437160C94071A0C94021A0C9401165E
:100180000C94F5150C94BF050C94C7150C945E19CE
:100190000C9496020C94540B0C94C3190C9477197C
:1001A0000C9431160C94C4270C9429060C946627E1
:1001B0000C94BF150C94BF190C941F280C9469045F
:1001C0000C942D160C9417190C9422280C94D01909
:1001D0000C9468190C941C190C94B6040C94F01926
:1001E0000C94E6190C9412190C94DE190C94FE1957
:1001F0000C94FA190C9435160C94A6150C94080757
:100200000C946A270C94D3150C94E2190C94A91938
:100210000C940A040C94CD190C9495190C9454194F
:100220000C94C9190C942B160C9497270C94301924
:100230000C9469270C94D8190C9493060C94E0152F
:100240000C94FB030C94F1270C94FD060C943A19C2
:100250000C944A190C9439160C948B190C94CD03F8
:100260000C942F160C940E164E414E494E4954597B
:10027000494E46CDCCCC3D0AD7233C17B7D1387771
:10028000CC2B329595E6241FB14F0A000020410087
:1002900000C84200401C4620BCBE4CCA1B0E5AAED1
:1002A000C59D7400407A10F35A00A0724E180900E0
:1002B00010A5D4E80000E87648170000E40B5402CB
:1002C0000000CA9A3B000000E1F505000080969806
:1002D00000000040420F000000A086010000001056
:1002E0002700000000E80300000000640000000098
:1002F000000A00000000000100000000002C76D879
:1003000088DC674F0823DFC1DFAE59E1B1B796E55E
:10031000E3E453C63AE651997696E8E6C28426EBC2
:10032000898C9B62ED407C6FFCEFBC9C9F40F2BAD5
:10033000A56FA5F490055A2AF75C936B6CF9676D6D
:10034000C11BFCE0E40D47FEF520E6B500D0ED90C2
:100350002E0300943577050080841E080000204E8F
:100360000A000000C80C333333330F986E12831128
:1003700041EF8D2114893BE65516CFFEE6DB18D1FF
:10038000844B381BF77C1D901DA4BBE424203284D1
:10039000725E228100C9F124ECA1E53D2702000034
:1003A0000A0B02090C0D0E080703040100000000EF
:1003B000000000000000000000000000000000003D
:1003C00000000000000000000000121110000000FA
:1003D000000000000000000000000000000000001D
:1003E000000000000102102020080810204010200A
:1003F00040800201020108040201010204081020E9
:1004000040808040201008040201800402018040E6
:10041000201008040201080402010102040810204F
:1004200040800102040810204080050505050705ED
:1004300008080808020202020A0A08080404040460
:10044000010101010101010103030303030303038C
:10045000040707070C0C0C0C0C0C0C0C020202021B
:1004600006060606060606060B0B0B0B0B0B0B0B04
:10047000000020002300260029002C002F0032005D
:10048000000100000301060109010000220025000F
:1004900028002B002E00310034000201000005016D
:1004A00008010B0100002100240027002A002D0074
:1004B0003000330001010000040107010A016A272E
:1004C0009727C427F12711241FBECFEFD1E2DEBF4B
:1004D000CDBF00E00CBF13E0A0E0B2E0E0E4FCE63A
:1004E00000E00BBF02C007900D92AC33B107D9F703
:1004F00026E0ACE3B3E001C01D92A034B207E1F7FF
:1005000012E0C3E6D2E000E006C021970109802F87
:10051000FE010E94A728CF35D10780E00807A9F780
:100520000E942A280C941E360C9400000E94CD2DA7
:100530000E94CD2D4F925F926F927F929F92AF92C9
:10054000BF92CF92DF92EF92FF920F931F93CF93C0
:10055000DF938C01C62FFC0110861186128613864C
:10056000148661E08C2F0E94081A60E08C2F0E9494
:10057000441A64E170E080E090E00E94181861E0A5
:100580008C2F0E94441A88E290E00E94541860E088
:100590008C2F0E94081A51E1E52E57E2F52E8C2F80
:1005A0000E94731A892B39F4F1E0EF1AF108B9F7B8
:1005B0008EEF9FEF5BC041E1E42E47E2F42E8C2FDB
:1005C0000E94731A019729F481E0E81AF108B9F73B
:1005D000EFCF28E2E22EF12C912CD7E0AA24A394AD
:1005E000B12C91E1C92E97E2D92E8C2F0E94731A5B
:1005F000892B29F4E1E0CE1AD108B9F7D9CF0E94AE
:10060000F3172B013C0181E1C82E87E2D82E8C2FF5
:100610000E94731A019729F4F1E0CF1AD108B9F7B3
:10062000C7CF0E94F317DC01CB0184199509A609F5
:10063000B7098997A105B10560F0F801E90DF11D31
:100640002085C5010D2E01C0880F0A94EAF7822B80
:100650008087D11103C09394D7E001C0D15081E0CD
:10066000E81AF10809F0BDCF80E090E0DF91CF916A
:100670001F910F91FF90EF90DF90CF90BF90AF90C0
:100680009F907F906F905F904F9008950F931F936E
:10069000CF93DF93EC010E949A02009709F5088539
:1006A000602F70E080E090E00E94DC29688379830D
:1006B0008A839B831A85612F70E080E090E00E941E
:1006C000DC296C837D838E839F83100F81E090E013
:1006D0002C85121302C080E090E0919581959109DC
:1006E000DF91CF911F910F9108950F931F93CF9397
:1006F000DF93EC010E949A02009709F049C06985D6
:1007000088850E94871CBC0180E090E00E94DC2963
:100710002DEC3CEC4CEC5DE30E94932A68837983DA
:100720008A839B838A8587FF05C08F778A870FEF2F
:100730001FEF02C001E010E06B858A850E94871CD4
:100740009C01029FC001039F900D129F900D1124E8
:10075000BC0180E090E00E94DC292DEC3CEC4CECEC
:100760005DE30E94932A6C837D838E839F8328851B
:100770008985280F8A85280F8B85280F81E090E0D6
:100780003C85231302C080E090E09195819591090A
:10079000DF91CF911F910F910895FC01918D228DD2
:1007A000892F90E0805C9F4F821B91098F7399275E
:1007B0000895FC01918D828D981731F0828DE80F9C
:1007C000F11D858D90E008958FEF9FEF0895FC0156
:1007D000918D828D981761F0828DDF01A80FB11D78
:1007E0005D968C91928D9F5F9F73928F90E008959C
:1007F0008FEF9FEF0895FC01538D448D252F30E03E
:10080000842F90E0821B930B541710F0CF9608951D
:10081000019708958FEB95E0892B41F080E090E0FF
:10082000892B21F00E94BF05811125C089E296E045
:10083000892B41F080E090E0892B21F00E9429066D
:1008400081111CC083E996E0892B41F080E090E0A3
:10085000892B21F00E949306811113C08DEF96E041
:10086000892BA1F080E090E0892B81F00E94FD06A9
:1008700081110AC008950E940000D8CF0E94000094
:10088000E1CF0E940000EACF0C9400000895FC0123
:10089000848DDF01A80FB11DA35ABF4F2C91848D09
:1008A00090E001968F739927848FA689B7892C933E
:1008B000A089B1898C91837080648C93938D848D91
:1008C000981306C00288F389E02D80818F7D808394
:1008D0000895EF92FF920F931F93CF93DF93EC0154
:1008E00081E0888F9B8D8C8D981305C0E889F989EC
:1008F000808185FD26C0F62E0B8D10E00F5F1F4F07
:100900000F731127E02E8C8DE8120CC00FB607FC78
:10091000FACFE889F989808185FFF5CFCE010E9461
:100920004704F1CF8B8DFE01E80FF11DE35AFF4F15
:10093000F0829FB7F8940B8FEA89FB8980818062EF
:100940000AC09FB7F894EE89FF896083E889F98926
:1009500080818370806480839FBF81E090E0DF911D
:10096000CF911F910F91FF90EF900895CF93DF9358
:10097000EC01888D8823C9F0EA89FB89808185FD97
:1009800005C0A889B9898C9186FD0FC00FB607FCF8
:10099000F5CF808185FFF2CFA889B9898C9185FF39
:1009A000EDCFCE010E944704E7CFDF91CF910895AC
:1009B000CF92DF92EF92FF921F93CF93DF93EC01E0
:1009C0006A017B01122FE889F98982E08083411551
:1009D000514E61057105B1F060E079E08DE390E082
:1009E000A70196010E946628DA01C9010197A109B1
:1009F000B109B695A795979587959C01211580E13A
:100A00003807A8F0E889F989108260E874E88EE177
:100A100090E0A70196010E946628DA01C9010197BA
:100A2000A109B109B695A795979587959C01EC8585
:100A3000FD853083EE85FF852083188EEC89FD8946
:100A40001083EA89FB89808180618083EA89FB8940
:100A5000808188608083EA89FB89808180688083C7
:100A6000EA89FB8980818F7D8083DF91CF911F91FF
:100A7000FF90EF90DF90CF900895CF93DF93EC013C
:100A8000E881F9810680F781E02D1995EA89FB89D3
:100A900080818F7E8083EA89FB898081877F808344
:100AA000EA89FB8980818F778083EA89FB8980814D
:100AB0008F7D80838A8D898FDF91CF9108951F92DA
:100AC0000F920FB60F9211240BB60F922F938F93A4
:100AD0009F93EF93FF93E0914C03F0914D0380813E
:100AE000E0915203F091530382FD12C090818091F6
:100AF00055038F5F8F7320915603821751F0E09159
:100B00005503F0E0E45CFC4F958F8093550301C0E2
:100B10008081FF91EF919F918F912F910F900BBE4C
:100B20000F900FBE0F901F9018951F920F920FB647
:100B30000F9211240BB60F922F933F934F935F9315
:100B40006F937F938F939F93AF93BF93EF93FF9395
:100B50008CE393E00E944704FF91EF91BF91AF9126
:100B60009F918F917F916F915F914F913F912F91C5
:100B70000F900BBE0F900FBE0F901F9018958CE337
:100B800093E00E94CD0321E0892B09F420E0822F1D
:100B900008951F920F920FB60F9211240BB60F9269
:100BA0002F938F939F93EF93FF93E091E903F0913D
:100BB000EA038081E091EF03F091F00382FD12C01F
:100BC00090818091F2038F5F8F732091F3038217DE
:100BD00051F0E091F203F0E0E752FC4F958F8093E3
:100BE000F20301C08081FF91EF919F918F912F912E
:100BF0000F900BBE0F900FBE0F901F9018951F9275
:100C00000F920FB60F9211240BB60F922F933F93B2
:100C10004F935F936F937F938F939F93AF93BF9304
:100C2000EF93FF9389ED93E00E944704FF91EF91CA
:100C3000BF91AF919F918F917F916F915F914F91F4
:100C40003F912F910F900BBE0F900FBE0F901F90F2
:100C5000189589ED93E00E94CD0321E0892B09F4DA
:100C600020E0822F08951F920F920FB60F92112449
:100C70000BB60F922F938F939F93EF93FF93E09177
:100C80008604F09187048081E0918C04F0918D04BA
:100C900082FD12C0908180918F048F5F8F732091AD
:100CA0009004821751F0E0918F04F0E0EA58FB4F76
:100CB000958F80938F0401C08081FF91EF919F9168
:100CC0008F912F910F900BBE0F900FBE0F901F9022
:100CD00018951F920F920FB60F9211240BB60F9218
:100CE0002F933F934F935F936F937F938F939F9334
:100CF000AF93BF93EF93FF9386E794E00E9447047E
:100D0000FF91EF91BF91AF919F918F917F916F91E3
:100D10005F914F913F912F910F900BBE0F900FBE9F
:100D20000F901F90189586E794E00E94CD0321E074
:100D3000892B09F420E0822F08951F920F920FB69D
:100D40000F9211240BB60F922F938F939F93EF93D3
:100D5000FF93E0912305F09124058081E09129051E
:100D6000F0912A0582FD12C0908180912C058F5F41
:100D70008F7320912D05821751F0E0912C05F0E042
:100D8000ED5EFA4F958F80932C0501C08081FF9115
:100D9000EF919F918F912F910F900BBE0F900FBEEF
:100DA0000F901F9018951F920F920FB60F9211245B
:100DB0000BB60F922F933F934F935F936F937F9355
:100DC0008F939F93AF93BF93EF93FF9383E195E04E
:100DD0000E944704FF91EF91BF91AF919F918F9136
:100DE0007F916F915F914F913F912F910F900BBE2B
:100DF0000F900FBE0F901F90189583E195E00E9411
:100E0000CD0321E0892B09F420E0822F0895089575
:100E10008F929F92AF92BF92CF92DF92EF92FF920A
:100E20000F931F93CF93DF937C018B014C0182E0E2
:100E3000880E911C5701E5E0AE0EB11CC0E0D0E079
:100E4000F40161914F014AE050E0C8010E94770C23
:100E50006C016EE2C8010E94B20B8C0D9D1DC80F83
:100E6000D91F8A149B0461F74AE050E0F7016581BD
:100E7000C8010E94770C8C0F9D1FDF91CF911F91AD
:100E80000F91FF90EF90DF90CF90BF90AF909F9029
:100E90008F9008952EE432E0FC013183208312828A
:100EA00013821482158208950F93FC018EE492E060
:100EB0009183808362834383248305830F91089504
:100EC0002EE432E0FC013183208342835383648328
:100ED00075830895DC018EE492E08D939D9384E008
:100EE000FB0101900D928A95E1F70895DC0190E0F5
:100EF00020E030E08AE0FB014191BF01442309F189
:100F000050ED540F5A3088F4829FF001839FF00D0A
:100F100011249F0120533109240F311D47FD3A95BB
:100F20002F3F310541F338F312C04E3281F4933034
:100F300071F0FD01E90FF11D22839F5F20E030E099
:100F4000DACF933021F415962C9381E0089580E058
:100F50000895DC01129624E0FB0101900D922A9580
:100F6000E1F70895FC0142835383648375830895F8
:100F70009B01BC016E5F7F4F44E050E0C9010E94BD
:100F8000262E21E0892B09F020E0822F0895FC0114
:100F900010821482138215820895FC0160838FEF02
:100FA0009FEF928381831482138215820895FC013E
:100FB000608354834383258308954F925F926F9299
:100FC0007F928F929F92AF92BF92CF92DF92EF92D9
:100FD0000F93CF93DF93EC016B014A015901029605
:100FE0000E94C70784E592E0998388832E018CE1F3
:100FF000480E511C3E0188E5680E711CC2010E941A
:10100000C70786E0480E511C46145704B9F7FE0185
:10101000EE59FF4F918280823296B182A082329641
:1010200000833196E0823797D182C08238968AE079
:1010300090E091838083329684EF91E09183808366
:10104000339611821082719710821182128213825C
:10105000C459DF4F1882DF91CF910F91EF90DF904D
:10106000CF90BF90AF909F908F907F906F905F9048
:101070004F900895805A9F4FFC01718360830895BB
:101080002F923F924F925F926F927F928F929F9298
:10109000AF92BF92CF92DF92EF92FF920F931F9386
:1010A000CF93DF93CDB7DEB728970FB6F894DEBFA6
:1010B0000FBECDBF98878F8310E05C0126E6A20E9D
:1010C000B11C7C0132E6E30EF11CD5018C9118179E
:1010D000B8F0312CEF81F885E959FF4FFC83EB83A1
:1010E000CF80D884F4E6CF0ED11C412C512C320194
:1010F00043942F8138852E593F4F3E832D8360C006
:10110000F701A081B181A10FB11DEF81F885808128
:101110009181FC012081318142E06C918F81988521
:10112000F90119951F5FD1CF022D10E0AD81BE816D
:101130008D919C91DC01A00FB11F0480F581E02D01
:101140006C918F8198851995000F111FEF81F8859B
:10115000E00FF11F892B09F06FC0808591852981EF
:101160003A81822B932B918780872394D5018C9190
:10117000AF81B885ED91FC912816B0F2D6018D9122
:101180009C91DC01AE0DBF1D0280F381E02D41E09A
:101190006C918F8198851995F60180819181DC0190
:1011A000AE0DBF1DEF81F88580819181FC0120810A
:1011B000318140E06C918F819885F90119953394C4
:1011C000AB81BC818C913816E0F5E32CF12CF60153
:1011D000A081B181AE0DBF1DEF81F8858081918125
:1011E000FC012081318141E06C918F819885F9016A
:1011F0001995F601A081B181AE0DBF1DEF81F88573
:1012000080819181FC012281338140E06C918F814A
:101210009885F9011995D301C201032C04C0880FE8
:10122000991FAA1FBB1F0A94D2F79A8389834C0186
:1012300080949094212C9ACF808591858821992142
:1012400092CF28960FB6F894DEBF0FBECDBFDF91C8
:10125000CF911F910F91FF90EF90DF90CF90BF90B3
:10126000AF909F908F907F906F905F904F903F9046
:101270002F900895FC019C01245C3F4F848D8613C0
:1012800007C0878D90A1019719F481A1811105C034
:101290003696E217F30791F780E00895FC0180E0AD
:1012A00090E0248D261739F0019636968A30910504
:1012B000C1F78FEF9FEF0895FC0180E090E0258D4E
:1012C000368D2617370739F0019636968A30910504
:1012D000B1F78FEF9FEF0895FC01878D90A10895DE
:1012E000FC0181A108958AE00895FC01E859FF4FAF
:1012F0006115710529F481E090E091838083089560
:1013000071836083089586599F4FFC0171836083C8
:10131000089583599F4FFC01718360830895DC0118
:1013200026E0629FA00DB11D112490965C934E9310
:101330005F9721E091962C939197FC01E459FF4F20
:10134000208131960190F081E02D222331F03097F9
:1013500049F0611107C0DC0102C0309719F05C96BA
:101360008C9119940895CF92DF92EF92FF920F9390
:101370001F93CF93DF93EC01162F042FFC0186E01F
:10138000689FE00DF11D112411A2878D90A181307D
:101390009105D1F048F08230910591F1039709F061
:1013A0003FC040E050E030C04423D1F141E050E084
:1013B000CE010E948F090E94E717C85ADF4F688349
:1013C00079838A839B832CC00E94E717FE01E85A29
:1013D000FF4FC080D180E280F380AB01BC014C198B
:1013E0005D096E097F09729680819181A0E0B0E06D
:1013F00084179507A607B70718F442E050E004C029
:1014000001110EC043E050E0612FCE01DF91CF917A
:101410001F910F91FF90EF90DF90CF900C948F0968
:10142000DF91CF911F910F91FF90EF90DF90CF90C0
:1014300008952F923F924F925F926F927F928F9278
:101440009F92AF92BF92CF92DF92EF92FF920F9353
:101450001F93CF93DF9300D000D0CDB7DEB79E832C
:101460008D837C015C012CE3A20EB11CFC018FEF8B
:101470009FEF278D30A1232B21F4148E968F858F1B
:1014800011A23696AE16BF06A1F7512C8D819E8112
:101490008A599F4F9A838983AD81BE81A959BF4FD5
:1014A000BC83AB836D807E80B0E66B0E711C86E0E2
:1014B000282EE981FA818081581608F05AC0412C03
:1014C0000D811E81050D111D050D111D085F1F4F9A
:1014D000AB81BC818C90481408F049C0F801C080F1
:1014E000D180042C02C0D694C7940A94E2F7FC2D54
:1014F000F1703F2E589C40011124840C911CB401C2
:101500008D819E810E945C0997FD05C0432D682F47
:101510008D819E8121C0019641F5C0FE26C0ED81DE
:10152000FE8160E070E0848D811119C0D301ED91DE
:10153000FC91E80DF91D8081269EF001279EF00D9B
:1015400011242D813E81E20FF31F848F968E858EAC
:1015500010A2178E432DC9010E94B30906C06F5F08
:101560007F4F36966A307105F1F64394B1CF5394AC
:10157000A0CF80E0D70191969C91911181E0B6E0D7
:10158000EB0EF11CAE14BF04A9F726960FB6F89423
:10159000DEBF0FBECDBFDF91CF911F910F91FF90A6
:1015A000EF90DF90CF90BF90AF909F908F907F9003
:1015B0006F905F904F903F902F900895CF92DF9261
:1015C000EF92FF920F931F93CF93DF93EC010E9452
:1015D000E7178E01045A1F4FF801C080D180E280C6
:1015E000F380AB01BC014C195D096E097F093C9683
:1015F00080819181A0E0B0E084179507A607B70726
:1016000078F4CE010E944008CE010E94190AC82F2A
:101610000E94E717F801608371838283938301C07E
:10162000C0E08C2FDF91CF911F910F91FF90EF9031
:10163000DF90CF9008950F931F93CF93DF93EC012A
:101640008C0104591F4F81E0F8018083CE010E9474
:10165000DE0A882349F089A1882331F08F8D98A173
:10166000019711F48C8D03C0F801108280E0DF91A6
:10167000CF911F910F910895CF93DF93EC01CE018D
:101680000E941B0B8823D9F3DF91CF91089580E04E
:1016900090E00895089508950C94252B0C94252B23
:1016A0000C94BD2B0C94BD2BCF92DF92EF92FF9246
:1016B0000F931F93CF93DF936C017A018B01C0E0EE
:1016C000D0E0CE15DF0581F0D8016D918D01D601F6
:1016D000ED91FC910190F081E02DC6011995892BC7
:1016E00011F02196EECF7E01C701DF91CF911F91BE
:1016F0000F91FF90EF90DF90CF900895EF92FF92BF
:101700000F931F93CF93DF938C017B01C0E0D0E058
:10171000F701EC0FFD1F6491662361F0D801ED9194
:10172000FC910190F081E02DC8011995892B11F0F1
:101730002196EECFCE01DF91CF911F910F91FF90B7
:10174000EF900895DB0114964D915C9115976D9182
:101750007C91DC01ED91FC910280F381E02D1994E4
:101760000C943928DC01ED91FC910190F081E02D81
:101770001994DB01ED91FC9111970190F081E02D1E
:10178000BC01CD0119946AE572E00C9439280F93DD
:101790001F93CF93DF93EC010E947E0B8C01CE014F
:1017A0000E94C30B800F911FDF91CF911F910F916A
:1017B00008950F931F93CF93DF93EC010E94A20B28
:1017C0008C01CE010E94C30B800F911FDF91CF913E
:1017D0001F910F9108950F931F93CF93DF93EC0107
:1017E0000E9439288C01CE010E94C30B800F911FEB
:1017F000DF91CF911F910F9108950F931F93CF9376
:10180000DF93EC010E94B20B8C01CE010E94C30B4E
:10181000800F911FDF91CF911F910F9108950F932A
:101820001F93CF93DF93EC010E94B90B8C01CE0183
:101830000E94C30B800F911FDF91CF911F910F91D9
:1018400008958F929F92AF92BF92EF92FF920F9363
:101850001F93CF93DF93CDB7DEB7A1970FB6F89460
:10186000DEBF0FBECDBF7C01FA01CB0119A2223031
:1018700008F42AE08E010F5D1F4F822E912CA12CBF
:10188000B12CBF01A50194010E946628F901CA018B
:10189000015011096A3014F4605D01C0695CD8011F
:1018A0006C93232B242B252B61F7B801C7010E94D1
:1018B0003928A1960FB6F894DEBF0FBECDBFDF91D9
:1018C000CF911F910F91FF90EF90BF90AF909F909D
:1018D0008F9008952115310541F4DC01ED91FC91C3
:1018E0000190F081E02D642F19940C94210C9A0141
:1018F000462F50E060E070E00C946A0C0F931F9349
:10190000CF93DF93EC010E94770C8C01CE010E94F3
:10191000C30B800F911FDF91CF911F910F910895FD
:101920009A01AB0160E070E00C946A0C0F931F9376
:10193000CF93DF93EC010E94900C8C01CE010E94AA
:10194000C30B800F911FDF91CF911F910F910895CD
:101950000F931F93CF93DF93EC010E946A0C8C01CD
:10196000CE010E94C30B800F911FDF91CF911F9179
:101970000F910895CF92DF92EF92FF920F931F93F2
:10198000CF93DF932115310581F4DC01ED91FC91BA
:101990000190F081E02D642FDF91CF911F910F9185
:1019A000FF90EF90DF90CF9019942A30310501F528
:1019B00077FF1DC06A017B01EC016DE20E94B20B52
:1019C0008C0144275527BA014C195D096E097F091E
:1019D0002AE0CE010E94210C800F911FDF91CF9150
:1019E0001F910F91FF90EF90DF90CF9008952AE024
:1019F000DF91CF911F910F91FF90EF90DF90CF90EB
:101A00000C94210C9A01AB01770F660B770B0C94A9
:101A1000BA0C0F931F93CF93DF93EC010E94020D3A
:101A20008C01CE010E94C30B800F911FDF91CF91DB
:101A30001F910F9108950F931F93CF93DF93EC01A4
:101A40000E94BA0C8C01CE010E94C30B800F911F23
:101A5000DF91CF911F910F9108957F928F929F9266
:101A6000AF92BF92CF92DF92EF92FF920F931F93AC
:101A7000CF93DF938C016A017B01722E9A01AB0137
:101A8000C701B6010E94002B882319F06DE572E0B2
:101A900027C046015701E894B7F82FEF3FEF4FE713
:101AA0005FE7C501B4010E94002B81110DC02FEF2B
:101AB0003FEF4FE75FE7C501B4010E9436291816D2
:101AC0001CF461E672E00CC02FEF3FEF4FE75FE4DC
:101AD000C701B6010E948E2A181694F465E672E0DA
:101AE000C801DF91CF911F910F91FF90EF90DF9090
:101AF000CF90BF90AF909F908F907F900C9439289B
:101B00002FEF3FEF4FE75FECC701B6010E94362988
:101B100087FDE4CF20E030E0A901C701B6010E94B3
:101B2000362987FF0AC06DE2C8010E94B20BEC01A2
:101B3000F7FAF094F7F8F09402C0C0E0D0E0B12CCE
:101B400060E070E080E09FE37B1441F020E030E053
:101B500040E251E40E943B29B394F6CFA7019601DD
:101B60000E94CA286B017C010E94AD294B015C01D7
:101B70002AE0AB01BC01C8010E94210CC80FD91F8B
:101B80007720B9F1C501B4010E94DC299B01AC01A9
:101B9000C701B6010E94C9286B017C016EE2C80131
:101BA0000E94B20BC80FD91F20E030E040E251E4A0
:101BB000C701B6010E94932A4B015C010E94AD2926
:101BC0006B017C014AE050E0C8010E94900CC80FF4
:101BD000D91FB60180E090E00E94DC299B01AC0196
:101BE000C501B4010E94C9286B017C017A9471106F
:101BF000DBCFCE01DF91CF911F910F91FF90EF903E
:101C0000DF90CF90BF90AF909F908F907F9008957E
:101C10000C942D0D0F931F93CF93DF93EC010E9433
:101C20002D0D8C01CE010E94C30B800F911FDF91FF
:101C3000CF911F910F9108950F931F93CF93DF932F
:101C4000EC010E94E717688779878A879B87E8817C
:101C5000F9810284F385E02DCE01199597FF17C015
:101C60000E94E717088519852A853B85DC01CB0191
:101C7000801B910BA20BB30B0C811D812E813F8128
:101C800080179107A207B30710F38FEF9FEFDF9143
:101C9000CF911F910F9108950F931F93CF93DF93CF
:101CA000EC010E94E717688779878A879B87E8811C
:101CB000F9810484F585E02DCE01199597FF17C0B1
:101CC0000E94E717088519852A853B85DC01CB0131
:101CD000801B910BA20BB30B0C811D812E813F81C8
:101CE00080179107A207B30710F38FEF9FEFDF91E3
:101CF000CF911F910F910895FF920F931F93CF9350
:101D0000DF93EC018B01F42ECE010E944C0E97FD67
:101D10002DC08D32910519F19C01205331092A30D3
:101D2000310520F1FF2019F08E329105D1F00130FC
:101D30001105D1F00230110551F48D30910539F0C3
:101D400024F40997029718F00FC0809769F4E8818E
:101D5000F9810284F385E02DCE011995D5CF8DE26E
:101D600001C08EE290E002C08FEF9FEFDF91CF9134
:101D70001F910F91FF900895FC0144835583668362
:101D800077830895BF92CF92DF92EF92FF920F93E5
:101D90001F93CF93DF938C01C42F40E00E947C0EF1
:101DA000FC0197FD47C0C12CD12C7601B12C0C2E23
:101DB000000CDD0BEC17FD0709F1ED32F105E1F048
:101DC000CF01C0970A97D0F4AAE0B0E0A70196012E
:101DD0000E94AF286F01FF0FEE08FF08DC01CB0166
:101DE0008C0D9D1DAE1DBF1D6C017D0120E3C21A2F
:101DF000D108E108F10802C0BB24B394D801ED91E9
:101E0000FC910284F385E02DC8011995C8010E9458
:101E10004C0EFC01C0970A9768F2CE17DF0751F20B
:101E2000BB2061F066277727CB016C197D098E09ED
:101E30009F0906C060E070E0CB0102C0C701B60197
:101E4000DF91CF911F910F91FF90EF90DF90CF9096
:101E5000BF9008954F925F926F927F92AF92BF9220
:101E6000CF92DF92EF92FF920F931F93CF93DF9366
:101E70005C01042F41E00E947C0EFC0197FD6FC0C5
:101E8000412C512C80E8682E8FE3782EC12CD12C68
:101E90007601C0E0D0E0002E000C110BE017F10736
:101EA00069F1ED32F10539F1EE32F10531F1CF0191
:101EB000C0970A9718F5AAE0B0E0A70196010E9422
:101EC000AF286F01FF0FEE08FF08C60ED71EE81EF1
:101ED000F91E80E3C81AD108E108F108CC2371F09B
:101EE0002DEC3CEC4CEC5DE3C301B2010E94932A63
:101EF0002B013C0103C0D1E001C0C1E0D501ED914F
:101F0000FC910284F385E02DC5011995C5010E945D
:101F10004C0EFC01C0970A9708F2EE32F10519F455
:101F2000CC2309F4BBCF0E171F0709F4B7CFDD236D
:101F300041F0F094E094D094C094C11CD11CE11CF9
:101F4000F11CC701B601CC2339F00E94DE29A301A0
:101F500092010E94932A06C00E94DE2903C060E01D
:101F600070E0CB01DF91CF911F910F91FF90EF9027
:101F7000DF90CF90BF90AF907F906F905F904F9029
:101F80000895CF92DF92EF92FF920F931F93CF931A
:101F9000DF936C017A018B01C0E0D0E0CE15DF0544
:101FA00059F0C6010E941C0E97FD05C0F8018193EF
:101FB0008F012196F3CF7E01C701DF91CF911F9151
:101FC0000F91FF90EF90DF90CF900895AF92BF9266
:101FD000CF92DF92EF92FF920F931F93CF93DF93F5
:101FE00021153105C9F089015C016A01C0E0D0E02A
:101FF000E62E660FFF08C5010E941C0E97FD0FC05C
:102000008E159F0561F0F60181936F0121960C17E3
:102010001D0789F7C80104C080E090E001C0CE012F
:10202000DF91CF911F910F91FF90EF90DF90CF90B4
:10203000BF90AF9008950F931F93CF93DF93EC0160
:102040008B016BE972E00E94FA1CC8010E941C0E11
:1020500097FD05C0682FCE010E94261FF6CFCE0146
:10206000DF91CF911F910F910895EF92FF920F93FF
:102070001F93CF93DF93EC017B01042F6BE972E098
:102080000E94FA1CC7010E941C0E002E000C110BAE
:1020900097FD0BC08017910741F0682FCE010E9479
:1020A000261FC7010E941C0EF3CFCE01DF91CF91F6
:1020B0001F910F91FF90EF9008954F925F926F9252
:1020C0007F928F929F92AF92BF92CF92DF92EF92C8
:1020D000FF920F931F93CF93DF938C01EB0186E068
:1020E000849F4001859F900C1124860E971EFB0152
:1020F000E815F90508F582819381892B21F136963F
:10210000F7CF6081718144815581DB01A40FB51F38
:102110002C91022E000C330B8217930711F54F5FA1
:102120005F4F55834483228133814217530759F00F
:102130003696E815F90528F3C8010E941C0E97FD94
:1021400046C0FE01F6CFEC1BFD0BF595E7952BEA9B
:102150003AEAE29FC001E39F900DF29F900D112497
:1021600038C04115510521F3C480D5809601215016
:10217000310935832483DB01A20FB31FAC910A2EF2
:10218000000CBB0B8A179B07F9F421153105C9F028
:102190005B017A01E21AF30AE60EF71E412C512C7C
:1021A000D5016D905D01D7017D907D01671006C05E
:1021B000BFEF4B1A5B0A4216530690F32415350500
:1021C00099F6D582C482B4CF232B71F6B1CF8FEFAD
:1021D0009FEFDF91CF911F910F91FF90EF90DF90D4
:1021E000CF90BF90AF909F908F907F906F905F90B7
:1021F0004F900895CF93DF9300D000D0CDB7DEB7D6
:10220000FE01319626E0DF011D922A95E9F77A83D7
:1022100069835C834B8341E050E0BF010E945D1005
:1022200021E0892B09F020E0822F26960FB6F89442
:10223000DEBF0FBECDBFDF91CF9108950C94FA1091
:10224000FB0101900020E9F73197AF01461B570BC6
:102250000C94FA10FF920F931F93CF93DF93CDB797
:10226000DEB72C970FB6F894DEBF0FBECDBF211599
:10227000310521F40E94FA10282F19C0FE01319671
:10228000ACE0FA2EDF011D92FA94E9F77A836983B4
:102290005C834B8338872F831A87098742E050E09D
:1022A000BF010E945D1021E0892B09F020E0822F00
:1022B0002C960FB6F894DEBF0FBECDBFDF91CF9145
:1022C0001F910F91FF9008950F931F939A01FA01A8
:1022D00001900020E9F731978F01041B150BFB01DA
:1022E00001900020E9F73197AF01461B570B0E9480
:1022F0002A111F910F9108954F925F926F927F92D2
:102300008F929F92AF92BF92CF92DF92EF92FF9205
:102310000F931F93CF93DF9300D01F921F92CDB7DF
:10232000DEB78B0129013A0190910002891721F053
:102330009F3F09F046C305C0EDE9F3E024912D83EA
:1023400003C180930002EDE9F3E094919D839F3FE8
:1023500009F437C3923009F47FC068F5992309F472
:102360005AC0913009F0F0C01092800010928100A4
:10237000909181009860909381009091810091608C
:1023800090938100282F30E0F901E65DFB4FE49146
:10239000F0E0EE0FFF1FE657FB4F4591549150932D
:1023A000CE054093CD05F901EC51FC4FE491E0934B
:1023B000CC0591E09FC02D81243009F49DC008F424
:1023C00073C0253009F0C0C0109220011092210185
:1023D0009091210198609093210190912101916049
:1023E00090932101282F30E0F901E65DFB4FE49145
:1023F000F0E0EE0FFF1FE657FB4F459154915093CD
:10240000B2054093B105F901EC51FC4FE491E09322
:10241000B00595E06FC014BC15BC94B5926094BD36
:1024200095B5916095BD282F30E0F901E65DFB4F31
:10243000E491F0E0EE0FFF1FE657FB4F45915491FA
:102440005093D5054093D405F901EC51FC4FE4912C
:10245000E093D3051D82B1C21092B0001092B1007A
:102460009091B00092609093B0009091B100916013
:102470009093B100282F30E0F901E65DFB4FE49125
:10248000F0E0EE0FFF1FE657FB4F4591549150933C
:10249000C7054093C605F901EC51FC4FE491E09368
:1024A000C50522E02D8389C2109290001092910000
:1024B000909191009860909391009091910091601B
:1024C00090939100282F30E0F901E65DFB4FE491F5
:1024D000F0E0EE0FFF1FE657FB4F459154915093EC
:1024E000C0054093BF05F901EC51FC4FE491E09326
:1024F000BE0593E09D83B1C01092A0001092A10090
:102500009091A10098609093A1009091A10091609A
:102510009093A100282F30E0F901E65DFB4FE49194
:10252000F0E0EE0FFF1FE657FB4F4591549150939B
:10253000B9054093B805F901EC51FC4FE491E093E3
:10254000B70524E02D8389C02D8127FD3AC261E0C3
:102550000E94081A8D818D7F09F082C04801A12C4C
:10256000B12C60E072E18AE790E0A50194010E943D
:10257000662829833A834B835C8369017A0181E071
:10258000C81AD108E108F1089FEFC916D104E10487
:10259000F10409F008F44EC060E472E48FE090E0CA
:1025A000A50194010E94662869017A0181E0C81A98
:1025B000D108E108F1089D81923009F52FEFC2168C
:1025C000D104E104F10409F008F4BEC160E970ED42
:1025D00083E090E0A50194010E94662869017A01D8
:1025E00081E0C81AD108E108F1089FEFC916D104AB
:1025F000E104F10411F008F035C183E027C02FEFAA
:10260000C216D104E104F104B9F0B0F068E478EE48
:1026100081E090E0A50194010E94662869017A0199
:1026200081E0C81AD108E108F1089D81992309F4D5
:102630008FC157C181E001C082E09D81911106C028
:1026400095B5987F892B85BD7EC085E09091B100BE
:10265000987F892B8093B10076C061E00E94081AB0
:102660004801A12CB12C60E072E18AE790E0A5015D
:1026700094010E94662869017A0181E0C81AD10894
:10268000E108F108C114D10491E0E906F10488F0F1
:1026900068E478EE81E090E0A50194010E9466284C
:1026A00069017A0181E0C81AD108E108F10883E0E4
:1026B00001C081E09D81913081F490918100987FEB
:1026C000892B80938100411451046104710409F045
:1026D0003FC02FEF3FEFA9016DC02D81233079F46A
:1026E00090919100987F892B80939100411451041F
:1026F0006104710469F52FEF3FEFA9017DC09D8151
:10270000943079F49091A100987F892B8093A10057
:102710004114510461047104D9F42FEF3FEFA90172
:102720007DC02D81253079F490912101987F892BEE
:1027300080932101411451046104710449F42FEF85
:102740003FEFA9017DC0411451046104710471F08F
:10275000D801AA0FBB1FA30192010E94AF2828EE47
:1027600033E040E050E00E94662803C02FEF3FEFC7
:10277000A9018D81823081F12CF4882361F08130B0
:10278000C9F01FC19D81943009F448C0ACF1953067
:1027900009F456C016C1C7BC2093D6053093D7059F
:1027A0004093D8055093D90580916E008260809344
:1027B0006E0007C1D0928900C09288002093CF0597
:1027C0003093D0054093D1055093D20580916F008E
:1027D000826080936F00F5C0C092B3002093C8055B
:1027E0003093C9054093CA055093CB058091700082
:1027F000826080937000E5C0D0929900C0929800EA
:102800002093C1053093C2054093C3055093C4057E
:1028100080917100826080937100D3C0D092A90032
:10282000C092A8002093BA053093BB054093BC0525
:102830005093BD0580917200826080937200C1C088
:10284000D0922901C09228012093B3053093B4059A
:102850004093B5055093B6058091730082608093D4
:102860007300AFC068E478EE81E090E0A5019401C8
:102870000E94662869017A0181E0C81AD108E1083E
:10288000F1089FEFC916D104E104F10441F138F1D8
:1028900064E274EF80E090E0A50194010E94662854
:1028A00069017A0181E0C81AD108E108F1089FEFB7
:1028B000C916D104E104F10409F008F4C6CE62E1BE
:1028C0007AE780E090E0A50194010E946628690102
:1028D0007A0181E0C81AD108E108F10818C084E043
:1028E000B5CE2FEFC216D104E104F10479F170F1F5
:1028F00062E17AE780E090E0A50194010E946628F9
:1029000069017A0191E0C91AD108E108F1088FEF55
:10291000C816D104E104F104A9F0A0F089819A81DC
:10292000AB81BC812AE0B695A795979587952A95A6
:10293000D1F76C017D0121E0C21AD108E108F1084C
:1029400087E084CE86E082CE82E080CE84E075CEC1
:102950002FEFC216D104E104F10469F160F162E1E4
:102960007AE780E090E0A50194010E946628690161
:102970007A0181E0C81AD108E108F1089FEFC91671
:10298000D104E104F104A9F0A0F089819A81AB811E
:10299000BC813AE0B695A795979587953A95D1F77A
:1029A0006C017D0121E0C21AD108E108F10885E03F
:1029B00047CE84E045CE83E043CE61E00E94081A12
:1029C000CDCD0F900F900F900F900F90DF91CF9182
:1029D0001F910F91FF90EF90DF90CF90BF90AF903D
:1029E0009F908F907F906F905F904F90089582306E
:1029F000A9F028F4882349F0813051F008958430FB
:102A000021F1E8F0853039F1089510926E000895B3
:102A100080916F008D7F80936F000895809170008A
:102A20008D7F8093700081E08093B0008091B10031
:102A3000887F84608093B1001092B30008958091E4
:102A400071008D7F809371000895809172008D7F59
:102A5000809372000895809173008D7F809373003E
:102A60000895CF93C82F80910002C81307C0EDE9E5
:102A7000F3E084919FEF9093000201C08FEF0E94DA
:102A8000F71460E08C2FCF910C94441A1F920F9290
:102A90000FB60F9211240BB60F922F933F934F93C3
:102AA0005F936F937F938F939F93AF93BF93EF93B6
:102AB000FF938091C8059091C905A091CA05B09176
:102AC000CB05892B8A2B8B2B51F19091C505E09179
:102AD000C605F091C7058081892780838091C8054C
:102AE0009091C905A091CA05B091CB051816190699
:102AF0001A061B06C4F48091C8059091C905A091DF
:102B0000CA05B091CB050197A109B1098093C80509
:102B10009093C905A093CA05B093CB0504C08091DA
:102B200000020E943115FF91EF91BF91AF919F91EB
:102B30008F917F916F915F914F913F912F910F9066
:102B40000BBE0F900FBE0F901F9018950895883000
:102B500008F070C0A82FB0E0AA0FBB1FAF5FBD4F39
:102B600011967C936E9390E0FC013197E730F1056C
:102B7000A0F58827EE58FF4F8F4F0C94A72880911F
:102B800069008C7F482B40936900E89A08958091F2
:102B90006900837F440F551F440F551F482B4093F6
:102BA0006900E99A0895809169008F7C74E0440F70
:102BB000551F7A95E1F7482B40936900EA9A0895EA
:102BC000809169008F7366E0440F551F6A95E1F7A5
:102BD000482B40936900EB9A089580916A008C7F9E
:102BE000482B40936A00EC9A089580916A00837F95
:102BF000440F551F440F551F482B40936A00ED9A10
:102C0000089580916A008F7C24E0440F551F2A9517
:102C1000E1F7482B40936A00EE9A089580916A008C
:102C20008F7396E0440F551F9A95E1F7482B409318
:102C30006A00EF9A0895982F883030F5482F50E0B9
:102C4000FA013197E730F10570F48827E758FF4F14
:102C50008F4F0C94A728E8980DC0E9980BC0EA980C
:102C600009C0EB9807C0EC9805C0ED9803C0EE983A
:102C700001C0EF98E92FF0E0EE0FFF1FEF5FFD4F6F
:102C800086EA95E19183808308951F920F920FB693
:102C90000F9211240BB60F922F933F934F935F9394
:102CA0006F937F938F939F93AF93BF93EF93FF9314
:102CB000E0910502F09106021995FF91EF91BF9105
:102CC000AF919F918F917F916F915F914F913F91C4
:102CD0002F910F900BBE0F900FBE0F901F90189565
:102CE0001F920F920FB60F9211240BB60F922F93D3
:102CF0003F934F935F936F937F938F939F93AF9384
:102D0000BF93EF93FF93E0910702F09108021995AA
:102D1000FF91EF91BF91AF919F918F917F916F91B3
:102D20005F914F913F912F910F900BBE0F900FBE6F
:102D30000F901F9018951F920F920FB60F921124AB
:102D40000BB60F922F933F934F935F936F937F93A5
:102D50008F939F93AF93BF93EF93FF93E0910902FB
:102D6000F0910A021995FF91EF91BF91AF919F9158
:102D70008F917F916F915F914F913F912F910F9024
:102D80000BBE0F900FBE0F901F9018951F920F92C1
:102D90000FB60F9211240BB60F922F933F934F93C0
:102DA0005F936F937F938F939F93AF93BF93EF93B3
:102DB000FF93E0910B02F0910C021995FF91EF91B6
:102DC000BF91AF919F918F917F916F915F914F9143
:102DD0003F912F910F900BBE0F900FBE0F901F9041
:102DE00018951F920F920FB60F9211240BB60F92E7
:102DF0002F933F934F935F936F937F938F939F9303
:102E0000AF93BF93EF93FF93E0910102F091020221
:102E10001995FF91EF91BF91AF919F918F917F9104
:102E20006F915F914F913F912F910F900BBE0F903B
:102E30000FBE0F901F9018951F920F920FB60F9212
:102E400011240BB60F922F933F934F935F936F9381
:102E50007F938F939F93AF93BF93EF93FF93E091F3
:102E60000302F09104021995FF91EF91BF91AF9188
:102E70009F918F917F916F915F914F913F912F9192
:102E80000F900BBE0F900FBE0F901F9018951F92C2
:102E90000F920FB60F9211240BB60F922F933F9300
:102EA0004F935F936F937F938F939F93AF93BF9352
:102EB000EF93FF93E0910D02F0910E021995FF91AF
:102EC000EF91BF91AF919F918F917F916F915F91A2
:102ED0004F913F912F910F900BBE0F900FBE0F900F
:102EE0001F9018951F920F920FB60F9211240BB6D8
:102EF0000F922F933F934F935F936F937F938F9393
:102F00009F93AF93BF93EF93FF93E0910F02F091E4
:102F100010021995FF91EF91BF91AF919F918F9101
:102F20007F916F915F914F913F912F910F900BBEC9
:102F30000F900FBE0F901F9018951F920F920FB613
:102F40000F9211242F933F938F939F93AF93BF932F
:102F50008091DA059091DB05A091DC05B091DD054B
:102F60003091E20523E0230F2D3720F40196A11DB7
:102F7000B11D05C026E8230F0296A11DB11D2093A7
:102F8000E2058093DA059093DB05A093DC05B0930E
:102F9000DD058091DE059091DF05A091E005B091FF
:102FA000E1050196A11DB11D8093DE059093DF051B
:102FB000A093E005B093E105BF91AF919F918F91F0
:102FC0003F912F910F900FBE0F901F9018952FB724
:102FD000F8946091DA057091DB058091DC059091A1
:102FE000DD052FBF08953FB7F8948091DE059091DD
:102FF000DF05A091E005B091E10526B5A89B05C0CD
:103000002F3F19F00196A11DB11D3FBFBA2FA92F67
:10301000982F8827820F911DA11DB11DBC01CD01E4
:1030200042E0660F771F881F991F4A95D1F70895D0
:103030008F929F92AF92BF92CF92DF92EF92FF92C8
:103040006B017C010E94F3174B015C01C114D10498
:10305000E104F10401F10E9407070E94F317DC016B
:10306000CB0188199909AA09BB09883E9340A1059B
:10307000B10560F321E0C21AD108E108F10888EE39
:10308000880E83E0981EA11CB11CC114D104E10478
:10309000F10419F7DBCFFF90EF90DF90CF90BF9056
:1030A000AF909F908F9008958230910538F0880FEF
:1030B000991F880F991F05970197F1F70895789444
:1030C00084B5826084BD84B5816084BD85B582602D
:1030D00085BD85B5816085BDEEE6F0E080818160CB
:1030E0008083E1E8F0E010828081826080838081CB
:1030F00081608083E0E8F0E0808181608083E1EBA3
:10310000F0E0808184608083E0EBF0E0808181608A
:103110008083E1E9F0E0808182608083808181604A
:103120008083E0E9F0E0808181608083E1EAF0E083
:10313000808182608083808181608083E0EAF0E02A
:10314000808181608083E1E2F1E080818260808320
:10315000808181608083E0E2F1E080818160808312
:10316000EAE7F0E0808184608083808182608083F0
:103170008081816080838081806880831092C1001B
:103180000895809311020895863308F08653909134
:103190007B00282F2870977F922B90937B002091A3
:1031A000110290E4299F900111248770822B809353
:1031B0007C0080917A00806480937A0080917A000C
:1031C00086FDFCCF809178002091790090E0922BD1
:1031D00008951F93CF93DF93182FEB0161E00E94B6
:1031E000081A209711F460E004C0CF3FD10539F4EC
:1031F00061E0812FDF91CF911F910C94441AE12F50
:10320000F0E0E256FC4FE4918E2F90E0FC01319704
:10321000E231F10508F09DC08827E058FF4F8F4F3D
:103220000C94A72884B5806884BDC7BD97C084B5B9
:10323000806284BDC8BD92C0809180008068809308
:103240008000D0938900C093880088C0809180005E
:10325000806280938000D0938B00C0938A007EC0F0
:1032600080918000886080938000D0938D00C0930F
:103270008C0074C08091B00080688093B000C093CF
:10328000B3006CC08091B00080628093B000C093A6
:10329000B40064C080919000806880939000D093C7
:1032A0009900C09398005AC08091900080628093EA
:1032B0009000D0939B00C0939A0050C080919000E2
:1032C000886080939000D0939D00C0939C0046C07E
:1032D0008091A00080688093A0008091A0008F7BE7
:1032E0008093A000D093A900C093A80037C080911C
:1032F000A00080628093A000D093AB00C093AA008E
:103300002DC08091A00088608093A000D093AD0074
:10331000C093AC0023C0809120018068809320017D
:10332000D0932901C093280119C0809120018062A7
:1033300080932001D0932B01C0932A010FC080916C
:103340002001886080932001D0932D01C0932C012F
:1033500005C0C038D1050CF04BCF45CFDF91CF91E0
:103360001F91089590E0FC013197E231F10508F0DA
:103370004EC08827EE56FF4F8F4F0C94A7288091A0
:1033800080008F7703C0809180008F7D80938000C4
:10339000089580918000877FF9CF84B58F7702C030
:1033A00084B58F7D84BD08958091B0008F7703C070
:1033B0008091B0008F7D8093B0000895809190003F
:1033C0008F7707C0809190008F7D03C0809190001F
:1033D000877F8093900008958091A0008F7707C029
:1033E0008091A0008F7D03C08091A000877F809393
:1033F000A0000895809120018F7707C0809120015F
:103400008F7D03C080912001877F809320010895E4
:10341000CF93DF9390E0FC01EC51FC4F2491FC0131
:10342000E65DFB4F8491882361F190E0880F991F3E
:10343000FC01EC55FB4FC591D491FC01E657FB4FC5
:10344000A591B491611109C09FB7F8948881209526
:1034500082238883EC912E230BC0623061F49FB7E6
:10346000F8948881322F309583238883EC912E2B1A
:103470002C939FBF06C08FB7F894E8812E2B28832A
:103480008FBFDF91CF9108951F93CF93DF93282FA4
:1034900030E0F901E256FC4F8491F901EC51FC4F08
:1034A000D491F901E65DFB4FC491CC23C1F0162FF6
:1034B00081110E94B219EC2FF0E0EE0FFF1FE657CA
:1034C000FB4FA591B4919FB7F894111104C08C9152
:1034D000D095D82302C0EC91DE2BDC939FBFDF9107
:1034E000CF911F910895CF93DF93282F30E0F901FA
:1034F000E256FC4F8491F901EC51FC4FD491F90153
:10350000E65DFB4FC491CC2391F081110E94B2196A
:10351000EC2FF0E0EE0FFF1FE059FB4FA591B491A7
:10352000EC91ED2381E090E021F480E002C080E0A6
:1035300090E0DF91CF9108954F925F926F927F92CA
:103540008F929F92AF92BF92CF92DF92EF92FF92B3
:103550000F931F93CF93DF9349015A0190E0FC0131
:10356000EC51FC4F1491FC01E65DFB4FC4916623C6
:1035700011F0012F01C000E00E94F3176B017C01E4
:10358000D0E0CC0FDD1FC059DB4FFE01A591B491F7
:103590008C91812308131EC00E94F317DC01CB011C
:1035A0008C199D09AE09BF0988169906AA06BB06A3
:1035B00060F760E070E0CB0133C00E94F317DC01DC
:1035C000CB018C199D09AE09BF0988169906AA0678
:1035D000BB0678F3FE01A591B4918C918123081369
:1035E000ECCF0E94F3172B013C01FE01A591B49191
:1035F0008C91812308130EC00E94F317DC01CB01CC
:103600008C199D09AE09BF0988169906AA06BB0642
:1036100060F7CFCF0E94F3176419750986099709DF
:10362000DF91CF911F910F91FF90EF90DF90CF909E
:10363000BF90AF909F908F907F906F905F904F90D2
:103640000895CF92DF92EF92FF920F931F93FC01A8
:103650008081862384130BC001501109210931098F
:10366000B9F71EC00150110921093109C9F0808143
:1036700086234813F7CFC12CD12C76019081962355
:1036800049130BC08FEFC81AD80AE80AF80A0C15BC
:103690001D052E053F0591F703C0B601C70104C003
:1036A00060E070E080E090E01F910F91FF90EF905C
:1036B000DF90CF9008950F931F9390E0FC01EC51A1
:1036C000FC4F7491FC01E65DFB4FE491662311F021
:1036D000672F01C060E0F0E0EE0FFF1FE059FB4FE5
:1036E0008591949189019A013F70462F672F0E941E
:1036F000211B611571058105910549F0DC01CB01A4
:103700000196A11DB11DBC01CD019F7003C060E0F9
:1037100070E0CB011F910F910895CF92DF92EF924D
:10372000FF920F931F93CF93DF93F82ED62FE42EA3
:1037300007E010E0C0E087E0C82ED12C61E08D2FBB
:103740000E94441A8F2DE1100AC00E94731A96013C
:10375000201B310B01C0880F2A95EAF707C00E9491
:10376000731A002E01C0880F0A94EAF7C82B60E094
:103770008D2F0E94441A0150110900F78C2FDF9100
:10378000CF911F910F91FF90EF90DF90CF90089510
:10379000BF92CF92DF92EF92FF920F931F93CF933E
:1037A000DF93C82ED62EB42EC7E0D0E0022F10E053
:1037B00087E0E82EF12CB11005C0C7018C1B9D0BD2
:1037C000B80102C0B8018C2F02C0759567958A9523
:1037D000E2F761708C2D0E94441A61E08D2D0E94E9
:1037E000441A60E08D2D0E94441A219720F7DF9142
:1037F000CF911F910F91FF90EF90DF90CF90BF90EE
:103800000895611571058105910511F00C94DF2C67
:103810000895CF92DF92EF92FF92611571058105B5
:10382000910549F06B017C010E94912CA701960142
:103830000E94882803C060E070E0CB01FF90EF9009
:10384000DF90CF900895CF92DF92EF92FF920F9387
:103850001F93621773078407950784F489019A01FF
:103860006B017C01C901B8016C197D098E099F09A2
:103870000E94091C6C0D7D1D8E1D9F1D1F910F91B7
:10388000FF90EF90DF90CF9008954F925F926F92EC
:103890007F92AF92BF92CF92DF92EF92FF920F93FF
:1038A0001F93CF93DF93CDB7DEB729013A019B0178
:1038B000AC0124193509460957098A899B89AC89C5
:1038C000BD89BC01CD016A197B098C099D090E9443
:1038D0005628A801970124193509460957090E945D
:1038E0008828CA01B9016A0D7B1D8C1D9D1DDF91C1
:1038F000CF911F910F91FF90EF90DF90CF90BF90ED
:10390000AF907F906F905F904F900895089570E012
:103910009B01382BC9010895FC01808191810C9491
:10392000BD2BCF93DF93EC0188819981009711F033
:103930000E94BD2B198218821D821C821B821A8252
:10394000DF91CF9108950F931F93CF93DF93EC01F5
:103950008B016F5F7F4F888199810E94E82C0097CF
:1039600031F0998388831B830A8381E001C080E062
:10397000DF91CF911F910F910895CF93DF93EC01C9
:1039800088819981892B29F08A819B8186179707E5
:1039900060F4CE010E94A31C882341F08C819D819C
:1039A000892B19F4E881F981108281E0DF91CF91B0
:1039B0000895EF92FF920F931F93CF93DF93EC0143
:1039C0007B018A01BA010E94BD1C811104C0CE0195
:1039D0000E94911C07C01D830C83B70188819981C7
:1039E0000E94622ECE01DF91CF911F910F91FF9027
:1039F000EF900895FC0111821082138212821582C9
:103A000014826115710551F0FB0101900020E9F766
:103A10003197AF01461B570B0C94D91C0895EF92B8
:103A2000FF920F931F93CF93DF93EC017B018A01E9
:103A3000BA010E94BD1C811104C0CE010E94911CDC
:103A400007C01D830C83B701888199810E94162EBF
:103A5000CE01DF91CF911F910F91FF90EF900895CC
:103A6000CF93DF93EC01FB018617970761F060812C
:103A700071816115710529F0448155810E94D91C1D
:103A800002C00E94911CCE01DF91CF910895FC01EC
:103A90001182108213821282158214820C94301DBE
:103AA000CF93DF93EC016115710559F0FB01019093
:103AB0000020E9F73197AF01461B570B0E94D91C34
:103AC00002C00E94911CCE01DF91CF910895CF9347
:103AD000DF931F921F92CDB7DEB7FC0111821082D7
:103AE000138212821582148269831A82BE016F5F6B
:103AF0007F4F0E94501D0F900F90DF91CF9108953E
:103B00000F931F93CF93DF93CDB7DEB729970FB6EF
:103B1000F894DEBF0FBECDBF8C01862FF801118255
:103B20001082138212821582148250E0BE016F5FF0
:103B30007F4F90E00E941D2FBE016F5F7F4FC80135
:103B40000E94501D29960FB6F894DEBF0FBECDBF60
:103B5000DF91CF911F910F9108950F931F93CF93F2
:103B6000DF93CDB7DEB762970FB6F894DEBF0FBE16
:103B7000CDBF8C01CB01F801118210821382128219
:103B80001582148250E0BE016F5F7F4F0E94AB2E02
:103B9000BE016F5F7F4FC8010E94501D62960FB635
:103BA000F894DEBF0FBECDBFDF91CF911F910F9173
:103BB00008950F931F93CF93DF93CDB7DEB761972F
:103BC0000FB6F894DEBF0FBECDBF8C01CB01F8015C
:103BD00011821082138212821582148250E0BE017B
:103BE0006F5F7F4F0E941D2FBE016F5F7F4FC80127
:103BF0000E94501D61960FB6F894DEBF0FBECDBF78
:103C0000DF91CF911F910F9108950F931F93CF9341
:103C1000DF93CDB7DEB7A2970FB6F894DEBF0FBE25
:103C2000CDBF8C01CB01BA01F80111821082138241
:103C300012821582148230E0AE014F5F5F4F0E9406
:103C4000C12EBE016F5F7F4FC8010E94501DA2961A
:103C50000FB6F894DEBF0FBECDBFDF91CF911F919D
:103C60000F9108950F931F93CF93DF93CDB7DEB7D6
:103C7000A1970FB6F894DEBF0FBECDBF8C01CB016C
:103C8000BA01F80111821082138212821582148205
:103C900030E0AE014F5F5F4F0E94F02EBE016F5FBC
:103CA0007F4FC8010E94501DA1960FB6F894DEBF49
:103CB0000FBECDBFDF91CF911F910F910895EF926D
:103CC000FF920F931F93CF93DF93CDB7DEB7A197EA
:103CD0000FB6F894DEBF0FBECDBF7C01CB01BA0199
:103CE000F70111821082138212821582148242E03F
:103CF000420F8E010F5F1F4F0E94052BBC01C701B1
:103D00000E94501DA1960FB6F894DEBF0FBECDBF26
:103D1000DF91CF911F910F91FF90EF900895EF9257
:103D2000FF920F931F93CF93DF93CDB7DEB7A19789
:103D30000FB6F894DEBF0FBECDBF7C01CB01BA0138
:103D4000F70111821082138212821582148242E0DE
:103D5000420F8E010F5F1F4F0E94052BBC01C70150
:103D60000E94501DA1960FB6F894DEBF0FBECDBFC6
:103D7000DF91CF911F910F91FF90EF9008950F93D6
:103D80001F93CF93DF93EC018B016115710549F00F
:103D9000CB010E941D2EAC01B801CE010E940F1D67
:103DA00002C00E94911CCE01DF91CF911F910F9113
:103DB0000895FC01118210821382128215821482EE
:103DC0000C94BF1EEF92FF920F931F93CF93DF933C
:103DD0006115710511F480E01CC041155105C1F059
:103DE0007B01EC018C819D818A01080F191FB801AC
:103DF000CE010E94BD1C882371F3288139818C81FA
:103E00009D81B701820F931F0E94622E1D830C8338
:103E100081E0DF91CF911F910F91FF90EF90089576
:103E2000FB0144815581608171810C94E21E611512
:103E3000710551F0FB0101900020E9F73197AF01C6
:103E4000461B570B0C94E21E80E00895CF93DF933E
:103E50001F921F92CDB7DEB769831A8241E050E00E
:103E6000BE016F5F7F4F0E94E21E0F900F90DF91A7
:103E7000CF910895EF92FF920F931F93CF93DF930B
:103E800000D01F92CDB7DEB77C01862F4AE050E00C
:103E90008E010F5F1F4FB80190E00E94AB2EF8011A
:103EA00001900020E9F73197AF01401B510BB80199
:103EB000C7010E94E21E0F900F900F900F90DF91AC
:103EC000CF911F910F91FF90EF900895EF92FF9285
:103ED0000F931F93CF93DF93CDB7DEB728970FB61D
:103EE000F894DEBF0FBECDBF7C01CB014AE050E0AD
:103EF0008E010F5F1F4FB8010E94AB2EF801019099
:103F00000020E9F73197AF01401B510BB801C70101
:103F10000E94E21E28960FB6F894DEBF0FBECDBFFA
:103F2000DF91CF911F910F91FF90EF900895EF9245
:103F3000FF920F931F93CF93DF93CDB7DEB72797F1
:103F40000FB6F894DEBF0FBECDBF7C01CB014AE0B7
:103F500050E08E010F5F1F4FB8010E941D2FF80126
:103F600001900020E9F73197AF01401B510BB801D8
:103F7000C7010E94E21E27960FB6F894DEBF0FBE5F
:103F8000CDBFDF91CF911F910F91FF90EF900895DA
:103F9000EF92FF920F931F93CF93DF93CDB7DEB7CE
:103FA0002E970FB6F894DEBF0FBECDBF7C01CB01BC
:103FB000BA012AE030E08E010F5F1F4FA8010E9476
:103FC000C12EF80101900020E9F73197AF01401BA5
:103FD000510BB801C7010E94E21E2E960FB6F8944D
:103FE000DEBF0FBECDBFDF91CF911F910F91FF902C
:103FF000EF900895EF92FF920F931F93CF93DF936B
:10400000CDB7DEB72D970FB6F894DEBF0FBECDBF8C
:104010007C01CB01BA012AE030E08E010F5F1F4F17
:10402000A8010E94F02EF80101900020E9F73197D5
:10403000AF01401B510BB801C7010E94E21E2D9633
:104040000FB6F894DEBF0FBECDBFDF91CF911F91A9
:104050000F91FF90EF900895EF92FF920F931F93AF
:10406000CF93DF93CDB7DEB764970FB6F894DEBF7A
:104070000FBECDBF7C01CB01BA018E010F5F1F4F78
:1040800022E044E00E94052BFC0101900020E9F7AA
:104090003197AF01481B590BBC01C7010E94E21EBA
:1040A00064960FB6F894DEBF0FBECDBFDF91CF91FF
:1040B0001F910F91FF90EF900895EF92FF920F9351
:1040C0001F93CF93DF93CDB7DEB764970FB6F89405
:1040D000DEBF0FBECDBF7C01CB01BA018E010F5FE9
:1040E0001F4F22E044E00E94052BFC0101900020BC
:1040F000E9F73197AF01481B590BBC01C7010E947A
:10410000E21E64960FB6F894DEBF0FBECDBFDF91FE
:10411000CF911F910F91FF90EF900895EF92FF9232
:104120000F931F93CF93DF936115710511F480E016
:104130001EC08B01EC01CB010E941D2E0097B1F037
:104140002C813D817C01E20EF31EB701CE010E945D
:10415000BD1C882361F3288139818C819D81B80140
:10416000820F931F0E94162EFD82EC8281E0DF9168
:10417000CF911F910F91FF90EF900895CF93DF9310
:10418000EC01FB0144815581608171810E94E21E36
:10419000811103C0CE010E94911CCE01DF91CF910D
:1041A0000895CF93DF93EC016115710561F0FB0178
:1041B00001900020E9F73197AF01461B570B0E9491
:1041C000E21E811103C0CE010E94911CCE01DF913D
:1041D000CF910895CF93DF93EC010E94261F8111A8
:1041E00003C0CE010E94911CCE01DF91CF910895B2
:1041F000CF93DF93EC010E943A1F811103C0CE01DF
:104200000E94911CCE01DF91CF910895CF93DF934F
:10421000EC010E94661F811103C0CE010E94911C17
:10422000CE01DF91CF910895CF93DF93EC010E94EF
:10423000971F811103C0CE010E94911CCE01DF9116
:10424000CF910895CF93DF93EC010E94C81F811195
:1042500003C0CE010E94911CCE01DF91CF91089541
:10426000CF93DF93EC010E94FA1F811103C0CE01AE
:104270000E94911CCE01DF91CF910895CF93DF93DF
:10428000EC010E942C20811103C0CE010E94911CE0
:10429000CE01DF91CF910895CF93DF93EC010E947F
:1042A0005D20811103C0CE010E94911CCE01DF91DF
:1042B000CF910895CF93DF93EC010E948E2081115E
:1042C00003C0CE010E94911CCE01DF91CF910895D1
:1042D000CF93DF93DC01ED91FC91EB01A881B981D3
:1042E000309711F01097C9F4109759F0EB012C8119
:1042F0003D81232B31F08C9190E09195819591092E
:1043000014C0309781F0DC0114968D919C91159723
:10431000892B49F0808190E008C0BD01CF01DF9179
:10432000CF910C94592E80E090E0DF91CF910895C9
:10433000FC0144815581FB012481358142175307DB
:1043400029F40E94682121E0892B09F020E0822FC6
:104350000895FC0124813581232B31F421E061157E
:104360007105A1F0FB0108C0FC01808191816115FC
:10437000710531F421E0FC018081882339F005C00A
:104380000E94592E21E0892B09F020E0822F089508
:104390000E946821892F881F8827881F08950E94FE
:1043A000682121E0181619060CF020E0822F0895EC
:1043B0000E94682121E0181619060CF420E0822FD3
:1043C00008950E946821892F8095881F8827881F5B
:1043D0000895EF92FF920F931F93CF93DF93861769
:1043E000970731F1FC0124813581FB01448155811E
:1043F00024173507D9F4232BD9F0DC010D911C913A
:10440000C081D181F80181918F01882389F0082E24
:10441000000C990B0E94062E7C018991082E000C3D
:10442000990B0E94062EE816F90661F380E001C0A0
:1044300081E0DF91CF911F910F91FF90EF90089550
:10444000DB011496ED91FC911597DC0114962D91EA
:104450003C9115972E1B3F0B24173507A0F02D918B
:104460003C912115310579F0DB016D917C9161154D
:10447000710549F0CA01AF01820F931F0E94692E96
:1044800021E0892B09F020E0822F0895FC0144816E
:104490005581FB01248135814217530720F040E00C
:1044A00050E00C94202280E00895FC0124813581A5
:1044B000FB014481558124173507A0F0FC01808160
:1044C0009181009779F0FB0160817181611571051F
:1044D00049F0241B350B820F931F0E94592E21E0B7
:1044E000892B09F020E0822F0895FC012481358179
:1044F0006217730730F480819181FC01E60FF71F8A
:1045000040830895FC01248135816217730720F4EC
:1045100080819181009729F41092E30583EE95E064
:104520000895860F971F0895FC0124813581621735
:10453000730748F480819181009729F0FC01E60F10
:10454000F71F8081089580E008950C9494220F93C2
:104550001F93CF93DF934115510519F16115710533
:1045600001F1DC011496ED91FC9115972E173F0790
:1045700018F0FB01108215C0E21BF30BEA01219732
:10458000EC17FD0708F4EF018B01FC0160817181DC
:10459000620F731FAE01C8010E94772EC00FD11F9A
:1045A0001882DF91CF911F910F910895CF93DF93E0
:1045B000FC01248135814217530778F4C081D181F1
:1045C000062E000C770BCE01840F951F0E944E2EF5
:1045D000009719F08C1B9D0B02C08FEF9FEFDF91AE
:1045E000CF91089540E050E00C94D622CF93DF9312
:1045F000FC01248135814217530780F4FB01DC0163
:10460000CD91DC9160817181CE01840F951F0E9454
:10461000912E009719F08C1B9D0B02C08FEF9FEF1E
:10462000DF91CF91089540E050E00C94F622DF92A4
:10463000EF92FF920F931F93CF93DF93DC011496B9
:104640002D913C9115974217530718F08FEF9FEF6C
:104650001DC08C01EA012196DC01ED91FC911197BE
:10466000EC0FFD1FD0801082ED90FC90062E000C08
:10467000770BC7010E94862ECE0DDF1DD8820097D2
:1046800029F3F80120813181821B930BDF91CF91B7
:104690001F910F91FF90EF90DF900895FC014481EE
:1046A0005581415051090C941723AF92BF92CF927C
:1046B000DF92EF92FF920F931F93CF93DF937B01D3
:1046C0008A01FB01448155814115510561F1FC01CD
:1046D000248135812115310531F12417350718F171
:1046E0000217130718F0890101501109FC01A0807D
:1046F000B180C501DFEFCFEF6501C00ED11EC81636
:10470000D906A0F0F701608171810E94912E009777
:1047100069F09C012A193B090217130710F0D22FE8
:10472000C32F0196ECCF8FEF9FEF02C08D2F9C2FF0
:10473000DF91CF911F910F91FF90EF90DF90CF907D
:10474000BF90AF900895FC0144815581FB01248105
:104750003581421B530B0C945523BF92CF92DF92AD
:10476000EF92FF920F931F93CF93DF937C016B0126
:104770008A01E9012417350720F4812F8901C42F0C
:10478000D82F6BE972E0C7010E94FA1CD60114967B
:104790008D919C91159708171907C8F48C179D07E0
:1047A00008F4EC01D601ED91FC911197EC0FFD1F7F
:1047B000B08010826D917C91600F711FC7010E94C3
:1047C000501DD601ED91FC91EC0FFD1FB082C70189
:1047D000DF91CF911F910F91FF90EF90DF90CF90DD
:1047E000BF900895DC01ED91FC91309741F08081FC
:1047F000882329F0861301C040833196F8CF0895AD
:104800002F923F924F925F926F927F928F929F92E0
:10481000AF92BF92CF92DF92EF92FF920F931F93CE
:10482000CF93DF93FC01448055804114510409F477
:10483000CEC0FB01848095808114910409F4C7C027
:104840007A016B018C01FA0164807580681879081F
:10485000FC01C081D18161147104B9F4F601608159
:104860007181CE010E94912EEC01009709F4AFC036
:10487000F70160817181448155810E94332EF701D7
:1048800084819581C80FD91FE9CF77FE44C05E01AE
:10489000F60160817181C5010E94912E2C01009763
:1048A00021F14C018A189B08A401B501CE010E9498
:1048B000332EC80DD91DF701608171814481558166
:1048C000CE010E94332EF70184819581C80FD91F34
:1048D000F601A480B580A40CB51CF80184819581F3
:1048E000860D971D95838483D3CFB501CE01DF91CB
:1048F000CF911F910F91FF90EF90DF90CF90BF90DD
:10490000AF909F908F907F906F905F904F903F906F
:104910002F900C94622EFB01208031805201B10156
:10492000CE010E94912E009731F0EC01C80DD91DE7
:10493000A60CB71CF4CFA414B50409F448C0F801C0
:10494000828193818A159B0530F4B501C8010E94CC
:10495000A31C8823E1F1F80144815581415051099C
:1049600057FD35C0B601C8010E945523EC0197FDE3
:104970002EC0F60124813581280F391FF80180816E
:104980009181820F931F44815581421B530BBC01BF
:10499000860D971D0E943C2EF80184819581860D1D
:1049A000971D9583848320813181F901E80FF91FD8
:1049B0001082F80180819181F701608171814481C9
:1049C00055818C0F9D1F0E94332EAE01C7CFDF9102
:1049D000CF911F910F91FF90EF90DF90CF90BF90FC
:1049E000AF909F908F907F906F905F904F903F908F
:1049F0002F900895CF93DF93DC011496ED91FC91F5
:104A000015976E177F0730F54115510519F1DF0134
:104A1000A61BB70B9A01A417B50708F49D01DB018B
:104A2000EC0188819981E21BF30BFD83EC83AF01DC
:104A3000461B570B260F371FBC01620F731F8A0FCF
:104A40009B1F0E94772EE881F9818C819D81E80F60
:104A5000F91F1082DF91CF9108954FEF5FEF0C9413
:104A6000FA24CF93DF93FC01C081D181209751F0CC
:104A70008881882339F0082E000C990B0E94062E9D
:104A80008993F6CFDF91CF910895CF93DF93FC0107
:104A9000C081D181209751F08881882339F0082E78
:104AA000000C990B0E940E2E8993F6CFDF91CF91C7
:104AB0000895AF92BF92CF92DF92EF92FF920F9341
:104AC0001F93CF93DF93DC01CD90DC901197C1143D
:104AD000D10409F443C01496CD91DC911597209729
:104AE000E9F18C0176015701BFEFAB1ABB0AF70160
:104AF0008081082E000C990B0E94FD2D892B11F04E
:104B00007501F1CF2197CC0DDD1D8881082E000C99
:104B1000990B0E94FD2D892B29F0CE15DF0510F091
:104B20002197F3CFAE014F5F5F4F4E195F09D80158
:104B300015965C934E931497CE14DF0420F4B701BE
:104B4000C6010E94332ED801ED91FC911197149665
:104B50008D919C911597E80FF91F1082DF91CF91ED
:104B60001F910F91FF90EF90DF90CF90BF90AF908B
:104B70000895FC0180819181009711F00C94D62D4D
:104B800060E070E0CB010895FC0180819181009785
:104B900011F00C94D22D60E070E0CB0108950C94DC
:104BA000C42585E792E00C946026CF93DF93CDB7C0
:104BB000DEB728970FB6F894DEBF0FBECDBFBE019B
:104BC0006F5F7F4FCE0105960E9438268CE992E0F8
:104BD0000E9460268FEA92E00E94602669817A81B5
:104BE0008B819C810E9465268AEB92E00E94602660
:104BF0008FEB92E00E9460266D817E818F81988587
:104C00000E9465268DEC92E00E94602668EB7BE0B6
:104C100080E090E00E94181828960FB6F894DEBF46
:104C20000FBECDBFDF91CF910895FC01908190958B
:104C300090830895CF93DF93D82F0E94731AC82FC3
:104C40004AE050E06D2F8CE393E00E947E0C4AE036
:104C500050E06C2F8CE393E00E947E0C62ED72E0DA
:104C60008CE393E00E94EB0B8C2FDF91CF910895A2
:104C7000EF92FF920F931F93CF93DF938C017B01F1
:104C800066E384EE95E00E944603E4EEF5E084815D
:104C90009581A681B781E80188839983AA83BB8324
:104CA00080819181A281B381F70180839183A28366
:104CB000B383DF91CF911F910F91FF90EF900895F3
:104CC000BC018CE393E00C94EB0BAB01BC0122E044
:104CD00030E08CE393E00C940A0E4AE050E0FC01D3
:104CE00060818CE393E00C947E0C0C94081A0C9475
:104CF000441ACF93DF93CEE1D6E091E0988386E12A
:104D000089831A821B8282E08D83E1EFF5E0FF83C5
:104D1000EE8384E6888728E0208329E0238399872F
:104D20009EE09A871B861C8693E09E8727EF35E0DE
:104D3000388B2F87898B8AE086838BE0818761E0BF
:104D400086E10E94752661E08A85DF91CF910C94FF
:104D50007526EF92FF920F931F93CF93DF93CEE1CF
:104D6000D6E086E0C033D807E9F000E010E0E12C9F
:104D7000F12C8D8190E0E816F90674F4EE81FF8144
:104D8000E00FF11F80810E941A268A838FEFE81AB4
:104D9000F80A0D5F1F4FEDCF6A8189810E94772647
:104DA0002996DFCFDF91CF911F910F91FF90EF9068
:104DB00008950E94A9260C94D5250895089526E00B
:104DC00040E855E260E070E08CE393E00E94D80494
:104DD0000E9479260C94D1250E94D92664EF71E0B7
:104DE00080E090E00C941818FC01908190959083DD
:104DF00008951F921F921F928F9386ED92E09F93CA
:104E00008F930E94422F0F900F900F900F900F9052
:104E10000F9080E008950F931F9300E010E028ECBE
:104E200031E4FC01008311832283338380E090E02E
:104E3000A8E4B2E4FB0180839183A283B3831F9132
:104E40000F9108950C94562F9F938F937F936F9398
:104E500087EF92E09F938F930E94422F0F900F90C5
:104E60000F900F900F900F9008951F926F931F92C5
:104E70008F938BEF92E09F938F930E94422F0F901E
:104E80000F900F900F900F900F9008951F926F93B7
:104E90001F928F938DE193E09F938F930E94422FF7
:104EA0000F900F900F900F900F900F900895FC01AE
:104EB00080811F928F9388E393E09F938F930E944A
:104EC000422F0F900F900F900F90089580E090E088
:104ED00008950895ECE3F3E01382128288EE93E0E4
:104EE000A0E0B0E084839583A683B7838CE392E04F
:104EF0009183808385EC90E09587848784EC90E0B3
:104F00009787868780EC90E0918B808B81EC90E096
:104F1000938B828B82EC90E0958B848B86EC90E077
:104F2000978B868B118E128E138E148E0895E9ED59
:104F3000F3E01382128288EE93E0A0E0B0E0848375
:104F40009583A683B7838CE392E0918380838DEC75
:104F500090E0958784878CEC90E09787868788EC33
:104F600090E0918B808B89EC90E0938B828B8AEC24
:104F700090E0958B848B8EEC90E0978B868B118ED6
:104F8000128E138E148E0895E6E7F4E013821282D7
:104F900088EE93E0A0E0B0E084839583A683B78396
:104FA0008CE392E09183808385ED90E09587848700
:104FB00084ED90E09787868780ED90E0918B808BE1
:104FC00081ED90E0938B828B82ED90E0958B848BCA
:104FD00086ED90E0978B868B118E128E138E148E39
:104FE0000895E3E1F5E01382128288EE93E0A0E0F9
:104FF000B0E084839583A683B7838CE392E09183AA
:10500000808385E391E09587848784E391E09787A7
:10501000868780E391E0918B808B81E391E0938B95
:10502000828B82E391E0958B848B86E391E0978B72
:10503000868B118E128E138E148E08950895862FEE
:105040000C94731A862F642F0C94441A862F642FA5
:105050000C94081A0E945F180E944A0B0E94DF26D7
:10506000CAE0D4E00E94EC262097E1F30E940A04F3
:10507000F9CF6115710579F0FB0101900020E9F786
:105080003197AF01461B570BDC01ED91FC9102807B
:10509000F381E02D199480E090E008950C94AB2EFC
:1050A0000C94C12E0C941D2F0C94F02EDB018F93C9
:1050B0009F930E94AF28BF91AF91A29F800D911D39
:1050C000A39F900DB29F900D11240895A1E21A2E76
:1050D000AA1BBB1BFD010DC0AA1FBB1FEE1FFF1F9C
:1050E000A217B307E407F50720F0A21BB30BE40BEC
:1050F000F50B661F771F881F991F1A9469F7609533
:105100007095809590959B01AC01BD01CF010895EC
:10511000052E97FB1EF400940E949F2857FD07D090
:105120000E94662807FC03D04EF40C949F285095EB
:105130004095309521953F4F4F4F5F4F0895909583
:105140008095709561957F4F8F4F9F4F0895EE0F1B
:10515000FF1F881F8BBF0790F691E02D19940E94C6
:10516000BA28A59F900DB49F900DA49F800D911D0E
:1051700011240895A29FB001B39FC001A39F700D99
:10518000811D1124911DB29F700D811D1124911D4F
:1051900008955058BB27AA270E94E1280C94542A4E
:1051A0000E94462A38F00E944D2A20F039F49F3F91
:1051B00019F426F40C94432A0EF4E095E7FB0C94C2
:1051C0003D2AE92F0E94652A58F3BA176207730730
:1051D0008407950720F079F4A6F50C94872A0EF43D
:1051E000E0950B2EBA2FA02D0B01B90190010C01F7
:1051F000CA01A0011124FF27591B99F0593F50F40F
:10520000503E68F11A16F040A22F232F342F442766
:10521000585FF3CF469537952795A795F04053955E
:10522000C9F77EF41F16BA0B620B730B840BBAF02E
:105230009150A1F0FF0FBB1F661F771F881FC2F799
:105240000EC0BA0F621F731F841F48F487957795AD
:105250006795B795F7959E3F08F0B0CF9395880F67
:1052600008F09927EE0F9795879508950E94192ABF
:1052700008F481E008950E944F290C94542A0E945A
:105280004D2A58F00E94462A40F029F45F3F29F049
:105290000C943D2A51110C94882A0C94432A0E94A4
:1052A000652A68F39923B1F3552391F3951B550BA8
:1052B000BB27AA2762177307840738F09F5F5F4FE9
:1052C000220F331F441FAA1FA9F335D00E2E3AF028
:1052D000E0E832D091505040E695001CCAF72BD040
:1052E000FE2F29D0660F771F881FBB1F2617370791
:1052F0004807AB07B0E809F0BB0B802DBF01FF27C3
:1053000093585F4F3AF09E3F510578F00C943D2A38
:105310000C94882A5F3FE4F3983ED4F38695779502
:105320006795B795F7959F5FC9F7880F911D96957B
:10533000879597F90895E1E0660F771F881FBB1FD7
:10534000621773078407BA0720F0621B730B840B84
:10535000BA0BEE1F88F7E09508950E946D2A88F039
:105360009F5798F0B92F9927B751B0F0E1F0660F29
:10537000771F881F991F1AF0BA95C9F714C0B1306A
:1053800091F00E94872AB1E008950C94872A672F34
:10539000782F8827B85F39F0B93FCCF38695779599
:1053A0006795B395D9F73EF4909580957095619582
:1053B0007F4F8F4F9F4F0895E89409C097FB3EF4AD
:1053C00090958095709561957F4F8F4F9F4F992352
:1053D000A9F0F92F96E9BB279395F69587957795D0
:1053E0006795B795F111F8CFFAF4BB0F11F460FF90
:1053F0001BC06F5F7F4F8F4F9F4F16C0882311F0E8
:1054000096E911C0772321F09EE8872F762F05C0FB
:10541000662371F096E8862F70E060E02AF09A9596
:10542000660F771F881FDAF7880F9695879597F98B
:105430000895990F0008550FAA0BE0E8FEEF161625
:105440001706E807F907C0F012161306E407F50778
:1054500098F0621B730B840B950B39F40A2661F0EC
:10546000232B242B252B21F408950A2609F4A1408F
:10547000A6958FEF811D811D089597F99F6780E89C
:1054800070E060E008959FEF80EC089500240A9496
:105490001616170618060906089500240A9412160F
:1054A0001306140605060895092E0394000C11F442
:1054B000882352F0BB0F40F4BF2B11F460FF04C0EF
:1054C0006F5F7F4F8F4F9F4F089557FD9058440F48
:1054D000551F59F05F3F71F04795880F97FB991F53
:1054E00061F09F3F79F08795089512161306140610
:1054F000551FF2CF4695F1DF08C01616170618069D
:10550000991FF1CF86957105610508940895E89477
:10551000BB2766277727CB0197F908950E94192AA0
:1055200008F48FEF08950E94A62A0C94542A0E9432
:10553000462A38F00E944D2A20F0952311F00C9451
:105540003D2A0C94432A11240C94882A0E94652A2F
:1055500070F3959FC1F3950F50E0551F629FF001C6
:10556000729FBB27F00DB11D639FAA27F00DB11DDF
:10557000AA1F649F6627B00DA11D661F829F222768
:10558000B00DA11D621F739FB00DA11D621F839FEF
:10559000A00D611D221F749F3327A00D611D231FC5
:1055A000849F600D211D822F762F6A2F11249F5713
:1055B00050409AF0F1F088234AF0EE0FFF1FBB1F16
:1055C000661F771F881F91505040A9F79E3F5105D5
:1055D00080F00C943D2A0C94882A5F3FE4F3983EB7
:1055E000D4F3869577956795B795F795E7959F5F7F
:1055F000C1F7FE2B880F911D9695879597F9089511
:105600000E94192A880B990B0895EF920F931F930C
:10561000CF93DF93E80147FD02C034E001C034E1DD
:10562000042E000C550B57FF03C0519541955109AD
:10563000E32E022F242FAE010E949031CE01DF9184
:10564000CF911F910F91EF9008950F931F93CF93D8
:10565000DF938230910510F482E090E0E09136060D
:10566000F091370620E030E0A0E0B0E0309719F18B
:10567000408151810281138148175907C8F084176E
:10568000950769F4109731F012960C9312971396C0
:105690001C9327C0009336061093370622C02115AD
:1056A000310519F04217530718F49A01BD01EF01B3
:1056B000DF01F801DBCF21153105F9F0281B390B8B
:1056C0002430310580F48A819B816115710521F0B8
:1056D000FB019383828304C0909337068093360640
:1056E000FE01329644C0FE01E20FF31F81939193B5
:1056F00022503109398328833AC0209134063091F1
:105700003506232B41F42091300230913102309341
:1057100035062093340620912E0230912F02211558
:10572000310541F42DB73EB740913202509133021A
:10573000241B350BE0913406F0913506E217F30790
:10574000A0F42E1B3F0B2817390778F0AC014E5FF1
:105750005F4F2417350748F04E0F5F1F50933506F3
:10576000409334068193919302C0E0E0F0E0CF01D2
:10577000DF91CF911F910F910895CF93DF93009701
:1057800009F481C0FC01329713821282A09136067F
:10579000B0913706109781F420813181820F931FD9
:1057A00020913406309135062817390751F5F093CA
:1057B0003506E093340667C0ED0120E030E0CE17F7
:1057C000DF0740F44A815B819E0141155105F1F0EC
:1057D000EA01F5CFD383C28340815181840F951FA5
:1057E000C817D90759F488819981840F951F0296AB
:1057F000918380838A819B819383828321153105E4
:1058000029F4F0933706E09336063DC0E901FB83A7
:10581000EA8349915991C40FD51FEC17FD0761F434
:1058200080819181840F951F0296E9019983888375
:10583000828193819B838A83E0E0F0E012968D91D0
:105840009C911397009719F0FD01DC01F7CF8D9122
:105850009C9111979D012E5F3F4F820F931F2091C6
:105860003406309135062817390769F4309729F442
:10587000109237061092360602C013821282B0933D
:105880003506A0933406DF91CF9108958F929F92B1
:10589000AF92BF92CF92DF92EF92FF92CF93DF93BE
:1058A000EC01688179818A819B816115710581058F
:1058B000910521F464E279ED8BE597E02DE133EF7A
:1058C00041E050E00E94882849015A019B01AC0147
:1058D000A7EAB1E40E94AF286B017C01ACEEB4EF03
:1058E000A50194010E941936DC01CB018C0D9D1D90
:1058F000AE1DBF1DB7FF03C00197A109B048888343
:105900009983AA83BB83BC01CD019F77DF91CF919F
:10591000FF90EF90DF90CF90BF90AF909F908F90CF
:1059200008958F929F92AF92BF92CF92DF92EF92A3
:10593000FF9260913402709135028091360290910D
:105940003702611571058105910521F464E279ED55
:105950008BE597E02DE133EF41E050E00E9488288D
:1059600049015A019B01AC01A7EAB1E40E94AF28AA
:105970006B017C01ACEEB4EFA50194010E941936D5
:10598000DC01CB018C0D9D1DAE1DBF1DB7FF03C0FB
:105990000197A109B0488093340290933502A093F7
:1059A0003602B0933702BC01CD019F77FF90EF9094
:1059B000DF90CF90BF90AF909F908F9008956093AD
:1059C0003402709335028093360290933702089523
:1059D0006F927F928F929F92AF92BF92CF92DF92FF
:1059E000EF92FF920F931F93CF93DF93009789F469
:1059F000CB01DF91CF911F910F91FF90EF90DF903E
:105A0000CF90BF90AF909F908F907F906F900C94AD
:105A1000252BFC01E60FF71F9C0122503109E217EC
:105A2000F30708F4A9C0EC01D9010D911C9111975D
:105A300006171707B0F00530110508F49BC0C80120
:105A400004978617970708F495C002501109061BA2
:105A5000170B019311936D937C93CF010E94BD2B83
:105A600089C05B01A01AB10A4C01800E911EA09161
:105A70003606B0913706612C712CE12CF12C109771
:105A800009F446C08D919C911197A815B905B1F5FF
:105A90006C0142E0C40ED11CCA14DB0478F14C0145
:105AA0008A189B08640142E0C40ED11C1296BC9077
:105AB00012971396AC91B5E0CB16D10440F0B282A8
:105AC000A38391828082D9016D937C9309C00E5F7C
:105AD0001F4F800F911FF90191838083EB2DFA2FC7
