:100000000C947D020C94C01A0C94EB1A0C94161BE1
:100010000C94411B0C946C1B0C94971B0C94C21BEE
:100020000C94ED1B0C94AE020C94AE020C94AE0238
:100030000C94AE020C9465170C94AE020C94AE02B4
:100040000C94AE020C94AE020C94AE020C94AE0270
:100050000C94AE020C94AE020C94AE020C94A01D53
:100060000C94AE020C9479050C94AF050C94AE027E
:100070000C94AE020C94AE020C94AE020C94AE0240
:100080000C94AE020C94AE020C94AE020C94AE0230
:100090000C94E3050C9419060C94AE020C94F01821
:1000A0000C94AE020C94AE020C94AE020C94AE0210
:1000B0000C94AE020C94AE020C94AE020C94AE0200
:1000C0000C94AE020C94AE020C94AE020C944D064D
:1000D0000C9483060C94AE020C94B7060C94ED06B7
:1000E0000C94AE02701A3A1A421A4E1A5B1A7C1A13
:1000F000891AB01AA61AA81AAA1AAC1AB21AB41AED
:10010000151F1A1F1F1F291F331FAC1F3D1F451F1F
:100110004D1F571F611F6B1F7A1F841FAC1F8E1F3F
:10012000981FA21FD01FD31FC21FC61FCC1F0A209B
:10013000D71FDB1FE11FE51FE91FEF1FF31FF71F8D
:100140000A20FD1F012005200C94A71C0C94B21A54
:100150000C94331F0C946B1F0C94BC2F0C94F71F42
:100160000C94D31F0C9401040C94291F0C94F303DA
:100170000C94DB1F0C947A1C0C94981F0C94D71FC2
:100180000C94201C0C94E91F0C94AA1A0C94C32FF5
:100190000C947C1A0C94841F0C943A1A0C94A81A90
:1001A0000C94FD1F0C94A61A0C94CC1F0C94492D92
:1001B0000C94211A0C94451F0C94431C0C94B01AF7
:1001C0000C941A1F0C94D9050C94341C0C94B00296
:1001D0000C9401200C94A21F0C945B1A0C943D1FEC
:1001E0000C945A2F0C9443060C94FC2E0C94ED2F77
:1001F0000C94F92F0C94B52F0C9483040C94571F76
:100200000C947A1F0C94B82F0C94891A0C94E11F4B
:100210000C94D0040C94181C0C9422070C94701AA3
:100220000C94002F0C94D01F0C94151F0C940A20D2
:100230000C94730D0C9424040C94AC1A0C941F1F92
:100240000C94611F0C944E1A0C946E1C0C942D2F60
:100250000C94441C0C94EF1F0C94AC1F0C94421A89
:100260000C94FF2E0C94E51F0C94B41A0C94C21F2E
:100270000C94AD060C94F31F0C9415040C94872F6A
:100280000C9417070C9405200C948E1F0C944D1F92
:100290000C94C61F0C94E7034E414E494E495459E5
:1002A000494E46CDCCCC3D0AD7233C17B7D1387741
:1002B000CC2B329595E6241FB14F0A000020410057
:1002C00000C84200401C4620BCBE4CCA1B0E5AAEA1
:1002D000C59D7400407A10F35A00A0724E180900B0
:1002E00010A5D4E80000E87648170000E40B54029B
:1002F0000000CA9A3B000000E1F5050000809698D6
:1003000000000040420F000000A086010000001025
:100310002700000000E80300000000640000000067
:10032000000A00000000000100000000002C76D848
:1003300088DC674F0823DFC1DFAE59E1B1B796E52E
:10034000E3E453C63AE651997696E8E6C28426EB92
:10035000898C9B62ED407C6FFCEFBC9C9F40F2BAA5
:10036000A56FA5F490055A2AF75C936B6CF9676D3D
:10037000C11BFCE0E40D47FEF520E6B500D0ED9092
:100380002E0300943577050080841E080000204E5F
:100390000A000000C80C333333330F986E128311F8
:1003A00041EF8D2114893BE65516CFFEE6DB18D1CF
:1003B000844B381BF77C1D901DA4BBE424203284A1
:1003C000725E228100C9F124ECA1E53D2702000004
:1003D0000A0B02090C0D0E080703040100000000BF
:1003E000000000000000000000000000000000000D
:1003F00000000000000000000000121110000000CA
:1004000000000000000000000000000000000000EC
:1004100000000000010210202008081020401020D9
:1004200040800201020108040201010204081020B8
:1004300040808040201008040201800402018040B6
:10044000201008040201080402010102040810201F
:1004500040800102040810204080050505050705BD
:1004600008080808020202020A0A08080404040430
:10047000010101010101010103030303030303035C
:10048000040707070C0C0C0C0C0C0C0C02020202EB
:1004900006060606060606060B0B0B0B0B0B0B0BD4
:1004A000000020002300260029002C002F0032002D
:1004B00000010000030106010901000022002500DF
:1004C00028002B002E00310034000201000005013D
:1004D00008010B0100002100240027002A002D0044
:1004E0003000330001010000040107010A01002F60
:1004F0002D2F5A2F872FED2FF92F11241FBECFEF4D
:10050000D1E2DEBFCDBF00E00CBF13E0A0E0B2E05F
:10051000E4ECFBE700E00BBF02C007900D92A23BAA
:10052000B107D9F728E0A2EBB3E001C01D92AB30D0
:10053000B207E1F712E0CDE7D2E000E006C0219774
:100540000109802FFE010E946930C737D10780E082
:100550000807A9F70E94C92F0C94E03D0C940000F5
:100560000E948F350E948F354F925F926F927F92DB
:100570009F92AF92BF92CF92DF92EF92FF920F9332
:100580001F93CF93DF938C01C62FFC011086118639
:1005900012861386148661E08C2F0E940B2060E087
:1005A0008C2F0E94472064E170E080E090E00E9480
:1005B0001B1E61E08C2F0E94472088E290E00E9481
:1005C000571E60E08C2F0E940B2051E1E52E57E270
:1005D000F52E8C2F0E947620892B39F4F1E0EF1A4A
:1005E000F108B9F78EEF9FEF5BC041E1E42E47E2DF
:1005F000F42E8C2F0E947620019729F481E0E81ACE
:10060000F108B9F7EFCF28E2E22EF12C912CD7E0D8
:10061000AA24A394B12C91E1C92E97E2D92E8C2F54
:100620000E947620892B29F4E1E0CE1AD108B9F78F
:10063000D9CF0E94F61D2B013C0181E1C82E87E233
:10064000D82E8C2F0E947620019729F4F1E0CF1A42
:10065000D108B9F7C7CF0E94F61DDC01CB01841980
:100660009509A609B7098997A105B10560F0F801B8
:10067000E90DF11D2085C5010D2E01C0880F0A94DA
:10068000EAF7822B8087D11103C09394D7E001C091
:10069000D15081E0E81AF10809F0BDCF80E090E088
:1006A000DF91CF911F910F91FF90EF90DF90CF904E
:1006B000BF90AF909F907F906F905F904F90089504
:1006C0000F931F93CF93DF93EC010E94B402009726
:1006D00009F50885602F70E080E090E00E949E316F
:1006E000688379838A839B831A85612F70E080E019
:1006F00090E00E949E316C837D838E839F83100FD8
:1007000081E090E02C85121302C080E090E091958A
:1007100081959109DF91CF911F910F9108950F93CA
:100720001F93CF93DF93EC010E94B402009709F06E
:1007300049C0698588850E948A22BC0180E090E0DA
:100740000E949E312DEC3CEC4CEC5DE30E94553256
:10075000688379838A839B838A8587FF05C08F7727
:100760008A870FEF1FEF02C001E010E06B858A85DA
:100770000E948A229C01029FC001039F900D129F3C
:10078000900D1124BC0180E090E00E949E312DEC80
:100790003CEC4CEC5DE30E9455326C837D838E8390
:1007A0009F8328858985280F8A85280F8B85280FA8
:1007B00081E090E03C85231302C080E090E09195B9
:1007C00081959109DF91CF911F910F910895FC01BF
:1007D000918D228D892F90E0805C9F4F821B910923
:1007E0008F7399270895FC01918D828D981731F0B0
:1007F000828DE80FF11D858D90E008958FEF9FEFBA
:100800000895FC01918D828D981761F0828DDF0132
:10081000A80FB11D5D968C91928D9F5F9F73928FF3
:1008200090E008958FEF9FEF0895FC01538D448D64
:10083000252F30E0842F90E0821B930B541710F08B
:10084000CF9608950197089589ED95E0892B41F0A1
:1008500080E090E0892B21F00E94D905811125C00C
:1008600083E496E0892B41F080E090E0892B21F031
:100870000E94430681111CC08DEA96E0892B41F04D
:1008800080E090E0892B21F00E94AD06811113C019
:1008900087E197E0892BA1F080E090E0892B81F03F
:1008A0000E94170781110AC008950E940000D8CF46
:1008B0000E940000E1CF0E940000EACF0C940000EB
:1008C0000895FC01848DDF01A80FB11DA35ABF4F0D
:1008D0002C91848D90E001968F739927848FA6893F
:1008E000B7892C93A089B1898C91837080648C9393
:1008F000938D848D981306C00288F389E02D808142
:100900008F7D80830895EF92FF920F931F93CF9373
:10091000DF93EC0181E0888F9B8D8C8D981305C04F
:10092000E889F989808185FD26C0F62E0B8D10E0BF
:100930000F5F1F4F0F731127E02E8C8DE8120CC034
:100940000FB607FCFACFE889F989808185FFF5CFDA
:10095000CE010E946104F1CF8B8DFE01E80FF11DE5
:10096000E35AFF4FF0829FB7F8940B8FEA89FB8917
:10097000808180620AC09FB7F894EE89FF89608306
:10098000E889F98980818370806480839FBF81E0DA
:1009900090E0DF91CF911F910F91FF90EF9008951C
:1009A000CF93DF93EC01888D8823C9F0EA89FB8916
:1009B000808185FD05C0A889B9898C9186FD0FC00D
:1009C0000FB607FCF5CF808185FFF2CFA889B989E2
:1009D0008C9185FFEDCFCE010E946104E7CFDF91BE
:1009E000CF910895CF92DF92EF92FF921F93CF9312
:1009F000DF93EC016A017B01122FE889F98982E01B
:100A000080834115514E61057105B1F060E079E0D8
:100A10008DE390E0A70196010E942830DA01C90118
:100A20000197A109B109B695A795979587959C015E
:100A3000211580E13807A8F0E889F989108260E87B
:100A400074E88EE190E0A70196010E942830DA0157
:100A5000C9010197A109B109B695A7959795879501
:100A60009C01EC85FD853083EE85FF852083188E03
:100A7000EC89FD891083EA89FB898081806180830C
:100A8000EA89FB89808188608083EA89FB8980818B
:100A900080688083EA89FB8980818F7D8083DF91F4
:100AA000CF911F91FF90EF90DF90CF900895CF935B
:100AB000DF93EC01E881F9810680F781E02D19953B
:100AC000EA89FB8980818F7E8083EA89FB89808126
:100AD000877F8083EA89FB8980818F778083EA8999
:100AE000FB8980818F7D80838A8D898FDF91CF9173
:100AF00008951F920F920FB60F9211240BB60F920A
:100B00002F938F939F93EF93FF93E091C203F09104
:100B1000C3038081E091C803F091C90382FD12C034
:100B200090818091CB038F5F8F732091CC038217CC
:100B300051F0E091CB03F0E0EE54FC4F958F8093A1
:100B4000CB0301C08081FF91EF919F918F912F91F5
:100B50000F900BBE0F900FBE0F901F9018951F9215
:100B60000F920FB60F9211240BB60F922F933F9353
:100B70004F935F936F937F938F939F93AF93BF93A5
:100B8000EF93FF9382EB93E00E946104FF91EF915A
:100B9000BF91AF919F918F917F916F915F914F9195
:100BA0003F912F910F900BBE0F900FBE0F901F9093
:100BB000189582EB93E00E94E70321E0892B09F46A
:100BC00020E0822F08951F920F920FB60F921124EA
:100BD0000BB60F922F938F939F93EF93FF93E09118
:100BE0005F04F09160048081E0916504F0916604F7
:100BF00082FD12C09081809168048F5F8F73209175
:100C00006904821751F0E0916804F0E0E15BFB4F6A
:100C1000958F8093680401C08081FF91EF919F912F
:100C20008F912F910F900BBE0F900FBE0F901F90C2
:100C300018951F920F920FB60F9211240BB60F92B8
:100C40002F933F934F935F936F937F938F939F93D4
:100C5000AF93BF93EF93FF938FE494E00E946104FE
:100C6000FF91EF91BF91AF919F918F917F916F9184
:100C70005F914F913F912F910F900BBE0F900FBE40
:100C80000F901F9018958FE494E00E94E70321E0F5
:100C9000892B09F420E0822F08951F920F920FB63E
:100CA0000F9211240BB60F922F938F939F93EF9374
:100CB000FF93E091FC04F091FD048081E091020536
:100CC000F091030582FD12C09081809105058F5F30
:100CD0008F7320910605821751F0E0910505F0E031
:100CE000E451FB4F958F8093050501C08081FF91F2
:100CF000EF919F918F912F910F900BBE0F900FBE90
:100D00000F901F9018951F920F920FB60F921124FB
:100D10000BB60F922F933F934F935F936F937F93F5
:100D20008F939F93AF93BF93EF93FF938CEE94E0D9
:100D30000E946104FF91EF91BF91AF919F918F91BC
:100D40007F916F915F914F913F912F910F900BBECB
:100D50000F900FBE0F901F9018958CEE94E00E949C
:100D6000E70321E0892B09F420E0822F08951F92E8
:100D70000F920FB60F9211240BB60F922F938F93F1
:100D80009F93EF93FF93E0919905F0919A058081ED
:100D9000E0919F05F091A00582FD12C090818091A5
:100DA000A2058F5F8F732091A305821751F0E09108
:100DB000A205F0E0E757FA4F958F8093A20501C096
:100DC0008081FF91EF919F918F912F910F900BBE9A
:100DD0000F900FBE0F901F9018951F920F920FB695
:100DE0000F9211240BB60F922F933F934F935F9363
:100DF0006F937F938F939F93AF93BF93EF93FF93E3
:100E000089E895E00E946104FF91EF91BF91AF9155
:100E10009F918F917F916F915F914F913F912F9112
:100E20000F900BBE0F900FBE0F901F90189589E882
:100E300095E00E94E70321E0892B09F420E0822F4E
:100E4000089508958F929F92AF92BF92CF92DF92B2
:100E5000EF92FF920F931F93CF93DF937C018B014F
:100E60004C0182E0880E911C5701E5E0AE0EB11CEA
:100E7000C0E0D0E0F40161914F014AE050E0C801C8
:100E80000E94960E6C016EE2C8010E94D10D8C0D7D
:100E90009D1DC80FD91F8A149B0461F74AE050E0DA
:100EA000F7016581C8010E94960E8C0F9D1FDF918E
:100EB000CF911F910F91FF90EF90DF90CF90BF9057
:100EC000AF909F908F90089525E532E0FC0131832B
:100ED0002083128213821482158208950F93FC01DD
:100EE00085E592E091838083628343832483058335
:100EF0000F91089525E532E0FC0131832083428380
:100F00005383648375830895DC0185E592E08D93B6
:100F10009D9384E0FB0101900D928A95E1F708957D
:100F2000DC0190E020E030E08AE0FB014191BF016C
:100F3000442309F150ED540F5A3088F4829FF00198
:100F4000839FF00D11249F0120533109240F311D7F
:100F500047FD3A952F3F310541F338F312C04E3229
:100F600081F4933071F0FD01E90FF11D22839F5F41
:100F700020E030E0DACF933021F415962C9381E015
:100F8000089580E00895DC01129624E0FB010190B1
:100F90000D922A95E1F70895FC01428353836483FF
:100FA000758308959B01BC016E5F7F4F44E050E064
:100FB000C9010E94E83521E0892B09F020E0822F49
:100FC0000895FC0110821482138215820895FC0199
:100FD00060838FEF9FEF9283818314821382158247
:100FE0000895FC01608354834383258308954F92C1
:100FF0005F926F927F928F929F92AF92BF92CF92A9
:10100000DF92EF920F93CF93DF93EC016B014A01D4
:10101000590102960E94E1078BE592E0998388834B
:101020002E018CE1480E511C3E0188E5680E711CB2
:10103000C2010E94E10786E0480E511C4614570485
:10104000B9F7FE01EE59FF4F918280823296B1824C
:10105000A082329600833196E0823797D182C08297
:1010600038968AE090E091838083329684EF91E015
:10107000918380833396118210827197108211823E
:1010800012821382C459DF4F1882DF91CF910F91E2
:10109000EF90DF90CF90BF90AF909F908F907F9018
:1010A0006F905F904F900895805A9F4FFC0171831D
:1010B000608308952F923F924F925F926F927F923A
:1010C0008F929F92AF92BF92CF92DF92EF92FF9258
:1010D0000F931F93CF93DF93CDB7DEB728970FB64B
:1010E000F894DEBF0FBECDBF98878F8310E05C0100
:1010F00026E6A20EB11C7C0132E6E30EF11CD501FE
:101100008C911817B8F0312CEF81F885E959FF4F11
:10111000FC83EB83CF80D884F4E6CF0ED11C412C26
:10112000512C320143942F8138852E593F4F3E83F5
:101130002D8360C0F701A081B181A10FB11DEF81A6
:10114000F88580819181FC012081318142E06C91A0
:101150008F819885F90119951F5FD1CF022D10E07D
:10116000AD81BE818D919C91DC01A00FB11F0480E7
:10117000F581E02D6C918F8198851995000F111FD5
:10118000EF81F885E00FF11F892B09F06FC0808592
:10119000918529813A81822B932B91878087239493
:1011A000D5018C91AF81B885ED91FC912816B0F2F4
:1011B000D6018D919C91DC01AE0DBF1D0280F381A3
:1011C000E02D41E06C918F8198851995F601808121
:1011D0009181DC01AE0DBF1DEF81F8858081918189
:1011E000FC012081318140E06C918F819885F9016B
:1011F00019953394AB81BC818C913816E0F5E32CC2
:10120000F12CF601A081B181AE0DBF1DEF81F885F3
:1012100080819181FC012081318141E06C918F813D
:101220009885F9011995F601A081B181AE0DBF1D18
:10123000EF81F88580819181FC012281338140E03A
:101240006C918F819885F9011995D301C201032C06
:1012500004C0880F991FAA1FBB1F0A94D2F79A8354
:1012600089834C0180949094212C9ACF808591851C
:101270008821992192CF28960FB6F894DEBF0FBE31
:10128000CDBFDF91CF911F910F91FF90EF90DF9035
:10129000CF90BF90AF909F908F907F906F905F9016
:1012A0004F903F902F900895FC019C01245C3F4F8C
:1012B000848D861307C0878D90A1019719F481A1B1
:1012C000811105C03696E217F30791F780E0089583
:1012D000FC0180E090E0248D261739F001963696C7
:1012E0008A309105C1F78FEF9FEF0895FC0180E0F0
:1012F00090E0258D368D2617370739F00196369602
:101300008A309105B1F78FEF9FEF0895FC01878D2B
:1013100090A10895FC0181A108958AE00895FC013F
:10132000E859FF4F6115710529F481E090E0918340
:101330008083089571836083089586599F4FFC01CF
:1013400071836083089583599F4FFC01718360838B
:101350000895DC0126E0629FA00DB11D1124909636
:101360005C934E935F9721E091962C939197FC01AB
:10137000E459FF4F208131960190F081E02D222326
:1013800031F0309749F0611107C0DC0102C030979D
:1013900019F05C968C9119940895CF92DF92EF9298
:1013A000FF920F931F93CF93DF93EC01162F042F1F
:1013B000FC0186E0689FE00DF11D112411A2878DCC
:1013C00090A181309105D1F048F08230910591F1E2
:1013D000039709F03FC040E050E030C04423D1F112
:1013E00041E050E0CE010E94A9090E94EA1DC85ABE
:1013F000DF4F688379838A839B832CC00E94EA1D18
:10140000FE01E85AFF4FC080D180E280F380AB013B
:10141000BC014C195D096E097F097296808191812A
:10142000A0E0B0E084179507A607B70718F442E0DC
:1014300050E004C001110EC043E050E0612FCE0126
:10144000DF91CF911F910F91FF90EF90DF90CF90A0
:101450000C94A909DF91CF911F910F91FF90EF900C
:10146000DF90CF9008952F923F924F925F926F92AC
:101470007F928F929F92AF92BF92CF92DF92EF9224
:10148000FF920F931F93CF93DF9300D000D0CDB77F
:10149000DEB79E838D837C015C012CE3A20EB11C20
:1014A000FC018FEF9FEF278D30A1232B21F4148EA9
:1014B000968F858F11A23696AE16BF06A1F7512CD6
:1014C0008D819E818A599F4F9A838983AD81BE8188
:1014D000A959BF4FBC83AB836D807E80B0E66B0E95
:1014E000711C86E0282EE981FA818081581608F067
:1014F0005AC0412C0D811E81050D111D050D111DB8
:10150000085F1F4FAB81BC818C90481408F049C024
:10151000F801C080D180042C02C0D694C7940A94EC
:10152000E2F7FC2DF1703F2E589C40011124840CF1
:10153000911CB4018D819E810E94760997FD05C0A2
:10154000432D682F8D819E8121C0019641F5C0FEFB
:1015500026C0ED81FE8160E070E0848D811119C0AC
:10156000D301ED91FC91E80DF91D8081269EF001DB
:10157000279EF00D11242D813E81E20FF31F848FF1
:10158000968E858E10A2178E432DC9010E94CD091B
:1015900006C06F5F7F4F36966A307105F1F643944F
:1015A000B1CF5394A0CF80E0D70191969C91911137
:1015B00081E0B6E0EB0EF11CAE14BF04A9F726964D
:1015C0000FB6F894DEBF0FBECDBFDF91CF911F9154
:1015D0000F91FF90EF90DF90CF90BF90AF909F90D2
:1015E0008F907F906F905F904F903F902F900895D5
:1015F000CF92DF92EF92FF920F931F93CF93DF93DF
:10160000EC010E94EA1D8E01045A1F4FF801C080B0
:10161000D180E280F380AB01BC014C195D096E09F9
:101620007F093C9680819181A0E0B0E08417950706
:10163000A607B70778F4CE010E945A08CE010E948F
:10164000330AC82F0E94EA1DF801608371838283E8
:10165000938301C0C0E08C2FDF91CF911F910F9138
:10166000FF90EF90DF90CF9008950F931F93CF934B
:10167000DF93EC018C0104591F4F81E0F801808356
:10168000CE010E94F80A882349F089A1882331F00D
:101690008F8D98A1019711F48C8D03C0F8011082F1
:1016A00080E0DF91CF911F910F910895CF93DF9349
:1016B000EC01CE010E94350B8823D9F3DF91CF9145
:1016C0000895FC011382128285E692E09183808363
:1016D000648341872287138608950C94CF0D089563
:1016E0000895089580E0089580E0089580E00895C9
:1016F0000895089508951F93CF93DF93EC01162F5B
:101700006C818EEB96E00E94081D6B85612B8EEB41
:1017100096E00E94A71C8EEB96E0DF91CF911F917F
:101720000C94931DFC01138660E00C947B0B28E065
:10173000FC01238760E00C947B0B61110C94970BE8
:101740000C94920B0F931F93CF938C01C62F646060
:101750000E947B0B81E090E00E94571E6C2F6B7FF4
:10176000C8010E947B0B82E390E0CF911F910F9103
:101770000C94571E1F93CF93DF93EC01162F0E94FA
:101780007B0B612FCE01DF91CF911F910C94A20BA7
:101790000F931F93CF93DF938C01C62FD42F607FBD
:1017A000642B0E94BA0B80E1C89FB00111246D2BFD
:1017B000C801DF91CF911F910F910C94BA0B61E09A
:1017C0000E94C02F80ED97E00C94571E62E00E94AB
:1017D000C02F80ED97E00C94571ECF93DF93CDB7C9
:1017E000DEB728970FB6F894DEBF0FBECDBF9C01C1
:1017F00088E0E7E3F2E0DE01119601900D928A9510
:10180000E1F7F9018085841710F44FEF480FFE01CE
:101810003196E40FF11DE40FF11D9081690F6068AE
:10182000C90128960FB6F894DEBF0FBECDBFDF9179
:10183000CF910C94C02FFC0166816B7F668368603A
:101840000C94C02FFC016681262F246026836C60D7
:101850000C94C02FFC0166816D7F668368600C94D8
:10186000C02F0C942A0CFC016681262F226026834F
:101870006A600C94C02F0C94330CFC0166816E7F5F
:10188000668368600C94C02F0C943D0CFC0166814B
:10189000262F2160268369600C94C02F0C94460C7F
:1018A00068E10C94C02F6CE10C94C02FFC0167819F
:1018B000262F2260278366600C94C02FFC0167816D
:1018C0006D7F678364600C94C02FFC016781262FB5
:1018D0002160278365600C94C02FFC0167816E7FB7
:1018E000678364600C94C02FEF92FF920F931F9355
:1018F000CF93DF938C017A01677088E0689FB00115
:1019000011246064C8010E94C02FE701A8E0EA0E1C
:10191000F11C6991D801ED91FC910190F081E02DCD
:10192000C8011995CE15DF05A1F7DF91CF911F9161
:101930000F91FF90EF9008950C94740CCF93DF9368
:10194000EC01423018F08D8188608D834887222316
:1019500029F0413019F48D8184608D8362E370E059
:1019600080E090E00E941B1E6B85CE010E947B0BE5
:1019700068EE73E080E090E00E941B1E60E3CE0101
:101980000E94BA0B84E991E10E94571E60E3CE01E8
:101990000E94BA0B84E991E10E94571E60E3CE01D8
:1019A0000E94BA0B86E990E00E94571E60E2CE01C9
:1019B0000E94BA0B6D816062CE010E94C02F84E04C
:1019C0008E83CE010E94220CCE010E94DF0B82E0AA
:1019D0008F8366E0CE010E94C02FCE01DF91CF91B0
:1019E0000C94E60BCF93DF93EC018EEB96E00E9414
:1019F000E61C1D8220E04A856985CE01DF91CF91EA
:101A00000C949E0C0C94F20C80E090E008950895E4
:101A100008950C94E7320C94E7320C947F330C94C5
:101A20007F33FC0171836083168A12820895FC0162
:101A3000718360830895FC012689233161F031E0D0
:101A4000320F368BE20FF11D6283FC01E30FF11DB3
:101A5000128281E0089580E00895FC01168A1282C6
:101A60000895FC0120813181D9015D914281339635
:101A70002C5E3F4F511104C081E0442349F007C060
:101A8000541305C05D914191A217B30799F780E007
:101A90000895CF93DF93FB01DC011296AB014C5EFE
:101AA0005F4FEB012881222331F0E417F50719F08D
:101AB00021912D93F6CFDF91CF910C94310DFC0144
:101AC0007183608308950C94490D0E94490D91E043
:101AD00089270895CF93DF93EC010E941B0DCE015F
:101AE000DF91CF910895CF92DF92EF92FF920F9303
:101AF0001F93CF93DF936C017A018B01C0E0D0E09C
:101B0000CE15DF0581F0D8016D918D01D601ED91E3
:101B1000FC910190F081E02DC6011995892B11F0FF
:101B20002196EECF7E01C701DF91CF911F910F91DA
:101B3000FF90EF90DF90CF900895EF92FF920F9378
:101B40001F93CF93DF938C017B01C0E0D0E0F701BE
:101B5000EC0FFD1F6491662361F0D801ED91FC91BB
:101B60000190F081E02DC8011995892B11F0219683
:101B7000EECFCE01DF91CF911F910F91FF90EF90AB
:101B80000895DB0114964D915C9115976D917C91B0
:101B9000DC01ED91FC910280F381E02D19940C940D
:101BA000D82FDC01ED91FC910190F081E02D19948A
:101BB000DB01ED91FC9111970190F081E02DBC01CA
:101BC000CD0119946DE672E00C94D82F0F931F93FA
:101BD000CF93DF93EC010E949D0D8C01CE010E94FA
:101BE000E20D800F911FDF91CF911F910F9108950A
:101BF0000F931F93CF93DF93EC010E94C10D8C01D3
:101C0000CE010E94E20D800F911FDF91CF911F91B5
:101C10000F9108950F931F93CF93DF93EC010E94D0
:101C2000D82F8C01CE010E94E20D800F911FDF9111
:101C3000CF911F910F9108950F931F93CF93DF932F
:101C4000EC010E94D10D8C01CE010E94E20D800FAB
:101C5000911FDF91CF911F910F9108950F931F93C3
:101C6000CF93DF93EC010E94D80D8C01CE010E942E
:101C7000E20D800F911FDF91CF911F910F91089579
:101C80008F929F92AF92BF92EF92FF920F931F930A
:101C9000CF93DF93CDB7DEB7A1970FB6F894DEBF31
:101CA0000FBECDBF7C01FA01CB0119A2223008F48E
:101CB0002AE08E010F5D1F4F822E912CA12CB12C9A
:101CC000BF01A50194010E942830F901CA01015009
:101CD00011096A3014F4605D01C0695CD8016C932D
:101CE000232B242B252B61F7B801C7010E94D82F85
:101CF000A1960FB6F894DEBF0FBECDBFDF91CF9196
:101D00001F910F91FF90EF90BF90AF909F908F9099
:101D100008952115310541F4DC01ED91FC9101900C
:101D2000F081E02D642F19940C94400E9A01462FF7
:101D300050E060E070E00C94890E0F931F93CF93F6
:101D4000DF93EC010E94960E8C01CE010E94E20D01
:101D5000800F911FDF91CF911F910F9108959A01EC
:101D6000AB0160E070E00C94890E0F931F93CF934A
:101D7000DF93EC010E94AF0E8C01CE010E94E20DB8
:101D8000800F911FDF91CF911F910F9108950F93B5
:101D90001F93CF93DF93EC010E94890E8C01CE013B
:101DA0000E94E20D800F911FDF91CF911F910F9143
:101DB0000895CF92DF92EF92FF920F931F93CF93EC
:101DC000DF932115310581F4DC01ED91FC91019047
:101DD000F081E02D642FDF91CF911F910F91FF9043
:101DE000EF90DF90CF9019942A30310501F577FFFD
:101DF0001DC06A017B01EC016DE20E94D10D8C01D6
:101E000044275527BA014C195D096E097F092AE05C
:101E1000CE010E94400E800F911FDF91CF911F9144
:101E20000F91FF90EF90DF90CF9008952AE0DF911F
:101E3000CF911F910F91FF90EF90DF90CF900C9476
:101E4000400E9A01AB01770F660B770B0C94D90EFD
:101E50000F931F93CF93DF93EC010E94210F8C010E
:101E6000CE010E94E20D800F911FDF91CF911F9153
:101E70000F9108950F931F93CF93DF93EC010E946E
:101E8000D90E8C01CE010E94E20D800F911FDF91CF
:101E9000CF911F910F9108957F928F929F92AF9251
:101EA000BF92CF92DF92EF92FF920F931F93CF9347
:101EB000DF938C016A017B01722E9A01AB01C7018D
:101EC000B6010E94C232882319F060E772E027C091
:101ED00046015701E894B7F82FEF3FEF4FE75FE770
:101EE000C501B4010E94C23281110DC02FEF3FEF36
:101EF0004FE75FE7C501B4010E94F83018161CF4E3
:101F000064E772E00CC02FEF3FEF4FE75FE4C701DB
:101F1000B6010E945032181694F468E772E0C801C6
:101F2000DF91CF911F910F91FF90EF90DF90CF90B5
:101F3000BF90AF909F908F907F900C94D82F2FEFF1
:101F40003FEF4FE75FECC701B6010E94F83087FD15
:101F5000E4CF20E030E0A901C701B6010E94F830CB
:101F600087FF0AC06DE2C8010E94D10DEC01F7FAAB
:101F7000F094F7F8F09402C0C0E0D0E0B12C60E03B
:101F800070E080E09FE37B1441F020E030E040E22D
:101F900051E40E94FD30B394F6CFA70196010E9450
:101FA0008C306B017C010E946F314B015C012AE097
:101FB000AB01BC01C8010E94400EC80FD91F772099
:101FC000B9F1C501B4010E949E319B01AC01C7016A
:101FD000B6010E948B306B017C016EE2C8010E9449
:101FE000D10DC80FD91F20E030E040E251E4C70115
:101FF000B6010E9455324B015C010E946F316B01AA
:102000007C014AE050E0C8010E94AF0EC80FD91F02
:10201000B60180E090E00E949E319B01AC01C501B9
:10202000B4010E948B306B017C017A947110DBCF7C
:10203000CE01DF91CF911F910F91FF90EF90DF9034
:10204000CF90BF90AF909F908F907F9008950C9409
:102050004C0F0F931F93CF93DF93EC010E944C0F13
:102060008C01CE010E94E20D800F911FDF91CF9174
:102070001F910F9108950F931F93CF93DF93EC015E
:102080000E94EA1D688779878A879B87E881F981A2
:102090000284F385E02DCE01199597FF17C00E94A9
:1020A000EA1D088519852A853B85DC01CB01801B4B
:1020B000910BA20BB30B0C811D812E813F818017E8
:1020C0009107A207B30710F38FEF9FEFDF91CF9136
:1020D0001F910F9108950F931F93CF93DF93EC01FE
:1020E0000E94EA1D688779878A879B87E881F98142
:1020F0000484F585E02DCE01199597FF17C00E9445
:10210000EA1D088519852A853B85DC01CB01801BEA
:10211000910BA20BB30B0C811D812E813F81801787
:102120009107A207B30710F38FEF9FEFDF91CF91D5
:102130001F910F910895FF920F931F93CF93DF93F9
:10214000EC018B01F42ECE010E946B1097FD2DC087
:102150008D32910519F19C01205331092A30310546
:1021600020F1FF2019F08E329105D1F001301105D8
:10217000D1F00230110551F48D30910539F024F47D
:102180000997029718F00FC0809769F4E881F981E8
:102190000284F385E02DCE011995D5CF8DE201C0E3
:1021A0008EE290E002C08FEF9FEFDF91CF911F9101
:1021B0000F91FF900895FC014483558366837783D4
:1021C0000895BF92CF92DF92EF92FF920F931F93E9
:1021D000CF93DF938C01C42F40E00E949B10FC0141
:1021E00097FD47C0C12CD12C7601B12C0C2E000CD0
:1021F000DD0BEC17FD0709F1ED32F105E1F0CF0140
:10220000C0970A97D0F4AAE0B0E0A70196010E9417
:1022100071306F01FF0FEE08FF08DC01CB018C0D60
:102220009D1DAE1DBF1D6C017D0120E3C21AD108AA
:10223000E108F10802C0BB24B394D801ED91FC91F0
:102240000284F385E02DC8011995C8010E946B1026
:10225000FC01C0970A9768F2CE17DF0751F2BB2046
:1022600061F066277727CB016C197D098E099F09DC
:1022700006C060E070E0CB0102C0C701B601DF918B
:10228000CF911F910F91FF90EF90DF90CF90BF9073
:1022900008954F925F926F927F92AF92BF92CF92CA
:1022A000DF92EF92FF920F931F93CF93DF935C0126
:1022B000042F41E00E949B10FC0197FD6FC0412C50
:1022C000512C80E8682E8FE3782EC12CD12C76011A
:1022D000C0E0D0E0002E000C110BE017F10769F10F
:1022E000ED32F10539F1EE32F10531F1CF01C09750
:1022F0000A9718F5AAE0B0E0A70196010E94713094
:102300006F01FF0FEE08FF08C60ED71EE81EF91E6C
:1023100080E3C81AD108E108F108CC2371F02DEC54
:102320003CEC4CEC5DE3C301B2010E9455322B0141
:102330003C0103C0D1E001C0C1E0D501ED91FC91A9
:102340000284F385E02DC5011995C5010E946B102B
:10235000FC01C0970A9708F2EE32F10519F4CC237C
:1023600009F4BBCF0E171F0709F4B7CFDD2341F0E7
:10237000F094E094D094C094C11CD11CE11CF11CD9
:10238000C701B601CC2339F00E94A031A30192010C
:102390000E94553206C00E94A03103C060E070E088
:1023A000CB01DF91CF911F910F91FF90EF90DF90C4
:1023B000CF90BF90AF907F906F905F904F900895B7
:1023C000CF92DF92EF92FF920F931F93CF93DF9301
:1023D0006C017A018B01C0E0D0E0CE15DF0559F029
:1023E000C6010E943B1097FD05C0F80181938F0143
:1023F0002196F3CF7E01C701DF91CF911F910F91FD
:10240000FF90EF90DF90CF900895AF92BF92CF9260
:10241000DF92EF92FF920F931F93CF93DF932115DB
:102420003105C9F089015C016A01C0E0D0E0E62E07
:10243000660FFF08C5010E943B1097FD0FC08E1567
:102440009F0561F0F60181936F0121960C171D071E
:1024500089F7C80104C080E090E001C0CE01DF919F
:10246000CF911F910F91FF90EF90DF90CF90BF9091
:10247000AF9008950F931F93CF93DF93EC018B01DF
:1024800060EC72E00E94FD22C8010E943B1097FDA3
:1024900005C0682FCE010E942925F6CFCE01DF911D
:1024A000CF911F910F910895EF92FF920F931F9379
:1024B000CF93DF93EC017B01042F60EC72E00E946C
:1024C000FD22C7010E943B10002E000C110B97FD4E
:1024D0000BC08017910741F0682FCE010E9429257B
:1024E000C7010E943B10F3CFCE01DF91CF911F9126
:1024F0000F91FF90EF9008954F925F926F927F92AD
:102500008F929F92AF92BF92CF92DF92EF92FF9203
:102510000F931F93CF93DF938C01EB0186E0849F91
:102520004001859F900C1124860E971EFB01E81533
:10253000F90508F582819381892B21F13696F7CF31
:102540006081718144815581DB01A40FB51F2C91FD
:10255000022E000C330B8217930711F54F5F5F4F6C
:1025600055834483228133814217530759F03696AD
:10257000E815F90528F3C8010E943B1097FD46C0F5
:10258000FE01F6CFEC1BFD0BF595E7952BEA3AEA39
:10259000E29FC001E39F900DF29F900D112438C07F
:1025A0004115510521F3C480D58096012150310990
:1025B00035832483DB01A20FB31FAC910A2E000CDC
:1025C000BB0B8A179B07F9F421153105C9F05B0194
:1025D0007A01E21AF30AE60EF71E412C512CD501BE
:1025E0006D905D01D7017D907D01671006C0BFEF42
:1025F0004B1A5B0A4216530690F32415350599F6DB
:10260000D582C482B4CF232B71F6B1CF8FEF9FEF69
:10261000DF91CF911F910F91FF90EF90DF90CF90BE
:10262000BF90AF909F908F907F906F905F904F90F2
:102630000895CF93DF9300D000D0CDB7DEB7FE0171
:10264000319626E0DF011D922A95E9F77A836983A6
:102650005C834B8341E050E0BF010E947C1221E08B
:10266000892B09F020E0822F26960FB6F894DEBF62
:102670000FBECDBFDF91CF9108950C941913FB01CC
:1026800001900020E9F73197AF01461B570B0C94DE
:102690001913FF920F931F93CF93DF93CDB7DEB73C
:1026A0002C970FB6F894DEBF0FBECDBF21153105B4
:1026B00021F40E941913282F19C0FE013196ACE0B5
:1026C000FA2EDF011D92FA94E9F77A8369835C831D
:1026D0004B8338872F831A87098742E050E0BF0178
:1026E0000E947C1221E0892B09F020E0822F2C9699
:1026F0000FB6F894DEBF0FBECDBFDF91CF911F9113
:102700000F91FF9008950F931F939A01FA01019082
:102710000020E9F731978F01041B150BFB01019095
:102720000020E9F73197AF01461B570B0E94491370
:102730001F910F9108954F925F926F927F928F92A7
:102740009F92AF92BF92CF92DF92EF92FF920F9340
:102750001F93CF93DF9300D01F921F92CDB7DEB7A8
:102760008B0129013A0190910002891721F09F3FC6
:1027700009F046C305C0EDECF3E024912D8303C1BD
:1027800080930002EDECF3E094919D839F3F09F468
:1027900037C3923009F47FC068F5992309F45AC011
:1027A000913009F0F0C01092800010928100909159
:1027B0008100986090938100909181009160909346
:1027C0008100282F30E0F901E65AFB4FE491F0E058
:1027D000EE0FFF1FE654FB4F459154915093440672
:1027E00040934306F901EC5EFB4FE491E09342060F
:1027F00091E09FC02D81243009F49DC008F473C07E
:10280000253009F0C0C01092200110922101909152
:102810002101986090932101909121019160909302
:102820002101282F30E0F901E65AFB4FE491F0E056
:10283000EE0FFF1FE654FB4F45915491509328062D
:1028400040932706F901EC5EFB4FE491E0932606E6
:1028500095E06FC014BC15BC94B5926094BD95B55D
:10286000916095BD282F30E0F901E65AFB4FE491C5
:10287000F0E0EE0FFF1FE654FB4F4591549150934B
:102880004B0640934A06F901EC5EFB4FE491E0935E
:1028900049061D82B1C21092B0001092B100909111
:1028A000B00092609093B0009091B10091609093CD
:1028B000B100282F30E0F901E65AFB4FE491F0E037
:1028C000EE0FFF1FE654FB4F4591549150933D0688
:1028D00040933C06F901EC5EFB4FE491E0933B062C
:1028E00022E02D8389C21092900010929100909165
:1028F00091009860909391009091910091609093D5
:102900009100282F30E0F901E65AFB4FE491F0E006
:10291000EE0FFF1FE654FB4F45915491509336063E
:1029200040933506F901EC5EFB4FE491E0933406E9
:1029300093E09D83B1C01092A0001092A1009091ED
:10294000A10098609093A1009091A1009160909354
:10295000A100282F30E0F901E65AFB4FE491F0E0A6
:10296000EE0FFF1FE654FB4F4591549150932F06F5
:1029700040932E06F901EC5EFB4FE491E0932D06A7
:1029800024E02D8389C02D8127FD3AC261E00E9499
:102990000B208D818D7F09F082C04801A12CB12CC4
:1029A00060E072E18AE790E0A50194010E9428307E
:1029B00029833A834B835C8369017A0181E0C81AD9
:1029C000D108E108F1089FEFC916D104E104F10430
:1029D00009F008F44EC060E472E48FE090E0A501D5
:1029E00094010E94283069017A0181E0C81AD10857
:1029F000E108F1089D81923009F52FEFC216D1044C
:102A0000E104F10409F008F4BEC160E970ED83E06F
:102A100090E0A50194010E94283069017A0181E0CB
:102A2000C81AD108E108F1089FEFC916D104E104E2
:102A3000F10411F008F035C183E027C02FEFC21672
:102A4000D104E104F104B9F0B0F068E478EE81E07B
:102A500090E0A50194010E94283069017A0181E08B
:102A6000C81AD108E108F1089D81992309F48FC1A2
:102A700057C181E001C082E09D81911106C095B5EA
:102A8000987F892B85BD7EC085E09091B100987FAD
:102A9000892B8093B10076C061E00E940B20480131
:102AA000A12CB12C60E072E18AE790E0A5019401CD
:102AB0000E94283069017A0181E0C81AD108E10832
:102AC000F108C114D10491E0E906F10488F068E44A
:102AD00078EE81E090E0A50194010E942830690120
:102AE0007A0181E0C81AD108E108F10883E001C049
:102AF00081E09D81913081F490918100987F892BB4
:102B000080938100411451046104710409F03FC0B5
:102B10002FEF3FEFA9016DC02D81233079F4909103
:102B20009100987F892B8093910041145104610496
:102B3000710469F52FEF3FEFA9017DC09D819430AD
:102B400079F49091A100987F892B8093A100411482
:102B5000510461047104D9F42FEF3FEFA9017DC046
:102B60002D81253079F490912101987F892B8093D4
:102B70002101411451046104710449F42FEF3FEF26
:102B8000A9017DC0411451046104710471F0D801A0
:102B9000AA0FBB1FA30192010E94713028EE33E0FF
:102BA00040E050E00E94283003C02FEF3FEFA90122
:102BB0008D81823081F12CF4882361F08130C9F05D
:102BC0001FC19D81943009F448C0ACF1953009F4DF
:102BD00056C016C1C7BC20934C0630934D06409397
:102BE0004E0650934F0680916E00826080936E0077
:102BF00007C1D0928900C092880020934506309387
:102C00004606409347065093480680916F008260C5
:102C100080936F00F5C0C092B30020933E063093BE
:102C20003F064093400650934106809170008260B9
:102C300080937000E5C0D0929900C09298002093D4
:102C40003706309338064093390650933A06809100
:102C50007100826080937100D3C0D092A900C092AD
:102C6000A8002093300630933106409332065093EB
:102C7000330680917200826080937200C1C0D0924E
:102C80002901C09228012093290630932A064093F7
:102C90002B0650932C068091730082608093730002
:102CA000AFC068E478EE81E090E0A50194010E9455
:102CB000283069017A0181E0C81AD108E108F108D9
:102CC0009FEFC916D104E104F10441F138F164E247
:102CD00074EF80E090E0A50194010E942830690122
:102CE0007A0181E0C81AD108E108F1089FEFC916FE
:102CF000D104E104F10409F008F4C6CE62E17AE7F8
:102D000080E090E0A50194010E94283069017A01D9
:102D100081E0C81AD108E108F10818C084E0B5CEF6
:102D20002FEFC216D104E104F10479F170F162E1F0
:102D30007AE780E090E0A50194010E9428306901C3
:102D40007A0191E0C91AD108E108F1088FEFC8169D
:102D5000D104E104F104A9F0A0F089819A81AB814A
:102D6000BC812AE0B695A795979587952A95D1F7C6
:102D70006C017D0121E0C21AD108E108F10887E069
:102D800084CE86E082CE82E080CE84E075CE2FEFC6
:102D9000C216D104E104F10469F160F162E17AE75D
:102DA00080E090E0A50194010E94283069017A0139
:102DB00081E0C81AD108E108F1089FEFC916D104D3
:102DC000E104F104A9F0A0F089819A81AB81BC8172
:102DD0003AE0B695A795979587953A95D1F76C0106
:102DE0007D0121E0C21AD108E108F10885E047CE53
:102DF00084E045CE83E043CE61E00E940B20CDCD40
:102E00000F900F900F900F900F90DF91CF911F9127
:102E10000F91FF90EF90DF90CF90BF90AF909F9079
:102E20008F907F906F905F904F9008958230A9F0BF
:102E300028F4882349F0813051F00895843021F13D
:102E4000E8F0853039F1089510926E000895809170
:102E50006F008D7F80936F000895809170008D7F4B
:102E60008093700081E08093B0008091B100887FF2
:102E700084608093B1001092B30008958091710036
:102E80008D7F809371000895809172008D7F809373
:102E900072000895809173008D7F80937300089570
:102EA000CF93C82F80910002C81307C0EDECF3E068
:102EB00084919FEF9093000201C08FEF0E9416173C
:102EC00060E08C2FCF910C9447201F920F920FB689
:102ED0000F9211240BB60F922F933F934F935F9352
:102EE0006F937F938F939F93AF93BF93EF93FF93D2
:102EF00080913E0690913F06A0914006B091410618
:102F0000892B8A2B8B2B51F190913B06E0913C064B
:102F1000F0913D0680818927808380913E069091C3
:102F20003F06A0914006B0914106181619061A06F0
:102F30001B06C4F480913E0690913F06A091400686
:102F4000B09141060197A109B10980933E06909383
:102F50003F06A0934006B093410604C08091000252
:102F60000E945017FF91EF91BF91AF919F918F9168
:102F70007F916F915F914F913F912F910F900BBE79
:102F80000F900FBE0F901F9018951092BD0681E014
:102F90008093BB061092BA0661E084E10E9447204C
:102FA00061E085E10E944720E9EBF0E080818E7FBF
:102FB000808380818D7F808388E48093B80085E45E
:102FC0008093BC000895ECEBF0E080818A7B8083E5
:102FD00060E084E10E94472060E085E10C94472096
:102FE000880F8093BA0008959B01AC0160E074E201
:102FF00084EF90E00E942830DA01C9014097A109CE
:10300000B109B695A795979587958093B8000895CF
:10301000413208F043C09091BD069111FCCF91E080
:103020009093BD062093BB062FEF2093500610927D
:103030009506240F209394069093BC069091BC06AD
:10304000880F892B8093BC068091BA06813061F489
:103050001092BA068091BC068093BB008091BC00A0
:1030600083FDF8CF85EC01C085EE8093BC00809194
:10307000BD068130E1F380919506841710F44091EC
:103080009506A6E9B6E0962FFB018E2F891B8417C3
:1030900018F48D918193F9CF842F089580E00895DD
:1030A0000F93413208F04AC09091BD069111FCCFB8
:1030B00032E03093BD060093BB063FEF30935006DD
:1030C0001092950640939406562FA6E9B6E0FB01B0
:1030D0003E2F351B341718F431913D93F9CF1092E0
:1030E000BC063091BC06880F832B8093BC06809170
:1030F000BA06813061F41092BA068091BC068093C2
:10310000BB008091BC0083FDF8CF85EC01C085EE4B
:103110008093BC00222321F08091BD068230D1F340
:10312000809150068F3F79F080915006803241F0B7
:1031300080915006803331F094E005C091E003C0E7
:1031400092E001C093E0892F0F910895409172069B
:10315000262F30E0240F311D21323105DCF420917F
:10316000BD062430C9F4FC0180E090E0861758F4D5
:10317000309172062191DC01AC58B94FA30FB11DFB
:103180002C930196F3CF80917206680F60937206BC
:1031900080E0089581E0089582E008959093B70655
:1031A0008093B60608959093B9068093B806089563
:1031B000882311F085EC01C085E88093BC00089558
:1031C00085ED8093BC008091BC0084FDFCCF109203
:1031D000BD06089585EC8093BC001092BD0608954D
:1031E0001F920F920FB60F9211240BB60F922F93CE
:1031F0003F934F935F936F937F938F939F93AF937F
:10320000BF93EF93FF938091B900887F803609F4D4
:103210009EC078F5883209F45DC090F4803109F4DD
:1032200056C038F4882309F4F5C0883009F44FC03B
:10323000F5C0883109F44EC0803209F45FC0EEC099
:10324000803409F46AC058F4803309F457C08833D5
:1032500009F0E4C0809350060E94EA18DFC0803570
:1032600009F44FC0883509F45DC0883409F0D6C030
:10327000D3C0883909F4C4C0A8F4883709F467C0FA
:1032800038F4883609F463C0803709F460C0C6C0DA
:10329000883809F4B5C0803909F45FC0803809F076
:1032A000BDC05BC0803B09F483C038F4803A09F4A8
:1032B00066C0883A09F47CC0B1C0803C09F4A4C05F
:1032C000883C09F4A1C0883B09F487C0A7C080915D
:1032D000BC0610C09091950680919406981770F5E1
:1032E000E091950681E08E0F80939506F0E0EA5616
:1032F000F94F80818093BB0085EC83C0809350069A
:103300008BC0E091950681E08E0F809395068091A9
:10331000BB00F0E0EA56F94F8083909195068091CA
:1033200094066BC0E091950681E08E0F8093950620
:103330008091BB00F0E0EA56F94F80838091BB0694
:1033400081116AC081E08093BA0684EA5EC083E09E
:103350008093BD0610925106CFCF809151068032E6
:1033600008F04EC0E091510681E08E0F8093510627
:103370008091BB00F0E0EE5AF94F8083BDCF0E94F0
:10338000EA1880915106803230F4E0915106F0E065
:10339000EE5AF94F10826091510670E0E091B60646
:1033A000F091B70682E596E019951092510636C065
:1033B00084E08093BD061092730610927206E0912D
:1033C000B806F091B906199580917206811105C071
:1033D00081E08093720610927406E091730681E09A
:1033E0008E0F80937306F0E0EC58F94F8081809344
:1033F000BB009091730680917206981708F47CCFF9
:1034000085E88093BC000AC085EC8093BC001092D4
:10341000BD0604C0109250060E94E018FF91EF9183
:10342000BF91AF919F918F917F916F915F914F91DC
:103430003F912F910F900BBE0F900FBE0F901F90DA
:1034400018950895883008F070C0A82FB0E0AA0F32
:10345000BB1FAF5FBD4F11967C936E9390E0FC0154
:103460003197E730F105A0F58827EE58FF4F8F4FD1
:103470000C946930809169008C7F482B40936900DF
:10348000E89A089580916900837F440F551F440F87
:10349000551F482B40936900E99A0895809169006F
:1034A0008F7C74E0440F551F7A95E1F7482B4093C9
:1034B0006900EA9A0895809169008F7366E0440F6D
:1034C000551F6A95E1F7482B40936900EB9A0895E0
:1034D00080916A008C7F482B40936A00EC9A089593
:1034E00080916A00837F440F551F440F551F482B5E
:1034F00040936A00ED9A089580916A008F7C24E0E1
:10350000440F551F2A95E1F7482B40936A00EE9A25
:10351000089580916A008F7396E0440F551F9A9525
:10352000E1F7482B40936A00EF9A0895982F88306E
:1035300030F5482F50E0FA013197E730F10570F48B
:103540008827E758FF4F8F4F0C946930E8980DC0DB
:10355000E9980BC0EA9809C0EB9807C0EC9805C041
:10356000ED9803C0EE9801C0EF98E92FF0E0EE0F60
:10357000FF1FEF5FFD4F81E29AE191838083089501
:103580001F920F920FB60F9211240BB60F922F932A
:103590003F934F935F936F937F938F939F93AF93DB
:1035A000BF93EF93FF93E0910502F0910602199506
:1035B000FF91EF91BF91AF919F918F917F916F910B
:1035C0005F914F913F912F910F900BBE0F900FBEC7
:1035D0000F901F9018951F920F920FB60F92112403
:1035E0000BB60F922F933F934F935F936F937F93FD
:1035F0008F939F93AF93BF93EF93FF93E091070255
:10360000F09108021995FF91EF91BF91AF919F91B1
:103610008F917F916F915F914F913F912F910F907B
:103620000BBE0F900FBE0F901F9018951F920F9218
:103630000FB60F9211240BB60F922F933F934F9317
:103640005F936F937F938F939F93AF93BF93EF930A
:10365000FF93E0910902F0910A021995FF91EF9111
:10366000BF91AF919F918F917F916F915F914F919A
:103670003F912F910F900BBE0F900FBE0F901F9098
:1036800018951F920F920FB60F9211240BB60F923E
:103690002F933F934F935F936F937F938F939F935A
:1036A000AF93BF93EF93FF93E0910B02F0910C0265
:1036B0001995FF91EF91BF91AF919F918F917F915C
:1036C0006F915F914F913F912F910F900BBE0F9093
:1036D0000FBE0F901F9018951F920F920FB60F926A
:1036E00011240BB60F922F933F934F935F936F93D9
:1036F0007F938F939F93AF93BF93EF93FF93E0914B
:103700000102F09102021995FF91EF91BF91AF91E3
:103710009F918F917F916F915F914F913F912F91E9
:103720000F900BBE0F900FBE0F901F9018951F9219
:103730000F920FB60F9211240BB60F922F933F9357
:103740004F935F936F937F938F939F93AF93BF93A9
:10375000EF93FF93E0910302F09104021995FF911A
:10376000EF91BF91AF919F918F917F916F915F91F9
:103770004F913F912F910F900BBE0F900FBE0F9066
:103780001F9018951F920F920FB60F9211240BB62F
:103790000F922F933F934F935F936F937F938F93EA
:1037A0009F93AF93BF93EF93FF93E0910D02F0913E
:1037B0000E021995FF91EF91BF91AF919F918F915B
:1037C0007F916F915F914F913F912F910F900BBE21
:1037D0000F900FBE0F901F9018951F920F920FB66B
:1037E0000F9211240BB60F922F933F934F935F9339
:1037F0006F937F938F939F93AF93BF93EF93FF93B9
:10380000E0910F02F09110021995FF91EF91BF9195
:10381000AF919F918F917F916F915F914F913F9168
:103820002F910F900BBE0F900FBE0F901F90189509
:103830008091F20690E02091F306821B9109089591
:103840009091F3068091F206981750F4E92FF0E07A
:10385000EC50F94F208130E09F5F9093F30602C057
:103860002FEF3FEFC9010895E091F3068091F20632
:10387000E81730F4F0E0EC50F94F808190E00895C3
:103880008FEF9FEF08950895CF93DF93EC01E091C0
:10389000CA06F091CB063097F1F09091F306809133
:1038A000F2069817C0F090E0292F30E0261737076E
:1038B00054F4DE01A20FB31F4C91D901AC50B94FA3
:1038C0004C939F5FF1CF1092F3066093F206CB0109
:1038D000DF91CF911994DF91CF910895E091CC06BB
:1038E000F091CD06309729F01092D0061092CF06B5
:1038F00019940895CF92DF92EF92FF920F931F9346
:10390000CF93DF937C01CB018A012091CE06222345
:1039100089F0EB016B01C40ED51ECC15DD0569F0F5
:103920006991D701ED91FC910190F081E02DC701E3
:103930001995F3CF642F0E94A618C801DF91CF918B
:103940001F910F91FF90EF90DF90CF900895CF934C
:10395000DF931F92CDB7DEB769832091CE06222375
:10396000D1F02091CF06203240F021E030E0FC0180
:103970003383228380E090E015C08091D006E82F49
:10398000F0E0EF52F94F998190838F5F8093D006DA
:103990008093CF0605C061E0CE0101960E94A61873
:1039A00081E090E00F90DF91CF910895FC011382A8
:1039B000128288EE93E0A0E0B0E084839583A68332
:1039C000B7838CE892E09183808308951092F30688
:1039D0001092F2061092D0061092CF060E94C517E0
:1039E0008EE69CE10E94D31884E49CE10C94CE18EE
:1039F000CF93C62F0E94E61C8C2FCF910C94F0170A
:103A00000C94F81C0C94E317CB01BA010C94F41736
:103A100081E08093CE066093F1061092D00610925A
:103A2000CF0608950C94081D0F93062F21E04091B6
:103A3000CF0661ED76E08091F1060E945018109259
:103A4000D0061092CF061092CE060F9108954F9295
:103A50005F926F927F92AF92BF92CF92EF92FF925E
:103A60000F931F93CF93DF935C01F62ED42F280181
:103A70003901EE2021F10E94081DCE2DC43008F03E
:103A8000C3E0C150C0F028E0C29FC0011124A301CF
:103A9000920104C056954795379527958A95D2F798
:103AA000CA01B901D501ED91FC910190F081E02DA1
:103AB000C5011995E6CF60E0C5010E94141D4D2F88
:103AC000D13208F040E22C2D64EF76E08F2D0E9479
:103AD00008181092F3068093F206DF91CF911F91A0
:103AE0000F91FF90EF90CF90BF90AF907F906F902D
:103AF0005F904F900895CF92EF920F931F93C22E35
:103B0000E12C00E010E098010E94271D1F910F9109
:103B1000EF90CF90089521E00C947B1D21E00C9450
:103B20007B1D0C947B1D61E00C94141D7093CB06DF
:103B30006093CA0608957093CD066093CC060895ED
:103B40001F920F920FB60F9211242F933F938F93D2
:103B50009F93AF93BF938091140790911507A09105
:103B60001607B091170730911C0723E0230F2D375C
:103B700020F40196A11DB11D05C026E8230F029671
:103B8000A11DB11D20931C07809314079093150766
:103B9000A0931607B0931707809118079091190703
:103BA000A0911A07B0911B070196A11DB11D80932A
:103BB000180790931907A0931A07B0931B07BF919A
:103BC000AF919F918F913F912F910F900FBE0F90CA
:103BD0001F9018952FB7F8946091140770911507EE
:103BE00080911607909117072FBF08953FB7F8945B
:103BF0008091180790911907A0911A07B0911B079F
:103C000026B5A89B05C02F3F19F00196A11DB11D37
:103C10003FBFBA2FA92F982F8827820F911DA11D72
:103C2000B11DBC01CD0142E0660F771F881F991FAF
:103C30004A95D1F708958F929F92AF92BF92CF92FB
:103C4000DF92EF92FF926B017C010E94F61D4B0107
:103C50005C01C114D104E104F10401F10E942107C7
:103C60000E94F61DDC01CB0188199909AA09BB093C
:103C7000883E9340A105B10560F321E0C21AD10846
:103C8000E108F10888EE880E83E0981EA11CB11CA3
:103C9000C114D104E104F10419F7DBCFFF90EF90D8
:103CA000DF90CF90BF90AF909F908F90089582301B
:103CB000910538F0880F991F880F991F0597019774
:103CC000F1F70895789484B5826084BD84B58160ED
:103CD00084BD85B5826085BD85B5816085BDEEE614
:103CE000F0E0808181608083E1E8F0E010828081F3
:103CF00082608083808181608083E0E8F0E0808161
:103D000081608083E1EBF0E0808184608083E0EB80
:103D1000F0E0808181608083E1E9F0E08081826071
:103D20008083808181608083E0E9F0E08081816030
:103D30008083E1EAF0E0808182608083808181601D
:103D40008083E0EAF0E0808181608083E1E2F1E05D
:103D5000808182608083808181608083E0E2F1E005
:103D6000808181608083EAE7F0E0808184608083E5
:103D7000808182608083808181608083808180688F
:103D800080831092C10008958093110208958633B4
:103D900008F0865390917B00282F2870977F922BF4
:103DA00090937B002091110290E4299F90011124AF
:103DB0008770822B80937C0080917A00806480934E
:103DC0007A0080917A0086FDFCCF80917800209166
:103DD000790090E0922B08951F93CF93DF93182FD3
:103DE000EB0161E00E940B20209711F460E004C019
:103DF000CF3FD10539F461E0812FDF91CF911F9141
:103E00000C944720E12FF0E0E253FC4FE4918E2F19
:103E100090E0FC013197E231F10508F09DC0882760
:103E2000E058FF4F8F4F0C94693084B5806884BD93
:103E3000C7BD97C084B5806284BDC8BD92C0809163
:103E40008000806880938000D0938900C0938800B0
:103E500088C080918000806280938000D0938B0026
:103E6000C0938A007EC0809180008860809380002B
:103E7000D0938D00C0938C0074C08091B000806896
:103E80008093B000C093B3006CC08091B00080629A
:103E90008093B000C093B40064C0809190008068AB
:103EA00080939000D0939900C09398005AC080915D
:103EB0009000806280939000D0939B00C0939A0002
:103EC00050C080919000886080939000D0939D00B6
:103ED000C0939C0046C08091A00080688093A000A1
:103EE0008091A0008F7B8093A000D093A900C09305
:103EF000A80037C08091A00080628093A000D0937A
:103F0000AB00C093AA002DC08091A0008860809370
:103F1000A000D093AD00C093AC0023C080912001DD
:103F2000806880932001D0932901C093280119C093
:103F300080912001806280932001D0932B01C09357
:103F40002A010FC080912001886080932001D093C6
:103F50002D01C0932C0105C0C038D1050CF04BCF0A
:103F600045CFDF91CF911F91089590E0FC013197EB
:103F7000E231F10508F04EC08827EE56FF4F8F4F13
:103F80000C946930809180008F7703C0809180000D
:103F90008F7D80938000089580918000877FF9CF86
:103FA00084B58F7702C084B58F7D84BD08958091DC
:103FB000B0008F7703C08091B0008F7D8093B000F8
:103FC0000895809190008F7707C0809190008F7D39
:103FD00003C080919000877F809390000895809126
:103FE000A0008F7707C08091A0008F7D03C08091D3
:103FF000A000877F8093A0000895809120018F7793
:1040000007C0809120018F7D03C080912001877FB0
:10401000809320010895CF93DF9390E0FC01EC5E44
:10402000FB4F2491FC01E65AFB4F8491882361F1F8
:1040300090E0880F991FFC01EC52FB4FC591D49181
:10404000FC01E654FB4FA591B491611109C09FB7E3
:10405000F8948881209582238883EC912E230BC0CD
:10406000623061F49FB7F8948881322F30958323B2
:104070008883EC912E2B2C939FBF06C08FB7F894AA
:10408000E8812E2B28838FBFDF91CF9108951F9356
:10409000CF93DF93282F30E0F901E253FC4F849156
:1040A000F901EC5EFB4FD491F901E65AFB4FC49144
:1040B000CC23C1F0162F81110E94B51FEC2FF0E028
:1040C000EE0FFF1FE654FB4FA591B4919FB7F894F4
:1040D000111104C08C91D095D82302C0EC91DE2B35
:1040E000DC939FBFDF91CF911F910895CF93DF9312
:1040F000282F30E0F901E253FC4F8491F901EC5E86
:10410000FB4FD491F901E65AFB4FC491CC2391F0B7
:1041100081110E94B51FEC2FF0E0EE0FFF1FE0565B
:10412000FB4FA591B491EC91ED2381E090E021F457
:1041300080E002C080E090E0DF91CF9108954F923F
:104140005F926F927F928F929F92AF92BF92CF9227
:10415000DF92EF92FF920F931F93CF93DF9349016A
:104160005A0190E0FC01EC5EFB4F1491FC01E65A11
:10417000FB4FC491662311F0012F01C000E00E94A3
:10418000F61D6B017C01D0E0CC0FDD1FC056DB4F6C
:10419000FE01A591B4918C91812308131EC00E9449
:1041A000F61DDC01CB018C199D09AE09BF098816EB
:1041B0009906AA06BB0660F760E070E0CB0133C049
:1041C0000E94F61DDC01CB018C199D09AE09BF09C7
:1041D00088169906AA06BB0678F3FE01A591B4914C
:1041E0008C9181230813ECCF0E94F61D2B013C011A
:1041F000FE01A591B4918C91812308130EC00E94F9
:10420000F61DDC01CB018C199D09AE09BF0988168A
:104210009906AA06BB0660F7CFCF0E94F61D641967
:10422000750986099709DF91CF911F910F91FF9032
:10423000EF90DF90CF90BF90AF909F908F907F9046
:104240006F905F904F900895CF92DF92EF92FF9220
:104250000F931F93FC018081862384130BC00150B0
:10426000110921093109B9F71EC0015011092109AD
:104270003109C9F0808186234813F7CFC12CD12C96
:1042800076019081962349130BC08FEFC81AD80A84
:10429000E80AF80A0C151D052E053F0591F703C025
:1042A000B601C70104C060E070E080E090E01F91BB
:1042B0000F91FF90EF90DF90CF9008950F931F9391
:1042C00090E0FC01EC5EFB4F7491FC01E65AFB4F61
:1042D000E491662311F0672F01C060E0F0E0EE0F7B
:1042E000FF1FE056FB4F8591949189019A013F7021
:1042F000462F672F0E9424216115710581059105C4
:1043000049F0DC01CB010196A11DB11DBC01CD011D
:104310009F7003C060E070E0CB011F910F91089582
:10432000CF92DF92EF92FF920F931F93CF93DF9381
:10433000F82ED62FE42E07E010E0C0E087E0C82E6C
:10434000D12C61E08D2F0E9447208F2DE1100AC0F3
:104350000E9476209601201B310B01C0880F2A9500
:10436000EAF707C00E947620002E01C0880F0A9449
:10437000EAF7C82B60E08D2F0E94472001501109F9
:1043800000F78C2FDF91CF911F910F91FF90EF904D
:10439000DF90CF900895BF92CF92DF92EF92FF927D
:1043A0000F931F93CF93DF93C82ED62EB42EC7E062
:1043B000D0E0022F10E087E0E82EF12CB11005C00C
:1043C000C7018C1B9D0BB80102C0B8018C2F02C025
:1043D000759567958A95E2F761708C2D0E9447204C
:1043E00061E08D2D0E94472060E08D2D0E944720C6
:1043F000219720F7DF91CF911F910F91FF90EF90C0
:10440000DF90CF90BF9008956115710581059105EA
:1044100011F00C94A1340895CF92DF92EF92FF92A5
:10442000611571058105910549F06B017C010E94C0
:104430005334A70196010E944A3003C060E070E047
:10444000CB01FF90EF90DF90CF900895CF92DF9255
:10445000EF92FF920F931F936217730784079507DC
:1044600084F489019A016B017C01C901B8016C19BE
:104470007D098E099F090E940C226C0D7D1D8E1DE9
:104480009F1D1F910F91FF90EF90DF90CF900895A7
:104490004F925F926F927F92AF92BF92CF92DF92D4
:1044A000EF92FF920F931F93CF93DF93CDB7DEB7B9
:1044B00029013A019B01AC01241935094609570924
:1044C0008A899B89AC89BD89BC01CD016A197B09A8
:1044D0008C099D090E941830A801970124193509FB
:1044E000460957090E944A30CA01B9016A0D7B1D6D
:1044F0008C1D9D1DDF91CF911F910F91FF90EF902B
:10450000DF90CF90BF90AF907F906F905F904F9073
:104510000895089570E09B01382BC9010895FC01AE
:10452000808191810C947F33CF93DF93EC0188815C
:104530009981009711F00E947F33198218821D82A1
:104540001C821B821A82DF91CF9108950F931F93D3
:10455000CF93DF93EC018B016F5F7F4F888199814F
:104560000E94AA34009731F0998388831B830A83C1
:1045700081E001C080E0DF91CF911F910F910895FC
:10458000CF93DF93EC0188819981892B29F08A816F
:104590009B818617970760F4CE010E94A62288238C
:1045A00041F08C819D81892B19F4E881F981108279
:1045B00081E0DF91CF910895EF92FF920F931F93C7
:1045C000CF93DF93EC017B018A01BA010E94C022E4
:1045D000811104C0CE010E94942207C01D830C8368
:1045E000B701888199810E942436CE01DF91CF9155
:1045F0001F910F91FF90EF900895FC01118210829E
:1046000013821282158214826115710551F0FB012B
:1046100001900020E9F73197AF01461B570B0C942E
:10462000DC220895EF92FF920F931F93CF93DF93B5
:10463000EC017B018A01BA010E94C022811104C0F1
:10464000CE010E94942207C01D830C83B70188818C
:1046500099810E94D835CE01DF91CF911F910F91A2
:10466000FF90EF900895CF93DF93EC01FB01861745
:10467000970761F0608171816115710529F04481AE
:1046800055810E94DC2202C00E949422CE01DF915B
:10469000CF910895FC01118210821382128215823B
:1046A00014820C943323CF93DF93EC0161157105D1
:1046B00059F0FB0101900020E9F73197AF01461B4B
:1046C000570B0E94DC2202C00E949422CE01DF918F
:1046D000CF910895CF93DF931F921F92CDB7DEB78E
:1046E000FC01118210821382128215821482698366
:1046F0001A82BE016F5F7F4F0E9453230F900F906D
:10470000DF91CF9108950F931F93CF93DF93CDB790
:10471000DEB729970FB6F894DEBF0FBECDBF8C0170
:10472000862FF80111821082138212821582148260
:1047300050E0BE016F5F7F4F90E00E94DF36BE0108
:104740006F5F7F4FC8010E94532329960FB6F894DC
:10475000DEBF0FBECDBFDF91CF911F910F910895A6
:104760000F931F93CF93DF93CDB7DEB762970FB64A
:10477000F894DEBF0FBECDBF8C01CB01F8011182D2
:104780001082138212821582148250E0BE016F5F84
:104790007F4F0E946D36BE016F5F7F4FC8010E9440
:1047A000532362960FB6F894DEBF0FBECDBFDF91E4
:1047B000CF911F910F9108950F931F93CF93DF9384
:1047C000CDB7DEB761970FB6F894DEBF0FBECDBF91
:1047D0008C01CB01F80111821082138212821582A2
:1047E000148250E0BE016F5F7F4F0E94DF36BE0132
:1047F0006F5F7F4FC8010E94532361960FB6F894F4
:10480000DEBF0FBECDBFDF91CF911F910F910895F5
:104810000F931F93CF93DF93CDB7DEB7A2970FB659
:10482000F894DEBF0FBECDBF8C01CB01BA01F801F9
:1048300011821082138212821582148230E0AE013E
:104840004F5F5F4F0E948336BE016F5F7F4FC8018D
:104850000E945323A2960FB6F894DEBF0FBECDBFC1
:10486000DF91CF911F910F9108950F931F93CF93D5
:10487000DF93CDB7DEB7A1970FB6F894DEBF0FBEBA
:10488000CDBF8C01CB01BA01F801118210821382D5
:1048900012821582148230E0AE014F5F5F4F0E949A
:1048A000B236BE016F5F7F4FC8010E945323A196AD
:1048B0000FB6F894DEBF0FBECDBFDF91CF911F9131
:1048C0000F910895EF92FF920F931F93CF93DF9371
:1048D000CDB7DEB7A1970FB6F894DEBF0FBECDBF40
:1048E0007C01CB01BA01F70111821082138212827E
:1048F0001582148242E0420F8E010F5F1F4F0E940B
:10490000C732BC01C7010E945323A1960FB6F89489
:10491000DEBF0FBECDBFDF91CF911F910F91FF90F2
:10492000EF900895EF92FF920F931F93CF93DF9331
:10493000CDB7DEB7A1970FB6F894DEBF0FBECDBFDF
:104940007C01CB01BA01F70111821082138212821D
:104950001582148242E0420F8E010F5F1F4F0E94AA
:10496000C732BC01C7010E945323A1960FB6F89429
:10497000DEBF0FBECDBFDF91CF911F910F91FF9092
:10498000EF9008950F931F93CF93DF93EC018B016A
:104990006115710549F0CB010E94DF35AC01B8010A
:1049A000CE010E94122302C00E949422CE01DF9108
:1049B000CF911F910F910895FC01118210821382F3
:1049C0001282158214820C94C224EF92FF920F93EC
:1049D0001F93CF93DF936115710511F480E01CC024
:1049E00041155105C1F07B01EC018C819D818A014B
:1049F000080F191FB801CE010E94C022882371F34D
:104A0000288139818C819D81B701820F931F0E947B
:104A100024361D830C8381E0DF91CF911F910F918C
:104A2000FF90EF900895FB01448155816081718171
:104A30000C94E5246115710551F0FB0101900020F3
:104A4000E9F73197AF01461B570B0C94E52480E042
:104A50000895CF93DF931F921F92CDB7DEB769837E
:104A60001A8241E050E0BE016F5F7F4F0E94E52453
:104A70000F900F90DF91CF910895EF92FF920F93D7
:104A80001F93CF93DF9300D01F92CDB7DEB77C0189
:104A9000862F4AE050E08E010F5F1F4FB80190E073
:104AA0000E946D36F80101900020E9F73197AF01BF
:104AB000401B510BB801C7010E94E5240F900F90D5
:104AC0000F900F90DF91CF911F910F91FF90EF907A
:104AD0000895EF92FF920F931F93CF93DF93CDB77B
:104AE000DEB728970FB6F894DEBF0FBECDBF7C01AE
:104AF000CB014AE050E08E010F5F1F4FB8010E94CA
:104B00006D36F80101900020E9F73197AF01401BA5
:104B1000510BB801C7010E94E52428960FB6F894FE
:104B2000DEBF0FBECDBFDF91CF911F910F91FF90E0
:104B3000EF900895EF92FF920F931F93CF93DF931F
:104B4000CDB7DEB727970FB6F894DEBF0FBECDBF47
:104B50007C01CB014AE050E08E010F5F1F4FB8018E
:104B60000E94DF36F80101900020E9F73197AF018C
:104B7000401B510BB801C7010E94E52427960FB6D0
:104B8000F894DEBF0FBECDBFDF91CF911F910F9183
:104B9000FF90EF900895EF92FF920F931F93CF93A2
:104BA000DF93CDB7DEB72E970FB6F894DEBF0FBEFA
:104BB000CDBF7C01CB01BA012AE030E08E010F5F4E
:104BC0001F4FA8010E948336F80101900020E9F7E9
:104BD0003197AF01401B510BB801C7010E94E5247A
:104BE0002E960FB6F894DEBF0FBECDBFDF91CF91EA
:104BF0001F910F91FF90EF900895EF92FF920F9306
:104C00001F93CF93DF93CDB7DEB72D970FB6F894F0
:104C1000DEBF0FBECDBF7C01CB01BA012AE030E080
:104C20008E010F5F1F4FA8010E94B236F80101905C
:104C30000020E9F73197AF01401B510BB801C701C4
:104C40000E94E5242D960FB6F894DEBF0FBECDBFAF
:104C5000DF91CF911F910F91FF90EF900895EF9208
:104C6000FF920F931F93CF93DF93CDB7DEB7649777
:104C70000FB6F894DEBF0FBECDBF7C01CB01BA01E9
:104C80008E010F5F1F4F22E044E00E94C732FC01FB
:104C900001900020E9F73197AF01481B590BBC0187
:104CA000C7010E94E52464960FB6F894DEBF0FBEDC
:104CB000CDBFDF91CF911F910F91FF90EF9008959D
:104CC000EF92FF920F931F93CF93DF93CDB7DEB791
:104CD00064970FB6F894DEBF0FBECDBF7C01CB0149
:104CE000BA018E010F5F1F4F22E044E00E94C732DD
:104CF000FC0101900020E9F73197AF01481B590BE7
:104D0000BC01C7010E94E52464960FB6F894DEBF8B
:104D10000FBECDBFDF91CF911F910F91FF90EF900C
:104D20000895EF92FF920F931F93CF93DF93611536
:104D3000710511F480E01EC08B01EC01CB010E94D3
:104D4000DF350097B1F02C813D817C01E20EF31E2E
:104D5000B701CE010E94C022882361F328813981E6
:104D60008C819D81B801820F931F0E94D835FD82EE
:104D7000EC8281E0DF91CF911F910F91FF90EF9036
:104D80000895CF93DF93EC01FB014481558160814D
:104D900071810E94E524811103C0CE010E949422FA
:104DA000CE01DF91CF910895CF93DF93EC01611590
:104DB000710561F0FB0101900020E9F73197AF0127
:104DC000461B570B0E94E524811103C0CE010E94AF
:104DD0009422CE01DF91CF910895CF93DF93EC0120
:104DE0000E942925811103C0CE010E949422CE0188
:104DF000DF91CF910895CF93DF93EC010E943D2581
:104E0000811103C0CE010E949422CE01DF91CF9187
:104E10000895CF93DF93EC010E946925811103C0AF
:104E2000CE010E949422CE01DF91CF910895CF93BD
:104E3000DF93EC010E949A25811103C0CE010E94EC
:104E40009422CE01DF91CF910895CF93DF93EC01AF
:104E50000E94CB25811103C0CE010E949422CE0175
:104E6000DF91CF910895CF93DF93EC010E94FD2550
:104E7000811103C0CE010E949422CE01DF91CF9117
:104E80000895CF93DF93EC010E942F26811103C078
:104E9000CE010E949422CE01DF91CF910895CF934D
:104EA000DF93EC010E946026811103C0CE010E94B5
:104EB0009422CE01DF91CF910895CF93DF93EC013F
:104EC0000E949126811103C0CE010E949422CE013E
:104ED000DF91CF910895CF93DF93DC01ED91FC91A9
:104EE000EB01A881B981309711F01097C9F41097A0
:104EF00059F0EB012C813D81232B31F08C9190E016
:104F000091958195910914C0309781F0DC01149638
:104F10008D919C911597892B49F0808190E008C074
:104F2000BD01CF01DF91CF910C941B3680E090E062
:104F3000DF91CF910895FC0144815581FB012481CB
:104F400035814217530729F40E946B2721E0892BF2
:104F500009F020E0822F0895FC0124813581232B64
:104F600031F421E061157105A1F0FB0108C0FC01DD
:104F7000808191816115710531F421E0FC0180810E
:104F8000882339F005C00E941B3621E0892B09F0E7
:104F900020E0822F08950E946B27892F881F882781
:104FA000881F08950E946B2721E0181619060CF03F
:104FB00020E0822F08950E946B2721E01816190621
:104FC0000CF420E0822F08950E946B27892F809592
:104FD000881F8827881F0895EF92FF920F931F93D1
:104FE000CF93DF938617970731F1FC012481358138
:104FF000FB014481558124173507D9F4232BD9F0BF
:10500000DC010D911C91C081D181F80181918F014A
:10501000882389F0082E000C990B0E94C8357C016A
:105020008991082E000C990B0E94C835E816F906E4
:1050300061F380E001C081E0DF91CF911F910F917A
:10504000FF90EF900895DB011496ED91FC91159778
:10505000DC0114962D913C9115972E1B3F0B2417C4
:105060003507A0F02D913C912115310579F0DB0138
:105070006D917C916115710549F0CA01AF01820FF4
:10508000931F0E942B3621E0892B09F020E0822F0C
:105090000895FC0144815581FB012481358142172B
:1050A000530720F040E050E00C94232880E008955E
:1050B000FC0124813581FB0144815581241735078A
:1050C000A0F0FC0180819181009779F0FB01608163
:1050D00071816115710549F0241B350B820F931FF7
:1050E0000E941B3621E0892B09F020E0822F0895D1
:1050F000FC01248135816217730730F4808191812E
:10510000FC01E60FF71F40830895FC0124813581DF
:105110006217730720F480819181009729F410921F
:105120001D078DE197E00895860F971F0895FC01F4
:10513000248135816217730748F48081918100973B
:1051400029F0FC01E60FF71F8081089580E00895A3
:105150000C9497280F931F93CF93DF93411551051C
:1051600019F16115710501F1DC011496ED91FC91C5
:1051700015972E173F0718F0FB01108215C0E21B90
:10518000F30BEA012197EC17FD0708F4EF018B01FF
:10519000FC0160817181620F731FAE01C8010E9422
:1051A0003936C00FD11F1882DF91CF911F910F9117
:1051B0000895CF93DF93FC01248135814217530773
:1051C00078F4C081D181062E000C770BCE01840FBC
:1051D000951F0E941036009719F08C1B9D0B02C082
:1051E0008FEF9FEFDF91CF91089540E050E00C9456
:1051F000D928CF93DF93FC012481358142175307CF
:1052000080F4FB01DC01CD91DC9160817181CE01E4
:10521000840F951F0E945336009719F08C1B9D0B2D
:1052200002C08FEF9FEFDF91CF91089540E050E0F3
:105230000C94F928DF92EF92FF920F931F93CF9374
:10524000DF93DC0114962D913C911597421753077B
:1052500018F08FEF9FEF1DC08C01EA012196DC0151
:10526000ED91FC911197EC0FFD1FD0801082ED9015
:10527000FC90062E000C770BC7010E944836CE0D1D
:10528000DF1DD882009729F3F80120813181821B2C
:10529000930BDF91CF911F910F91FF90EF90DF90D3
:1052A0000895FC0144815581415051090C941A29FB
:1052B000AF92BF92CF92DF92EF92FF920F931F9324
:1052C000CF93DF937B018A01FB0144815581411516
:1052D000510561F1FC01248135812115310531F140
:1052E0002417350718F10217130718F08901015028
:1052F0001109FC01A080B180C501DFEFCFEF65018E
:10530000C00ED11EC816D906A0F0F70160817181C8
:105310000E945336009769F09C012A193B09021735
:10532000130710F0D22FC32F0196ECCF8FEF9FEF12
:1053300002C08D2F9C2FDF91CF911F910F91FF9075
:10534000EF90DF90CF90BF90AF900895FC01448123
:105350005581FB0124813581421B530B0C94582944
:10536000BF92CF92DF92EF92FF920F931F93CF9352
:10537000DF937C016B018A01E9012417350720F4D2
:10538000812F8901C42FD82F60EC72E0C7010E94E1
:10539000FD22D60114968D919C9115970817190737
:1053A000C8F48C179D0708F4EC01D601ED91FC912F
:1053B0001197EC0FFD1FB08010826D917C91600FF2
:1053C000711FC7010E945323D601ED91FC91EC0F90
:1053D000FD1FB082C701DF91CF911F910F91FF9008
:1053E000EF90DF90CF90BF900895DC01ED91FC919C
:1053F000309741F08081882329F0861301C04083D3
:105400003196F8CF08952F923F924F925F926F920C
:105410007F928F929F92AF92BF92CF92DF92EF9244
:10542000FF920F931F93CF93DF93FC01448055802D
:105430004114510409F4CEC0FB018480958081148D
:10544000910409F4C7C07A016B018C01FA016480F0
:10545000758068187908FC01C081D18161147104DC
:10546000B9F4F60160817181CE010E945336EC01DE
:10547000009709F4AFC0F7016081718144815581C3
:105480000E94F535F70184819581C80FD91FE9CFB6
:1054900077FE44C05E01F60160817181C5010E9402
:1054A00053362C01009721F14C018A189B08A40166
:1054B000B501CE010E94F535C80DD91DF7016081F7
:1054C000718144815581CE010E94F535F7018481B7
:1054D0009581C80FD91FF601A480B580A40CB51C16
:1054E000F80184819581860D971D95838483D3CFA0
:1054F000B501CE01DF91CF911F910F91FF90EF90F9
:10550000DF90CF90BF90AF909F908F907F906F90E3
:105510005F904F903F902F900C942436FB01208099
:1055200031805201B101CE010E945336009731F013
:10553000EC01C80DD91DA60CB71CF4CFA414B504FA
:1055400009F448C0F801828193818A159B0530F4E3
:10555000B501C8010E94A6228823E1F1F801448127
:1055600055814150510957FD35C0B601C8010E940F
:105570005829EC0197FD2EC0F60124813581280FB2
:10558000391FF80180819181820F931F44815581D9
:10559000421B530BBC01860D971D0E94FE35F8017E
:1055A00084819581860D971D958384832081318127
:1055B000F901E80FF91F1082F80180819181F7014C
:1055C00060817181448155818C0F9D1F0E94F5354A
:1055D000AE01C7CFDF91CF911F910F91FF90EF9058
:1055E000DF90CF90BF90AF909F908F907F906F9003
:1055F0005F904F903F902F900895CF93DF93DC0101
:105600001496ED91FC9115976E177F0730F54115B3
:10561000510519F1DF01A61BB70B9A01A417B507B5
:1056200008F49D01DB01EC0188819981E21BF30BF9
:10563000FD83EC83AF01461B570B260F371FBC01C0
:10564000620F731F8A0F9B1F0E943936E881F98110
:105650008C819D81E80FF91F1082DF91CF91089511
:105660004FEF5FEF0C94FD2ACF93DF93FC01C081D5
:10567000D181209751F08881882339F0082E000CC1
:10568000990B0E94C8358993F6CFDF91CF91089589
:10569000CF93DF93FC01C081D181209751F08881A5
:1056A000882339F0082E000C990B0E94D03589937D
:1056B000F6CFDF91CF910895AF92BF92CF92DF9254
:1056C000EF92FF920F931F93CF93DF93DC01CD9066
:1056D000DC901197C114D10409F443C01496CD9104
:1056E000DC9115972097E9F18C0176015701BFEF06
:1056F000AB1ABB0AF7018081082E000C990B0E949F
:10570000BF35892B11F07501F1CF2197CC0DDD1D2F
:105710008881082E000C990B0E94BF35892B29F037
:10572000CE15DF0510F02197F3CFAE014F5F5F4F2D
:105730004E195F09D80115965C934E931497CE14B9
:10574000DF0420F4B701C6010E94F535D801ED91C0
:10575000FC91119714968D919C911597E80FF91F64
:105760001082DF91CF911F910F91FF90EF90DF900A
:10577000CF90BF90AF900895FC01808191810097F8
:1057800011F00C94983560E070E0CB010895FC01B5
:1057900080819181009711F00C94943560E070E065
:1057A000CB0108950C94C72B8AE992E00C949F2DAD
:1057B000CF93DF93CDB7DEB728970FB6F894DEBF4F
:1057C0000FBECDBFBE016F5F7F4FCE0105960E9419
:1057D0003B2C81EC92E00E949F2D84ED92E00E9490
:1057E0009F2D69817A818B819C810E94A42D8FEDF0
:1057F00092E00E949F2D84EE92E00E949F2D6D8189
:105800007E818F8198850E94A42D82EF92E00E9474
:105810009F2D68EB7BE080E090E00E941B1E2896A5
:105820000FB6F894DEBF0FBECDBFDF91CF910895C4
:10583000FC019081909590830895CF93DF93D82FAA
:105840000E947620C82F4AE050E06D2F82EB93E053
:105850000E949D0E4AE050E06C2F82EB93E00E9484
:105860009D0E67EF72E082EB93E00E940A0E8C2F90
:10587000DF91CF910895EF92FF920F931F93CF93F3
:10588000DF938C017B0166E38EE197E00E94600369
:10589000EEE1F7E084819581A681B781E8018883F4
:1058A0009983AA83BB8380819181A281B381F7010F
:1058B00080839183A283B383DF91CF911F910F9156
:1058C000FF90EF9008958AE997E00E94310D8823B8
:1058D00089F161E08AE00E94472081EB97E00E9415
:1058E000DF0B81EB97E00E94440C81EB97E00E9474
:1058F000310C6BEF72E081EB97E00E94CF0D68EE08
:1059000073E080E090E00E941B1E81E08093BF075F
:1059100061E08AE00E94472081EB97E00E94DF0B64
:1059200068EE73E080E090E00E941B1E81EB97E040
:105930000C94920B81EB97E00E94970B6AEF70E05A
:105940008AE00E94EC1E81EB97E00E94DF0B81EB66
:1059500097E00E94440C81EB97E00E94310C63E0D9
:1059600073E081EB97E00E94CF0D68EE73E080E07A
:1059700090E00E941B1E60E070E08091BF070E94D3
:10598000EC1E81EB97E00E94DF0B81EB97E00E9419
:10599000970B69E073E081EB97E00E94CF0D41E047
:1059A00060E081EB97E00C94ED0BCF938BE00E94CD
:1059B0007620C82F8093BE07813071F48091BF0795
:1059C00081110AC065E173E082EB93E00E940A0E48
:1059D000C093BD07C093BF07CF9108958AE997E0B0
:1059E0000E94310D8823F1F081EB97E00E94970B24
:1059F00081EB97E00E94DF0B40E061E081EB97E0F4
:105A00000E94ED0B66E273E081EB97E00E94CF0D00
:105A100060ED77E080E090E00E941B1E81EB97E054
:105A20000E94920B81E08093BF0781EB97E00C947A
:105A3000920B8AE997E00E94310D8823F1F081EB07
:105A400097E00E94970B81EB97E00E94DF0B40E00C
:105A500061E081EB97E00E94ED0B66E373E081EB80
:105A600097E00E94CF0D60ED77E080E090E00E942B
:105A70001B1E81EB97E00E94920B60E177E280E0D1
:105A800090E00E941B1E1092BF0781EB97E00C94E0
:105A9000920BCF93C82F8BE297E00E948609019763
:105AA00009F04BC081EB97E00E944E0C81EB97E030
:105AB0000E943B0C6C2F81EB97E00E94D10D6C2F64
:105AC00082EB93E00E941C0ECA3269F0C334B1F03D
:105AD000C33269F50E94632C0E94192D8AE997E070
