:100000000C9485020C945A1E0C94851E0C94B01E00
:100010000C94DB1E0C94061F0C94311F0C945C1F77
:100020000C94871F0C94B6020C94B6020C94B60282
:100030000C94B6020C94FF1A0C94B6020C94B602FF
:100040000C94B6020C940A110C94B6020C94B602ED
:100050000C94B6020C94B6020C94B6020C943A219D
:100060000C94B6020C9481050C94B7050C94B6025E
:100070000C94B6020C94B6020C94B6020C94B60220
:100080000C9438110C94B6020C94B6020C94B6027F
:100090000C94EB050C9421060C94B6020C948A1C6B
:1000A0000C94B6020C94B6020C9466110C94B60231
:1000B0000C94B6020C94B6020C94B6020C949411F3
:1000C0000C94B6020C94B6020C94B6020C9455062D
:1000D0000C948B060C94B6020C94BF060C94F50697
:1000E0000C94B6020A1ED41DDC1DE81DF51D161E5B
:1000F000231E4A1E401E421E441E461E4C1E4E1EFD
:10010000AF22B422B922C322CD224623D722DF2236
:10011000E722F122FB22052314231E234623282352
:1001200032233C236A236D235C2360236623A423AC
:10013000712375237B237F23832389238D2391239D
:10014000A42397239B239F230C94DD1F0C9405234A
:100150000C94D7220C946D230C94CD3B0C947F23EC
:100160000C9409040C940A1E0C94FB030C943C237D
:100170000C949B230C9497230C944E1E0C94D41D2A
:100180000C946A230C94C3220C9414200C94401EEB
:100190000C94D43B0C94161E0C9466230C949F2351
:1001A0000C94A4230C94F51D0C94E1050C94B80256
:1001B0000C946B3B0C944B060C940D3B0C94B21FAF
:1001C0000C94453C0C9475230C94C63B0C94231E54
:1001D0000C948B040C9489230C94C93B0C947123CC
:1001E0000C94D8040C9446230C944A1E0C94F122CF
:1001F0000C940A3C0C94DF220C94DC1D0C9491238B
:100200000C942A070C94113B0C94B9220C94E7220D
:100210000C9441200C9460230C947B0D0C942823A7
:100220000C942C040C94B4220C94BA1F0C94461E0B
:100230000C94FB220C94FE3B0C9462370C94513CC2
:100240000C94CE1F0C94441E0C9414230C947836FA
:100250000C941E230C943E3B0C9432230C944C1EA5
:100260000C94103B0C94AF220C94421E0C94BB1DBA
:100270000C94B5060C94DE1F0C941D040C94CD2236
:100280000C94983B0C941F070C9483230C94E81D4A
:100290000C948D230C94EF030C9408200C945C2395
:1002A0000C947B234E414E494E495459494E46CDFC
:1002B000CCCC3D0AD7233C17B7D13877CC2B32951D
:1002C00095E6241FB14F0A000020410000C84200FB
:1002D000401C4620BCBE4CCA1B0E5AAEC59D7400C5
:1002E000407A10F35A00A0724E18090010A5D4E805
:1002F0000000E87648170000E40B54020000CA9A98
:100300003B000000E1F505000080969800000040E9
:10031000420F000000A0860100000010270000002E
:1003200000E803000000006400000000000A000074
:100330000000000100000000002C76D888DC674F28
:100340000823DFC1DFAE59E1B1B796E5E3E453C658
:100350003AE651997696E8E6C28426EB898C9B6250
:10036000ED407C6FFCEFBC9C9F40F2BAA56FA5F4FA
:1003700090055A2AF75C936B6CF9676DC11BFCE022
:10038000E40D47FEF520E6B500D0ED902E03009475
:100390003577050080841E080000204E0A0000000A
:1003A000C80C333333330F986E12831141EF8D2114
:1003B00014893BE65516CFFEE6DB18D1844B381B7B
:1003C000F77C1D901DA4BBE424203284725E228140
:1003D00000C9F124ECA1E53D270200000A0B020947
:1003E0000C0D0E08070304010000000000000000CF
:1003F00000000000000000000000000000000000FD
:1004000000000000000012111000000000000000B9
:1004100000000000000000000000000000000000DC
:100420000102102020080810204010204080020106
:1004300002010804020101020408102040808040EB
:1004400020100804020180040201804020100804EA
:100450000201080402010102040810204080010288
:100460000408102040800505050507050808080850
:10047000020202020A0A080804040404010101013C
:100480000101010103030303030303030407070737
:100490000C0C0C0C0C0C0C0C0202020206060606DC
:1004A000060606060B0B0B0B0B0B0B0B00002000BC
:1004B0002300260029002C002F003200000100003C
:1004C00003010601090100002200250028002B007D
:1004D0002E003100340002010000050108010B016B
:1004E00000002100240027002A002D0030003300E6
:1004F00001010000040107010A01113B3E3B6B3B77
:10050000983BFE3B0A3C453C513C11241FBECFEFBB
:10051000D1E2DEBFCDBF00E00CBF16E0A0E0B2E04C
:10052000ECE8F4E900E00BBF02C007900D92AE3A90
:10053000B107D9F72CE0AEEAB6E001C01D92AD3CA0
:10054000B207E1F712E0C4E8D2E000E006C021976C
:100550000109802FFE010E94B63CCD37D10780E013
:100560000807A9F70E94DA3B0C94344A0C94000067
:100570000E94E3410E94E3414F925F926F927F920B
:100580009F92AF92BF92CF92DF92EF92FF920F9322
:100590001F93CF93DF938C01C62FFC011086118629
:1005A00012861386148661E08C2F0E94A52360E0DA
:1005B0008C2F0E94E12364E170E080E090E00E94D3
:1005C000B52161E08C2F0E94E12388E290E00E9437
:1005D000F12160E08C2F0E94A52351E1E52E57E226
:1005E000F52E8C2F0E941024892B39F4F1E0EF1A9C
:1005F000F108B9F78EEF9FEF5BC041E1E42E47E2CF
:10060000F42E8C2F0E941024019729F481E0E81A1F
:10061000F108B9F7EFCF28E2E22EF12C912CD7E0C8
:10062000AA24A394B12C91E1C92E97E2D92E8C2F44
:100630000E941024892B29F4E1E0CE1AD108B9F7E1
:10064000D9CF0E9490212B013C0181E1C82E87E285
:10065000D82E8C2F0E941024019729F4F1E0CF1A94
:10066000D108B9F7C7CF0E949021DC01CB018419D2
:100670009509A609B7098997A105B10560F0F801A8
:10068000E90DF11D2085C5010D2E01C0880F0A94CA
:10069000EAF7822B8087D11103C09394D7E001C081
:1006A000D15081E0E81AF10809F0BDCF80E090E078
:1006B000DF91CF911F910F91FF90EF90DF90CF903E
:1006C000BF90AF909F907F906F905F904F900895F4
:1006D0000F931F93CF93DF93EC010E94BC0200970E
:1006E00009F50885602F70E080E090E00E94F23DFF
:1006F000688379838A839B831A85612F70E080E009
:1007000090E00E94F23D6C837D838E839F83100F67
:1007100081E090E02C85121302C080E090E091957A
:1007200081959109DF91CF911F910F9108950F93BA
:100730001F93CF93DF93EC010E94BC02009709F056
:1007400049C0698588850E942426BC0180E090E02C
:100750000E94F23D2DEC3CEC4CEC5DE30E94A93E86
:10076000688379838A839B838A8587FF05C08F7717
:100770008A870FEF1FEF02C001E010E06B858A85CA
:100780000E9424269C01029FC001039F900D129F8E
:10079000900D1124BC0180E090E00E94F23D2DEC10
:1007A0003CEC4CEC5DE30E94A93E6C837D838E8320
:1007B0009F8328858985280F8A85280F8B85280F98
:1007C00081E090E03C85231302C080E090E09195A9
:1007D00081959109DF91CF911F910F910895FC01AF
:1007E000918D228D892F90E0805C9F4F821B910913
:1007F0008F7399270895FC01918D828D981731F0A0
:10080000828DE80FF11D858D90E008958FEF9FEFA9
:100810000895FC01918D828D981761F0828DDF0122
:10082000A80FB11D5D968C91928D9F5F9F73928FE3
:1008300090E008958FEF9FEF0895FC01538D448D54
:10084000252F30E0842F90E0821B930B541710F07B
:10085000CF9608950197089581EE95E0892B41F098
:1008600080E090E0892B21F00E94E105811125C0F4
:100870008BE496E0892B41F080E090E0892B21F019
:100880000E944B0681111CC085EB96E0892B41F03C
:1008900080E090E0892B21F00E94B506811113C001
:1008A0008FE197E0892BA1F080E090E0892B81F027
:1008B0000E941F0781110AC008950E940000D8CF2E
:1008C0000E940000E1CF0E940000EACF0C940000DB
:1008D0000895FC01848DDF01A80FB11DA35ABF4FFD
:1008E0002C91848D90E001968F739927848FA6892F
:1008F000B7892C93A089B1898C91837080648C9383
:10090000938D848D981306C00288F389E02D808131
:100910008F7D80830895EF92FF920F931F93CF9363
:10092000DF93EC0181E0888F9B8D8C8D981305C03F
:10093000E889F989808185FD26C0F62E0B8D10E0AF
:100940000F5F1F4F0F731127E02E8C8DE8120CC024
:100950000FB607FCFACFE889F989808185FFF5CFCA
:10096000CE010E946904F1CF8B8DFE01E80FF11DCD
:10097000E35AFF4FF0829FB7F8940B8FEA89FB8907
:10098000808180620AC09FB7F894EE89FF896083F6
:10099000E889F98980818370806480839FBF81E0CA
:1009A00090E0DF91CF911F910F91FF90EF9008950C
:1009B000CF93DF93EC01888D8823C9F0EA89FB8906
:1009C000808185FD05C0A889B9898C9186FD0FC0FD
:1009D0000FB607FCF5CF808185FFF2CFA889B989D2
:1009E0008C9185FFEDCFCE010E946904E7CFDF91A6
:1009F000CF910895CF92DF92EF92FF921F93CF9302
:100A0000DF93EC016A017B01122FE889F98982E00A
:100A100080834115514E61057105B1F060E079E0C8
:100A20008DE390E0A70196010E94753CDA01C901AF
:100A30000197A109B109B695A795979587959C014E
:100A4000211580E13807A8F0E889F989108260E86B
:100A500074E88EE190E0A70196010E94753CDA01EE
:100A6000C9010197A109B109B695A79597958795F1
:100A70009C01EC85FD853083EE85FF852083188EF3
:100A8000EC89FD891083EA89FB89808180618083FC
:100A9000EA89FB89808188608083EA89FB8980817B
:100AA00080688083EA89FB8980818F7D8083DF91E4
:100AB000CF911F91FF90EF90DF90CF900895CF934B
:100AC000DF93EC01E881F9810680F781E02D19952B
:100AD000EA89FB8980818F7E8083EA89FB89808116
:100AE000877F8083EA89FB8980818F778083EA8989
:100AF000FB8980818F7D80838A8D898FDF91CF9163
:100B000008951F920F920FB60F9211240BB60F92F9
:100B10002F938F939F93EF93FF93E091BE06F091F5
:100B2000BF068081E091C406F091C50682FD12C027
:100B300090818091C7068F5F8F732091C8068217BE
:100B400051F0E091C706F0E0E255F94F958F8093A0
:100B5000C70601C08081FF91EF919F918F912F91E6
:100B60000F900BBE0F900FBE0F901F9018951F9205
:100B70000F920FB60F9211240BB60F922F933F9343
:100B80004F935F936F937F938F939F93AF93BF9395
:100B9000EF93FF938EEA96E00E946904FF91EF9134
:100BA000BF91AF919F918F917F916F915F914F9185
:100BB0003F912F910F900BBE0F900FBE0F901F9083
:100BC00018958EEA96E00E94EF0321E0892B09F444
:100BD00020E0822F08951F920F920FB60F921124DA
:100BE0000BB60F922F938F939F93EF93FF93E09108
:100BF0005B07F0915C078081E0916107F0916207EB
:100C000082FD12C09081809164078F5F8F73209165
:100C10006507821751F0E0916407F0E0E55BF84F5B
:100C2000958F8093640701C08081FF91EF919F9120
:100C30008F912F910F900BBE0F900FBE0F901F90B2
:100C400018951F920F920FB60F9211240BB60F92A8
:100C50002F933F934F935F936F937F938F939F93C4
:100C6000AF93BF93EF93FF938BE497E00E946904E7
:100C7000FF91EF91BF91AF919F918F917F916F9174
:100C80005F914F913F912F910F900BBE0F900FBE30
:100C90000F901F9018958BE497E00E94EF0321E0DE
:100CA000892B09F420E0822F08951F920F920FB62E
:100CB0000F9211240BB60F922F938F939F93EF9364
:100CC000FF93E091F807F091F9078081E091FE072A
:100CD000F091FF0782FD12C09081809101088F5F23
:100CE0008F7320910208821751F0E0910108F0E023
:100CF000E851F84F958F8093010801C08081FF91E2
:100D0000EF919F918F912F910F900BBE0F900FBE7F
:100D10000F901F9018951F920F920FB60F921124EB
:100D20000BB60F922F933F934F935F936F937F93E5
:100D30008F939F93AF93BF93EF93FF9388EE97E0CA
:100D40000E946904FF91EF91BF91AF919F918F91A4
:100D50007F916F915F914F913F912F910F900BBEBB
:100D60000F900FBE0F901F90189588EE97E00E948D
:100D7000EF0321E0892B09F420E0822F08951F92D0
:100D80000F920FB60F9211240BB60F922F938F93E1
:100D90009F93EF93FF93E0919508F09196088081DF
:100DA000E0919B08F0919C0882FD12C09081809197
:100DB0009E088F5F8F7320919F08821751F0E091FA
:100DC0009E08F0E0EB57F74F958F80939E0801C087
:100DD0008081FF91EF919F918F912F910F900BBE8A
:100DE0000F900FBE0F901F9018951F920F920FB685
:100DF0000F9211240BB60F922F933F934F935F9353
:100E00006F937F938F939F93AF93BF93EF93FF93D2
:100E100085E898E00E946904FF91EF91BF91AF913E
:100E20009F918F917F916F915F914F913F912F9102
:100E30000F900BBE0F900FBE0F901F90189585E876
:100E400098E00E94EF0321E0892B09F420E0822F33
:100E5000089508958F929F92AF92BF92CF92DF92A2
:100E6000EF92FF920F931F93CF93DF937C018B013F
:100E70004C0182E0880E911C5701E5E0AE0EB11CDA
:100E8000C0E0D0E0F40161914F014AE050E0C801B8
:100E90000E949E0E6C016EE2C8010E94D90D8C0D5D
:100EA0009D1DC80FD91F8A149B0461F74AE050E0CA
:100EB000F7016581C8010E949E0E8C0F9D1FDF9176
:100EC000CF911F910F91FF90EF90DF90CF90BF9047
:100ED000AF909F908F9008952CE933E0FC0131830F
:100EE0002083128213821482158208950F93FC01CD
:100EF0008CE993E091838083628343832483058319
:100F00000F9108952CE933E0FC0131832083428363
:100F10005383648375830895DC018CE993E08D939A
:100F20009D9384E0FB0101900D928A95E1F708956D
:100F3000DC0190E020E030E08AE0FB014191BF015C
:100F4000442309F150ED540F5A3088F4829FF00188
:100F5000839FF00D11249F0120533109240F311D6F
:100F600047FD3A952F3F310541F338F312C04E3219
:100F700081F4933071F0FD01E90FF11D22839F5F31
:100F800020E030E0DACF933021F415962C9381E005
:100F9000089580E00895DC01129624E0FB010190A1
:100FA0000D922A95E1F70895FC01428353836483EF
:100FB000758308959B01BC016E5F7F4F44E050E054
:100FC000C9010E943C4221E0892B09F020E0822FD8
:100FD0000895FC0110821482138215820895FC0189
:100FE00060838FEF9FEF9283818314821382158237
:100FF0000895FC01608354834383258308954F92B1
:101000005F926F927F928F929F92AF92BF92CF9298
:10101000DF92EF920F93CF93DF93EC016B014A01C4
:10102000590102960E94E90782EA93E09983888336
:101030002E018CE1480E511C3E0188E5680E711CA2
:10104000C2010E94E90786E0480E511C461457046D
:10105000B9F7FE01EE59FF4F918280823296B1823C
:10106000A082329600833196E0823797D182C08287
:1010700038968AE090E091838083329684EF91E005
:10108000918380833396118210827197108211822E
:1010900012821382C459DF4F1882DF91CF910F91D2
:1010A000EF90DF90CF90BF90AF909F908F907F9008
:1010B0006F905F904F900895805A9F4FFC0171830D
:1010C000608308952F923F924F925F926F927F922A
:1010D0008F929F92AF92BF92CF92DF92EF92FF9248
:1010E0000F931F93CF93DF93CDB7DEB728970FB63B
:1010F000F894DEBF0FBECDBF98878F8310E05C01F0
:1011000026E6A20EB11C7C0132E6E30EF11CD501ED
:101110008C911817B8F0312CEF81F885E959FF4F01
:10112000FC83EB83CF80D884F4E6CF0ED11C412C16
:10113000512C320143942F8138852E593F4F3E83E5
:101140002D8360C0F701A081B181A10FB11DEF8196
:10115000F88580819181FC012081318142E06C9190
:101160008F819885F90119951F5FD1CF022D10E06D
:10117000AD81BE818D919C91DC01A00FB11F0480D7
:10118000F581E02D6C918F8198851995000F111FC5
:10119000EF81F885E00FF11F892B09F06FC0808582
:1011A000918529813A81822B932B91878087239483
:1011B000D5018C91AF81B885ED91FC912816B0F2E4
:1011C000D6018D919C91DC01AE0DBF1D0280F38193
:1011D000E02D41E06C918F8198851995F601808111
:1011E0009181DC01AE0DBF1DEF81F8858081918179
:1011F000FC012081318140E06C918F819885F9015B
:1012000019953394AB81BC818C913816E0F5E32CB1
:10121000F12CF601A081B181AE0DBF1DEF81F885E3
:1012200080819181FC012081318141E06C918F812D
:101230009885F9011995F601A081B181AE0DBF1D08
:10124000EF81F88580819181FC012281338140E02A
:101250006C918F819885F9011995D301C201032CF6
:1012600004C0880F991FAA1FBB1F0A94D2F79A8344
:1012700089834C0180949094212C9ACF808591850C
:101280008821992192CF28960FB6F894DEBF0FBE21
:10129000CDBFDF91CF911F910F91FF90EF90DF9025
:1012A000CF90BF90AF909F908F907F906F905F9006
:1012B0004F903F902F900895FC019C01245C3F4F7C
:1012C000848D861307C0878D90A1019719F481A1A1
:1012D000811105C03696E217F30791F780E0089573
:1012E000FC0180E090E0248D261739F001963696B7
:1012F0008A309105C1F78FEF9FEF0895FC0180E0E0
:1013000090E0258D368D2617370739F001963696F1
:101310008A309105B1F78FEF9FEF0895FC01878D1B
:1013200090A10895FC0181A108958AE00895FC012F
:10133000E859FF4F6115710529F481E090E0918330
:101340008083089571836083089586599F4FFC01BF
:1013500071836083089583599F4FFC01718360837B
:101360000895DC0126E0629FA00DB11D1124909626
:101370005C934E935F9721E091962C939197FC019B
:10138000E459FF4F208131960190F081E02D222316
:1013900031F0309749F0611107C0DC0102C030978D
:1013A00019F05C968C9119940895CF92DF92EF9288
:1013B000FF920F931F93CF93DF93EC01162F042F0F
:1013C000FC0186E0689FE00DF11D112411A2878DBC
:1013D00090A181309105D1F048F08230910591F1D2
:1013E000039709F03FC040E050E030C04423D1F102
:1013F00041E050E0CE010E94B1090E948421C85A08
:10140000DF4F688379838A839B832CC00E94842169
:10141000FE01E85AFF4FC080D180E280F380AB012B
:10142000BC014C195D096E097F097296808191811A
:10143000A0E0B0E084179507A607B70718F442E0CC
:1014400050E004C001110EC043E050E0612FCE0116
:10145000DF91CF911F910F91FF90EF90DF90CF9090
:101460000C94B109DF91CF911F910F91FF90EF90F4
:10147000DF90CF9008952F923F924F925F926F929C
:101480007F928F929F92AF92BF92CF92DF92EF9214
:10149000FF920F931F93CF93DF9300D000D0CDB76F
:1014A000DEB79E838D837C015C012CE3A20EB11C10
:1014B000FC018FEF9FEF278D30A1232B21F4148E99
:1014C000968F858F11A23696AE16BF06A1F7512CC6
:1014D0008D819E818A599F4F9A838983AD81BE8178
:1014E000A959BF4FBC83AB836D807E80B0E66B0E85
:1014F000711C86E0282EE981FA818081581608F057
:101500005AC0412C0D811E81050D111D050D111DA7
:10151000085F1F4FAB81BC818C90481408F049C014
:10152000F801C080D180042C02C0D694C7940A94DC
:10153000E2F7FC2DF1703F2E589C40011124840CE1
:10154000911CB4018D819E810E947E0997FD05C08A
:10155000432D682F8D819E8121C0019641F5C0FEEB
:1015600026C0ED81FE8160E070E0848D811119C09C
:10157000D301ED91FC91E80DF91D8081269EF001CB
:10158000279EF00D11242D813E81E20FF31F848FE1
:10159000968E858E10A2178E432DC9010E94D50903
:1015A00006C06F5F7F4F36966A307105F1F643943F
:1015B000B1CF5394A0CF80E0D70191969C91911127
:1015C00081E0B6E0EB0EF11CAE14BF04A9F726963D
:1015D0000FB6F894DEBF0FBECDBFDF91CF911F9144
:1015E0000F91FF90EF90DF90CF90BF90AF909F90C2
:1015F0008F907F906F905F904F903F902F900895C5
:10160000CF92DF92EF92FF920F931F93CF93DF93CE
:10161000EC010E9484218E01045A1F4FF801C08002
:10162000D180E280F380AB01BC014C195D096E09E9
:101630007F093C9680819181A0E0B0E084179507F6
:10164000A607B70778F4CE010E946208CE010E9477
:101650003B0AC82F0E948421F80160837183828332
:10166000938301C0C0E08C2FDF91CF911F910F9128
:10167000FF90EF90DF90CF9008950F931F93CF933B
:10168000DF93EC018C0104591F4F81E0F801808346
:10169000CE010E94000B882349F089A1882331F0F4
:1016A0008F8D98A1019711F48C8D03C0F8011082E1
:1016B00080E0DF91CF911F910F910895CF93DF9339
:1016C000EC01CE010E943D0B8823D9F3DF91CF912D
:1016D0000895FC01138212828CEA93E09183808347
:1016E000648341872287138608950C94D70D08954B
:1016F0000895089580E0089580E0089580E00895B9
:101700000895089508951F93CF93DF93EC01162F4A
:101710006C818FE49AE00E94A2206B85612B8FE49C
:101720009AE00E9441208FE49AE0DF91CF911F91CF
:101730000C942D21FC01138660E00C94830B28E0AF
:10174000FC01238760E00C94830B61110C949F0BC8
:101750000C949A0B0F931F93CF938C01C62F646048
:101760000E94830B81E090E00E94F1216C2F6B7F3F
:10177000C8010E94830B82E390E0CF911F910F91EB
:101780000C94F1211F93CF93DF93EC01162F0E944D
:10179000830B612FCE01DF91CF911F910C94AA0B87
:1017A0000F931F93CF93DF938C01C62FD42F607FAD
:1017B000642B0E94C20B80E1C89FB00111246D2BE5
:1017C000C801DF91CF911F910F910C94C20B61E082
:1017D0000E94D13B80ED97E00C94F12162E00E94E1
:1017E000D13B80ED97E00C94F121CF93DF93CDB7FF
:1017F000DEB728970FB6F894DEBF0FBECDBF9C01B1
:1018000088E0EEE7F3E0DE01119601900D928A95F3
:10181000E1F7F9018085841710F44FEF480FFE01BE
:101820003196E40FF11DE40FF11D9081690F60689E
:10183000C90128960FB6F894DEBF0FBECDBFDF9169
:10184000CF910C94D13BFC0166816B7F668368600D
:101850000C94D13BFC016681262F246026836C60AA
:101860000C94D13BFC0166816D7F668368600C94AB
:10187000D13B0C94320CFC016681262F226026831A
:101880006A600C94D13B0C943B0CFC0166816E7F2A
:10189000668368600C94D13B0C94450CFC01668116
:1018A000262F2160268369600C94D13B0C944E0C4A
:1018B00068E10C94D13B6CE10C94D13BFC01678155
:1018C000262F2260278366600C94D13BFC01678140
:1018D0006D7F678364600C94D13BFC016781262F88
:1018E0002160278365600C94D13BFC0167816E7F8A
:1018F000678364600C94D13BEF92FF920F931F9328
:10190000CF93DF938C017A01677088E0689FB00104
:1019100011246064C8010E94D13BE701A8E0EA0EEF
:10192000F11C6991D801ED91FC910190F081E02DBD
:10193000C8011995CE15DF05A1F7DF91CF911F9151
:101940000F91FF90EF9008950C947C0CCF93DF9350
:10195000EC01423018F08D8188608D834887222306
:1019600029F0413019F48D8184608D8362E370E049
:1019700080E090E00E94B5216B85CE010E94830B30
:1019800068EE73E080E090E00E94B52160E3CE0154
:101990000E94C20B84E991E10E94F12160E3CE0133
:1019A0000E94C20B84E991E10E94F12160E3CE0123
:1019B0000E94C20B86E990E00E94F12160E2CE0114
:1019C0000E94C20B6D816062CE010E94D13B84E017
:1019D0008E83CE010E942A0CCE010E94E70B82E08A
:1019E0008F8366E0CE010E94D13BCE01DF91CF9183
:1019F0000C94EE0BCF93DF93EC018FE49AE00E94FE
:101A000080201D8220E04A856985CE01DF91CF913B
:101A10000C94A60C0C94FA0C80E090E008950895C4
:101A200008950C943B3F0C943B3F0C94D33F0C9493
:101A3000D33FFC0171836083168A12820895FC01F2
:101A4000718360830895FC012689233161F031E0C0
:101A5000320F368BE20FF11D6283FC01E30FF11DA3
:101A6000128281E0089580E00895FC01168A1282B6
:101A70000895FC0120813181D9015D914281339625
:101A80002C5E3F4F511104C081E0442349F007C050
:101A9000541305C05D914191A217B30799F780E0F7
:101AA0000895CF93DF93FB01DC011296AB014C5EEE
:101AB0005F4FEB012881222331F0E417F50719F07D
:101AC00021912D93F6CFDF91CF910C94390DFC012C
:101AD0007183608308950C94510D0E94510D91E023
:101AE00089270895CF93DF93EC010E94230DCE0147
:101AF000DF91CF910895CF92DF92EF92FF920F93F3
:101B00001F93CF93DF936C017A018B01C0E0D0E08B
:101B1000CE15DF0581F0D8016D918D01D601ED91D3
:101B2000FC910190F081E02DC6011995892B11F0EF
:101B30002196EECF7E01C701DF91CF911F910F91CA
:101B4000FF90EF90DF90CF900895EF92FF920F9368
:101B50001F93CF93DF938C017B01C0E0D0E0F701AE
:101B6000EC0FFD1F6491662361F0D801ED91FC91AB
:101B70000190F081E02DC8011995892B11F0219673
:101B8000EECFCE01DF91CF911F910F91FF90EF909B
:101B90000895DB0114964D915C9115976D917C91A0
:101BA000DC01ED91FC910280F381E02D19940C94FD
:101BB000E93BDC01ED91FC910190F081E02D19945D
:101BC000DB01ED91FC9111970190F081E02DBC01BA
:101BD000CD01199464EB73E00C94E93B0F931F93D0
:101BE000CF93DF93EC010E94A50D8C01CE010E94E2
:101BF000EA0D800F911FDF91CF911F910F910895F2
:101C00000F931F93CF93DF93EC010E94C90D8C01BA
:101C1000CE010E94EA0D800F911FDF91CF911F919D
:101C20000F9108950F931F93CF93DF93EC010E94C0
:101C3000E93B8C01CE010E94EA0D800F911FDF91DC
:101C4000CF911F910F9108950F931F93CF93DF931F
:101C5000EC010E94D90D8C01CE010E94EA0D800F8B
:101C6000911FDF91CF911F910F9108950F931F93B3
:101C7000CF93DF93EC010E94E00D8C01CE010E9416
:101C8000EA0D800F911FDF91CF911F910F91089561
:101C90008F929F92AF92BF92EF92FF920F931F93FA
:101CA000CF93DF93CDB7DEB7A1970FB6F894DEBF21
:101CB0000FBECDBF7C01FA01CB0119A2223008F47E
:101CC0002AE08E010F5D1F4F822E912CA12CB12C8A
:101CD000BF01A50194010E94753CF901CA010150A0
:101CE00011096A3014F4605D01C0695CD8016C931D
:101CF000232B242B252B61F7B801C7010E94E93B58
:101D0000A1960FB6F894DEBF0FBECDBFDF91CF9185
:101D10001F910F91FF90EF90BF90AF909F908F9089
:101D200008952115310541F4DC01ED91FC910190FC
:101D3000F081E02D642F19940C94480E9A01462FDF
:101D400050E060E070E00C94910E0F931F93CF93DE
:101D5000DF93EC010E949E0E8C01CE010E94EA0DE1
:101D6000800F911FDF91CF911F910F9108959A01DC
:101D7000AB0160E070E00C94910E0F931F93CF9332
:101D8000DF93EC010E94B70E8C01CE010E94EA0D98
:101D9000800F911FDF91CF911F910F9108950F93A5
:101DA0001F93CF93DF93EC010E94910E8C01CE0123
:101DB0000E94EA0D800F911FDF91CF911F910F912B
:101DC0000895CF92DF92EF92FF920F931F93CF93DC
:101DD000DF932115310581F4DC01ED91FC91019037
:101DE000F081E02D642FDF91CF911F910F91FF9033
:101DF000EF90DF90CF9019942A30310501F577FFED
:101E00001DC06A017B01EC016DE20E94D90D8C01BD
:101E100044275527BA014C195D096E097F092AE04C
:101E2000CE010E94480E800F911FDF91CF911F912C
:101E30000F91FF90EF90DF90CF9008952AE0DF910F
:101E4000CF911F910F91FF90EF90DF90CF900C9466
:101E5000480E9A01AB01770F660B770B0C94E10EDD
:101E60000F931F93CF93DF93EC010E94290F8C01F6
:101E7000CE010E94EA0D800F911FDF91CF911F913B
:101E80000F9108950F931F93CF93DF93EC010E945E
:101E9000E10E8C01CE010E94EA0D800F911FDF91AF
:101EA000CF911F910F9108957F928F929F92AF9241
:101EB000BF92CF92DF92EF92FF920F931F93CF9337
:101EC000DF938C016A017B01722E9A01AB01C7017D
:101ED000B6010E94163F882319F067EB73E027C014
:101EE00046015701E894B7F82FEF3FEF4FE75FE760
:101EF000C501B4010E94163F81110DC02FEF3FEFC5
:101F00004FE75FE7C501B4010E94453D18161CF478
:101F10006BEB73E00CC02FEF3FEF4FE75FE4C701BF
:101F2000B6010E94A43E181694F46FEB73E0C8014A
:101F3000DF91CF911F910F91FF90EF90DF90CF90A5
:101F4000BF90AF909F908F907F900C94E93B2FEFC4
:101F50003FEF4FE75FECC701B6010E94453D87FDAB
:101F6000E4CF20E030E0A901C701B6010E94453D61
:101F700087FF0AC06DE2C8010E94D90DEC01F7FA93
:101F8000F094F7F8F09402C0C0E0D0E0B12C60E02B
:101F900070E080E09FE37B1441F020E030E040E21D
:101FA00051E40E944A3DB394F6CFA70196010E94E6
:101FB000D93C6B017C010E94C33D4B015C012AE0CE
:101FC000AB01BC01C8010E94480EC80FD91F772081
:101FD000B9F1C501B4010E94F23D9B01AC01C701FA
:101FE000B6010E94D83C6B017C016EE2C8010E94E0
:101FF000D90DC80FD91F20E030E040E251E4C701FD
:10200000B6010E94A93E4B015C010E94C33D6B01D9
:102010007C014AE050E0C8010E94B70EC80FD91FEA
:10202000B60180E090E00E94F23D9B01AC01C50149
:10203000B4010E94D83C6B017C017A947110DBCF13
:10204000CE01DF91CF911F910F91FF90EF90DF9024
:10205000CF90BF90AF909F908F907F9008950C94F9
:10206000540F0F931F93CF93DF93EC010E94540FF3
:102070008C01CE010E94EA0D800F911FDF91CF915C
:102080001F910F910895CF92DF92EF92FF920F93DD
:102090001F93CF93DF936C018B017A01EC01CD5D2F
:1020A000D64F888187FF04C0FB011182108224C0B3
:1020B0002CE02C9DC0012D9D900D11242881AC0198
:1020C000420F511D27FD5A952091220930E04217F9
:1020D000530794F42881AC01420F511D27FD5A95F6
:1020E0009A01FA01EE0FFF1F2E0F3F1FF901E95D64
:1020F000F64F208126FD19C088818F5F88832CE0F0
:102100002C9DC0012D9D900D11242881AC01420F02
:10211000511D27FD5A952091220930E0421753079F
:10212000BCF428812C3044F113C02881820F911D0A
:1021300027FD9A95FC01EE0FFF1F8E0F9F1FFC01DC
:10214000E95DF64F808160E08F730E94E123D4CF78
:10215000F80180819181049680349C4918F480E4D0
:102160009CE904C0F801808191810496F701918374
:1021700080838FEF888345C0F80140815181288199
:10218000BC01620F711D27FD7A959B01FB01EE0FCB
:10219000FF1F2E0F3F1FF901E95DF64F21813281AC
:1021A000240F351FF701318320832881AC01420FB2
:1021B000511D27FD5A959A01FA01EE0FFF1F2E0FB0
:1021C0003F1FF901E95DF64F208126FF1AC02881E3
:1021D000820F911D27FD9A95FC01EE0FFF1F8E0FB8
:1021E0009F1FFC01E95DF64F808161E08F73DF91F5
:1021F000CF911F910F91FF90EF90DF90CF900C94B3
:10220000E123DF91CF911F910F91FF90EF90DF902D
:10221000CF9008951F920F920FB60F9211240BB614
:102220000F922F933F934F935F936F937F938F936F
:102230009F93AF93BF93EF93FF9348E850E064E818
:1022400070E081E090E00E944310FF91EF91BF9118
:10225000AF919F918F917F916F915F914F913F913E
:102260002F910F900BBE0F900FBE0F901F901895DF
:102270001F920F920FB60F9211240BB60F922F934D
:102280003F934F935F936F937F938F939F93AF93FE
:10229000BF93EF93FF9348E950E064E970E082E078
:1022A00090E00E944310FF91EF91BF91AF919F91F9
:1022B0008F917F916F915F914F913F912F910F90EF
:1022C0000BBE0F900FBE0F901F9018951F920F928C
:1022D0000FB60F9211240BB60F922F933F934F938B
:1022E0005F936F937F938F939F93AF93BF93EF937E
:1022F000FF9348EA50E064EA70E083E090E00E94D7
:102300004310FF91EF91BF91AF919F918F917F917A
:102310006F915F914F913F912F910F900BBE0F9056
:102320000FBE0F901F9018951F920F920FB60F922D
:1023300011240BB60F922F933F934F935F936F939C
:102340007F938F939F93AF93BF93EF93FF9348E255
:1023500051E064E271E080E090E00E944310FF9160
:10236000EF91BF91AF919F918F917F916F915F910D
:102370004F913F912F910F900BBE0F900FBE0F907A
:102380001F901895FC01909122099033A0F481E0F0
:10239000890F809322099083892F90E0FC01EE0F32
:1023A000FF1F8E0F9F1FFC01E95DF64F88EB9BE03E
:1023B0009283818308958FEF80830895DF92EF9257
:1023C000FF920F931F93CF93DF93EC01D62E7A01E8
:1023D00089018881803308F068C061E08D2D0E94FA
:1023E000A5238881E82FF0E09F01220F331FE20F21
:1023F000F31FE95DF64F9D2D9F732081207CD22E27
:10240000D92AD08220E232E02E193F0937FF02C0DC
:102410002D5F3F4F3595279535952795298320E6E4
:1024200039E0201B310B37FF02C02D5F3F4F359540
:102430002795359527952A836CE00E94693C9CE09E
:10244000899FB001112440E050E09B01240F351F0B
:10245000F901EE0FFF1F2E0F3F1FF901E95DF64F47
:10246000908196FD16C04F5F5F4F4C30510569F764
:10247000813021F51092800082E0809381001092DB
:10248000850010928400B19A80916F0082608093E1
:102490006F00E881F0E0CF01880F991FE80FF91F66
:1024A000E95DF64F8081806480838881DF91CF91E0
:1024B0001F910F91FF90EF90DF900895823061F4AB
:1024C00010929000809391001092950010929400C9
:1024D00088BB80937100DDCF833069F41092A00037
:1024E00082E08093A1001092A5001092A40089BB05
:1024F00080937200CECF8111CCCF1092200182E068
:102500008093210110922501109224018ABB8093AF
:102510007300BFCF20E639E040E252E00C94DE11B8
:10252000DC01EC91F0E0CF01880F991FE80FF91F53
:10253000E95DF64F80818F7B80830895FC01DB018C
:102540007081703308F041C0818128E830E0281B99
:10255000310987FD3395C901880F991F880F991F8D
:10256000A817B90784F0828148E552E0481B510959
:1025700087FD5395440F551F440F551FCD014A1732
:102580005B070CF4CA0102974FB7F894272F30E08D
:10259000092E000CAA0BBB0B54E0880F991FAA1F31
:1025A000BB1F5A95D1F763E0B695A7959795879588
:1025B0006A95D1F7F901EE0FFF1F2E0F3F1FF901AA
:1025C000E95DF64F928381834FBF0895AF92BF922A
:1025D000CF92DF92EF92FF920F931F93CF93DF93EF
:1025E000EC01603282E078070CF03FC077FD06C056
:1025F000653B71052CF064EB70E002C060E070E0B8
:10260000898128E830E05901A81AB10887FDB39400
:10261000AA0CBB1CAA0CBB1C0B2C000CCC08DD08A4
:10262000072E000C880B990B2A8108E512E0021B8B
:10263000110927FD1395000F111F000F111F012E07
:10264000000C220B330B3F932F931F930F9314EB2C
:10265000E12EF12C00E010E020E030E0A9010E9422
:10266000E2250F900F900F900F90CE01DF91CF9148
:102670001F910F91FF90EF90DF90CF90BF90AF90A0
:102680000C949E12FC0180818F3FB9F090E0FC0118
:10269000EE0FFF1F8E0F9F1FFC01E95DF64F81813A
:1026A000928133E0880F991F3A95E1F744E09695BF
:1026B00087954A95E1F70296089580E090E00895A5
:1026C0004F925F926F927F92AF92BF92CF92DF92C2
:1026D000EF92FF920F931F93CF93DF9300D01F923F
:1026E000CDB7DEB7FC01428128E532E0241B310979
:1026F00047FD3395220F331F220F331FA901330FDC
:10270000660B770B49835A836B837C83218148E86E
:1027100050E02A01421A510827FD5394440C551CDD
:10272000440C551C052C000C660877080E944213C7
:102730000196BC01990F880B990B1F921F921F9253
:1027400024EB2F93A12CB12C6501E980FA800B8139
:102750001C81A30192010E94E2250F900F900F901F
:102760000F90CB010F900F900F900F90DF91CF91B2
:102770001F910F91FF90EF90DF90CF90BF90AF909F
:102780007F906F905F904F900895FC01808190E062
:10279000FC01EE0FFF1F8E0F9F1FFC01E95DF64F3E
:1027A000808186FB882780F908950F931F93CF932C
:1027B000DF93EC010E948421688779878A879B8751
:1027C000E881F9810284F385E02DCE01199597FF08
:1027D00017C00E948421088519852A853B85DC0164
:1027E000CB01801B910BA20BB30B0C811D812E81A1
:1027F0003F8180179107A207B30710F38FEF9FEF78
:10280000DF91CF911F910F9108950F931F93CF9355
:10281000DF93EC010E948421688779878A879B87F0
:10282000E881F9810484F585E02DCE01199597FFA3
:1028300017C00E948421088519852A853B85DC0103
:10284000CB01801B910BA20BB30B0C811D812E8140
:102850003F8180179107A207B30710F38FEF9FEF17
:10286000DF91CF911F910F910895FF920F931F93C6
:10287000CF93DF93EC018B01F42ECE010E9405145F
:1028800097FD2DC08D32910519F19C01205331091E
:102890002A30310520F1FF2019F08E329105D1F058
:1028A00001301105D1F00230110551F48D30910540
:1028B00039F024F40997029718F00FC0809769F453
:1028C000E881F9810284F385E02DCE011995D5CFF9
:1028D0008DE201C08EE290E002C08FEF9FEFDF91AA
:1028E000CF911F910F91FF900895FC014483558370
:1028F000668377830895BF92CF92DF92EF92FF9223
:102900000F931F93CF93DF938C01C42F40E00E945D
:102910003514FC0197FD47C0C12CD12C7601B12C98
:102920000C2E000CDD0BEC17FD0709F1ED32F10563
:10293000E1F0CF01C0970A97D0F4AAE0B0E0A70178
:1029400096010E94BE3C6F01FF0FEE08FF08DC01FC
:10295000CB018C0D9D1DAE1DBF1D6C017D0120E3C3
:10296000C21AD108E108F10802C0BB24B394D8010F
:10297000ED91FC910284F385E02DC8011995C80101
:102980000E940514FC01C0970A9768F2CE17DF0772
:1029900051F2BB2061F066277727CB016C197D09C6
:1029A0008E099F0906C060E070E0CB0102C0C7013C
:1029B000B601DF91CF911F910F91FF90EF90DF90C3
:1029C000CF90BF9008954F925F926F927F92AF9297
:1029D000BF92CF92DF92EF92FF920F931F93CF930C
:1029E000DF935C01042F41E00E943514FC0197FD48
:1029F0006FC0412C512C80E8682E8FE3782EC12CBB
:102A0000D12C7601C0E0D0E0002E000C110BE017B5
:102A1000F10769F1ED32F10539F1EE32F10531F1ED
:102A2000CF01C0970A9718F5AAE0B0E0A701960178
:102A30000E94BE3C6F01FF0FEE08FF08C60ED71EB6
:102A4000E81EF91E80E3C81AD108E108F108CC237A
:102A500071F02DEC3CEC4CEC5DE3C301B2010E9443
:102A6000A93E2B013C0103C0D1E001C0C1E0D5016A
:102A7000ED91FC910284F385E02DC5011995C50106
:102A80000E940514FC01C0970A9708F2EE32F10586
:102A900019F4CC2309F4BBCF0E171F0709F4B7CFE5
:102AA000DD2341F0F094E094D094C094C11CD11C7B
:102AB000E11CF11CC701B601CC2339F00E94F43DA2
:102AC000A30192010E94A93E06C00E94F43D03C0EA
:102AD00060E070E0CB01DF91CF911F910F91FF90EB
:102AE000EF90DF90CF90BF90AF907F906F905F900E
:102AF0004F900895CF92DF92EF92FF920F931F9322
:102B0000CF93DF936C017A018B01C0E0D0E0CE154A
:102B1000DF0559F0C6010E94D51397FD05C0F801E5
:102B200081938F012196F3CF7E01C701DF91CF9171
:102B30001F910F91FF90EF90DF90CF900895AF928B
:102B4000BF92CF92DF92EF92FF920F931F93CF939A
:102B5000DF9321153105C9F089015C016A01C0E0EC
:102B6000D0E0E62E660FFF08C5010E94D51397FD41
:102B70000FC08E159F0561F0F60181936F012196BC
:102B80000C171D0789F7C80104C080E090E001C060
:102B9000CE01DF91CF911F910F91FF90EF90DF90C9
:102BA000CF90BF90AF9008950F931F93CF93DF9373
:102BB000EC018B0167E074E00E949726C8010E9437
:102BC000D51397FD05C0682FCE010E94C328F6CF0C
:102BD000CE01DF91CF911F910F910895EF92FF9257
:102BE0000F931F93CF93DF93EC017B01042F67E0DA
:102BF00074E00E949726C7010E94D513002E000C96
:102C0000110B97FD0BC08017910741F0682FCE0183
:102C10000E94C328C7010E94D513F3CFCE01DF91D4
:102C2000CF911F910F91FF90EF9008954F925F9277
:102C30006F927F928F929F92AF92BF92CF92DF92CC
:102C4000EF92FF920F931F93CF93DF938C01EB01D1
:102C500086E0849F4001859F900C1124860E971E6C
:102C6000FB01E815F90508F582819381892B21F193
:102C70003696F7CF6081718144815581DB01A40FC5
:102C8000B51F2C91022E000C330B8217930711F500
:102C90004F5F5F4F5583448322813381421753072F
:102CA00059F03696E815F90528F3C8010E94D513A6
:102CB00097FD46C0FE01F6CFEC1BFD0BF595E795A1
:102CC0002BEA3AEAE29FC001E39F900DF29F900D3C
:102CD000112438C04115510521F3C480D5809601D7
:102CE0002150310935832483DB01A20FB31FAC913E
:102CF0000A2E000CBB0B8A179B07F9F4211531052E
:102D0000C9F05B017A01E21AF30AE60EF71E412CC4
:102D1000512CD5016D905D01D7017D907D0167102B
:102D200006C0BFEF4B1A5B0A4216530690F32415F8
:102D3000350599F6D582C482B4CF232B71F6B1CF75
:102D40008FEF9FEFDF91CF911F910F91FF90EF9049
:102D5000DF90CF90BF90AF909F908F907F906F90BB
:102D60005F904F900895CF93DF9300D000D0CDB700
:102D7000DEB7FE01319626E0DF011D922A95E9F7C4
:102D80007A8369835C834B8341E050E0BF010E94FA
:102D9000161621E0892B09F020E0822F26960FB627
:102DA000F894DEBF0FBECDBFDF91CF9108950C9494
:102DB000B316FB0101900020E9F73197AF01461BE4
:102DC000570B0C94B316FF920F931F93CF93DF937F
:102DD000CDB7DEB72C970FB6F894DEBF0FBECDBFD0
:102DE0002115310521F40E94B316282F19C0FE01C8
:102DF0003196ACE0FA2EDF011D92FA94E9F77A835E
:102E000069835C834B8338872F831A87098742E065
:102E100050E0BF010E94161621E0892B09F020E046
:102E2000822F2C960FB6F894DEBF0FBECDBFDF9178
:102E3000CF911F910F91FF9008950F931F939A01C7
:102E4000FA0101900020E9F731978F01041B150B5F
:102E5000FB0101900020E9F73197AF01461B570BAA
:102E60000E94E3161F910F9108954F925F926F9207
:102E70007F928F929F92AF92BF92CF92DF92EF920A
:102E8000FF920F931F93CF93DF9300D01F921F9257
:102E9000CDB7DEB78B0129013A0190910002891765
:102EA00021F09F3F09F046C305C0E9EDF3E024910E
:102EB0002D8303C180930002E9EDF3E094919D839B
:102EC0009F3F09F437C3923009F47FC068F5992316
:102ED00009F45AC0913009F0F0C0109280001092AD
:102EE0008100909181009860909381009091810081
:102EF000916090938100282F30E0F901EA59FB4F4F
:102F0000E491F0E0EE0FFF1FEA53FB4F459154911F
:102F10005093D5094093D409F901E05EFB4FE49149
:102F2000E093D30991E09FC02D81243009F49DC026
:102F300008F473C0253009F0C0C01092200110922F
:102F4000210190912101986090932101909121019C
:102F5000916090932101282F30E0F901EA59FB4F4D
:102F6000E491F0E0EE0FFF1FEA53FB4F45915491BF
:102F70005093B9094093B809F901E05EFB4FE49121
:102F8000E093B70995E06FC014BC15BC94B592608E
:102F900094BD95B5916095BD282F30E0F901EA59AF
:102FA000FB4FE491F0E0EE0FFF1FEA53FB4F45911A
:102FB00054915093DC094093DB09F901E05EFB4F2B
:102FC000E491E093DA091D82B1C21092B000109230
:102FD000B1009091B00092609093B0009091B100D8
:102FE00091609093B100282F30E0F901EA59FB4F2E
:102FF000E491F0E0EE0FFF1FEA53FB4F459154912F
:103000005093CE094093CD09F901E05EFB4FE49166
:10301000E093CC0922E02D8389C210929000109297
:1030200091009091910098609093910090919100FF
:10303000916090939100282F30E0F901EA59FB4FFD
:10304000E491F0E0EE0FFF1FEA53FB4F45915491DE
:103050005093C7094093C609F901E05EFB4FE49124
:10306000E093C50993E09D83B1C01092A000109237
:10307000A1009091A10098609093A1009091A1006F
:1030800091609093A100282F30E0F901EA59FB4F9D
:10309000E491F0E0EE0FFF1FEA53FB4F459154918E
:1030A0005093C0094093BF09F901E05EFB4FE491E2
:1030B000E093BE0924E02D8389C02D8127FD3AC20B
:1030C00061E00E94A5238D818D7F09F082C04801B7
:1030D000A12CB12C60E072E18AE790E0A501940197
:1030E0000E94753C29833A834B835C8369017A0192
:1030F00081E0C81AD108E108F1089FEFC916D10490
:10310000E104F10409F008F44EC060E472E48FE0D9
:1031100090E0A50194010E94753C69017A0181E06B
:10312000C81AD108E108F1089D81923009F52FEF06
:10313000C216D104E104F10409F008F4BEC160E94B
:1031400070ED83E090E0A50194010E94753C690157
:103150007A0181E0C81AD108E108F1089FEFC91689
:10316000D104E104F10411F008F035C183E027C077
:103170002FEFC216D104E104F104B9F0B0F068E415
:1031800078EE81E090E0A50194010E94753C690110
:103190007A0181E0C81AD108E108F1089D819923DC
:1031A00009F48FC157C181E001C082E09D81911176
:1031B00006C095B5987F892B85BD7EC085E090912E
:1031C000B100987F892B8093B10076C061E00E94A6
:1031D000A5234801A12CB12C60E072E18AE790E0C0
:1031E000A50194010E94753C69017A0181E0C81A29
:1031F000D108E108F108C114D10491E0E906F10415
:1032000088F068E478EE81E090E0A50194010E94E6
:10321000753C69017A0181E0C81AD108E108F1081A
:1032200083E001C081E09D81913081F49091810023
:10323000987F892B809381004114510461047104AB
:1032400009F03FC02FEF3FEFA9016DC02D81233062
:1032500079F490919100987F892B8093910041148B
:1032600051046104710469F52FEF3FEFA9017DC09E
:103270009D81943079F49091A100987F892B80935F
:10328000A1004114510461047104D9F42FEF3FEF00
:10329000A9017DC02D81253079F490912101987F7D
:1032A000892B80932101411451046104710449F474
:1032B0002FEF3FEFA9017DC0411451046104710457
:1032C00071F0D801AA0FBB1FA30192010E94BE3C5E
:1032D00028EE33E040E050E00E94753C03C02FEF41
:1032E0003FEFA9018D81823081F12CF4882361F0B8
:1032F0008130C9F01FC19D81943009F448C0ACF100
:10330000953009F456C016C1C7BC2093DD0930932F
:10331000DE094093DF095093E00980916E008260DE
:1033200080936E0007C1D0928900C09288002093DC
:10333000D6093093D7094093D8095093D909809181
:103340006F00826080936F00F5C0C092B30020933D
:10335000CF093093D0094093D1095093D20980917D
:103360007000826080937000E5C0D0929900C09296
:1033700098002093C8093093C9094093CA09509313
:10338000CB0980917100826080937100D3C0D0928C
:10339000A900C092A8002093C1093093C2094093AC
:1033A000C3095093C40980917200826080937200B7
:1033B000C1C0D0922901C09228012093BA0930934C
:1033C000BB094093BC095093BD0980917300826092
:1033D00080937300AFC068E478EE81E090E0A501CF
:1033E00094010E94753C69017A0181E0C81AD108F4
:1033F000E108F1089FEFC916D104E104F10441F19D
:1034000038F164E274EF80E090E0A50194010E943D
:10341000753C69017A0181E0C81AD108E108F10818
:103420009FEFC916D104E104F10409F008F4C6CEF7
:1034300062E17AE780E090E0A50194010E94753C8A
:1034400069017A0181E0C81AD108E108F10818C0C1
:1034500084E0B5CE2FEFC216D104E104F10479F176
:1034600070F162E17AE780E090E0A50194010E94AA
:10347000753C69017A0191E0C91AD108E108F108A7
:103480008FEFC816D104E104F104A9F0A0F08981FE
:103490009A81AB81BC812AE0B695A79597958795CF
:1034A0002A95D1F76C017D0121E0C21AD108E1080B
:1034B000F10887E084CE86E082CE82E080CE84E090
:1034C00075CE2FEFC216D104E104F10469F160F169
:1034D00062E17AE780E090E0A50194010E94753CEA
:1034E00069017A0181E0C81AD108E108F1089FEF6B
:1034F000C916D104E104F104A9F0A0F089819A81F0
:10350000AB81BC813AE0B695A795979587953A959A
:10351000D1F76C017D0121E0C21AD108E108F10860
:1035200085E047CE84E045CE83E043CE61E00E9453
:10353000A523CDCD0F900F900F900F900F90DF919E
:10354000CF911F910F91FF90EF90DF90CF90BF90A0
:10355000AF909F908F907F906F905F904F90089565
:103560008230A9F028F4882349F0813051F0089581
:10357000843021F1E8F0853039F1089510926E0021
:10358000089580916F008D7F80936F0008958091E2
:1035900070008D7F8093700081E08093B0008091F7
:1035A000B100887F84608093B1001092B3000895C9
:1035B000809171008D7F80937100089580917200D9
:1035C0008D7F809372000895809173008D7F80932A
:1035D00073000895CF93C82F80910002C81307C0CD
:1035E000E9EDF3E084919FEF9093000201C08FEF2B
:1035F0000E94B01A60E08C2FCF910C94E1231F92AF
:103600000F920FB60F9211240BB60F922F933F9388
:103610004F935F936F937F938F939F93AF93BF93DA
:10362000EF93FF938091CF099091D009A091D10998
:10363000B091D209892B8A2B8B2B51F19091CC0917
:10364000E091CD09F091CE09808189278083809116
:10365000CF099091D009A091D109B091D209181643
:1036600019061A061B06C4F48091CF099091D0095F
:10367000A091D109B091D2090197A109B109809314
:10368000CF099093D009A093D109B093D20904C077
:10369000809100020E94EA1AFF91EF91BF91AF91D1
:1036A0009F918F917F916F915F914F913F912F915A
:1036B0000F900BBE0F900FBE0F901F901895109299
:1036C0004E0A81E080934C0A10924B0A61E084E13B
:1036D0000E94E12361E085E10E94E123E9EBF0E053
:1036E00080818E7F808380818D7F808388E480933A
:1036F000B80085E48093BC000895ECEBF0E0808195
:103700008A7B808360E084E10E94E12360E085E1C0
:103710000C94E123880F8093BA0008959B01AC01BB
:1037200060E074E284EF90E00E94753CDA01C90128
:103730004097A109B109B695A7959795879580936C
:10374000B8000895413208F043C090914E0A91119B
:10375000FCCF91E090934E0A20934C0A2FEF2093D8
:10376000E1091092260A240F2093250A90934D0A0E
:1037700090914D0A880F892B80934D0A80914B0AB6
:10378000813061F410924B0A80914D0A8093BB0006
:103790008091BC0083FDF8CF85EC01C085EE80935D
:1037A000BC0080914E0A8130E1F38091260A841793
:1037B00010F44091260AA7E2BAE0962FFB018E2F63
:1037C000891B841718F48D918193F9CF842F089564
:1037D00080E008950F93413208F04AC090914E0A5C
:1037E0009111FCCF32E030934E0A00934C0A3FEF28
:1037F0003093E1091092260A4093250A562FA7E23A
:10380000BAE0FB013E2F351B341718F431913D937C
:10381000F9CF10924D0A30914D0A880F832B809377
:103820004D0A80914B0A813061F410924B0A8091CD
:103830004D0A8093BB008091BC0083FDF8CF85ECDE
:1038400001C085EE8093BC00222321F080914E0AB6
:103850008230D1F38091E1098F3F79F08091E109C5
:10386000803241F08091E109803331F094E005C06D
:1038700091E003C092E001C093E0892F0F91089579
:103880004091030A262F30E0240F311D21323105EB
:10389000DCF420914E0A2430C9F4FC0180E090E071
:1038A000861758F43091030A2191DC01AB5FB54FC4
:1038B000A30FB11D2C930196F3CF8091030A680FDB
:1038C0006093030A80E0089581E0089582E00895FE
:1038D0009093480A8093470A089590934A0A8093E8
:1038E000490A0895882311F085EC01C085E880938A
:1038F000BC00089585ED8093BC008091BC0084FDE0
:10390000FCCF10924E0A089585EC8093BC00109273
:103910004E0A08951F920F920FB60F9211240BB604
:103920000F922F933F934F935F936F937F938F9358
:103930009F93AF93BF93EF93FF938091B900887FDC
:10394000803609F49EC078F5883209F45DC090F4A1
:10395000803109F456C038F4882309F4F5C0883062
:1039600009F44FC0F5C0883109F44EC0803209F423
:103970005FC0EEC0803409F46AC058F4803309F4A3
:1039800057C0883309F0E4C08093E1090E94841C89
:10399000DFC0803509F44FC0883509F45DC0883434
:1039A00009F0D6C0D3C0883909F4C4C0A8F4883758
:1039B00009F467C038F4883609F463C0803709F425
:1039C00060C0C6C0883809F4B5C0803909F45FC04A
:1039D000803809F0BDC05BC0803B09F483C038F477
:1039E000803A09F466C0883A09F47CC0B1C0803CD2
:1039F00009F4A4C0883C09F4A1C0883B09F487C03D
:103A0000A7C080914D0A10C09091260A8091250A86
:103A1000981770F5E091260A81E08E0F8093260AB0
:103A2000F0E0E95DF54F80818093BB0085EC83C0B9
:103A30008093E1098BC0E091260A81E08E0F80938C
:103A4000260A8091BB00F0E0E95DF54F80839091FC
:103A5000260A8091250A6BC0E091260A81E08E0F2C
:103A60008093260A8091BB00F0E0E95DF54F8083EA
:103A700080914C0A81116AC081E080934B0A84EAEC
:103A80005EC083E080934E0A1092E209CFCF80910E
:103A9000E209803208F04EC0E091E20981E08E0F29
:103AA0008093E2098091BB00F0E0ED51F64F8083F6
:103AB000BDCF0E94841C8091E209803230F4E091F5
:103AC000E209F0E0ED51F64F10826091E20970E0FA
:103AD000E091470AF091480A83EE99E01995109217
:103AE000E20936C084E080934E0A1092040A1092D4
:103AF000030AE091490AF0914A0A19958091030A54
:103B0000811105C081E08093030A1092050AE091BB
:103B1000040A81E08E0F8093040AF0E0EB5FF54F1A
:103B200080818093BB009091040A8091030A9817CA
:103B300008F47CCF85E88093BC000AC085EC8093B4
:103B4000BC0010924E0A04C01092E1090E947A1C37
:103B5000FF91EF91BF91AF919F918F917F916F9165
:103B60005F914F913F912F910F900BBE0F900FBE21
:103B70000F901F9018950895883008F070C0A82FF6
:103B8000B0E0AA0FBB1FAF5FBD4F11967C936E9341
:103B900090E0FC013197E730F105A0F58827EE5859
:103BA000FF4F8F4F0C94B63C809169008C7F482B5F
:103BB00040936900E89A089580916900837F440FDB
:103BC000551F440F551F482B40936900E99A0895EB
:103BD000809169008F7C74E0440F551F7A95E1F75E
:103BE000482B40936900EA9A0895809169008F7389
:103BF00066E0440F551F6A95E1F7482B4093690032
:103C0000EB9A089580916A008C7F482B40936A005C
:103C1000EC9A089580916A00837F440F551F440FEA
:103C2000551F482B40936A00ED9A089580916A00D1
:103C30008F7C24E0440F551F2A95E1F7482B4093D1
:103C40006A00EE9A089580916A008F7396E0440F9F
:103C5000551F9A95E1F7482B40936A00EF9A089513
:103C6000982F883030F5482F50E0FA013197E7302F
:103C7000F10570F48827E758FF4F8F4F0C94B63C3E
:103C8000E8980DC0E9980BC0EA9809C0EB9807C006
:103C9000EC9805C0ED9803C0EE9801C0EF98E92FAD
:103CA000F0E0EE0FFF1FEF5FFD4F8BEB9DE1918387
:103CB000808308951F920F920FB60F9211240BB6B6
:103CC0000F922F933F934F935F936F937F938F93B5
:103CD0009F93AF93BF93EF93FF93E0910502F09111
:103CE00006021995FF91EF91BF91AF919F918F912E
:103CF0007F916F915F914F913F912F910F900BBEEC
:103D00000F900FBE0F901F9018951F920F920FB635
:103D10000F9211240BB60F922F933F934F935F9303
:103D20006F937F938F939F93AF93BF93EF93FF9383
:103D3000E0910702F09108021995FF91EF91BF9170
:103D4000AF919F918F917F916F915F914F913F9133
:103D50002F910F900BBE0F900FBE0F901F901895D4
:103D60001F920F920FB60F9211240BB60F922F9342
:103D70003F934F935F936F937F938F939F93AF93F3
:103D8000BF93EF93FF93E0910902F0910A02199516
:103D9000FF91EF91BF91AF919F918F917F916F9123
:103DA0005F914F913F912F910F900BBE0F900FBEDF
:103DB0000F901F9018951F920F920FB60F9211241B
:103DC0000BB60F922F933F934F935F936F937F9315
:103DD0008F939F93AF93BF93EF93FF93E0910B0269
:103DE000F0910C021995FF91EF91BF91AF919F91C6
:103DF0008F917F916F915F914F913F912F910F9094
:103E00000BBE0F900FBE0F901F9018951F920F9230
:103E10000FB60F9211240BB60F922F933F934F932F
:103E20005F936F937F938F939F93AF93BF93EF9322
:103E3000FF93E0910102F09102021995FF91EF9139
:103E4000BF91AF919F918F917F916F915F914F91B2
:103E50003F912F910F900BBE0F900FBE0F901F90B0
:103E600018951F920F920FB60F9211240BB60F9256
:103E70002F933F934F935F936F937F938F939F9372
:103E8000AF93BF93EF93FF93E0910302F09104028D
:103E90001995FF91EF91BF91AF919F918F917F9174
:103EA0006F915F914F913F912F910F900BBE0F90AB
:103EB0000FBE0F901F9018951F920F920FB60F9282
:103EC00011240BB60F922F933F934F935F936F93F1
:103ED0007F938F939F93AF93BF93EF93FF93E09163
:103EE0000D02F0910E021995FF91EF91BF91AF91E4
:103EF0009F918F917F916F915F914F913F912F9102
:103F00000F900BBE0F900FBE0F901F9018951F9231
:103F10000F920FB60F9211240BB60F922F933F936F
:103F20004F935F936F937F938F939F93AF93BF93C1
:103F3000EF93FF93E0910F02F09110021995FF911A
:103F4000EF91BF91AF919F918F917F916F915F9111
:103F50004F913F912F910F900BBE0F900FBE0F907E
:103F60001F9018958091830A90E02091840A821B0B
:103F7000910908959091840A8091830A981750F4CA
:103F8000E92FF0E0EB57F54F208130E09F5F9093F1
:103F9000840A02C02FEF3FEFC9010895E091840A1F
:103FA0008091830AE81730F4F0E0EB57F54F8081F9
:103FB00090E008958FEF9FEF08950895CF93DF93DA
:103FC000EC01E0915B0AF0915C0A3097F1F090917E
:103FD000840A8091830A9817C0F090E0292F30E07E
:103FE0002617370754F4DE01A20FB31F4C91D901F5
:103FF000AB57B54F4C939F5FF1CF1092840A6093FB
:10400000830ACB01DF91CF911994DF91CF9108956D
:10401000E0915D0AF0915E0A309729F01092610AF2
:104020001092600A19940895CF92DF92EF92FF9256
:104030000F931F93CF93DF937C01CB018A012091D3
:104040005F0A222389F0EB016B01C40ED51ECC154B
:10405000DD0569F06991D701ED91FC910190F08146
:10406000E02DC7011995F3CF642F0E94401CC801B1
:10407000DF91CF911F910F91FF90EF90DF90CF9044
:104080000895CF93DF931F92CDB7DEB76983209158
:104090005F0A2223D1F02091600A203240F021E013
:1040A00030E0FC013383228380E090E015C08091F2
:1040B000610AE82FF0E0EE59F54F998190838F5F08
:1040C0008093610A8093600A05C061E0CE01019689
:1040D0000E94401C81E090E00F90DF91CF91089505
:1040E000FC011382128288EE93E0A0E0B0E08483AA
:1040F0009583A683B78383ED93E0918380830895AE
:104100001092840A1092830A1092610A1092600A37
:104110000E945F1B88E090E20E946D1C8EED9FE183
:104120000C94681CCF93C62F0E9480208C2FCF91B7
:104130000C948A1B0C9492200C947D1BCB01BA0129
:104140000C948E1B81E080935F0A6093820A109228
:10415000610A1092600A08950C94A2200F93062F12
:1041600021E04091600A62E67AE08091820A0E9432
:10417000EA1B1092610A1092600A10925F0A0F9176
:1041800008954F925F926F927F92AF92BF92CF92BB
:10419000EF92FF920F931F93CF93DF935C01F62E64
:1041A000D42F28013901EE2021F10E94A220CE2D2A
:1041B000C43008F0C3E0C150C0F028E0C29FC00185
:1041C0001124A301920104C0569547953795279570
:1041D0008A95D2F7CA01B901D501ED91FC91019000
:1041E000F081E02DC5011995E6CF60E0C5010E9480
:1041F000AE204D2FD13208F040E22C2D65E87AE058
:104200008F2D0E94A21B1092840A8093830ADF9153
:10421000CF911F910F91FF90EF90CF90BF90AF90F3
:104220007F906F905F904F900895CF92EF920F9391
:104230001F93C22EE12C00E010E098010E94C120E3
:104240001F910F91EF90CF90089521E00C941521CC
:1042500021E00C9415210C94152161E00C94AE2002
:1042600070935C0A60935B0A089570935E0A609392
:104270005D0A08951F920F920FB60F9211242F938B
:104280003F938F939F93AF93BF938091A50A909193
:10429000A60AA091A70AB091A80A3091AD0A23E01E
:1042A000230F2D3720F40196A11DB11D05C026E86E
:1042B000230F0296A11DB11D2093AD0A8093A50A7C
:1042C0009093A60AA093A70AB093A80A8091A90A7E
:1042D0009091AA0AA091AB0AB091AC0A0196A11DD7
:1042E000B11D8093A90A9093AA0AA093AB0AB09338
:1042F000AC0ABF91AF919F918F913F912F910F90F9
:104300000FBE0F901F9018952FB7F8946091A50AD3
:104310007091A60A8091A70A9091A80A2FBF0895CC
:104320003FB7F8948091A90A9091AA0AA091AB0A8C
:10433000B091AC0A26B5A89B05C02F3F19F0019695
:10434000A11DB11D3FBFBA2FA92F982F8827820F1B
:10435000911DA11DB11DBC01CD0142E0660F771F6B
:10436000881F991F4A95D1F708958F929F92AF9217
:10437000BF92CF92DF92EF92FF926B017C010E947D
:1043800090214B015C01C114D104E104F10401F15D
:104390000E9429070E949021DC01CB01881999090C
:1043A000AA09BB09883E9340A105B10560F321E04D
:1043B000C21AD108E108F10888EE880E83E0981E41
:1043C000A11CB11CC114D104E104F10419F7DBCF25
:1043D000FF90EF90DF90CF90BF90AF909F908F9025
:1043E00008958230910538F0880F991F880F991F22
:1043F00005970197F1F70895789484B5826084BD9C
:1044000084B5816084BD85B5826085BD85B58160D8
:1044100085BDEEE6F0E0808181608083E1E8F0E038
:104420001082808182608083808181608083E0E867
:10443000F0E0808181608083E1EBF0E08081846046
:104440008083E0EBF0E0808181608083E1E9F0E04F
:10445000808182608083808181608083E0E9F0E0F8
:10446000808181608083E1EAF0E0808182608083E6
:10447000808181608083E0EAF0E0808181608083D8
:10448000E1E2F1E0808182608083808181608083CD
:10449000E0E2F1E0808181608083EAE7F0E0808102
:1044A000846080838081826080838081816080835A
:1044B0008081806880831092C100089580931102EA
:1044C0000895863308F0865390917B00282F28703A
:1044D000977F922B90937B002091110290E4299F6B
:1044E000900111248770822B80937C0080917A0048
:1044F000806480937A0080917A0086FDFCCF809161
:1045000078002091790090E0922B08951F93CF932B
:10451000DF93182FEB0161E00E94A523209711F48F
:1045200060E004C0CF3FD10539F461E0812FDF9115
:10453000CF911F910C94E123E12FF0E0E652FC4F64
:10454000E4918E2F90E0FC013197E231F10508F003
:104550009DC08827E058FF4F8F4F0C94B63C84B520
:10456000806884BDC7BD97C084B5806284BDC8BD66
:1045700092C080918000806880938000D0938900F1
:10458000C093880088C08091800080628093800002
:10459000D0938B00C0938A007EC080918000886099
:1045A00080938000D0938D00C0938C0074C0809164
:1045B000B00080688093B000C093B3006CC080915D
:1045C000B00080628093B000C093B40064C080915A
:1045D0009000806880939000D0939900C0939800D9
:1045E0005AC080919000806280939000D0939B008D
:1045F000C0939A0050C08091900088608093900092
:10460000D0939D00C0939C0046C08091A00080681C
:104610008093A0008091A0008F7B8093A000D09316
:10462000A900C093A80037C08091A0008062809349
:10463000A000D093AB00C093AA002DC08091A00031
:1046400088608093A000D093AD00C093AC0023C0DD
:1046500080912001806880932001D0932901C0932C
:10466000280119C080912001806280932001D0939D
:104670002B01C0932A010FC0809120018860809394
:104680002001D0932D01C0932C0105C0C038D10565
:104690000CF04BCF45CFDF91CF911F91089590E063
:1046A000FC013197E231F10508F04EC08827EE5643
:1046B000FF4F8F4F0C94B63C809180008F7703C0E2
:1046C000809180008F7D809380000895809180008C
:1046D000877FF9CF84B58F7702C084B58F7D84BD85
:1046E00008958091B0008F7703C08091B0008F7DD6
:1046F0008093B0000895809190008F7707C08091DB
:1047000090008F7D03C080919000877F8093900000
:1047100008958091A0008F7707C08091A0008F7DC1
:1047200003C08091A000877F8093A00008958091AE
:1047300020018F7707C0809120018F7D03C0809179
:104740002001877F809320010895CF93DF9390E02D
:10475000FC01E05EFB4F2491FC01EA59FB4F849180
:10476000882361F190E0880F991FFC01E052FB4F14
:10477000C591D491FC01EA53FB4FA591B49161110D
:1047800009C09FB7F8948881209582238883EC9193
:104790002E230BC0623061F49FB7F8948881322FCA
:1047A000309583238883EC912E2B2C939FBF06C0DA
:1047B0008FB7F894E8812E2B28838FBFDF91CF919C
:1047C00008951F93CF93DF93282F30E0F901E6522D
:1047D000FC4F8491F901E05EFB4FD491F901EA5955
:1047E000FB4FC491CC23C1F0162F81110E944F239F
:1047F000EC2FF0E0EE0FFF1FEA53FB4FA591B491B1
:104800009FB7F894111104C08C91D095D82302C0A1
:10481000EC91DE2BDC939FBFDF91CF911F91089528
:10482000CF93DF93282F30E0F901E652FC4F8491BB
:10483000F901E05EFB4FD491F901EA59FB4FC491B5
:10484000CC2391F081110E944F23EC2FF0E0EE0F6A
:10485000FF1FE455FB4FA591B491EC91ED2381E04E
:1048600090E021F480E002C080E090E0DF91CF9101
:1048700008954F925F926F927F928F929F92AF9224
:10488000BF92CF92DF92EF92FF920F931F93CF933D
:10489000DF9349015A0190E0FC01E05EFB4F149167
:1048A000FC01EA59FB4FC491662311F0012F01C0AE
:1048B00000E00E9490216B017C01D0E0CC0FDD1F55
:1048C000C455DB4FFE01A591B4918C91812308134F
:1048D0001EC00E949021DC01CB018C199D09AE09FC
:1048E000BF0988169906AA06BB0660F760E070E06B
:1048F000CB0133C00E949021DC01CB018C199D09B2
:10490000AE09BF0988169906AA06BB0678F3FE0110
:10491000A591B4918C9181230813ECCF0E94902132
:104920002B013C01FE01A591B4918C9181230813C8
:104930000EC00E949021DC01CB018C199D09AE09AB
:10494000BF0988169906AA06BB0660F7CFCF0E945A
:1049500090216419750986099709DF91CF911F91FC
:104960000F91FF90EF90DF90CF90BF90AF909F900E
:104970008F907F906F905F904F900895CF92DF92CD
:10498000EF92FF920F931F93FC0180818623841383
:104990000BC00150110921093109B9F71EC001509E
:1049A000110921093109C9F0808186234813F7CF05
:1049B000C12CD12C76019081962349130BC08FEF27
:1049C000C81AD80AE80AF80A0C151D052E053F0575
:1049D00091F703C0B601C70104C060E070E080E059
:1049E00090E01F910F91FF90EF90DF90CF9008958E
:1049F0000F931F9390E0FC01E05EFB4F7491FC016C
:104A0000EA59FB4FE491662311F0672F01C060E083
:104A1000F0E0EE0FFF1FE455FB4F85919491890163
:104A20009A013F70462F672F0E94BE2461157105C1
:104A30008105910549F0DC01CB010196A11DB11D55
:104A4000BC01CD019F7003C060E070E0CB011F91FD
:104A50000F910895CF92DF92EF92FF920F931F93E1
:104A6000CF93DF93F82ED62FE42E07E010E0C0E0BE
:104A700087E0C82ED12C61E08D2F0E94E1238F2D7D
:104A8000E1100AC00E9410249601201B310B01C0C6
:104A9000880F2A95EAF707C00E941024002E01C053
:104AA000880F0A94EAF7C82B60E08D2F0E94E1235B
:104AB0000150110900F78C2FDF91CF911F910F91B9
:104AC000FF90EF90DF90CF900895BF92CF92DF924A
:104AD000EF92FF920F931F93CF93DF93C82ED62EA2
:104AE000B42EC7E0D0E0022F10E087E0E82EF12CD2
:104AF000B11005C0C7018C1B9D0BB80102C0B801E5
:104B00008C2F02C0759567958A95E2F761708C2DA0
:104B10000E94E12361E08D2D0E94E12360E08D2D54
:104B20000E94E123219720F7DF91CF911F910F91F0
:104B3000FF90EF90DF90CF90BF90089561157105C1
:104B40008105910511F00C94F5400895CF92DF9204
:104B5000EF92FF92611571058105910549F06B0196
:104B60007C010E94A740A70196010E94973C03C0C8
:104B700060E070E0CB01FF90EF90DF90CF90089560
:104B8000CF92DF92EF92FF920F931F9362177307FA
:104B90008407950784F489019A016B017C01C9019E
:104BA000B8016C197D098E099F090E94A6256C0D1C
:104BB0007D1D8E1D9F1D1F910F91FF90EF90DF9027
:104BC000CF9008954F925F926F927F92AF92BF9273
:104BD000CF92DF92EF92FF920F931F93CF93DF93C9
:104BE000CDB7DEB729013A019B01AC012419350983
:104BF000460957098A899B89AC89BD89BC01CD01C9
:104C00006A197B098C099D090E94593CA8019701EA
:104C100024193509460957090E94973CCA01B90170
:104C20006A0D7B1D8C1D9D1DDF91CF911F910F91F2
:104C3000FF90EF90DF90CF90BF90AF907F906F90FC
:104C40005F904F900895089570E09B01382BC90143
:104C50000895FC01808191810C94D33FCF93DF9321
:104C6000EC0188819981009711F00E94D33F19824D
:104C700018821D821C821B821A82DF91CF910895B7
:104C80000F931F93CF93DF93EC018B016F5F7F4FE7
:104C9000888199810E94FE40009731F09983888332
:104CA0001B830A8381E001C080E0DF91CF911F91D7
:104CB0000F910895CF93DF93EC0188819981892B1F
:104CC00029F08A819B818617970760F4CE010E94A4
:104CD0004026882341F08C819D81892B19F4E8813D
:104CE000F981108281E0DF91CF910895EF92FF92D8
:104CF0000F931F93CF93DF93EC017B018A01BA01DD
:104D00000E945A26811104C0CE010E942E2607C09F
:104D10001D830C83B701888199810E947842CE015E
:104D2000DF91CF911F910F91FF90EF900895FC01BB
:104D3000118210821382128215821482611571050C
:104D400051F0FB0101900020E9F73197AF01461BBC
:104D5000570B0C9476260895EF92FF920F931F93B2
:104D6000CF93DF93EC017B018A01BA010E945A269E
:104D7000811104C0CE010E942E2607C01D830C8322
:104D8000B701888199810E942C42CE01DF91CF9199
:104D90001F910F91FF90EF900895CF93DF93EC0157
:104DA000FB018617970761F06081718161157105BC
:104DB00029F0448155810E94762602C00E942E2649
:104DC000CE01DF91CF910895FC01118210821382F0
:104DD0001282158214820C94CD26CF93DF93EC01BE
:104DE0006115710559F0FB0101900020E9F7319739
:104DF000AF01461B570B0E94762602C00E942E264A
:104E0000CE01DF91CF910895CF93DF931F921F9230
:104E1000CDB7DEB7FC011182108213821282158297
:104E2000148269831A82BE016F5F7F4F0E94ED2654
:104E30000F900F90DF91CF9108950F931F93CF9311
:104E4000DF93CDB7DEB729970FB6F894DEBF0FBE5C
:104E5000CDBF8C01862FF80111821082138212823D
:104E60001582148250E0BE016F5F7F4F90E00E9478
:104E70003343BE016F5F7F4FC8010E94ED26299624
:104E80000FB6F894DEBF0FBECDBFDF91CF911F915B
:104E90000F9108950F931F93CF93DF93CDB7DEB794
:104EA00062970FB6F894DEBF0FBECDBF8C01CB0169
:104EB000F80111821082138212821582148250E04E
:104EC000BE016F5F7F4F0E94C142BE016F5F7F4F87
:104ED000C8010E94ED2662960FB6F894DEBF0FBEA1
:104EE000CDBFDF91CF911F910F9108950F931F9325
:104EF000CF93DF93CDB7DEB761970FB6F894DEBFDF
:104F00000FBECDBF8C01CB01F8011182108213823C
:104F100012821582148250E0BE016F5F7F4F0E94A3
:104F20003343BE016F5F7F4FC8010E94ED2661963B
:104F30000FB6F894DEBF0FBECDBFDF91CF911F91AA
:104F40000F9108950F931F93CF93DF93CDB7DEB7E3
:104F5000A2970FB6F894DEBF0FBECDBF8C01CB0178
:104F6000BA01F80111821082138212821582148212
:104F700030E0AE014F5F5F4F0E94D742BE016F5FCE
:104F80007F4FC8010E94ED26A2960FB6F894DEBFAF
:104F90000FBECDBFDF91CF911F910F9108950F9359
:104FA0001F93CF93DF93CDB7DEB7A1970FB6F894D9
:104FB000DEBF0FBECDBF8C01CB01BA01F80111825B
:104FC0001082138212821582148230E0AE014F5F8C
:104FD0005F4F0E940643BE016F5F7F4FC8010E9472
:104FE000ED26A1960FB6F894DEBF0FBECDBFDF91C0
:104FF000CF911F910F910895EF92FF920F931F93FE
:10500000CF93DF93CDB7DEB7A1970FB6F894DEBF8D
:105010000FBECDBF7C01CB01BA01F7011182108216
:10502000138212821582148242E0420F8E010F5FBA
:105030001F4F0E941B3FBC01C7010E94ED26A19695
:105040000FB6F894DEBF0FBECDBFDF91CF911F9199
:105050000F91FF90EF900895EF92FF920F931F939F
:10506000CF93DF93CDB7DEB7A1970FB6F894DEBF2D
:105070000FBECDBF7C01CB01BA01F70111821082B6
:10508000138212821582148242E0420F8E010F5F5A
:105090001F4F0E941B3FBC01C7010E94ED26A19635
:1050A0000FB6F894DEBF0FBECDBFDF91CF911F9139
:1050B0000F91FF90EF9008950F931F93CF93DF937D
:1050C000EC018B016115710549F0CB010E9433425F
:1050D000AC01B801CE010E94AC2602C00E942E266F
:1050E000CE01DF91CF911F910F910895FC011182A4
:1050F000108213821282158214820C945C28EF9223
:10510000FF920F931F93CF93DF936115710511F4F5
:1051100080E01CC041155105C1F07B01EC018C8180
:105120009D818A01080F191FB801CE010E945A26DD
:10513000882371F3288139818C819D81B701820F89
:10514000931F0E9478421D830C8381E0DF91CF91F1
:105150001F910F91FF90EF900895FB0144815581BD
:10516000608171810C947F286115710551F0FB01FC
:1051700001900020E9F73197AF01461B570B0C94C3
:105180007F2880E00895CF93DF931F921F92CDB7C1
:10519000DEB769831A8241E050E0BE016F5F7F4F46
:1051A0000E947F280F900F90DF91CF910895EF928A
:1051B000FF920F931F93CF93DF9300D01F92CDB731
:1051C000DEB77C01862F4AE050E08E010F5F1F4F53
:1051D000B80190E00E94C142F80101900020E9F777
:1051E0003197AF01401B510BB801C7010E947F28C6
:1051F0000F900F900F900F90DF91CF911F910F9113
:10520000FF90EF900895EF92FF920F931F93CF932B
:10521000DF93CDB7DEB728970FB6F894DEBF0FBE89
:10522000CDBF7C01CB014AE050E08E010F5F1F4FE4
:10523000B8010E94C142F80101900020E9F73197BE
:10524000AF01401B510BB801C7010E947F2828966F
:105250000FB6F894DEBF0FBECDBFDF91CF911F9187
:105260000F91FF90EF900895EF92FF920F931F938D
:10527000CF93DF93CDB7DEB727970FB6F894DEBF95
:105280000FBECDBF7C01CB014AE050E08E010F5F25
:105290001F4FB8010E943343F80101900020E9F745
:1052A0003197AF01401B510BB801C7010E947F2805
:1052B00027960FB6F894DEBF0FBECDBFDF91CF911A
:1052C0001F910F91FF90EF900895EF92FF920F932F
:1052D0001F93CF93DF93CDB7DEB72E970FB6F89419
:1052E000DEBF0FBECDBF7C01CB01BA012AE030E0AA
:1052F0008E010F5F1F4FA8010E94D742F801019055
:105300000020E9F73197AF01401B510BB801C701ED
:105310000E947F282E960FB6F894DEBF0FBECDBF39
:10532000DF91CF911F910F91FF90EF900895EF9231
:10533000FF920F931F93CF93DF93CDB7DEB72D97D7
:105340000FB6F894DEBF0FBECDBF7C01CB01BA0112
:105350002AE030E08E010F5F1F4FA8010E94064334
:10536000F80101900020E9F73197AF01401B510B84
:10537000B801C7010E947F282D960FB6F894DEBFB2
:105380000FBECDBFDF91CF911F910F91FF90EF9096
:105390000895EF92FF920F931F93CF93DF93CDB7B2
:1053A000DEB764970FB6F894DEBF0FBECDBF7C01A9
:1053B000CB01BA018E010F5F1F4F22E044E00E9433
:1053C0001B3FFC0101900020E9F73197AF01481B1A
:1053D000590BBC01C7010E947F2864960FB6F89450
:1053E000DEBF0FBECDBFDF91CF911F910F91FF9018
:1053F000EF900895EF92FF920F931F93CF93DF9357
:10540000CDB7DEB764970FB6F894DEBF0FBECDBF41
:105410007C01CB01BA018E010F5F1F4F22E044E0F7
:105420000E941B3FFC0101900020E9F73197AF017A
:10543000481B590BBC01C7010E947F2864960FB618
:10544000F894DEBF0FBECDBFDF91CF911F910F91BA
:10545000FF90EF900895EF92FF920F931F93CF93D9
:10546000DF936115710511F480E01EC08B01EC0122
:10547000CB010E9433420097B1F02C813D817C0129
:10548000E20EF31EB701CE010E945A26882361F373
:10549000288139818C819D81B801820F931F0E94E0
:1054A0002C42FD82EC8281E0DF91CF911F910F9120
:1054B000FF90EF900895CF93DF93EC01FB014481BF
:1054C0005581608171810E947F28811103C0CE01C6
:1054D0000E942E26CE01DF91CF910895CF93DF93C6
:1054E000EC016115710561F0FB0101900020E9F705
:1054F0003197AF01461B570B0E947F28811103C0D3
:10550000CE010E942E26CE01DF91CF910895CF9338
:10551000DF93EC010E94C328811103C0CE010E94D9
:105520002E26CE01DF91CF910895CF93DF93EC012A
:105530000E94D728811103C0CE010E942E26CE01E1
:10554000DF91CF910895CF93DF93EC010E9403295F
:10555000811103C0CE010E942E26CE01DF91CF9192
:105560000895CF93DF93EC010E943429811103C089
:10557000CE010E942E26CE01DF91CF910895CF93C8
:10558000DF93EC010E946529811103C0CE010E94C6
:105590002E26CE01DF91CF910895CF93DF93EC01BA
:1055A0000E949729811103C0CE010E942E26CE01B0
:1055B000DF91CF910895CF93DF93EC010E94C92929
:1055C000811103C0CE010E942E26CE01DF91CF9122
:1055D0000895CF93DF93EC010E94FA29811103C053
:1055E000CE010E942E26CE01DF91CF910895CF9358
:1055F000DF93EC010E942B2A811103C0CE010E948F
:105600002E26CE01DF91CF910895CF93DF93DC0159
:10561000ED91FC91EB01A881B981309711F01097C1
:10562000C9F4109759F0EB012C813D81232B31F007
:105630008C9190E091958195910914C0309781F0FB
:10564000DC0114968D919C911597892B49F08081EE
:1056500090E008C0BD01CF01DF91CF910C946F4263
:1056600080E090E0DF91CF910895FC014481558165
:10567000FB01248135814217530729F40E94052B31
:1056800021E0892B09F020E0822F0895FC0124817C
:105690003581232B31F421E061157105A1F0FB0167
:1056A00008C0FC01808191816115710531F421E010
:1056B000FC018081882339F005C00E946F4221E0FF
:1056C000892B09F020E0822F08950E94052B892F55
:1056D000881F8827881F08950E94052B21E018162F
:1056E00019060CF020E0822F08950E94052B21E07E
:1056F000181619060CF420E0822F08950E94052B3D
:10570000892F8095881F8827881F0895EF92FF9220
:105710000F931F93CF93DF938617970731F1FC0107
:1057200024813581FB014481558124173507D9F443
:10573000232BD9F0DC010D911C91C081D181F8019E
:1057400081918F01882389F0082E000C990B0E940B
:105750001C427C018991082E000C990B0E941C426E
:10576000E816F90661F380E001C081E0DF91CF9196
:105770001F910F91FF90EF900895DB011496ED912A
:10578000FC911597DC0114962D913C9115972E1BD9
:105790003F0B24173507A0F02D913C9121153105C1
:1057A00079F0DB016D917C916115710549F0CA01B9
:1057B000AF01820F931F0E947F4221E0892B09F0E5
:1057C00020E0822F0895FC0144815581FB01248152
:1057D00035814217530720F040E050E00C94BD2B78
:1057E00080E00895FC0124813581FB0144815581CD
:1057F00024173507A0F0FC0180819181009779F092
:10580000FB01608171816115710549F0241B350B25
:10581000820F931F0E946F4221E0892B09F020E044
:10582000822F0895FC01248135816217730730F4BB
:1058300080819181FC01E60FF71F40830895FC01F0
:10584000248135816217730720F48081918100974C
:1058500029F41092AE0A8EEA9AE00895860F971FF7
:105860000895FC01248135816217730748F4808113
:105870009181009729F0FC01E60FF71F80810895C0
:1058800080E008950C94312C0F931F93CF93DF93F6
:105890004115510519F16115710501F1DC011496ED
:1058A000ED91FC9115972E173F0718F0FB01108220
:1058B00015C0E21BF30BEA012197EC17FD0708F472
:1058C000EF018B01FC0160817181620F731FAE01DA
:1058D000C8010E948D42C00FD11F1882DF91CF9165
:1058E0001F910F910895CF93DF93FC01248135819F
:1058F0004217530778F4C081D181062E000C770B34
:10590000CE01840F951F0E946442009719F08C1BF2
:105910009D0B02C08FEF9FEFDF91CF91089540E084
:1059200050E00C94732CCF93DF93FC0124813581DC
:105930004217530780F4FB01DC01CD91DC916081BB
:105940007181CE01840F951F0E94A742009719F024
:105950008C1B9D0B02C08FEF9FEFDF91CF910895BD
:1059600040E050E00C94932CDF92EF92FF920F9363
:105970001F93CF93DF93DC0114962D913C911597E3
:105980004217530718F08FEF9FEF1DC08C01EA01FB
:105990002196DC01ED91FC911197EC0FFD1FD08059
:1059A0001082ED90FC90062E000C770BC7010E9430
:1059B0009C42CE0DDF1DD882009729F3F80120818B
:1059C0003181821B930BDF91CF911F910F91FF903B
:1059D000EF90DF900895FC014481558141505109B9
:1059E0000C94B42CAF92BF92CF92DF92EF92FF92C1
:1059F0000F931F93CF93DF937B018A01FB014481B7
:105A000055814115510561F1FC0124813581211534
:105A1000310531F12417350718F10217130718F073
:105A2000890101501109FC01A080B180C501DFEF9F
:105A3000CFEF6501C00ED11EC816D906A0F0F70140
:105A4000608171810E94A742009769F09C012A1928
:105A50003B090217130710F0D22FC32F0196ECCF8A
:105A60008FEF9FEF02C08D2F9C2FDF91CF911F9161
:105A70000F91FF90EF90DF90CF90BF90AF9008957F
:105A8000FC0144815581FB0124813581421B530B6C
:105A90000C94F22CBF92CF92DF92EF92FF920F9371
:105AA0001F93CF93DF937C016B018A01E9012417D7
:105AB000350720F4812F8901C42FD82F67E074E0C7
:105AC000C7010E949726D60114968D919C91159737
:105AD00008171907C8F48C179D0708F4EC01D601C4
