:100000000C945D020C94BF120C94EA120C9415131C
:100010000C9440130C946B130C9496130C94C11312
:100020000C94EC130C948E020C948E020C948E02A1
:100030000C948E020C94C0110C948E020C948E02BF
:100040000C948E020C948E020C948E020C948E02F0
:100050000C948E020C948E020C948E020C94171445
:100060000C948E020C9459050C948F050C948E02FE
:100070000C948E020C948E020C948E020C948E02C0
:100080000C948E020C948E020C948E020C948E02B0
:100090000C94C3050C94F9050C948E020C948E02FA
:1000A0000C948E020C948E020C948E020C948E0290
:1000B0000C948E020C948E020C948E020C948E0280
:1000C0000C948E020C948E020C948E020C942D06CD
:1000D0000C9463060C948E020C9497060C94CD0637
:1000E0000C948E026F12391241124D125A127B1269
:1000F0008812AF12A512A712A912AB12B112B31235
:100100008C1591159615A015AA152316B415BC15B6
:10011000C415CE15D815E215F115FB1523160516D5
:100120000F16191647164A1639163D16431681162C
:100130004E16521658165C16601666166A166E161D
:100140008116741678167C160C94AF120C946016F7
:100150000C94E1030C94D3030C944E160C94B41538
:100160000C94CE150C948C150C94BC150C94A51203
:100170000C946F120C94CE070C94A7120C94B3122B
:100180000C94A9120C940F160C94A0150C94B9059C
:100190000C9490020C9466160C945A120C948116CE
:1001A0000C943C240C9423060C94DE230C94E2154E
:1001B0000C9463040C94D8150C9458160C943916AE
:1001C0000C9491150C945C160C94B0040C946E165F
:1001D0000C946A160C947B120C94FB150C947416F8
:1001E0000C9402070C9405160C944A160C94E22306
:1001F0000C9447160C9439120C9488120C945216D5
:100200000C9404040C9423160C94F1150C944112D4
:100210000C94AB120C940F240C947C160C94C41503
:100220000C94B1120C94E1230C9420120C94191626
:100230000C9496150C948D060C943D160C94F503B5
:100240000C9469240C94F7060C9443160C944D12EC
:100250000C9478160C94C7030C94AA154E414E4981
:100260004E495459494E46CDCCCC3D0AD7233C1774
:10027000B7D13877CC2B329595E6241FB14F0A00C1
:100280000020410000C84200401C4620BCBE4CCAB1
:100290001B0E5AAEC59D7400407A10F35A00A0722E
:1002A0004E18090010A5D4E80000E87648170000B1
:1002B000E40B54020000CA9A3B000000E1F505007F
:1002C0000080969800000040420F000000A08601C8
:1002D000000000102700000000E803000000006498
:1002E00000000000000A0000000000010000000003
:1002F000002C76D888DC674F0823DFC1DFAE59E1D8
:10030000B1B796E5E3E453C63AE651997696E8E646
:10031000C28426EB898C9B62ED407C6FFCEFBC9C19
:100320009F40F2BAA56FA5F490055A2AF75C936B2B
:100330006CF9676DC11BFCE0E40D47FEF520E6B5E6
:1003400000D0ED902E0300943577050080841E08C0
:100350000000204E0A000000C80C333333330F98DE
:100360006E12831141EF8D2114893BE65516CFFEA5
:10037000E6DB18D1844B381BF77C1D901DA4BBE431
:1003800024203284725E228100C9F124ECA1E53D73
:10039000270200000A0B02090C0D0E0807030401D6
:1003A000000000000000000000000000000000004D
:1003B000000000000000000000000000000012111A
:1003C000100000000000000000000000000000001D
:1003D00000000000000000000102102020080810AA
:1003E00020401020408002010201080402010102A5
:1003F000040810204080804020100804020180047E
:1004000002018040201008040201080402010102D8
:1004100004081020408001020408102040800505D7
:100420000505070508080808020202020A0A08086A
:100430000404040401010101010101010303030398
:1004400003030303040707070C0C0C0C0C0C0C0C27
:100450000202020206060606060606060B0B0B0B38
:100460000B0B0B0B000020002300260029002C00A2
:100470002F00320000010000030106010901000005
:100480002200250028002B002E003100340002013C
:100490000000050108010B010000210024002700D5
:1004A0002A002D0030003300010100000401070183
:1004B0000A01E2230F243C24692411241FBECFEF3C
:1004C000D1E2DEBFCDBF00E00CBF13E0A0E0B2E0A0
:1004D000EAE1F5E600E00BBF02C007900D92A631FD
:1004E000B107D9F726E0A6E1B3E001C01D92A6311D
:1004F000B207E1F712E0CDE5D2E000E006C02197B7
:100500000109802FFE010E941425C935D10780E022
:100510000807A9F70E9497240C948B320C940000D2
:100520000E943A2A0E943A2A4F925F926F927F92DB
:100530009F92AF92BF92CF92DF92EF92FF920F9372
:100540001F93CF93DF938C01C62FFC011086118679
:1005500012861386148661E08C2F0E94821660E05A
:100560008C2F0E94BE1664E170E080E090E00E9453
:10057000921461E08C2F0E94BE1688E290E00E94E7
:10058000CE1460E08C2F0E94821651E1E52E57E2D6
:10059000F52E8C2F0E94ED16892B39F4F1E0EF1A1D
:1005A000F108B9F78EEF9FEF5BC041E1E42E47E21F
:1005B000F42E8C2F0E94ED16019729F481E0E81AA1
:1005C000F108B9F7EFCF28E2E22EF12C912CD7E019
:1005D000AA24A394B12C91E1C92E97E2D92E8C2F95
:1005E0000E94ED16892B29F4E1E0CE1AD108B9F763
:1005F000D9CF0E946D142B013C0181E1C82E87E206
:10060000D82E8C2F0E94ED16019729F4F1E0CF1A15
:10061000D108B9F7C7CF0E946D14DC01CB01841952
:100620009509A609B7098997A105B10560F0F801F8
:10063000E90DF11D2085C5010D2E01C0880F0A941A
:10064000EAF7822B8087D11103C09394D7E001C0D1
:10065000D15081E0E81AF10809F0BDCF80E090E0C8
:10066000DF91CF911F910F91FF90EF90DF90CF908E
:10067000BF90AF909F907F906F905F904F90089544
:100680000F931F93CF93DF93EC010E949402009786
:1006900009F50885602F70E080E090E00E9449260F
:1006A000688379838A839B831A85612F70E080E059
:1006B00090E00E9449266C837D838E839F83100F78
:1006C00081E090E02C85121302C080E090E09195CB
:1006D00081959109DF91CF911F910F9108950F930B
:1006E0001F93CF93DF93EC010E949402009709F0CF
:1006F00049C0698588850E940119BC0180E090E0AD
:100700000E9449262DEC3CEC4CEC5DE30E94002756
:10071000688379838A839B838A8587FF05C08F7767
:100720008A870FEF1FEF02C001E010E06B858A851A
:100730000E9401199C01029FC001039F900D129F0E
:10074000900D1124BC0180E090E00E9449262DEC20
:100750003CEC4CEC5DE30E9400276C837D838E8330
:100760009F8328858985280F8A85280F8B85280FE8
:1007700081E090E03C85231302C080E090E09195F9
:1007800081959109DF91CF911F910F910895FC01FF
:10079000918D228D892F90E0805C9F4F821B910963
:1007A0008F7399270895FC01918D828D981731F0F0
:1007B000828DE80FF11D858D90E008958FEF9FEFFA
:1007C0000895FC01918D828D981761F0828DDF0173
:1007D000A80FB11D5D968C91928D9F5F9F73928F34
:1007E00090E008958FEF9FEF0895FC01538D448DA5
:1007F000252F30E0842F90E0821B930B541710F0CC
:10080000CF9608950197089589EB95E0892B41F0E3
:1008100080E090E0892B21F00E94B905811125C06C
:1008200083E296E0892B41F080E090E0892B21F073
:100830000E94230681111CC08DE896E0892B41F0AF
:1008400080E090E0892B21F00E948D06811113C079
:1008500087EF96E0892BA1F080E090E0892B81F072
:100860000E94F70681110AC008950E940000D8CFA7
:100870000E940000E1CF0E940000EACF0C9400002B
:100880000895FC01848DDF01A80FB11DA35ABF4F4D
:100890002C91848D90E001968F739927848FA6897F
:1008A000B7892C93A089B1898C91837080648C93D3
:1008B000938D848D981306C00288F389E02D808182
:1008C0008F7D80830895EF92FF920F931F93CF93B4
:1008D000DF93EC0181E0888F9B8D8C8D981305C090
:1008E000E889F989808185FD26C0F62E0B8D10E000
:1008F0000F5F1F4F0F731127E02E8C8DE8120CC075
:100900000FB607FCFACFE889F989808185FFF5CF1A
:10091000CE010E944104F1CF8B8DFE01E80FF11D45
:10092000E35AFF4FF0829FB7F8940B8FEA89FB8957
:10093000808180620AC09FB7F894EE89FF89608346
:10094000E889F98980818370806480839FBF81E01A
:1009500090E0DF91CF911F910F91FF90EF9008955C
:10096000CF93DF93EC01888D8823C9F0EA89FB8956
:10097000808185FD05C0A889B9898C9186FD0FC04D
:100980000FB607FCF5CF808185FFF2CFA889B98922
:100990008C9185FFEDCFCE010E944104E7CFDF911E
:1009A000CF910895CF92DF92EF92FF921F93CF9352
:1009B000DF93EC016A017B01122FE889F98982E05B
:1009C00080834115514E61057105B1F060E079E019
:1009D0008DE390E0A70196010E94D324DA01C901BA
:1009E0000197A109B109B695A795979587959C019F
:1009F000211580E13807A8F0E889F989108260E8BC
:100A000074E88EE190E0A70196010E94D324DA01F8
:100A1000C9010197A109B109B695A7959795879541
:100A20009C01EC85FD853083EE85FF852083188E43
:100A3000EC89FD891083EA89FB898081806180834C
:100A4000EA89FB89808188608083EA89FB898081CB
:100A500080688083EA89FB8980818F7D8083DF9134
:100A6000CF911F91FF90EF90DF90CF900895CF939B
:100A7000DF93EC01E881F9810680F781E02D19957B
:100A8000EA89FB8980818F7E8083EA89FB89808166
:100A9000877F8083EA89FB8980818F778083EA89D9
:100AA000FB8980818F7D80838A8D898FDF91CF91B3
:100AB00008951F920F920FB60F9211240BB60F924A
:100AC0002F938F939F93EF93FF93E0912603F091E1
:100AD00027038081E0912C03F0912D0382FD12C049
:100AE000908180912F038F5F8F7320913003821745
:100AF00051F0E0912F03F0E0EA5EFC4F958F809378
:100B00002F0301C08081FF91EF919F918F912F91D1
:100B10000F900BBE0F900FBE0F901F9018951F9255
:100B20000F920FB60F9211240BB60F922F933F9393
:100B30004F935F936F937F938F939F93AF93BF93E5
:100B4000EF93FF9386E193E00E944104FF91EF91C0
:100B5000BF91AF919F918F917F916F915F914F91D5
:100B60003F912F910F900BBE0F900FBE0F901F90D3
:100B7000189586E193E00E94C70321E0892B09F4D0
:100B800020E0822F08951F920F920FB60F9211242A
:100B90000BB60F922F938F939F93EF93FF93E09158
:100BA000C303F091C4038081E091C903F091CA03AB
:100BB00082FD12C090818091CC038F5F8F73209152
:100BC000CD03821751F0E091CC03F0E0ED54FC4FDF
:100BD000958F8093CC0301C08081FF91EF919F910D
:100BE0008F912F910F900BBE0F900FBE0F901F9003
:100BF00018951F920F920FB60F9211240BB60F92F9
:100C00002F933F934F935F936F937F938F939F9314
:100C1000AF93BF93EF93FF9383EB93E00E94410464
:100C2000FF91EF91BF91AF919F918F917F916F91C4
:100C30005F914F913F912F910F900BBE0F900FBE80
:100C40000F901F90189583EB93E00E94C70321E05B
:100C5000892B09F420E0822F08951F920F920FB67E
:100C60000F9211240BB60F922F938F939F93EF93B4
:100C7000FF93E0916004F09161048081E09166044B
:100C8000F091670482FD12C09081809169048F5FAA
:100C90008F7320916A04821751F0E0916904F0E0AB
:100CA000E05BFB4F958F8093690401C08081FF91C9
:100CB000EF919F918F912F910F900BBE0F900FBED0
:100CC0000F901F9018951F920F920FB60F9211243C
:100CD0000BB60F922F933F934F935F936F937F9336
:100CE0008F939F93AF93BF93EF93FF9380E594E02F
:100CF0000E944104FF91EF91BF91AF919F918F911D
:100D00007F916F915F914F913F912F910F900BBE0B
:100D10000F900FBE0F901F90189580E594E00E94F1
:100D2000C70321E0892B09F420E0822F08951F9248
:100D30000F920FB60F9211240BB60F922F938F9331
:100D40009F93EF93FF93E091FD04F091FE04808167
:100D5000E0910305F091040582FD12C0908180911D
:100D600006058F5F8F7320910705821751F0E09180
:100D70000605F0E0E351FB4F958F8093060501C017
:100D80008081FF91EF919F918F912F910F900BBEDA
:100D90000F900FBE0F901F9018951F920F920FB6D5
:100DA0000F9211240BB60F922F933F934F935F93A3
:100DB0006F937F938F939F93AF93BF93EF93FF9323
:100DC0008DEE94E00E944104FF91EF91BF91AF91AD
:100DD0009F918F917F916F915F914F913F912F9153
:100DE0000F900BBE0F900FBE0F901F9018958DEEB9
:100DF00094E00E94C70321E0892B09F420E0822FB0
:100E0000089508958F929F92AF92BF92CF92DF92F2
:100E1000EF92FF920F931F93CF93DF937C018B018F
:100E20004C0182E0880E911C5701E5E0AE0EB11C2A
:100E3000C0E0D0E0F40161914F014AE050E0C80108
:100E40000E94F1086C016EE2C8010E942C088C0D12
:100E50009D1DC80FD91F8A149B0461F74AE050E01A
:100E6000F7016581C8010E94F1088C0F9D1FDF9179
:100E7000CF911F910F91FF90EF90DF90CF90BF9097
:100E8000AF909F908F90089522E332E0FC01318370
:100E90002083128213821482158208950F93FC011D
:100EA00082E392E09183808362834383248305837A
:100EB0000F91089522E332E0FC01318320834283C5
:100EC0005383648375830895DC0182E392E08D93FC
:100ED0009D9384E0FB0101900D928A95E1F70895BE
:100EE000DC0190E020E030E08AE0FB014191BF01AD
:100EF000442309F150ED540F5A3088F4829FF001D9
:100F0000839FF00D11249F0120533109240F311DBF
:100F100047FD3A952F3F310541F338F312C04E3269
:100F200081F4933071F0FD01E90FF11D22839F5F81
:100F300020E030E0DACF933021F415962C9381E055
:100F4000089580E00895DC01129624E0FB010190F1
:100F50000D922A95E1F70895FC014283538364833F
:100F6000758308959B01BC016E5F7F4F44E050E0A4
:100F7000C9010E94932A21E0892B09F020E0822FE9
:100F8000089580E090E00895089508950C949227C4
:100F90000C9492270C942A280C942A28CF92DF9242
:100FA000EF92FF920F931F93CF93DF936C017A011F
:100FB0008B01C0E0D0E0CE15DF0581F0D8016D9146
:100FC0008D01D601ED91FC910190F081E02DC601DB
:100FD0001995892B11F02196EECF7E01C701DF9183
:100FE000CF911F910F91FF90EF90DF90CF900895D8
:100FF000EF92FF920F931F93CF93DF938C017B01AE
:10100000C0E0D0E0F701EC0FFD1F6491662361F0B2
:10101000D801ED91FC910190F081E02DC801199566
:10102000892B11F02196EECFCE01DF91CF911F9148
:101030000F91FF90EF900895DB0114964D915C9114
:1010400015976D917C91DC01ED91FC910280F3810B
:10105000E02D19940C94A624DC01ED91FC910190F3
:10106000F081E02D1994DB01ED91FC911197019035
:10107000F081E02DBC01CD01199464E372E00C9481
:10108000A6240F931F93CF93DF93EC010E94F807E0
:101090008C01CE010E943D08800F911FDF91CF91FE
:1010A0001F910F9108950F931F93CF93DF93EC013E
:1010B0000E941C088C01CE010E943D08800F911FE8
:1010C000DF91CF911F910F9108950F931F93CF93AD
:1010D000DF93EC010E94A6248C01CE010E943D0802
:1010E000800F911FDF91CF911F910F9108950F9362
:1010F0001F93CF93DF93EC010E942C088C01CE014B
:101100000E943D08800F911FDF91CF911F910F9199
:1011100008950F931F93CF93DF93EC010E94330840
:101120008C01CE010E943D08800F911FDF91CF916D
:101130001F910F9108958F929F92AF92BF92EF925D
:10114000FF920F931F93CF93DF93CDB7DEB7A19795
:101150000FB6F894DEBF0FBECDBF7C01FA01CB0104
:1011600019A2223008F42AE08E010F5D1F4F822E53
:10117000912CA12CB12CBF01A50194010E94D32474
:10118000F901CA01015011096A3014F4605D01C00F
:10119000695CD8016C93232B242B252B61F7B801B4
:1011A000C7010E94A624A1960FB6F894DEBF0FBE19
:1011B000CDBFDF91CF911F910F91FF90EF90BF9026
:1011C000AF909F908F9008952115310541F4DC0177
:1011D000ED91FC910190F081E02D642F19940C9415
:1011E0009B089A01462F50E060E070E00C94E40800
:1011F0000F931F93CF93DF93EC010E94F1088C01B2
:10120000CE010E943D08800F911FDF91CF911F9169
:101210000F9108959A01AB0160E070E00C94E4082E
:101220000F931F93CF93DF93EC010E940A098C0167
:10123000CE010E943D08800F911FDF91CF911F9139
:101240000F9108950F931F93CF93DF93EC010E94AA
:10125000E4088C01CE010E943D08800F911FDF91B0
:10126000CF911F910F910895CF92DF92EF92FF924D
:101270000F931F93CF93DF932115310581F4DC0188
:10128000ED91FC910190F081E02D642FDF91CF91E1
:101290001F910F91FF90EF90DF90CF9019942A301B
:1012A000310501F577FF1DC06A017B01EC016DE29C
:1012B0000E942C088C0144275527BA014C195D095E
:1012C0006E097F092AE0CE010E949B08800F911FC2
:1012D000DF91CF911F910F91FF90EF90DF90CF9012
:1012E00008952AE0DF91CF911F910F91FF90EF9029
:1012F000DF90CF900C949B089A01AB01770F660B9F
:10130000770B0C9434090F931F93CF93DF93EC0169
:101310000E947C098C01CE010E943D08800F911F24
:10132000DF91CF911F910F9108950F931F93CF934A
:10133000DF93EC010E9434098C01CE010E943D082C
:10134000800F911FDF91CF911F910F9108957F9290
:101350008F929F92AF92BF92CF92DF92EF92FF92C5
:101360000F931F93CF93DF938C016A017B01722E41
:101370009A01AB01C701B6010E946D27882319F0BD
:1013800067E372E027C046015701E894B7F82FEFF2
:101390003FEF4FE75FE7C501B4010E946D27811160
:1013A0000DC02FEF3FEF4FE75FE7C501B4010E948B
:1013B000A32518161CF46BE372E00CC02FEF3FEF6F
:1013C0004FE75FE4C701B6010E94FB26181694F4AC
:1013D0006FE372E0C801DF91CF911F910F91FF90F1
:1013E000EF90DF90CF90BF90AF909F908F907F90C5
:1013F0000C94A6242FEF3FEF4FE75FECC701B60137
:101400000E94A32587FDE4CF20E030E0A901C701B9
:10141000B6010E94A32587FF0AC06DE2C8010E94A1
:101420002C08EC01F7FAF094F7F8F09402C0C0E051
:10143000D0E0B12C60E070E080E09FE37B1441F0ED
:1014400020E030E040E251E40E94A825B394F6CFBA
:10145000A70196010E9437256B017C010E941A2684
:101460004B015C012AE0AB01BC01C8010E949B0852
:10147000C80FD91F7720B9F1C501B4010E944926D0
:101480009B01AC01C701B6010E9436256B017C01AE
:101490006EE2C8010E942C08C80FD91F20E030E07E
:1014A00040E251E4C701B6010E9400274B015C01F4
:1014B0000E941A266B017C014AE050E0C8010E949C
:1014C0000A09C80FD91FB60180E090E00E944926A2
:1014D0009B01AC01C501B4010E9436256B017C0162
:1014E0007A947110DBCFCE01DF91CF911F910F91D4
:1014F000FF90EF90DF90CF90BF90AF909F908F9034
:101500007F9008950C94A7090F931F93CF93DF93B7
:10151000EC010E94A7098C01CE010E943D08800FBA
:10152000911FDF91CF911F910F9108950F931F93FA
:10153000CF93DF93EC010E946114688779878A87D3
:101540009B87E881F9810284F385E02DCE0119950E
:1015500097FF17C00E946114088519852A853B856D
:10156000DC01CB01801B910BA20BB30B0C811D8105
:101570002E813F8180179107A207B30710F38FEFE9
:101580009FEFDF91CF911F910F9108950F931F93BC
:10159000CF93DF93EC010E946114688779878A8773
:1015A0009B87E881F9810484F585E02DCE011995AA
:1015B00097FF17C00E946114088519852A853B850D
:1015C000DC01CB01801B910BA20BB30B0C811D81A5
:1015D0002E813F8180179107A207B30710F38FEF89
:1015E0009FEFDF91CF911F910F910895FF920F937D
:1015F0001F93CF93DF93EC018B01F42ECE010E9459
:10160000C60A97FD2DC08D32910519F19C0120531A
:1016100031092A30310520F1FF2019F08E32910571
:10162000D1F001301105D1F00230110551F48D30A7
:10163000910539F024F40997029718F00FC08097AC
:1016400069F4E881F9810284F385E02DCE011995D2
:10165000D5CF8DE201C08EE290E002C08FEF9FEF08
:10166000DF91CF911F910F91FF900895FC0144836A
:101670005583668377830895BF92CF92DF92EF926E
:10168000FF920F931F93CF93DF938C01C42F40E001
:101690000E94F60AFC0197FD47C0C12CD12C7601AF
:1016A000B12C0C2E000CDD0BEC17FD0709F1ED320F
:1016B000F105E1F0CF01C0970A97D0F4AAE0B0E0BD
:1016C000A70196010E941C256F01FF0FEE08FF087D
:1016D000DC01CB018C0D9D1DAE1DBF1D6C017D017C
:1016E00020E3C21AD108E108F10802C0BB24B39478
:1016F000D801ED91FC910284F385E02DC801199584
:10170000C8010E94C60AFC01C0970A9768F2CE176A
:10171000DF0751F2BB2061F066277727CB016C19F8
:101720007D098E099F0906C060E070E0CB0102C010
:10173000C701B601DF91CF911F910F91FF90EF90FC
:10174000DF90CF90BF9008954F925F926F927F92FB
:10175000AF92BF92CF92DF92EF92FF920F931F93BF
:10176000CF93DF935C01042F41E00E94F60AFC0155
:1017700097FD6FC0412C512C80E8682E8FE3782EA6
:10178000C12CD12C7601C0E0D0E0002E000C110B52
:10179000E017F10769F1ED32F10539F1EE32F105AB
:1017A00031F1CF01C0970A9718F5AAE0B0E0A70180
:1017B00096010E941C256F01FF0FEE08FF08C60E60
:1017C000D71EE81EF91E80E3C81AD108E108F10807
:1017D000CC2371F02DEC3CEC4CEC5DE3C301B20189
:1017E0000E9400272B013C0103C0D1E001C0C1E0F1
:1017F000D501ED91FC910284F385E02DC501199589
:10180000C5010E94C60AFC01C0970A9708F2EE3291
:10181000F10519F4CC2309F4BBCF0E171F0709F407
:10182000B7CFDD2341F0F094E094D094C094C11C74
:10183000D11CE11CF11CC701B601CC2339F00E9478
:101840004B26A30192010E94002706C00E944B264E
:1018500003C060E070E0CB01DF91CF911F910F9149
:10186000FF90EF90DF90CF90BF90AF907F906F9000
:101870005F904F900895CF92DF92EF92FF920F9377
:101880001F93CF93DF936C017A018B01C0E0D0E00E
:10189000CE15DF0559F0C6010E94960A97FD05C0D6
:1018A000F80181938F012196F3CF7E01C701DF916B
:1018B000CF911F910F91FF90EF90DF90CF900895FF
:1018C000AF92BF92CF92DF92EF92FF920F931F934E
:1018D000CF93DF9321153105C9F089015C016A01BD
:1018E000C0E0D0E0E62E660FFF08C5010E94960A10
:1018F00097FD0FC08E159F0561F0F60181936F0172
:1019000021960C171D0789F7C80104C080E090E0FC
:1019100001C0CE01DF91CF911F910F91FF90EF9009
:10192000DF90CF90BF90AF9008950F931F93CF9308
:10193000DF93EC018B0165E772E00E947419C80126
:101940000E94960A97FD05C0682FCE010E94A01B39
:10195000F6CFCE01DF91CF911F910F910895EF92B5
:10196000FF920F931F93CF93DF93EC017B01042F22
:1019700065E772E00E947419C7010E94960A002E62
:10198000000C110B97FD0BC08017910741F0682FD9
:10199000CE010E94A01BC7010E94960AF3CFCE0180
:1019A000DF91CF911F910F91FF90EF9008954F928B
:1019B0005F926F927F928F929F92AF92BF92CF92DF
:1019C000DF92EF92FF920F931F93CF93DF938C01DF
:1019D000EB0186E0849F4001859F900C1124860EC8
:1019E000971EFB01E815F90508F582819381892B83
:1019F00021F13696F7CF6081718144815581DB01F9
:101A0000A40FB51F2C91022E000C330B82179307E5
:101A100011F54F5F5F4F5583448322813381421715
:101A2000530759F03696E815F90528F3C8010E94C6
:101A3000960A97FD46C0FE01F6CFEC1BFD0BF5950F
:101A4000E7952BEA3AEAE29FC001E39F900DF29FEF
:101A5000900D112438C04115510521F3C480D58063
:101A600096012150310935832483DB01A20FB31F76
:101A7000AC910A2E000CBB0B8A179B07F9F42115B9
:101A80003105C9F05B017A01E21AF30AE60EF71E8E
:101A9000412C512CD5016D905D01D7017D907D01C8
:101AA000671006C0BFEF4B1A5B0A4216530690F34D
:101AB0002415350599F6D582C482B4CF232B71F64F
:101AC000B1CF8FEF9FEFDF91CF911F910F91FF90DB
:101AD000EF90DF90CF90BF90AF909F908F907F90CE
:101AE0006F905F904F900895CF93DF9300D000D018
:101AF000CDB7DEB7FE01319626E0DF011D922A95B3
:101B0000E9F77A8369835C834B8341E050E0BF014E
:101B10000E94D70C21E0892B09F020E0822F269625
:101B20000FB6F894DEBF0FBECDBFDF91CF91089501
:101B30000C94740DFB0101900020E9F73197AF017F
:101B4000461B570B0C94740DFF920F931F93CF936A
:101B5000DF93CDB7DEB72C970FB6F894DEBF0FBE7C
:101B6000CDBF2115310521F40E94740D282F19C015
:101B7000FE013196ACE0FA2EDF011D92FA94E9F7EE
:101B80007A8369835C834B8338872F831A8709871D
:101B900042E050E0BF010E94D70C21E0892B09F000
:101BA00020E0822F2C960FB6F894DEBF0FBECDBF7B
:101BB000DF91CF911F910F91FF9008950F931F9385
:101BC0009A01FA0101900020E9F731978F01041B77
:101BD000150BFB0101900020E9F73197AF01461B7F
:101BE000570B0E94A40D1F910F9108954F925F9281
:101BF0006F927F928F929F92AF92BF92CF92DF921D
:101C0000EF92FF920F931F93CF93DF9300D01F9219
:101C10001F92CDB7DEB78B0129013A0190910002E6
:101C2000891721F09F3F09F046C305C0E1E9F3E0C1
:101C300024912D8303C180930002E1E9F3E09491A4
:101C40009D839F3F09F437C3923009F47FC068F544
:101C5000992309F45AC0913009F0F0C01092800025
:101C600010928100909181009860909381009091F2
:101C70008100916090938100282F30E0F901E25EAD
:101C8000FB4FE491F0E0EE0FFF1FE258FB4F459150
:101C900054915093A8054093A705F901E852FC4FD1
:101CA000E491E093A60591E09FC02D81243009F4D2
:101CB0009DC008F473C0253009F0C0C01092200107
:101CC00010922101909121019860909321019091AF
:101CD0002101916090932101282F30E0F901E25E0B
:101CE000FB4FE491F0E0EE0FFF1FE258FB4F4591F0
:101CF000549150938C0540938B05F901E852FC4FA9
:101D0000E491E0938A0595E06FC014BC15BC94B5CE
:101D1000926094BD95B5916095BD282F30E0F90192
:101D2000E25EFB4FE491F0E0EE0FFF1FE258FB4F45
:101D3000459154915093AF054093AE05F901E85297
:101D4000FC4FE491E093AD051D82B1C21092B0004A
:101D50001092B1009091B00092609093B000909179
:101D6000B10091609093B100282F30E0F901E25E5C
:101D7000FB4FE491F0E0EE0FFF1FE258FB4F45915F
:101D800054915093A1054093A005F901E852FC4FEE
:101D9000E491E0939F0522E02D8389C21092900088
:101DA0001092910090919100986090939100909181
:101DB0009100916090939100282F30E0F901E25E4C
:101DC000FB4FE491F0E0EE0FFF1FE258FB4F45910F
:101DD000549150939A0540939905F901E852FC4FAC
:101DE000E491E093980593E09D83B1C01092A00028
:101DF0001092A1009091A10098609093A100909101
:101E0000A10091609093A100282F30E0F901E25EDB
:101E1000FB4FE491F0E0EE0FFF1FE258FB4F4591BE
:101E200054915093930540939205F901E852FC4F69
:101E3000E491E093910524E02D8389C02D8127FD55
:101E40003AC261E00E9482168D818D7F09F082C0C6
:101E50004801A12CB12C60E072E18AE790E0A50175
:101E600094010E94D32429833A834B835C836901C4
:101E70007A0181E0C81AD108E108F1089FEFC9167C
:101E8000D104E104F10409F008F44EC060E472E406
:101E90008FE090E0A50194010E94D32469017A01AA
:101EA00081E0C81AD108E108F1089D81923009F556
:101EB0002FEFC216D104E104F10409F008F4BEC109
:101EC00060E970ED83E090E0A50194010E94D324C5
:101ED00069017A0181E0C81AD108E108F1089FEF91
:101EE000C916D104E104F10411F008F035C183E012
:101EF00027C02FEFC216D104E104F104B9F0B0F00D
:101F000068E478EE81E090E0A50194010E94D3247A
:101F100069017A0181E0C81AD108E108F1089D81C0
:101F2000992309F48FC157C181E001C082E09D81EE
:101F3000911106C095B5987F892B85BD7EC085E03F
:101F40009091B100987F892B8093B10076C061E0B9
:101F50000E9482164801A12CB12C60E072E18AE750
:101F600090E0A50194010E94D32469017A0181E0E7
:101F7000C81AD108E108F108C114D10491E0E906BA
:101F8000F10488F068E478EE81E090E0A501940126
:101F90000E94D32469017A0181E0C81AD108E108BE
:101FA000F10883E001C081E09D81913081F490913E
:101FB0008100987F892B8093810041145104610432
:101FC000710409F03FC02FEF3FEFA9016DC02D81D3
:101FD000233079F490919100987F892B8093910020
:101FE000411451046104710469F52FEF3FEFA90119
:101FF0007DC09D81943079F49091A100987F892BC8
:102000008093A1004114510461047104D9F42FEFAD
:102010003FEFA9017DC02D81253079F490912101F8
:10202000987F892B8093210141145104610471042C
:1020300049F42FEF3FEFA9017DC041145104610421
:10204000710471F0D801AA0FBB1FA30192010E9475
:102050001C2528EE33E040E050E00E94D32403C06A
:102060002FEF3FEFA9018D81823081F12CF488237D
:1020700061F08130C9F01FC19D81943009F448C0DE
:10208000ACF1953009F456C016C1C7BC2093B00519
:102090003093B1054093B2055093B30580916E0023
:1020A000826080936E0007C1D0928900C092880040
:1020B0002093A9053093AA054093AB055093AC0536
:1020C00080916F00826080936F00F5C0C092B30072
:1020D0002093A2053093A3054093A4055093A50532
:1020E00080917000826080937000E5C0D09299006A
:1020F000C092980020939B0530939C0540939D05CA
:1021000050939E0580917100826080937100D3C0CE
:10211000D092A900C092A800209394053093950511
:10212000409396055093970580917200826080934A
:102130007200C1C0D0922901C092280120938D0560
:1021400030938E0540938F055093900580917300D6
:10215000826080937300AFC068E478EE81E090E025
:10216000A50194010E94D32469017A0181E0C81A73
:10217000D108E108F1089FEFC916D104E104F10488
:1021800041F138F164E274EF80E090E0A501940140
:102190000E94D32469017A0181E0C81AD108E108BC
:1021A000F1089FEFC916D104E104F10409F008F425
:1021B000C6CE62E17AE780E090E0A50194010E943A
:1021C000D32469017A0181E0C81AD108E108F10835
:1021D00018C084E0B5CE2FEFC216D104E104F1049B
:1021E00079F170F162E17AE780E090E0A501940175
:1021F0000E94D32469017A0191E0C91AD108E1084B
:10220000F1088FEFC816D104E104F104A9F0A0F0A1
:1022100089819A81AB81BC812AE0B695A795979573
:1022200087952A95D1F76C017D0121E0C21AD1086A
:10223000E108F10887E084CE86E082CE82E080CE9D
:1022400084E075CE2FEFC216D104E104F10469F1E8
:1022500060F162E17AE780E090E0A50194010E94DC
:10226000D32469017A0181E0C81AD108E108F10894
:102270009FEFC916D104E104F104A9F0A0F089810F
:102280009A81AB81BC813AE0B695A79597958795E1
:102290003A95D1F76C017D0121E0C21AD108E1081D
:1022A000F10885E047CE84E045CE83E043CE61E08F
:1022B0000E948216CDCD0F900F900F900F900F902F
:1022C000DF91CF911F910F91FF90EF90DF90CF9012
:1022D000BF90AF909F908F907F906F905F904F9046
:1022E00008958230A9F028F4882349F0813051F014
:1022F0000895843021F1E8F0853039F10895109285
:102300006E00089580916F008D7F80936F00089517
:10231000809170008D7F8093700081E08093B00089
:102320008091B100887F84608093B1001092B300E7
:102330000895809171008D7F809371000895809140
:1023400072008D7F809372000895809173008D7F5D
:10235000809373000895CF93C82F80910002C81313
:1023600007C0E1E9F3E084919FEF9093000201C080
:102370008FEF0E94711160E08C2FCF910C94BE16EC
:102380001F920F920FB60F9211240BB60F922F933C
:102390003F934F935F936F937F938F939F93AF93ED
:1023A000BF93EF93FF938091A2059091A305A09115
:1023B000A405B091A505892B8A2B8B2B51F1909107
:1023C0009F05E091A005F091A10580818927808378
:1023D0008091A2059091A305A091A405B091A505B7
:1023E000181619061A061B06C4F48091A2059091CE
:1023F000A305A091A405B091A5050197A109B10974
:102400008093A2059093A305A093A405B093A5057E
:1024100004C0809100020E94AB11FF91EF91BF9127
:10242000AF919F918F917F916F915F914F913F916C
:102430002F910F900BBE0F900FBE0F901F9018950D
:102440000895883008F070C0A82FB0E0AA0FBB1F15
:10245000AF5FBD4F11967C936E9390E0FC01319776
:10246000E730F105A0F58827EE58FF4F8F4F0C9409
:102470001425809169008C7F482B40936900E89A6D
:10248000089580916900837F440F551F440F551FA5
:10249000482B40936900E99A0895809169008F7CE8
:1024A00074E0440F551F7A95E1F7482B409369007B
:1024B000EA9A0895809169008F7366E0440F551F72
:1024C0006A95E1F7482B40936900EB9A0895809153
:1024D0006A008C7F482B40936A00EC9A08958091A3
:1024E0006A00837F440F551F440F551F482B4093AC
:1024F0006A00ED9A089580916A008F7C24E0440F71
:10250000551F2A95E1F7482B40936A00EE9A0895EB
:1025100080916A008F7396E0440F551F9A95E1F7FA
:10252000482B40936A00EF9A0895982F883030F531
:10253000482F50E0FA013197E730F10570F4882711
:10254000E758FF4F8F4F0C941425E8980DC0E99879
:102550000BC0EA9809C0EB9807C0EC9805C0ED984D
:1025600003C0EE9801C0EF98E92FF0E0EE0FFF1FD7
:10257000EF5FFD4F80E292E19183808308951F9287
:102580000F920FB60F9211240BB60F922F933F9319
:102590004F935F936F937F938F939F93AF93BF936B
:1025A000EF93FF93E0910502F09106021995FF91D8
:1025B000EF91BF91AF919F918F917F916F915F91BB
:1025C0004F913F912F910F900BBE0F900FBE0F9028
:1025D0001F9018951F920F920FB60F9211240BB6F1
:1025E0000F922F933F934F935F936F937F938F93AC
:1025F0009F93AF93BF93EF93FF93E0910702F09106
:1026000008021995FF91EF91BF91AF919F918F9122
:102610007F916F915F914F913F912F910F900BBEE2
:102620000F900FBE0F901F9018951F920F920FB62C
:102630000F9211240BB60F922F933F934F935F93FA
:102640006F937F938F939F93AF93BF93EF93FF937A
:10265000E0910902F0910A021995FF91EF91BF9163
:10266000AF919F918F917F916F915F914F913F912A
:102670002F910F900BBE0F900FBE0F901F901895CB
:102680001F920F920FB60F9211240BB60F922F9339
:102690003F934F935F936F937F938F939F93AF93EA
:1026A000BF93EF93FF93E0910B02F0910C02199509
:1026B000FF91EF91BF91AF919F918F917F916F911A
:1026C0005F914F913F912F910F900BBE0F900FBED6
:1026D0000F901F9018951F920F920FB60F92112412
:1026E0000BB60F922F933F934F935F936F937F930C
:1026F0008F939F93AF93BF93EF93FF93E09101026A
:10270000F09102021995FF91EF91BF91AF919F91C6
:102710008F917F916F915F914F913F912F910F908A
:102720000BBE0F900FBE0F901F9018951F920F9227
:102730000FB60F9211240BB60F922F933F934F9326
:102740005F936F937F938F939F93AF93BF93EF9319
:10275000FF93E0910302F09104021995FF91EF912C
:10276000BF91AF919F918F917F916F915F914F91A9
:102770003F912F910F900BBE0F900FBE0F901F90A7
:1027800018951F920F920FB60F9211240BB60F924D
:102790002F933F934F935F936F937F938F939F9369
:1027A000AF93BF93EF93FF93E0910D02F0910E0270
:1027B0001995FF91EF91BF91AF919F918F917F916B
:1027C0006F915F914F913F912F910F900BBE0F90A2
:1027D0000FBE0F901F9018951F920F920FB60F9279
:1027E00011240BB60F922F933F934F935F936F93E8
:1027F0007F938F939F93AF93BF93EF93FF93E0915A
:102800000F02F09110021995FF91EF91BF91AF91D6
:102810009F918F917F916F915F914F913F912F91F8
:102820000F900BBE0F900FBE0F901F9018951F9228
:102830000F920FB60F9211242F933F938F939F9374
:10284000AF93BF938091B4059091B505A091B60563
:10285000B091B7053091BC0523E0230F2D3720F44C
:102860000196A11DB11D05C026E8230F0296A11DEA
:10287000B11D2093BC058093B4059093B505A0933A
:10288000B605B093B7058091B8059091B905A091B0
:10289000BA05B091BB050196A11DB11D8093B80585
:1028A0009093B905A093BA05B093BB05BF91AF91C2
:1028B0009F918F913F912F910F900FBE0F901F907E
:1028C00018952FB7F8946091B4057091B505809173
:1028D000B6059091B7052FBF08953FB7F894809142
:1028E000B8059091B905A091BA05B091BB0526B580
:1028F000A89B05C02F3F19F00196A11DB11D3FBF38
:10290000BA2FA92F982F8827820F911DA11DB11DC5
:10291000BC01CD0142E0660F771F881F991F4A95C1
:10292000D1F708958F929F92AF92BF92CF92DF928C
:10293000EF92FF926B017C010E946D144B015C01D0
:10294000C114D104E104F10401F10E9401070E94C5
:102950006D14DC01CB0188199909AA09BB09883ECD
:102960009340A105B10560F321E0C21AD108E10846
:10297000F10888EE880E83E0981EA11CB11CC114DA
:10298000D104E104F10419F7DBCFFF90EF90DF9061
:10299000CF90BF90AF909F908F9008958230910517
:1029A00038F0880F991F880F991F05970197F1F745
:1029B0000895789484B5826084BD84B5816084BDB7
:1029C00085B5826085BD85B5816085BDEEE6F0E0A8
:1029D000808181608083E1E8F0E010828081826004
:1029E0008083808181608083E0E8F0E08081816085
:1029F0008083E1EBF0E0808184608083E0EBF0E0B5
:102A0000808181608083E1E9F0E080818260808361
:102A1000808181608083E0E9F0E080818160808353
:102A2000E1EAF0E080818260808380818160808340
:102A3000E0EAF0E0808181608083E1E2F1E0808182
:102A400082608083808181608083E0E2F1E0808128
:102A500081608083EAE7F0E0808184608083808108
:102A600082608083808181608083808180688083B0
:102A70001092C1000895809311020895863308F0E2
:102A8000865390917B00282F2870977F922B9093EC
:102A90007B002091110290E4299F900111248770FE
:102AA000822B80937C0080917A00806480937A00EE
:102AB00080917A0086FDFCCF80917800209179008A
:102AC00090E0922B08951F93CF93DF93182FEB0183
:102AD00061E00E948216209711F460E004C0CF3FAD
:102AE000D10539F461E0812FDF91CF911F910C94D2
:102AF000BE16E12FF0E0EE56FC4FE4918E2F90E0F1
:102B0000FC013197E231F10508F09DC08827E058BB
:102B1000FF4F8F4F0C94142584B5806884BDC7BDCA
:102B200097C084B5806284BDC8BD92C0809180008A
:102B3000806880938000D0938900C093880088C00B
:102B400080918000806280938000D0938B00C0933E
:102B50008A007EC080918000886080938000D0933E
:102B60008D00C0938C0074C08091B0008068809309
:102B7000B000C093B3006CC08091B00080628093BD
:102B8000B000C093B40064C08091900080688093CE
:102B90009000D0939900C09398005AC08091900003
:102BA000806280939000D0939B00C0939A0050C0A5
:102BB00080919000886080939000D0939D00C09396
:102BC0009C0046C08091A00080688093A000809106
:102BD000A0008F7B8093A000D093A900C093A80091
:102BE00037C08091A00080628093A000D093AB009A
:102BF000C093AA002DC08091A00088608093A0009F
:102C0000D093AD00C093AC0023C0809120018068B8
:102C100080932001D0932901C093280119C080918D
:102C20002001806280932001D0932B01C0932A0160
:102C30000FC080912001886080932001D0932D01E6
:102C4000C0932C0105C0C038D1050CF04BCF45CF47
:102C5000DF91CF911F91089590E0FC013197E2310F
:102C6000F10508F04EC08827EE56FF4F8F4F0C94A9
:102C70001425809180008F7703C0809180008F7D24
:102C800080938000089580918000877FF9CF84B57C
:102C90008F7702C084B58F7D84BD08958091B00088
:102CA0008F7703C08091B0008F7D8093B00008952E
:102CB000809190008F7707C0809190008F7D03C036
:102CC00080919000877F8093900008958091A0006C
:102CD0008F7707C08091A0008F7D03C08091A000F6
:102CE000877F8093A0000895809120018F7707C08F
:102CF000809120018F7D03C080912001877F809388
:102D000020010895CF93DF9390E0FC01E852FC4F3F
:102D10002491FC01E25EFB4F8491882361F190E0F5
:102D2000880F991FFC01E856FB4FC591D491FC0117
:102D3000E258FB4FA591B491611109C09FB7F89477
:102D40008881209582238883EC912E230BC06230EA
:102D500061F49FB7F8948881322F3095832388835C
:102D6000EC912E2B2C939FBF06C08FB7F894E8816F
:102D70002E2B28838FBFDF91CF9108951F93CF9380
:102D8000DF93282F30E0F901EE56FC4F8491F901D2
:102D9000E852FC4FD491F901E25EFB4FC491CC2381
:102DA000C1F0162F81110E942C16EC2FF0E0EE0FCF
:102DB000FF1FE258FB4FA591B4919FB7F8941111F2
:102DC00004C08C91D095D82302C0EC91DE2BDC930B
:102DD0009FBFDF91CF911F910895CF93DF93282F4D
:102DE00030E0F901EE56FC4F8491F901E852FC4FB6
:102DF000D491F901E25EFB4FC491CC2391F0811193
:102E00000E942C16EC2FF0E0EE0FFF1FEC59FB4F49
:102E1000A591B491EC91ED2381E090E021F480E064
:102E200002C080E090E0DF91CF9108954F925F92D1
:102E30006F927F928F929F92AF92BF92CF92DF92CA
:102E4000EF92FF920F931F93CF93DF9349015A01A3
:102E500090E0FC01E852FC4F1491FC01E25EFB4F54
:102E6000C491662311F0012F01C000E00E946D148F
:102E70006B017C01D0E0CC0FDD1FCC59DB4FFE0194
:102E8000A591B4918C91812308131EC00E946D14EA
:102E9000DC01CB018C199D09AE09BF098816990682
:102EA000AA06BB0660F760E070E0CB0133C00E9469
:102EB0006D14DC01CB018C199D09AE09BF09881680
:102EC0009906AA06BB0678F3FE01A591B4918C91F0
:102ED00081230813ECCF0E946D142B013C01FE01ED
:102EE000A591B4918C91812308130EC00E946D149A
:102EF000DC01CB018C199D09AE09BF098816990622
:102F0000AA06BB0660F7CFCF0E946D14641975093D
:102F100086099709DF91CF911F910F91FF90EF9054
:102F2000DF90CF90BF90AF909F908F907F906F90E9
:102F30005F904F900895CF92DF92EF92FF920F93A0
:102F40001F93FC018081862384130BC0015011095B
:102F500021093109B9F71EC00150110921093109B0
:102F6000C9F0808186234813F7CFC12CD12C76017C
:102F70009081962349130BC08FEFC81AD80AE80A2C
:102F8000F80A0C151D052E053F0591F703C0B60183
:102F9000C70104C060E070E080E090E01F910F91F5
:102FA000FF90EF90DF90CF9008950F931F9390E0E4
:102FB000FC01E852FC4F7491FC01E25EFB4FE4918E
:102FC000662311F0672F01C060E0F0E0EE0FFF1FF5
:102FD000EC59FB4F8591949189019A013F70462FDE
:102FE000672F0E949B17611571058105910549F0B6
:102FF000DC01CB010196A11DB11DBC01CD019F706B
:1030000003C060E070E0CB011F910F910895CF9253
:10301000DF92EF92FF920F931F93CF93DF93F82EDF
:10302000D62FE42E07E010E0C0E087E0C82ED12CB8
:1030300061E08D2F0E94BE168F2DE1100AC00E9404
:10304000ED169601201B310B01C0880F2A95EAF777
:1030500007C00E94ED16002E01C0880F0A94EAF7FF
:10306000C82B60E08D2F0E94BE160150110900F799
:103070008C2FDF91CF911F910F91FF90EF90DF90F8
:10308000CF900895BF92CF92DF92EF92FF920F936D
:103090001F93CF93DF93C82ED62EB42EC7E0D0E077
:1030A000022F10E087E0E82EF12CB11005C0C70117
:1030B0008C1B9D0BB80102C0B8018C2F02C0759506
:1030C00067958A95E2F761708C2D0E94BE1661E0CB
:1030D0008D2D0E94BE1660E08D2D0E94BE16219798
:1030E00020F7DF91CF911F910F91FF90EF90DF902C
:1030F000CF90BF900895611571058105910511F07C
:103100000C944C290895CF92DF92EF92FF926115B3
:1031100071058105910549F06B017C010E94FE2833
:10312000A70196010E94F52403C060E070E0CB0186
:10313000FF90EF90DF90CF900895CF92DF92EF92C3
:10314000FF920F931F93621773078407950784F408
:1031500089019A016B017C01C901B8016C197D09D3
:103160008E099F090E9483186C0D7D1D8E1D9F1D69
:103170001F910F91FF90EF90DF90CF9008954F92A5
:103180005F926F927F92AF92BF92CF92DF92EF9257
:10319000FF920F931F93CF93DF93CDB7DEB7290133
:1031A0003A019B01AC0124193509460957098A895E
:1031B0009B89AC89BD89BC01CD016A197B098C0949
:1031C0009D090E94C324A8019701241935094609C5
:1031D00057090E94F524CA01B9016A0D7B1D8C1D97
:1031E0009D1DDF91CF911F910F91FF90EF90DF9088
:1031F000CF90BF90AF907F906F905F904F90089569
:10320000089570E09B01382BC9010895FC0180816D
:1032100091810C942A28CF93DF93EC0188819981C6
:10322000009711F00E942A28198218821D821C82A0
:103230001B821A82DF91CF9108950F931F93CF9332
:10324000DF93EC018B016F5F7F4F888199810E9432
:103250005529009731F0998388831B830A8381E085
:1032600001C080E0DF91CF911F910F910895CF931E
:10327000DF93EC0188819981892B29F08A819B81D8
:103280008617970760F4CE010E941D19882341F02C
:103290008C819D81892B19F4E881F981108281E06C
:1032A000DF91CF910895EF92FF920F931F93CF93E9
:1032B000DF93EC017B018A01BA010E943719811169
:1032C00004C0CE010E940B1907C01D830C83B701F7
:1032D000888199810E94CF2ACE01DF91CF911F91E1
:1032E0000F91FF90EF900895FC01118210821382DC
:1032F0001282158214826115710551F0FB01019053
:103300000020E9F73197AF01461B570B0C94531976
:103310000895EF92FF920F931F93CF93DF93EC01E9
:103320007B018A01BA010E943719811104C0CE01C4
:103330000E940B1907C01D830C83B70188819981F6
:103340000E94832ACE01DF91CF911F910F91FF90B0
:10335000EF900895CF93DF93EC01FB018617970759
:1033600061F0608171816115710529F04481558199
:103370000E94531902C00E940B19CE01DF91CF9118
:103380000895FC0111821082138212821582148228
:103390000C94AA19CF93DF93EC016115710559F0D4
:1033A000FB0101900020E9F73197AF01461B570B55
:1033B0000E94531902C00E940B19CE01DF91CF91D8
:1033C0000895CF93DF931F921F92CDB7DEB7FC0114
:1033D00011821082138212821582148269831A82EA
:1033E000BE016F5F7F4F0E94CA190F900F90DF914F
:1033F000CF9108950F931F93CF93DF93CDB7DEB78F
:1034000029970FB6F894DEBF0FBECDBF8C01862F73
:10341000F80111821082138212821582148250E008
:10342000BE016F5F7F4F90E00E948A2BBE016F5FED
:103430007F4FC8010E94CA1929960FB6F894DEBFC3
:103440000FBECDBFDF91CF911F910F9108950F93C4
:103450001F93CF93DF93CDB7DEB762970FB6F89483
:10346000DEBF0FBECDBF8C01CB01F80111821082EF
:10347000138212821582148250E0BE016F5F7F4F6B
:103480000E94182BBE016F5F7F4FC8010E94CA19AE
:1034900062960FB6F894DEBF0FBECDBFDF91CF911D
:1034A0001F910F9108950F931F93CF93DF93CDB783
:1034B000DEB761970FB6F894DEBF0FBECDBF8C01AB
:1034C000CB01F801118210821382128215821482BC
:1034D00050E0BE016F5F7F4F0E948A2BBE016F5F7D
:1034E0007F4FC8010E94CA1961960FB6F894DEBFDB
:1034F0000FBECDBFDF91CF911F910F9108950F9314
:103500001F93CF93DF93CDB7DEB7A2970FB6F89492
:10351000DEBF0FBECDBF8C01CB01BA01F801118215
:103520001082138212821582148230E0AE014F5F46
:103530005F4F0E942E2BBE016F5F7F4FC8010E941C
:10354000CA19A2960FB6F894DEBF0FBECDBFDF91A9
:10355000CF911F910F9108950F931F93CF93DF93F6
:10356000CDB7DEB7A1970FB6F894DEBF0FBECDBFC3
:103570008C01CB01BA01F8011182108213821282F0
:103580001582148230E0AE014F5F5F4F0E945D2BC9
:10359000BE016F5F7F4FC8010E94CA19A1960FB686
:1035A000F894DEBF0FBECDBFDF91CF911F910F9179
:1035B0000895EF92FF920F931F93CF93DF93CDB7B0
:1035C000DEB7A1970FB6F894DEBF0FBECDBF7C016A
:1035D000CB01BA01F7011182108213821282158287
:1035E000148242E0420F8E010F5F1F4F0E9472272C
:1035F000BC01C7010E94CA19A1960FB6F894DEBF9C
:103600000FBECDBFDF91CF911F910F91FF90EF9033
:103610000895EF92FF920F931F93CF93DF93CDB74F
:10362000DEB7A1970FB6F894DEBF0FBECDBF7C0109
:10363000CB01BA01F7011182108213821282158226
:10364000148242E0420F8E010F5F1F4F0E947227CB
:10365000BC01C7010E94CA19A1960FB6F894DEBF3B
:103660000FBECDBFDF91CF911F910F91FF90EF90D3
:1036700008950F931F93CF93DF93EC018B01611596
:10368000710549F0CB010E948A2AAC01B801CE0134
:103690000E94891902C00E940B19CE01DF91CF91BF
:1036A0001F910F910895FC011182108213821282E2
:1036B000158214820C94391BEF92FF920F931F9383
:1036C000CF93DF936115710511F480E01CC04115A3
:1036D0005105C1F07B01EC018C819D818A01080FAD
:1036E000191FB801CE010E943719882371F3288170
:1036F00039818C819D81B701820F931F0E94CF2A4F
:103700001D830C8381E0DF91CF911F910F91FF907A
:10371000EF900895FB0144815581608171810C9483
:103720005C1B6115710551F0FB0101900020E9F768
:103730003197AF01461B570B0C945C1B80E008953A
:10374000CF93DF931F921F92CDB7DEB769831A82A2
:1037500041E050E0BE016F5F7F4F0E945C1B0F9005
:103760000F90DF91CF910895EF92FF920F931F93E7
:10377000CF93DF9300D01F92CDB7DEB77C01862FA9
:103780004AE050E08E010F5F1F4FB80190E00E94A9
:10379000182BF80101900020E9F73197AF01401B89
:1037A000510BB801C7010E945C1B0F900F900F9046
:1037B0000F90DF91CF911F910F91FF90EF9008959F
:1037C000EF92FF920F931F93CF93DF93CDB7DEB7A6
:1037D00028970FB6F894DEBF0FBECDBF7C01CB019A
:1037E0004AE050E08E010F5F1F4FB8010E94182B76
:1037F000F80101900020E9F73197AF01401B510B10
:10380000B801C7010E945C1B28960FB6F894DEBF72
:103810000FBECDBFDF91CF911F910F91FF90EF9021
:103820000895EF92FF920F931F93CF93DF93CDB73D
:10383000DEB727970FB6F894DEBF0FBECDBF7C0171
:10384000CB014AE050E08E010F5F1F4FB8010E948C
:103850008A2BF80101900020E9F73197AF01401B56
:10386000510BB801C7010E945C1B27960FB6F89454
:10387000DEBF0FBECDBFDF91CF911F910F91FF90A3
:10388000EF900895EF92FF920F931F93CF93DF93E2
:10389000CDB7DEB72E970FB6F894DEBF0FBECDBF03
:1038A0007C01CB01BA012AE030E08E010F5F1F4F8F
:1038B000A8010E942E2BF80101900020E9F7319712
:1038C000AF01401B510BB801C7010E945C1B2E9633
:1038D0000FB6F894DEBF0FBECDBFDF91CF911F9121
:1038E0000F91FF90EF900895EF92FF920F931F9327
:1038F000CF93DF93CDB7DEB72D970FB6F894DEBF29
:103900000FBECDBF7C01CB01BA012AE030E08E01B1
:103910000F5F1F4FA8010E945D2BF801019000204E
:10392000E9F73197AF01401B510BB801C7010E9465
:103930005C1B2D960FB6F894DEBF0FBECDBFDF9196
:10394000CF911F910F91FF90EF900895EF92FF920A
:103950000F931F93CF93DF93CDB7DEB764970FB666
:10396000F894DEBF0FBECDBF7C01CB01BA018E0142
:103970000F5F1F4F22E044E00E947227FC0101907C
:103980000020E9F73197AF01481B590BBC01C70173
:103990000E945C1B64960FB6F894DEBF0FBECDBFCD
:1039A000DF91CF911F910F91FF90EF900895EF92CB
:1039B000FF920F931F93CF93DF93CDB7DEB764973A
:1039C0000FB6F894DEBF0FBECDBF7C01CB01BA01AC
:1039D0008E010F5F1F4F22E044E00E947227FC011E
:1039E00001900020E9F73197AF01481B590BBC014A
:1039F000C7010E945C1B64960FB6F894DEBF0FBE31
:103A0000CDBFDF91CF911F910F91FF90EF9008955F
:103A1000EF92FF920F931F93CF93DF936115710580
:103A200011F480E01EC08B01EC01CB010E948A2AB8
:103A30000097B1F02C813D817C01E20EF31EB701AD
:103A4000CE010E943719882361F3288139818C8146
:103A50009D81B801820F931F0E94832AFD82EC8210
:103A600081E0DF91CF911F910F91FF90EF9008952A
:103A7000CF93DF93EC01FB0144815581608171811B
:103A80000E945C1B811103C0CE010E940B19CE0164
:103A9000DF91CF910895CF93DF93EC01611571050C
:103AA00061F0FB0101900020E9F73197AF01461B5F
:103AB000570B0E945C1B811103C0CE010E940B19A1
:103AC000CE01DF91CF910895CF93DF93EC010E9457
:103AD000A01B811103C0CE010E940B19CE01DF9102
:103AE000CF910895CF93DF93EC010E94B41B811115
:103AF00003C0CE010E940B19CE01DF91CF91089532
:103B0000CF93DF93EC010E94E01B811103C0CE0133
:103B10000E940B19CE01DF91CF910895CF93DF93CF
:103B2000EC010E94111C811103C0CE010E940B19EF
:103B3000CE01DF91CF910895CF93DF93EC010E94E6
:103B4000421C811103C0CE010E940B19CE01DF91EE
:103B5000CF910895CF93DF93EC010E94741C8111E3
:103B600003C0CE010E940B19CE01DF91CF910895C1
:103B7000CF93DF93EC010E94A61C811103C0CE01FC
:103B80000E940B19CE01DF91CF910895CF93DF935F
:103B9000EC010E94D71C811103C0CE010E940B19B9
:103BA000CE01DF91CF910895CF93DF93EC010E9476
:103BB000081D811103C0CE010E940B19CE01DF91B7
:103BC000CF910895CF93DF93DC01ED91FC91EB0150
:103BD000A881B981309711F01097C9F4109759F066
:103BE000EB012C813D81232B31F08C9190E091955C
:103BF0008195910914C0309781F0DC0114968D9164
:103C00009C911597892B49F0808190E008C0BD01F7
:103C1000CF01DF91CF910C94C62A80E090E0DF9134
:103C2000CF910895FC0144815581FB0124813581A8
:103C30004217530729F40E94E21D21E0892B09F065
:103C400020E0822F0895FC0124813581232B31F45B
:103C500021E061157105A1F0FB0108C0FC01808124
:103C600091816115710531F421E0FC018081882387
:103C700039F005C00E94C62A21E0892B09F020E016
:103C8000822F08950E94E21D892F881F8827881F90
:103C900008950E94E21D21E0181619060CF020E09C
:103CA000822F08950E94E21D21E0181619060CF4D7
:103CB00020E0822F08950E94E21D892F8095881FA1
:103CC0008827881F0895EF92FF920F931F93CF9339
:103CD000DF938617970731F1FC0124813581FB01C1
:103CE0004481558124173507D9F4232BD9F0DC0101
:103CF0000D911C91C081D181F80181918F018823A0
:103D000089F0082E000C990B0E94732A7C0189917E
:103D1000082E000C990B0E94732AE816F90661F32D
:103D200080E001C081E0DF91CF911F910F91FF9062
:103D3000EF900895DB011496ED91FC911597DC014D
:103D400014962D913C9115972E1B3F0B2417350788
:103D5000A0F02D913C912115310579F0DB016D9199
:103D60007C916115710549F0CA01AF01820F931F63
:103D70000E94D62A21E0892B09F020E0822F0895A5
:103D8000FC0144815581FB01248135814217530791
:103D900020F040E050E00C949A1E80E00895FC0171
:103DA00024813581FB014481558124173507A0F01A
:103DB000FC0180819181009779F0FB016081718124
:103DC0006115710549F0241B350B820F931F0E946A
:103DD000C62A21E0892B09F020E0822F0895FC01FA
:103DE000248135816217730730F480819181FC0151
:103DF000E60FF71F40830895FC0124813581621787
:103E0000730720F480819181009729F41092BD05F9
:103E10008DEB95E00895860F971F0895FC0124818E
:103E200035816217730748F480819181009729F0EA
:103E3000FC01E60FF71F8081089580E008950C943F
:103E40000E1F0F931F93CF93DF934115510519F167
:103E50006115710501F1DC011496ED91FC91159746
:103E60002E173F0718F0FB01108215C0E21BF30B61
:103E7000EA012197EC17FD0708F4EF018B01FC0123
:103E800060817181620F731FAE01C8010E94E42A34
:103E9000C00FD11F1882DF91CF911F910F9108950C
:103EA000CF93DF93FC01248135814217530778F4C7
:103EB000C081D181062E000C770BCE01840F951F97
:103EC0000E94BB2A009719F08C1B9D0B02C08FEF3C
:103ED0009FEFDF91CF91089540E050E00C94501F88
:103EE000CF93DF93FC01248135814217530780F47F
:103EF000FB01DC01CD91DC9160817181CE01840FE9
:103F0000951F0E94FE2A009719F08C1B9D0B02C082
:103F10008FEF9FEFDF91CF91089540E050E00C9438
:103F2000701FDF92EF92FF920F931F93CF93DF9357
:103F3000DC0114962D913C9115974217530718F008
:103F40008FEF9FEF1DC08C01EA012196DC01ED91FE
:103F5000FC911197EC0FFD1FD0801082ED90FC902A
:103F6000062E000C770BC7010E94F32ACE0DDF1D31
:103F7000D882009729F3F80120813181821B930BAD
:103F8000DF91CF911F910F91FF90EF90DF900895F7
:103F9000FC0144815581415051090C94911FAF920D
:103FA000BF92CF92DF92EF92FF920F931F93CF9326
:103FB000DF937B018A01FB01448155814115510545
:103FC00061F1FC01248135812115310531F124177E
:103FD000350718F10217130718F08901015011096C
:103FE000FC01A080B180C501DFEFCFEF6501C00EFD
:103FF000D11EC816D906A0F0F701608171810E9418
:10400000FE2A009769F09C012A193B090217130741
:1040100010F0D22FC32F0196ECCF8FEF9FEF02C08D
:104020008D2F9C2FDF91CF911F910F91FF90EF90DB
:10403000DF90CF90BF90AF900895FC0144815581EF
:10404000FB0124813581421B530B0C94CF1FBF927F
:10405000CF92DF92EF92FF920F931F93CF93DF9354
:104060007C016B018A01E9012417350720F4812FB7
:104070008901C42FD82F65E772E0C7010E94741927
:10408000D60114968D919C91159708171907C8F4BD
:104090008C179D0708F4EC01D601ED91FC91119766
:1040A000EC0FFD1FB08010826D917C91600F711F2D
:1040B000C7010E94CA19D601ED91FC91EC0FFD1FBA
:1040C000B082C701DF91CF911F910F91FF90EF90C8
:1040D000DF90CF90BF900895DC01ED91FC91309777
:1040E00041F08081882329F0861301C040833196F6
:1040F000F8CF08952F923F924F925F926F927F92E6
:104100008F929F92AF92BF92CF92DF92EF92FF92E7
:104110000F931F93CF93DF93FC014480558041148C
:10412000510409F4CEC0FB01848095808114910470
:1041300009F4C7C07A016B018C01FA0164807580B3
:1041400068187908FC01C081D18161147104B9F447
:10415000F60160817181CE010E94FE2AEC01009778
:1041600009F4AFC0F70160817181448155810E94DB
:10417000A02AF70184819581C80FD91FE9CF77FE66
:1041800044C05E01F60160817181C5010E94FE2A72
:104190002C01009721F14C018A189B08A401B5015C
:1041A000CE010E94A02AC80DD91DF701608171813E
:1041B00044815581CE010E94A02AF7018481958116
:1041C000C80FD91FF601A480B580A40CB51CF80156
:1041D00084819581860D971D95838483D3CFB50106
:1041E000CE01DF91CF911F910F91FF90EF90DF9063
:1041F000CF90BF90AF909F908F907F906F905F9087
:104200004F903F902F900C94CF2AFB01208031805B
:104210005201B101CE010E94FE2A009731F0EC015B
:10422000C80DD91DA60CB71CF4CFA414B50409F40D
:1042300048C0F801828193818A159B0530F4B5014D
:10424000C8010E941D198823E1F1F80144815581BC
:104250004150510957FD35C0B601C8010E94CF1F1A
:10426000EC0197FD2EC0F60124813581280F391FFE
:10427000F80180819181820F931F44815581421BF7
:10428000530BBC01860D971D0E94A92AF801848159
:104290009581860D971D9583848320813181F90155
:1042A000E80FF91F1082F80180819181F701608188
:1042B0007181448155818C0F9D1F0E94A02AAE01FF
:1042C000C7CFDF91CF911F910F91FF90EF90DF90BB
:1042D000CF90BF90AF909F908F907F906F905F90A6
:1042E0004F903F902F900895CF93DF93DC01149669
:1042F000ED91FC9115976E177F0730F5411551052B
:1043000019F1DF01A61BB70B9A01A417B50708F432
:104310009D01DB01EC0188819981E21BF30BFD8398
:10432000EC83AF01461B570B260F371FBC01620FF2
:10433000731F8A0F9B1F0E94E42AE881F9818C81F8
:104340009D81E80FF91F1082DF91CF9108954FEF03
:104350005FEF0C947421CF93DF93FC01C081D18176
:10436000209751F08881882339F0082E000C990B92
:104370000E94732A8993F6CFDF91CF910895CF934E
:10438000DF93FC01C081D181209751F0888188237F
:1043900039F0082E000C990B0E947B2A8993F6CFE6
:1043A000DF91CF910895AF92BF92CF92DF92EF92BB
:1043B000FF920F931F93CF93DF93DC01CD90DC909E
:1043C0001197C114D10409F443C01496CD91DC9126
:1043D00015972097E9F18C0176015701BFEFAB1AD1
:1043E000BB0AF7018081082E000C990B0E946A2AF3
:1043F000892B11F07501F1CF2197CC0DDD1D88813E
:10440000082E000C990B0E946A2A892B29F0CE15E0
:10441000DF0510F02197F3CFAE014F5F5F4F4E19CC
:104420005F09D80115965C934E931497CE14DF0460
:1044300020F4B701C6010E94A02AD801ED91FC9199
:10444000119714968D919C911597E80FF91F108282
:10445000DF91CF911F910F91FF90EF90DF90CF9060
:10446000BF90AF900895FC0180819181009711F079
:104470000C94432A60E070E0CB010895FC01808138
:104480009181009711F00C943F2A60E070E0CB011D
:1044900008950C943E228FE492E00C94DA22CF939C
:1044A000DF93CDB7DEB728970FB6F894DEBF0FBE07
:1044B000CDBFBE016F5F7F4FCE0105960E94B22235
:1044C00086E792E00E94DA2289E892E00E94DA22EE
:1044D00069817A818B819C810E94DF2284E992E04C
:1044E0000E94DA2289E992E00E94DA226D817E81BF
:1044F0008F8198850E94DF2287EA92E00E94DA226B
:1045000068EB7BE080E090E00E94921428960FB662
:10451000F894DEBF0FBECDBFDF91CF910895FC01AF
:104520009081909590830895CF93DF93D82F0E9428
:10453000ED16C82F4AE050E06D2F86E193E00E940F
:10454000F8084AE050E06C2F86E193E00E94F808FA
:104550006CEA72E086E193E00E9465088C2FDF919F
:10456000CF910895EF92FF920F931F93CF93DF9314
:104570008C017B0166E38EEB95E00E944003EEEB3D
:10458000F5E084819581A681B781E80188839983CC
:10459000AA83BB8380819181A281B381F70180834B
:1045A0009183A283B383DF91CF911F910F91FF90ED
:1045B000EF900895BC0186E193E00C946508AB018F
:1045C000BC0122E030E086E193E00C94840A4AE0EA
:1045D00050E0FC01608186E193E00C94F8080C94B3
:1045E00082160C94BE16CF93DF93C8EFD5E091E00E
:1045F000988386E189831A821B8282E08D83EBECAB
:10460000F5E0FF83EE8384E6888728E0208329E0B5
:10461000238399879EE09A871B861C8693E09E875A
:1046200021ED35E0388B2F87898B8AE086838BE0FC
:10463000818761E086E10E94EF2261E08A85DF9157
:10464000CF910C94EF22EF92FF920F931F93CF9391
:10465000DF93C8EFD5E086E0CA30D807E9F000E084
:1046600010E0E12CF12C8D8190E0E816F90674F44D
:10467000EE81FF81E00FF11F80810E9494228A83E6
:104680008FEFE81AF80A0D5F1F4FEDCF6A8189811D
:104690000E94F1222996DFCFDF91CF911F910F91D8
:1046A000FF90EF9008950E9423230C944F2226E060
:1046B00040E855E260E070E086E193E00E94D204B9
:1046C0000E94F3220C944B220E94532364EF71E06A
:1046D00080E090E00C949214FC019081909590837E
:1046E00008951F921F921F928F9380EB92E09F93E9
:1046F0008F930E94AF2B0F900F900F900F900F9001
:104700000F9080E008950F931F9300E010E028ECD5
:1047100031E4FC01008311832283338380E090E045
:10472000A8E4B2E4FB0180839183A283B3831F9149
:104730000F9108950C94C32B9F938F937F936F9346
:1047400081ED92E09F938F930E94AF2B0F900F907B
:104750000F900F900F900F9008951F926F931F92DC
:104760008F9385ED92E09F938F930E94AF2B0F90D4
:104770000F900F900F900F900F9008951F926F93CE
:104780001F928F9387EF92E09F938F930E94AF2B9E
:104790000F900F900F900F900F900F900895FC01C5
:1047A00080811F928F9382E193E09F938F930E9469
:1047B000AF2B0F900F900F900F90089580E090E036
:1047C00008950895E6E1F3E01382128288EE93E003
:1047D000A0E0B0E084839583A683B78380E292E073
:1047E0009183808385EC90E09587848784EC90E0CA
:1047F0009787868780EC90E0918B808B81EC90E0AE
:10480000938B828B82EC90E0958B848B86EC90E08E
:10481000978B868B118E128E138E148E0895E3EB78
:10482000F3E01382128288EE93E0A0E0B0E084838C
:104830009583A683B78380E292E0918380838DEC99
:1048400090E0958784878CEC90E09787868788EC4A
:1048500090E0918B808B89EC90E0938B828B8AEC3B
:1048600090E0958B848B8EEC90E0978B868B118EED
:10487000128E138E148E0895E0E5F4E013821282F6
:1048800088EE93E0A0E0B0E084839583A683B783AD
:1048900080E292E09183808385ED90E09587848724
:1048A00084ED90E09787868780ED90E0918B808BF8
:1048B00081ED90E0938B828B82ED90E0958B848BE1
:1048C00086ED90E0978B868B118E128E138E148E50
:1048D0000895EDEEF4E01382128288EE93E0A0E0FA
:1048E000B0E084839583A683B78380E292E09183CE
:1048F000808385E391E09587848784E391E09787BF
:10490000868780E391E0918B808B81E391E0938BAC
:10491000828B82E391E0958B848B86E391E0978B89
:10492000868B118E128E138E148E089508950E9418
:10493000D9140E94C4070E945723C4E0D4E00E9407
:1049400064232097E1F30E940404F9CF61157105F7
:1049500079F0FB0101900020E9F73197AF01461B88
:10496000570BDC01ED91FC910280F381E02D19944D
:1049700080E090E008950C94182B0C942E2B0C944E
:104980008A2B0C945D2BDB018F939F930E941C2537
:10499000BF91AF91A29F800D911DA39F900DB29FDB
:1049A000900D11240895A1E21A2EAA1BBB1BFD0134
:1049B0000DC0AA1FBB1FEE1FFF1FA217B307E407FE
:1049C000F50720F0A21BB30BE40BF50B661F771F56
:1049D000881F991F1A9469F7609570958095909536
:1049E0009B01AC01BD01CF010895052E97FB1EF47C
:1049F00000940E940C2557FD07D00E94D32407FC89
:104A000003D04EF40C940C2550954095309521958B
:104A10003F4F4F4F5F4F08959095809570956195EA
:104A20007F4F8F4F9F4F0895EE0FFF1F881F8BBF43
:104A30000790F691E02D19940E942725A59F900DCF
:104A4000B49F900DA49F800D911D11240895A29FE5
:104A5000B001B39FC001A39F700D811D1124911D52
:104A6000B29F700D811D1124911D08955058BB27D0
:104A7000AA270E944E250C94C1260E94B32638F026
:104A80000E94BA2620F039F49F3F19F426F40C94C2
:104A9000B0260EF4E095E7FB0C94AA26E92F0E94BD
:104AA000D22658F3BA17620773078407950720F0D8
:104AB00079F4A6F50C94F4260EF4E0950B2EBA2F9B
:104AC000A02D0B01B90190010C01CA01A001112414
:104AD000FF27591B99F0593F50F4503E68F11A16C0
:104AE000F040A22F232F342F4427585FF3CF469551
:104AF00037952795A795F0405395C9F77EF41F1673
:104B0000BA0B620B730B840BBAF09150A1F0FF0F3C
:104B1000BB1F661F771F881FC2F70EC0BA0F621F28
:104B2000731F841F48F4879577956795B795F79518
:104B30009E3F08F0B0CF9395880F08F09927EE0FAD
:104B40009795879508950E94862608F481E0089538
:104B50000E94BC250C94C1260E94BA2658F00E94DF
:104B6000B32640F029F45F3F29F00C94AA26511196
:104B70000C94F5260C94B0260E94D22668F3992353
:104B8000B1F3552391F3951B550BBB27AA27621749
:104B90007307840738F09F5F5F4F220F331F441F56
:104BA000AA1FA9F335D00E2E3AF0E0E832D091508A
:104BB0005040E695001CCAF72BD0FE2F29D0660F77
:104BC000771F881FBB1F261737074807AB07B0E8BA
:104BD00009F0BB0B802DBF01FF2793585F4F3AF0C0
:104BE0009E3F510578F00C94AA260C94F5265F3F61
:104BF000E4F3983ED4F3869577956795B795F79546
:104C00009F5FC9F7880F911D9695879597F908952D
:104C1000E1E0660F771F881FBB1F621773078407C9
:104C2000BA0720F0621B730B840BBA0BEE1F88F7D8
:104C3000E09508950E94DA2688F09F5798F0B92FE2
:104C40009927B751B0F0E1F0660F771F881F991FC1
:104C50001AF0BA95C9F714C0B13091F00E94F42649
:104C6000B1E008950C94F426672F782F8827B85F59
:104C700039F0B93FCCF3869577956795B395D9F719
:104C80003EF490958095709561957F4F8F4F9F4F23
:104C90000895E89409C097FB3EF49095809570952F
:104CA00061957F4F8F4F9F4F9923A9F0F92F96E978
:104CB000BB279395F695879577956795B795F111ED
:104CC000F8CFFAF4BB0F11F460FF1BC06F5F7F4F8A
:104CD0008F4F9F4F16C0882311F096E911C077239C
:104CE00021F09EE8872F762F05C0662371F096E8A5
:104CF000862F70E060E02AF09A95660F771F881F74
:104D0000DAF7880F9695879597F90895990F000817
:104D1000550FAA0BE0E8FEEF16161706E807F9078D
:104D2000C0F012161306E407F50798F0621B730B28
:104D3000840B950B39F40A2661F0232B242B252BA9
:104D400021F408950A2609F4A140A6958FEF811D4C
:104D5000811D089597F99F6780E870E060E00895ED
:104D60009FEF80EC089500240A9416161706180683
:104D70000906089500240A9412161306140605065F
:104D80000895092E0394000C11F4882352F0BB0FF0
:104D900040F4BF2B11F460FF04C06F5F7F4F8F4F53
:104DA0009F4F089557FD9058440F551F59F05F3F8E
:104DB00071F04795880F97FB991F61F09F3F79F03D
:104DC00087950895121613061406551FF2CF4695BF
:104DD000F1DF08C0161617061806991FF1CF869541
:104DE0007105610508940895E894BB276627772725
:104DF000CB0197F908950E94862608F48FEF089555
:104E00000E9413270C94C1260E94B32638F00E94FA
:104E1000BA2620F0952311F00C94AA260C94B02603
:104E200011240C94F5260E94D22670F3959FC1F3AD
:104E3000950F50E0551F629FF001729FBB27F00D48
:104E4000B11D639FAA27F00DB11DAA1F649F66279D
:104E5000B00DA11D661F829F2227B00DA11D621FEC
:104E6000739FB00DA11D621F839FA00D611D221FA6
:104E7000749F3327A00D611D231F849F600D211D8A
:104E8000822F762F6A2F11249F5750409AF0F1F00D
:104E900088234AF0EE0FFF1FBB1F661F771F881F76
:104EA00091505040A9F79E3F510580F00C94AA26DE
:104EB0000C94F5265F3FE4F3983ED4F386957795FE
:104EC0006795B795F795E7959F5FC1F7FE2B880F1C
:104ED000911D9695879597F908950E948626880BCF
:104EE000990B0895EF920F931F93CF93DF93E801EF
:104EF00047FD02C034E001C034E1042E000C550B24
:104F000057FF03C0519541955109E32E022F242FDD
:104F1000AE010E94FD2DCE01DF91CF911F910F9127
:104F2000EF9008950F931F93CF93DF9382309105F5
:104F300010F482E090E0E0910C06F0910D0620E084
:104F400030E0A0E0B0E0309719F14081518102815A
:104F5000138148175907C8F08417950769F410970B
:104F600031F012960C93129713961C9327C000935E
:104F70000C0610930D0622C02115310519F04217B9
:104F8000530718F49A01BD01EF01DF01F801DBCFEF
:104F900021153105F9F0281B390B2430310580F437
:104FA0008A819B816115710521F0FB0193838283C6
:104FB00004C090930D0680930C06FE01329644C007
:104FC000FE01E20FF31F819391932250310939833F
:104FD00028833AC020910A0630910B06232B41F416
:104FE000209114023091150230930B0620930A068B
:104FF00020911202309113022115310541F42DB791
:105000003EB74091160250911702241B350BE091D8
:105010000A06F0910B06E217F307A0F42E1B3F0BD4
:105020002817390778F0AC014E5F5F4F241735071A
:1050300048F04E0F5F1F50930B0640930A06819372
:10504000919302C0E0E0F0E0CF01DF91CF911F919A
:105050000F910895CF93DF93009709F481C0FC016D
:10506000329713821282A0910C06B0910D06109710
:1050700081F420813181820F931F20910A063091A3
:105080000B062817390751F5F0930B06E0930A0633
:1050900067C0ED0120E030E0CE17DF0740F44A8121
:1050A0005B819E0141155105F1F0EA01F5CFD383F3
:1050B000C28340815181840F951FC817D90759F4C5
:1050C00088819981840F951F0296918380838A81BC
:1050D0009B81938382832115310529F4F0930D067A
:1050E000E0930C063DC0E901FB83EA8349915991A5
:1050F000C40FD51FEC17FD0761F480819181840FE7
:10510000951F0296E90199838883828193819B830D
:105110008A83E0E0F0E012968D919C9113970097BE
:1051200019F0FD01DC01F7CF8D919C9111979D0144
:105130002E5F3F4F820F931F20910A0630910B067E
:105140002817390769F4309729F410920D06109248
:105150000C0602C013821282B0930B06A0930A06BB
:10516000DF91CF9108958F929F92AF92BF92CF928D
:10517000DF92EF92FF92CF93DF93EC016881798108
:105180008A819B81611571058105910521F464E295
:1051900079ED8BE597E02DE133EF41E050E00E949F
:1051A000F52449015A019B01AC01A7EAB1E40E9430
:1051B0001C256B017C01ACEEB4EFA50194010E94AB
:1051C0008632DC01CB018C0D9D1DAE1DBF1DB7FFCE
:1051D00003C00197A109B04888839983AA83BB8340
:1051E000BC01CD019F77DF91CF91FF90EF90DF90D1
:1051F000CF90BF90AF909F908F9008958F929F9285
:10520000AF92BF92CF92DF92EF92FF92609118021D
:105210007091190280911A0290911B02611571051B
:105220008105910521F464E279ED8BE597E02DE1AC
:1052300033EF41E050E00E94F52449015A019B01FF
:10524000AC01A7EAB1E40E941C256B017C01ACEE25
:10525000B4EFA50194010E948632DC01CB018C0DD4
:105260009D1DAE1DBF1DB7FF03C00197A109B0482A
:105270008093180290931902A0931A02B0931B0214
:10528000BC01CD019F77FF90EF90DF90CF90BF9052
:10529000AF909F908F9008956093180270931902B9
:1052A00080931A0290931B0208956F927F928F92BF
:1052B0009F92AF92BF92CF92DF92EF92FF920F93A5
:1052C0001F93CF93DF93009789F4CB01DF91CF91A8
:1052D0001F910F91FF90EF90DF90CF90BF90AF9014
:1052E0009F908F907F906F900C949227FC01E60F17
:1052F000F71F9C0122503109E217F30708F4A9C0F7
:10530000EC01D9010D911C91119706171707B0F008
:105310000530110508F49BC0C8010497861797074C
:1053200008F495C002501109061B170B0193119345
:105330006D937C93CF010E942A2889C05B01A01A3B
:10534000B10A4C01800E911EA0910C06B0910D0681
:10535000612C712CE12CF12C109709F446C08D9131
:105360009C911197A815B905B1F56C0142E0C40EE6
:10537000D11CCA14DB0478F14C018A189B08640123
:1053800042E0C40ED11C1296BC9012971396AC91B9
:10539000B5E0CB16D10440F0B282A3839182808223
:1053A000D9016D937C9309C00E5F1F4F800F911F31
:1053B000F90191838083EB2DFA2FE114F10431F090
:1053C000D7011396FC93EE93129741C0F0930D060C
:1053D000E0930C063CC06816790608F43C017D0198
:1053E00012960D90BC91A02DB7CF80910A06909196
:1053F0000B0688169906E1F466167706C8F48091C4
:10540000120290911302009741F48DB79EB740911C
:10541000160250911702841B950BE817F907C8F480
:10542000F0930B06E0930A06F901718360830FC0C5
:10543000CB010E9492277C01009759F0A801BE0180
:105440000E94A02ACE010E942A28C70104C0CE01D2
:1054500002C080E090E0DF91CF911F910F91FF900B
:10546000EF90DF90CF90BF90AF909F908F907F9004
:105470006F90089581E090E0F8940C948B32662749
:1054800077270C94742F1F93FC0199278827BC0160
:10549000E89411911032E9F3193010F01E30C8F37E
:1054A0001B3251F01D3249F4689406C00E94482B0B
:1054B000610F711D811D911D119110531A30B0F3B0
:1054C0003EF490958095709561957F4F8F4F9F4FDB
:1054D0001F91089591110C94A831803219F08950D0
:1054E0008550C8F708959111089581548A5108F4A0
:1054F000805E855A08959111089581568A5108F465
:10550000805285580895FB01DC0105900D92002022
:10551000E1F70895FC0105900020E9F7809590954A
:105520008E0F9F1F0895FB01DC0104C08D91019037
:10553000801921F441505040C8F7881B990B0895F9
:10554000FB01DC0102C001900D9241505040D8F7A0
:1055500008956817790768F4FB01DC01E40FF51F73
:10556000A40FB51F02C002900E9241505040D8F7D0
:1055700008950C94A02AFC018191861721F08823BC
:10558000D9F7992708953197CF010895FB01DC01E0
:105590008D91019080190110D9F3990B0895FB01A9
:1055A000DC0101900D920020E1F70895FB01DC0180
:1055B0004150504030F08D910190801919F4002035
:1055C000B9F7881B990B0895FB01DC01415050404D
:1055D00048F001900D920020C9F701C01D92415082
:1055E0005040E0F70895FC0181E090E0019006163C
:1055F00009F4CF010020D1F701970895FB015191E3
:105600005523A9F0BF01DC014D9145174111E1F788
:1056100059F4CD010190002049F04D914015411100
:10562000C9F3FB014111EFCF81E090E001970895AC
:105630004532510520F4423010F00C94232BFB012D
:105640001082CB010895BB274A3031F4992322F40C
:10565000BDE2909581959F4F0C94962B2532310594
:1056600020F4223010F00C94392BFA011082CA0178
:105670000895BB272A3051F4992342F4BDE2909556
:105680008095709561957F4F8F4F9F4F0C94692B3C
:10569000592F482F372F262F660F771F881F991FE6
:1056A000660F771F881F991F620F731F841F951F36
:1056B000660F771F881F991F08952532310520F442
:1056C000223010F00C94682BFA011082CA01089560
:1056D000BB27FA01A62F6217710581059105330BCF
:1056E00030FB66F0AA27660F771F881F991FAA1F35
:1056F000A21710F0A21B63953850A9F7A05DAA333A
:1057000008F0A95DA19336F7B111B1931082CA01D7
:105710000C94D9314532510520F4423010F00C94EC
:10572000952BFB011082CB010895BB27FB01552768
:10573000AA27880F991FAA1FA41710F0A41B8395EE
:105740005051B9F7A05DAA3308F0A95DA193009765
:1057500079F7B111B1931192CB010C94D931CF9358
:10576000DF93CDB7DEB7AE014A5F5F4FFA016191BB
:105770007191AF0180911006909111060E94F32B58
:10578000DF91CF9108950F931F93CF93DF93E09113
:105790001006F0911106238121FF1BC08C01D0E07F
:1057A000C0E0F80181918F0160911006709111069F
:1057B000DB011896ED91FC911997882331F019952A
:1057C000892B79F3DFEFCFEFECCF8AE01995892BA6
:1057D00019F08FEF9FEF02C08D2F9C2FDF91CF919B
:1057E0001F910F9108952F923F924F925F926F9267
:1057F0007F928F929F92AF92BF92CF92DF92EF9261
:10580000FF920F931F93CF93DF93CDB7DEB72B9704
:105810000FB6F894DEBF0FBECDBF6C017B018A01CD
:10582000FC0117821682838181FFCCC1CE010196D3
:105830003C01F6019381F70193FD859193FF8191DE
:105840007F01882309F4BAC1853239F493FD85912B
:1058500093FF81917F01853229F4B60190E00E9487
:10586000E931E7CF912C212C312CFFE1F315D8F051
:105870008B3279F038F4803279F08332A1F4232D21
:1058800020611DC08D3261F0803369F4232D2160C9
:1058900016C0832D8260382EE32DE4603E2E2AC090
:1058A000F32DF8601DC037FC2DC020ED280F2A30E5
:1058B00040F08E32B9F436FC81C1232D2064322EA3
:1058C00019C036FE06C08AE0989E200D1124922E43
:1058D00011C0EAE02E9E200D1124222EF32DF0623D
:1058E0003F2E08C08C3621F4832D8068382E02C0EC
:1058F000883641F4F70193FD859193FF81917F01F3
:105900008111B3CF982F9F7D9554933028F40C5F6D
:105910001F4F9FE399830DC0833631F0833771F0B9
:10592000833509F059C021C0F801808189830E5F59
:105930001F4F88248394912C530113C02801F2E057
:105940004F0E511CF801A080B18036FE03C0692DB6
:1059500070E002C06FEF7FEFC5010E94CE314C01B5
:105960008201F32DFF773F2E16C0280122E0420E60
:10597000511CF801A080B18036FE03C0692D70E093
:1059800002C06FEF7FEFC5010E94C3314C01F32DC0
:10599000F0683F2E820133FC1BC0822D90E08816F8
:1059A0009906B0F4B60180E290E00E94E9312A94B1
:1059B000F4CFF50137FC859137FE81915F01B60187
:1059C00090E00E94E93121102A9421E0821A910886
:1059D0008114910471F7E8C0843611F0893641F5DD
:1059E000F80137FE07C060817181828193810C5F6D
:1059F0001F4F08C060817181072E000C880B990B26
:105A00000E5F1F4FF32DFF763F2E97FF09C0909535
:105A10008095709561957F4F8F4F9F4FF0683F2E17
:105A20002AE030E0A3010E942532882E861845C066
:105A3000853731F4232D2F7EB22E2AE030E025C0A9
:105A4000932D997FB92E8F36C1F018F4883579F0EF
:105A5000B5C0803719F0883721F0B0C0E92FE06178
:105A6000BE2EB4FE0DC0FB2DF460BF2E09C034FE67
:105A70000AC0292F2660B22E06C028E030E005C0FB
:105A800020E130E002C020E132E0F801B7FE07C0BB
:105A900060817181828193810C5F1F4F06C060819C
:105AA000718180E090E00E5F1F4FA3010E942532BC
:105AB000882E8618FB2DFF773F2E36FE0DC0232D36
:105AC0002E7FA22E891458F434FE0BC032FC09C07C
:105AD000832D8E7EA82E05C0B82CA32C03C0B82C15
