:100000000C9403020C9495200C94CC200C940321A6
:100010000C943A210C9471210C94A8210C94DF21AA
:100020000C9416220C9434020C9434020C94340276
:100030000C9434020C94781E0C9434020C94340208
:100040000C9434020C9434020C9434020C94340258
:100050000C9434020C9434020C9434020C944D220F
:100060000C9434020C9432060C9467060C943402FF
:100070000C9434020C9434020C9434020C94340228
:100080000C9434020C9434020C9434020C94340218
:100090000C94F5060C942A070C9434020C94340248
:1000A0000C9434020C9434020C9434020C943402F8
:1000B0000C9434020C9434020C9434020C943402E8
:1000C0000C9434020C9434020C9434020C94B8074F
:1000D0000C94ED070C9434020C947B080C94B0083B
:1000E0000C9434029B1FB11F2D1F431F5E1F7B1FEB
:1000F000CC1FE91F5C20662034203E20482052207F
:1001000070207A20722581259025A125B22583268D
:10011000C325D225E125F225032614262E263F26C7
:100120008326502661267226A327AD2785278F2791
:1001300099272528B727C127CB27D527DF27E927E8
:10014000F327FD272528072811281B280C94CC1FEE
:100150000C94B7270C9472260C94D5270C94A125E7
:100160000C9466200C949C060C948A040C942D1F0D
:100170000C94FD270C94B2250C9433090C9403269F
:100180000C9407280C94C3250C947B1F0C94470BEC
:100190000C9490250C945C200C94D2250C94F904BA
:1001A0000C943E200C9434200C942E260C94360291
:1001B0000C9485270C94E5080C945E050C947A2029
:1001C0000C94CC0B0C94A3270C94C70A0C942528F0
:1001D0000C9422080C945D040C94F2250C94431F9B
:1001E0000C945F070C9414260C94F11E0C94F327C6
:1001F0000C941B280C94E1250C94DF270C94722599
:100200000C94AD270C94C1270C948F270C94E927EC
:100210000C946E080C943F260C945E1F0C94502690
:100220000C9411280C94E8060C9452200C94AB0703
:100230000C94CB270C9461260C94B11F0C949B1F3B
:100240000C9481250C947C400C94C4040C948B4039
:100250000C94E91F0C9461020C9470200C9483267A
:100260000C9499270C9448200C943B044E414E4921
:100270004E495459494E46CDCCCC3D0AD7233C1764
:10028000B7D13877CC2B329595E6241FB14F0A00B1
:100290000020410000C84200401C4620BCBE4CCAA1
:1002A0001B0E5AAEC59D7400407A10F35A00A0721E
:1002B0004E18090010A5D4E80000E87648170000A1
:1002C000E40B54020000CA9A3B000000E1F505006F
:1002D0000080969800000040420F000000A08601B8
:1002E000000000102700000000E803000000006488
:1002F00000000000000A00000000000100000000F3
:10030000002C76D888DC674F0823DFC1DFAE59E1C7
:10031000B1B796E5E3E453C63AE651997696E8E636
:10032000C28426EB898C9B62ED407C6FFCEFBC9C09
:100330009F40F2BAA56FA5F490055A2AF75C936B1B
:100340006CF9676DC11BFCE0E40D47FEF520E6B5D6
:1003500000D0ED902E0300943577050080841E08B0
:100360000000204E0A000000C80C333333330F98CE
:100370006E12831141EF8D2114893BE65516CFFE95
:10038000E6DB18D1844B381BF77C1D901DA4BBE421
:1003900024203284725E228100C9F124ECA1E53D63
:1003A000270200000000240027002A0000000000AF
:1003B000250028002B000000000023002600290053
:1003C00004040404040404040202020202020303FB
:1003D0000303030301020408102040800102040803
:1003E0001020010204081020000000080002010093
:1003F000000304070000000000000000E806AB074F
:100400006E083309470B11241FBECFEFD1E2DEBFC8
:10041000CDBF00E00CBF13E0A0E0B2E0EEE2F1EAF5
:1004200000E00BBF02C007900D92A23AB107D9F7C6
:1004300026E0A2EAB3E001C01D92AD35B207E1F7B4
:1004400011E0C3E0D2E000E006C021970109802F4F
:10045000FE010E944543CE3FD10780E00807A9F77F
:100460000E94730B0C9495500C940000CF93DF9373
:10047000CDB7DEB70E946B48CF93DF93CDB7DEB721
:100480000E946B48CF93DF93CDB7DEB7F89481E03D
:10049000DF91CF910895CF93DF931F921F92CDB735
:1004A000DEB79A8389838FE590E029813A81F9014B
:1004B0002081FC01208300000F900F90DF91CF91ED
:1004C0000895CF93DF93CDB7DEB78CE996E0892B03
:1004D00051F080E090E0892B31F00E949C06882347
:1004E00011F081E001C080E0882311F00E9400003B
:1004F0008FE597E0892B51F080E090E0892B31F077
:100500000E945F07882311F081E001C080E088230A
:1005100011F00E94000082E298E0892B51F080E007
:1005200090E0892B31F00E942208882311F081E0AD
:1005300001C080E0882311F00E94000085EE98E061
:10054000892B51F080E090E0892B31F00E94E50882
:10055000882311F081E001C080E0882311F00E941F
:1005600000000000DF91CF910895CF93DF9300D07A
:10057000CDB7DEB79B838A838A819B81FC01848D02
:10058000882F90E02A813B81820F931F835A9F4FCF
:10059000FC01808189838A819B81FC01848D882F65
:1005A00090E001968F739078992324F40197806CE2
:1005B0009F6F0196282F8A819B81FC01248F8A815D
:1005C0009B81FC01868997892981FC0120838A818E
:1005D0009B81FC01808991892A813B81F9012089D5
:1005E0003189F901208123702064FC0120838A81F4
:1005F0009B81FC01238D8A819B81FC01948D81E08C
:10060000291709F080E0882379F08A819B81FC0119
:10061000828993892A813B81F90122893389F901F1
:1006200020812F7DFC01208300000F900F900F9000
:10063000DF91CF910895CF93DF93CDB7DEB72997A0
:100640000FB6F894DEBF0FBECDBF9C838B834D8366
:100650005E836F837887298780E099E0ADE3B0E01F
:100660002D813E814F815885BC01CD010E940443FC
:10067000DA01C9010197A109B109B695A795979526
:1006800087959A8389838B819C81FC0180899189DC
:1006900022E0FC0120838D819E81AF81B885811588
:1006A000914EA105B10529F089819A81811590416A
:1006B000F0F08B819C81FC0180899189FC01108282
:1006C00080E894E8AEE1B0E02D813E814F8158850D
:1006D000BC01CD010E940443DA01C9010197A109BF
:1006E000B109B695A795979587959A8389838B814C
:1006F0009C81FC018485958529813A81232F3327AC
:10070000FC0120838B819C81FC0186859785298152
:10071000FC0120838B819C81FC01108E8B819C814C
:10072000FC01848995892985FC0120838B819C812A
:10073000FC01828993892B813C81F90122893389CB
:10074000F90120812061FC0120838B819C81FC01C7
:10075000828993892B813C81F90122893389F901AE
:1007600020812860FC0120838B819C81FC0182898F
:1007700093892B813C81F90122893389F9012081F8
:100780002068FC0120838B819C81FC0182899389F4
:100790002B813C81F90122893389F90120812F7D48
:1007A000FC012083000029960FB6F894DEBF0FBE2F
:1007B000CDBFDF91CF910895CF93DF931F921F920A
:1007C000CDB7DEB79A83898389819A81FC018081C4
:1007D00091810696FC012081318189819A81F901FC
:1007E000199589819A81FC018289938929813A81AD
:1007F000F90122893389F90120812F7EFC012083B0
:1008000089819A81FC018289938929813A81F90140
:1008100022893389F9012081277FFC012083898186
:100820009A81FC018289938929813A81F90122897F
:100830003389F90120812F77FC01208389819A81F6
:10084000FC018289938929813A81F90122893389BE
:10085000F90120812F7DFC01208389819A81FC018F
:10086000228D89819A81FC01218F00000F900F90C9
:10087000DF91CF910895CF93DF931F921F92CDB751
:10088000DEB79A83898389819A81FC01818D882FC3
:1008900090E09C01205C3F4F89819A81FC01828D10
:1008A000882F90E0A901481B590BCA018F73992723
:1008B0000F900F90DF91CF910895CF93DF931F9208
:1008C0001F92CDB7DEB79A83898389819A81FC0113
:1008D000218D89819A81FC01928D81E0291709F08F
:1008E00080E0882319F08FEF9FEF0FC089819A81F4
:1008F000FC01828D882F90E029813A81820F931F1D
:100900004D96FC018081882F90E00F900F90DF9131
:10091000CF910895CF93DF9300D0CDB7DEB79B83FF
:100920008A838A819B81FC01218D8A819B81FC01C4
:10093000928D81E0291709F080E0882319F08FEF6C
:100940009FEF1CC08A819B81FC01828D882F90E0E3
:100950002A813B81820F931F4D96FC018081898300
:100960008A819B81FC01828D8F5F282F2F738A8162
:100970009B81FC01228F8981882F90E00F900F903E
:100980000F90DF91CF910895CF93DF9300D01F9206
:10099000CDB7DEB79C838B838B819C81FC01838DDB
:1009A00089838B819C81FC01848D8A8399818A81D2
:1009B000981768F08981882F90E02FE330E0281B9A
:1009C000390B8A81882F90E0820F931F0BC08A8198
:1009D000282F30E08981882F90E0A901481B590B0E
:1009E000CA0101970F900F900F900F90DF91CF9158
:1009F0000895CF93DF931F921F92CDB7DEB79A83EE
:100A0000898389819A81FC01908D81E089278823DF
:100A100009F04EC089819A81FC0182899389FC0189
:100A20008081882F90E080729927892B69F48981D1
:100A30009A81FC0180899189FC018081882F90E056
:100A400080749927892B11F481E001C080E088230C
:100A500081F18FE590E0FC01808188237CF0898121
:100A60009A81FC0182899389FC018081882F90E022
:100A700080729927892B11F081E001C080E08823E2
:100A800049F289819A81FC0180899189FC018081E8
:100A9000882F90E08072992721E0892B09F420E0CB
:100AA000222309F4B7CF89819A810E94B502B2CF7F
:100AB00000000F900F90DF91CF910895CF93DF93B7
:100AC000CDB7DEB728970FB6F894DEBF0FBECDBF07
:100AD0009F838E8368878E819F8121E0FC01208F18
:100AE0008E819F81FC01238D8E819F81FC01848DED
:100AF000281779F48E819F81FC0180899189FC01FE
:100B00008081882F90E080729927892B11F081E0F5
:100B100001C080E0882361F18FE590E0FC018081D5
:100B20008C830E944202898389818823D1F08E813F
:100B30009F81FC01868997892885FC0120838E810D
:100B40009F81FC01808991892E813F81F901208953
:100B50003189F901208123702064FC0120831982EE
:100B6000E3CFCE0104960E944B0281E090E071C079
:100B70008E819F81FC01838D882F90E001968F7379
:100B80009078992324F40197806C9F6F01968B8352
:100B90008E819F81FC01248D81E09B81291709F0C2
:100BA00080E0882301F18FE590E0FC018081809551
:100BB000881F8827881F882359F38E819F81FC0115
:100BC00080899189FC018081882F90E0807299272B
:100BD00021E0892B09F420E02223D1F28E819F812C
:100BE0000E94B502D5CF8E819F81FC01838D882F15
:100BF00090E02E813F81820F931F835A9F4F28855B
:100C0000FC0120838FE590E0FC0180818D830E94B0
:100C100042028A838A818823B1F08E819F812B8151
:100C2000FC01238F8E819F81FC01828993892E8113
:100C30003F81F90122893389F90120812062FC0179
:100C400020831A82E7CFCE0105960E944B0281E0F5
:100C500090E028960FB6F894DEBF0FBECDBFDF91AF
:100C6000CF9108951F920F9200905F000F92112470
:100C700000905B000F922F933F934F935F936F937E
:100C80007F938F939F93AF93BF93EF93FF93CF93F4
:100C9000DF93CDB7DEB782EA93E00E9430410000D7
:100CA000DF91CF91FF91EF91BF91AF919F918F9184
:100CB0007F916F915F914F913F912F910F90009293
:100CC0005B000F9000925F000F901F9018951F928D
:100CD0000F9200905F000F92112400905B000F9222
:100CE0002F933F934F935F936F937F938F939F9334
:100CF000AF93BF93EF93FF93CF93DF93CDB7DEB75F
:100D000082EA93E00E94B5020000DF91CF91FF914B
:100D1000EF91BF91AF919F918F917F916F915F9173
:100D20004F913F912F910F9000925B000F90009296
:100D30005F000F901F901895CF93DF93CDB7DEB76C
:100D400082EA93E00E943B0421E0892B09F420E031
:100D5000822FDF91CF910895CF92DF92EF92FF9291
:100D60000F931F93CF93DF9300D01F92CDB7DEB7C1
:100D70009A8389837C836B8389819A810197D1F4DB
:100D80008B819C810196B1F40F2EF6ECCF2ED12CE5
:100D9000F02D0F2EF2ECEF2EF12CF02D01EC10E0E7
:100DA00020EC30E044EC50E065EC70E082EA93E047
:100DB0000E94BD4000000F900F900F900F90DF91A8
:100DC000CF911F910F91FF90EF90DF90CF900895FA
:100DD000CF93DF93CDB7DEB76FEF7FEF81E090E089
:100DE0000E94AC06DF91CF9108951F920F92009060
:100DF0005F000F92112400905B000F922F933F939E
:100E00004F935F936F937F938F939F93AF93BF9312
:100E1000EF93FF93CF93DF93CDB7DEB78FE394E0EB
:100E20000E9430410000DF91CF91FF91EF91BF917F
:100E3000AF919F918F917F916F915F914F913F9172
:100E40002F910F9000925B000F9000925F000F9027
:100E50001F9018951F920F9200905F000F9211241F
:100E600000905B000F922F933F934F935F936F938C
:100E70007F938F939F93AF93BF93EF93FF93CF9302
:100E8000DF93CDB7DEB78FE394E00E94B502000098
:100E9000DF91CF91FF91EF91BF91AF919F918F9192
:100EA0007F916F915F914F913F912F910F900092A1
:100EB0005B000F9000925F000F901F901895CF93EA
:100EC000DF93CDB7DEB78FE394E00E943B0421E0CF
:100ED000892B09F420E0822FDF91CF910895CF92E2
:100EE000DF92EF92FF920F931F93CF93DF9300D087
:100EF0001F92CDB7DEB79A8389837C836B83898108
:100F00009A810197D1F48B819C810196B1F40F2EC7
:100F1000FEECCF2ED12CF02D0F2EFAECEF2EF12C73
:100F2000F02D09EC10E028EC30E04CEC50E06DECDA
:100F300070E08FE394E00E94BD4000000F900F909E
:100F40000F900F90DF91CF911F910F91FF90EF9035
:100F5000DF90CF900895CF93DF93CDB7DEB76FEFDB
:100F60007FEF81E090E00E946F07DF91CF910895BD
:100F70001F920F9200905F000F92112400905B006F
:100F80000F922F933F934F935F936F937F938F9322
:100F90009F93AF93BF93EF93FF93CF93DF93CDB71F
:100FA000DEB78CED94E00E9430410000DF91CF91DC
:100FB000FF91EF91BF91AF919F918F917F916F9131
:100FC0005F914F913F912F910F9000925B000F9096
:100FD00000925F000F901F9018951F920F92009043
:100FE0005F000F92112400905B000F922F933F93AC
:100FF0004F935F936F937F938F939F93AF93BF9321
:10100000EF93FF93CF93DF93CDB7DEB78CED94E0F2
:101010000E94B5020000DF91CF91FF91EF91BF9147
:10102000AF919F918F917F916F915F914F913F9180
:101030002F910F9000925B000F9000925F000F9035
:101040001F901895CF93DF93CDB7DEB78CED94E06A
:101050000E943B0421E0892B09F420E0822FDF91DC
:10106000CF910895CF92DF92EF92FF920F931F934B
:10107000CF93DF9300D01F92CDB7DEB79A838983D9
:101080007C836B8389819A810197D1F48B819C81C8
:101090000196B1F40F2EF6EDCF2ED12CF02D0F2EA0
:1010A000F2EDEF2EF12CF02D01ED10E020ED30E00F
:1010B00044ED50E065ED70E08CED94E00E94BD40A1
:1010C00000000F900F900F900F90DF91CF911F9124
:1010D0000F91FF90EF90DF90CF900895CF93DF9323
:1010E000CDB7DEB76FEF7FEF81E090E00E9432086E
:1010F000DF91CF9108951F920F9200905F000F92A1
:10110000112400905B000F922F933F934F935F93B6
:101110006F937F938F939F93AF93BF93EF93FF93BF
:10112000CF93DF93CDB7DEB789E795E00E943041DA
:101130000000DF91CF91FF91EF91BF91AF919F910F
:101140008F917F916F915F914F913F912F910F9070
:1011500000925B000F9000925F000F901F90189517
:101160001F920F9200905F000F92112400905B007D
:101170000F922F933F934F935F936F937F938F9330
:101180009F93AF93BF93EF93FF93CF93DF93CDB72D
:10119000DEB789E795E00E94B5020000DF91CF91AC
:1011A000FF91EF91BF91AF919F918F917F916F913F
:1011B0005F914F913F912F910F9000925B000F90A4
:1011C00000925F000F901F901895CF93DF93CDB7DB
:1011D000DEB789E795E00E943B0421E0892B09F402
:1011E00020E0822FDF91CF910895CF92DF92EF928E
:1011F000FF920F931F93CF93DF9300D01F92CDB731
:10120000DEB79A8389837C836B8389819A81019776
:10121000E1F48B819C810196C1F40F2EF6E3CF2E71
:10122000DD24D394F02D0F2EF2E3EF2EFF24F39460
:10123000F02D01E311E020E331E044E351E065E308
:1012400071E089E795E00E94BD4000000F900F908B
:101250000F900F90DF91CF911F910F91FF90EF9022
:10126000DF90CF900895CF93DF93CDB7DEB76FEFC8
:101270007FEF81E090E00E94F508DF91CF91089523
:10128000CF93DF93CDB7DEB70000DF91CF91089504
:10129000CF93DF931F921F92CDB7DEB79A838983D6
:1012A00089819A810E9486412DE833E089819A8163
:1012B000FC013183208389819A81FC01128213828F
:1012C0001482158200000F900F90DF91CF91089546
:1012D0000F93CF93DF9300D000D0CDB7DEB79A83C2
:1012E00089836B834C832D830E8389819A810E942D
:1012F00086412DE833E089819A81FC013183208386
:1013000089819A812B81FC01228389819A812C8198
:10131000FC01238389819A812D81FC0124838981A9
:101320009A812E81FC012583000026960FB6F89441
:10133000DEBF0FBECDBFDF91CF910F910895CF9348
:10134000DF9300D000D0CDB7DEB79A8389834B837B
:101350005C836D837E8389819A810E9486412DE81A
:1013600033E089819A81FC013183208329813A818C
:101370008B819C81AD81BE81F90182839383A4839B
:10138000B583000026960FB6F894DEBF0FBECDBF22
:10139000DF91CF910895CF93DF9300D01F92CDB707
:1013A000DEB79A8389837C836B8389819A810E94CB
:1013B00086412DE833E089819A81FC0131832083C5
:1013C00089819A8102962B813C8144E050E0B901E9
:1013D0000E94D14800000F900F900F900F90DF9166
:1013E000CF910895CF93DF93CDB7DEB728970FB68F
:1013F000F894DEBF0FBECDBF9E838D8378876F8349
:101400001A8219821B828F819885FC018081882332
:1014100009F448C08F8198859C012F5F3F4F388722
:101420002F83FC0180818C838C818033FCF08C8144
:101430008A33E4F489819A81880F991F9C01220FD5
:10144000331F220F331F280F391F8C81082E000CE9
:10145000990B820F931FC0979A83898389819A8100
:101460008F3F9105F1F0E8F080E027C08C818E324B
:10147000B1F48B81833011F480E01FC08B8191E047
:10148000980F9B83882F90E049812D813E81820FA8
:10149000931F0296FC0140831A821982B4CF80E028
:1014A0000CC0B1CF8B81833011F080E006C0298160
:1014B0008D819E81FC01258381E028960FB6F894EA
:1014C000DEBF0FBECDBFDF91CF910895CF93DF93E5
:1014D00000D01F92CDB7DEB79A8389837C836B835C
:1014E00089819A8102962B813C8144E050E0B901C8
:1014F0000E94D14889819A810F900F900F900F9090
:10150000DF91CF910895CF93DF9300D000D0CDB776
:10151000DEB79A8389834B835C836D837E832981C5
:101520003A818B819C81AD81BE81F9018283938355
:10153000A483B58389819A8126960FB6F894DEBF7D
:101540000FBECDBFDF91CF910895CF93DF9300D031
:101550001F92CDB7DEB79A8389837C836B838981A1
:101560009A819C012E5F3F4F8B819C8144E050E02B
:10157000B9010E94C44821E0892B09F020E0822FA4
:101580000F900F900F900F90DF91CF910895CF9310
:10159000DF93CDB7DEB728970FB6F894DEBF0FBE46
:1015A000CDBF9E838D8378876F831A8219821C82B8
:1015B0001B828B819C8103974CF52D813E818B8111
:1015C0009C81820F931F0296FC0120818F81988558
:1015D0004AE050E0622F0E94C00C9C0189819A81F0
:1015E000820F931F9A8389838F8198856EE20E9470
:1015F000A40C9C0189819A81820F931F9A8389830D
:101600008B819C8101969C838B83D3CF8D819E811E
:10161000FC0125818F8198854AE050E0622F0E946D
:10162000C00C9C0189819A81820F931F9A838983C0
:1016300089819A8128960FB6F894DEBF0FBECDBF80
:10164000DF91CF9108950F93CF93DF9300D01F9236
:10165000CDB7DEB79A8389837C836B8389819A8136
:10166000019761F48B819C81019641F400E020E0B8
:1016700040E060E086E196E00E94680900000F907B
:101680000F900F900F90DF91CF910F910895CF930E
:10169000DF93CDB7DEB76FEF7FEF81E090E00E9480
:1016A000230BDF91CF910895CF93DF931F921F9269
:1016B000CDB7DEB79A83898380E090E00F900F90DA
:1016C000DF91CF910895CF93DF93CDB7DEB70000C0
:1016D000DF91CF910895CF93DF93CDB7DEB70000B0
:1016E000DF91CF910895CF93DF93CDB7DEB70E94FE
:1016F000D8230E94630B0E940B400E941B4081E68E
:1017000092E0892BD1F30E946102F7CFCF93DF9350
:101710001F921F92CDB7DEB79A83898389819A8100
:101720000E94C3450F900F90DF91CF910895CF9302
:10173000DF931F921F92CDB7DEB79A838983898189
:101740009A810E94C3450F900F90DF91CF91089529
:10175000CF93DF931F921F92CDB7DEB79A83898311
:1017600089819A810E945B4600000F900F90DF9163
:10177000CF910895CF93DF931F921F92CDB7DEB71D
:101780009A83898389819A810E945B4600000F9029
:101790000F90DF91CF910895CF93DF93CDB7DEB750
:1017A00028970FB6F894DEBF0FBECDBF9C838B8306
:1017B0007E836D8358874F831A8219828F81988523
:1017C0009C012150310938872F8321E0892B09F4AE
:1017D00020E0222319F18B819C81FC018081918181
:1017E000FC01208131818D819E81AC014F5F5F4F73
:1017F0005E834D83FC0140818B819C81642FF901C4
:10180000199521E0892B09F420E0222331F0898108
:101810009A8101969A838983D1CF000089819A8128
:1018200028960FB6F894DEBF0FBECDBFDF91CF91E3
:101830000895CF93DF93CDB7DEB72C970FB6F8940A
:10184000DEBF0FBECDBF9A8789877C876B878B856C
:101850009C859A8389831C821B8289819A819C0141
:101860002F5F3F4F3A8329839E838D838D819E8195
:10187000FC0184918F838F81888788858823C9F0B4
:1018800089859A85FC0180819181FC0120813181CB
:1018900089859A856885F901199521E0892B09F4D4
:1018A00020E0222341F08B819C8101969C838B83D5
:1018B000D4CF000001C000008B819C812C960FB614
:1018C000F894DEBF0FBECDBFDF91CF9108950F9387
:1018D0001F93CF93DF9300D01F92CDB7DEB79A83CB
:1018E00089837C836B838B819C810E949B418C01CB
:1018F0008B819C810E94AD419C0189819A81A801C4
:10190000B9010E94F0410F900F900F900F90DF915E
:10191000CF911F910F910895CF93DF9300D01F9225
:10192000CDB7DEB79A8389837C836B832B813C811F
:1019300089819A81B9010E94BF410F900F900F9049
:101940000F90DF91CF910895CF93DF9300D0CDB763
:10195000DEB79A8389836B8389819A81FC018081B8
:101960009181FC01208131814B8189819A81642F91
:10197000F90119950F900F900F90DF91CF91089575
:10198000CF93DF9300D01F921F92CDB7DEB79A831B
:1019900089836B835D834C838B81882F90E0A0E0EB
:1019A000B0E02C813D81E981FA81AC01BD01CF011C
:1019B0000E94A20D0F900F900F900F900F90DF914B
:1019C000CF910895CF93DF9300D000D0CDB7DEB78D
:1019D0009A8389837C836B835E834D838B819C8117
:1019E000092E000CAA0BBB0B2D813E81E981FA81E7
:1019F000AC01BD01CF010E94290D26960FB6F894C7
:101A0000DEBF0FBECDBFDF91CF910895CF93DF939F
:101A100000D000D0CDB7DEB79A8389837C836B83F7
:101A20005E834D838B819C81CC01A0E0B0E02D8151
:101A30003E81E981FA81AC01BD01CF010E94A20D76
:101A400026960FB6F894DEBF0FBECDBFDF91CF91C3
:101A50000895CF93DF93CDB7DEB72A970FB6F894EA
:101A6000DEBF0FBECDBF9C838B834D835E836F83B0
:101A700078873A87298789859A85892B79F48B819C
:101A80009C81FC0180819181FC01208131814D810B
:101A90008B819C81642FF90119954BC089859A85AA
:101AA0000A97D9F58D819E81AF81B885BB2344F516
:101AB0008B819C816DE20E94A40C9A8389838D8125
:101AC0009E81AF81B885B095A095909581959F4FE7
:101AD000AF4FBF4F8D839E83AF83B8878D819E812B
:101AE000AF81B885EB81FC812AE0AC01BD01CF015B
:101AF0000E9436109C0189819A81820F931F19C020
:101B00008D819E81AF81B885EB81FC812AE0AC019B
:101B1000BD01CF010E9436100CC029858D819E81A8
:101B2000AF81B885EB81FC81AC01BD01CF010E9482
:101B300036102A960FB6F894DEBF0FBECDBFDF91E8
:101B4000CF910895CF93DF93CDB7DEB728970FB627
:101B5000F894DEBF0FBECDBF9A8389834B835C832D
:101B60006D837E8338872F838F819885892B79F4C5
:101B700089819A81FC0180819181FC0120813181E0
:101B80004B8189819A81642FF90119950CC02F81AD
:101B90008B819C81AD81BE81E981FA81AC01BD015F
:101BA000CF010E94361028960FB6F894DEBF0FBE04
:101BB000CDBFDF91CF910895CF93DF93CDB7DEB73F
:101BC00028970FB6F894DEBF0FBECDBF9A838983E6
:101BD0004B835C836D837E8338872F832F818B813A
:101BE0009C81AD81BE81E981FA81AC01BD01CF014B
:101BF0000E94A81028960FB6F894DEBF0FBECDBF86
:101C0000DF91CF910895CF93DF9300D000D0CDB76F
:101C1000DEB79C838B837E836D832D813E818B8198
:101C20009C81B9010E94190C9A8389838B819C81C4
:101C30000E944C0E9C0189819A81820F931F9A8386
:101C4000898389819A8126960FB6F894DEBF0FBEEC
:101C5000CDBFDF91CF910895CF93DF9300D01F9236
:101C6000CDB7DEB79A8389837C836B838B819C811C
:101C7000FC0180819181FC012081318149815A815F
:101C80008B819C81BA01F90119950F900F900F90EB
:101C90000F90DF91CF910895CF93DF931F921F9202
:101CA000CDB7DEB79A83898389819A8168EA72E029
:101CB0000E94BF410F900F90DF91CF910895CF9375
:101CC000DF9300D000D0CDB7DEB79C838B837E83BB
:101CD0006D832D813E818B819C81B9010E94670CAF
:101CE0009A8389838B819C810E944C0E9C018981FF
:101CF0009A81820F931F9A83898389819A8126967C
:101D00000FB6F894DEBF0FBECDBFDF91CF9108951F
:101D1000CF93DF9300D000D0CDB7DEB79C838B8309
:101D20007E836D832D813E818B819C81B9010E94D0
:101D30008C0C9A8389838B819C810E944C0E9C0120
:101D400089819A81820F931F9A83898389819A81DD
:101D500026960FB6F894DEBF0FBECDBFDF91CF91B0
:101D60000895CF93DF9300D01F921F92CDB7DEB7B7
:101D70009C838B836D838B819C816D810E94A40CDD
:101D80009A8389838B819C810E944C0E9C0189815E
:101D90009A81820F931F9A83898389819A810F90F8
:101DA0000F900F900F900F90DF91CF910895CF93E8
:101DB000DF93CDB7DEB727970FB6F894DEBF0FBE1F
:101DC000CDBF9C838B836D835F834E832E813F8148
:101DD0008B819C81A9016D810E94C00C9A838983AB
:101DE0008B819C810E944C0E9C0189819A81820F7B
:101DF000931F9A83898389819A8127960FB6F894D5
:101E0000DEBF0FBECDBFDF91CF910895CF93DF939B
:101E1000CDB7DEB728970FB6F894DEBF0FBECDBFA3
:101E20009C838B837E836D8358874F834F81588536
:101E30002D813E818B819C81B9010E94E20C9A83A5
:101E400089838B819C810E944C0E9C0189819A819F
:101E5000820F931F9A83898389819A8128960FB66E
:101E6000F894DEBF0FBECDBFDF91CF910895CF9321
:101E7000DF93CDB7DEB728970FB6F894DEBF0FBE5D
:101E8000CDBF9C838B837E836D8358874F834F8127
:101E900058852D813E818B819C81B9010E94060D60
:101EA0009A8389838B819C810E944C0E9C0189813D
:101EB0009A81820F931F9A83898389819A812896B8
:101EC0000FB6F894DEBF0FBECDBFDF91CF9108955E
:101ED000CF93DF93CDB7DEB72A970FB6F894DEBF66
:101EE0000FBECDBF9C838B834D835E836F837887CA
:101EF0003A87298729853A858D819E81AF81B8856A
:101F0000EB81FC81AC01BD01CF010E94290D9A83B8
:101F100089838B819C810E944C0E9C0189819A81CE
:101F2000820F931F9A83898389819A812A960FB69B
:101F3000F894DEBF0FBECDBFDF91CF910895CF9350
:101F4000DF93CDB7DEB72A970FB6F894DEBF0FBE8A
:101F5000CDBF9C838B834D835E836F8378873A8765
:101F6000298729853A858D819E81AF81B885EB814E
:101F7000FC81AC01BD01CF010E94A20D9A8389832F
:101F80008B819C810E944C0E9C0189819A81820FD9
:101F9000931F9A83898389819A812A960FB6F89430
:101FA000DEBF0FBECDBFDF91CF910895CF93DF93FA
:101FB000CDB7DEB72A970FB6F894DEBF0FBECDBF00
:101FC0009C838B834D835E836F8378873A872987D1
:101FD00029853A858D819E81AF81B885EB81FC8111
:101FE000AC01BD01CF010E94DC0D9A8389838B81F6
:101FF0009C810E944C0E9C0189819A81820F931FC3
:102000009A83898389819A812A960FB6F894DEBFD4
:102010000FBECDBFDF91CF910895CF93DF9300D056
:1020200000D0CDB7DEB79C838B837E836D832D81FB
:102030003E818B819C81B9010E942C0E9A838983F9
:102040008B819C810E944C0E9C0189819A81820F18
:10205000931F9A83898389819A8126960FB6F89473
:10206000DEBF0FBECDBFDF91CF910895CF93DF9339
:10207000CDB7DEB7AB970FB6F894DEBF0FBECDBFBE
:102080009EA38DA34FA358A769A77AA72BA780E289
:1020900090E09E012C5F3F4F820F931F9A838983AC
:1020A00089819A81FC0110828BA5823010F48AE02C
:1020B0008BA78BA5282F30E040E050E08FA198A59A
:1020C000A9A5BAA5BC01CD010E940443DC01CB0146
:1020D0008B838BA5282F30E040E050E08FA198A59E
:1020E000A9A5BAA5BC01CD010E940443DA01C9012A
:1020F0008FA398A7A9A7BAA789819A8101979A83E4
:1021000089838B818A3024F48B81805D282F03C0E2
:102110008B81895C282F89819A81FC0120838FA182
:1021200098A5A9A5BAA5892B8A2B8B2B09F0C1CF1D
:1021300029813A818DA19EA1B9010E94BF41AB9630
:102140000FB6F894DEBF0FBECDBFDF91CF910895DB
:10215000CF92DF92EF92FF921F93CF93DF93CDB791
:10216000DEB768970FB6F894DEBF0FBECDBF9B8B6E
:102170008A8B4C8B5D8B6E8B7F8B288F1A8219829A
:102180002C893D894E895F896C897D898E899F89DB
:102190000E949E45882339F08A899B896BEA72E008
:1021A0000E948C0C36C18C899D89AE89BF896C01D7
:1021B0007D01E894F7F811E02FEF3FEF4FE75FE77D
:1021C000C701B6010E949E45882359F42FEF3FEFC7
:1021D0004FE75FE7C701B6010E94D44318160CF41D
:1021E00010E081E08127882339F08A899B896FEA92
:1021F00072E00E948C0C0DC12FEF3FEF4FE75FE4C0
:102200006C897D898E899F890E942C4518163CF423
:102210008A899B8963EB72E00E948C0CFAC02FEFD5
:102220003FEF4FE75FEC6C897D898E899F890E9423
:10223000D44388233CF48A899B8963EB72E00E9433
:102240008C0CE7C020E030E0A9016C897D898E8983
:102250009F890E94D4438823ACF48A899B896DE2CC
:102260000E94A40C9C0189819A81820F931F9A83FA
:1022700089838C899D89AE89BF89B0588C8B9D8B51
:10228000AE8BBF8B80E090E0A0E0BFE38B839C83AC
:10229000AD83BE831F829F81888D9817A0F420E0B4
:1022A00030E040E251E46B817C818D819E810E940F
:1022B000D943DC01CB018B839C83AD83BE838F81AB
:1022C0008F5F8F83E8CF2B813C814D815E816C894C
:1022D0007D898E899F890E946843DC01CB018C8BAC
:1022E0009D8BAE8BBF8B6C897D898E899F890E9467
:1022F0004B44DC01CB018C879D87AE87BF876C8503
:102300007D858E859F850E947A44DC01CB019C01EE
:10231000AD016C897D898E899F890E946743DC01AC
:10232000CB0188879987AA87BB878C859D85AE85D9
:10233000BF85EA89FB892AE030E0AC01BD01CF010D
:102340000E94A20D9C0189819A81820F931F9A831A
:102350008983888D882361F08A899B896EE20E9437
:10236000A40C9C0189819A81820F931F9A8389838F
:10237000888D9FEF980F988F91E0882309F490E063
:10238000992309F444C020E030E040E251E468853C
:1023900079858A859B850E943145DC01CB01888740
:1023A0009987AA87BB87688579858A859B850E94DE
:1023B0004B44DC01CB01998B888B288939898A8928
:1023C0009B894AE050E0B9010E94060D9C01898179
:1023D0009A81820F931F9A83898388899989CC0176
:1023E000A0E0B0E0BC01CD010E947A44DC01CB0149
:1023F0009C01AD01688579858A859B850E9467432C
:10240000DC01CB0188879987AA87BB87B1CF8981F7
:102410009A8168960FB6F894DEBF0FBECDBFDF91EC
:10242000CF911F91FF90EF90DF90CF900895CF93C1
:10243000DF9300D01F92CDB7DEB79C838B830E94C1
:10244000C022DC01CB012B813C81F901808791877F
:10245000A287B3878B819C81FC01808191810A9640
:10246000FC01208131818B819C81F90119959A832E
:10247000898389819A8199231CF089819A8122C05C
:102480000E94C0229B01AC018B819C81FC01808554
:102490009185A285B385281B390B4A0B5B0B8B8179
:1024A0009C81FC0184819581A681B78161E0281718
:1024B00039074A075B0708F060E0662309F0CACFD6
:1024C0008FEF9FEF0F900F900F900F90DF91CF91B4
:1024D0000895CF93DF9300D01F92CDB7DEB79C83D2
:1024E0008B830E94C022DC01CB012B813C81F9014E
:1024F00080879187A287B3878B819C81FC01808133
:1025000091810C96FC01208131818B819C81F901A4
:1025100019959A83898389819A8199231CF08981ED
:102520009A8122C00E94C0229B01AC018B819C81B8
:10253000FC0180859185A285B385281B390B4A0B48
:102540005B0B8B819C81FC0184819581A681B78185
:1025500061E0281739074A075B0708F060E0662347
:1025600009F0CACF8FEF9FEF0F900F900F900F9051
:10257000DF91CF910895CF93DF93CDB7DEB7279743
:102580000FB6F894DEBF0FBECDBF9C838B837E83D6
:102590006D834F838B819C810E9469129A8389830A
:1025A00089819A8199239CF089819A818D9779F00C
:1025B00089819A81C09724F089819A81CA973CF0D9
:1025C0008F81882339F089819A818E9719F48981C6
:1025D0009A812CC08D819E818130910519F00297DE
:1025E00021F015C08FEF9FEF21C089819A818D3036
:1025F000910561F08E30910524F40997029718F443
:1026000005C0809719F08FEF9FEF10C00000000009
:102610008B819C81FC01808191810A96FC01208143
:1026200031818B819C81F9011995B4CF27960FB622
:10263000F894DEBF0FBECDBFDF91CF910895CF9349
:10264000DF9300D000D0CDB7DEB79A8389834B8368
:102650005C836D837E8329813A818B819C81AD81EE
:10266000BE81F90184839583A683B78300002696F3
:102670000FB6F894DEBF0FBECDBFDF91CF910895A6
:102680000F931F93CF93DF9300D01F92CDB7DEB788
:102690009A8389837C836B838B819C810E94074909
:1026A000AC016B817C8189819A8100E010E020E09F
:1026B00030E00E94B4130F900F900F900F90DF91B5
:1026C000CF911F910F9108950F931F93CF93DF9395
:1026D00000D000D0CDB7DEB79A8389837C836B832B
:1026E0005E834D834D815E816B817C8189819A817E
:1026F00000E010E020E030E00E94B41326960FB610
:10270000F894DEBF0FBECDBFDF91CF911F910F9127
:1027100008950F931F93CF93DF9300D000D0CDB7D0
:10272000DEB79A8389837C836B835E834D838D813F
:102730009E810E9407498C018B819C810E940749E0
:10274000AC012D813E816B817C8189819A810E94BF
:10275000B41326960FB6F894DEBF0FBECDBFDF913F
:10276000CF911F910F9108950F931F93CF93DF93F4
:10277000CDB7DEB76C970FB6F894DEBF0FBECDBFF6
:102780009C8B8B8B7E8B6D8B588F4F8B3A8F298FC9
:102790001C8F0B8F898D9A8D892B01F526E0CE0138
:1027A0000196FC01322F11923A95E9F78D899E89A5
:1027B0009A8389838F89988D9C838B838B899C894D
:1027C00041E050E09E012F5F3F4FB9010E94C116CA
:1027D0009C0181E0232B49F180E027C02CE0CE0151
:1027E0000796FC01322F11923A95E9F78D899E895F
:1027F00098878F838F89988D9A878987898D9A8DFD
:102800009E878D878B8D9C8D988B8F879E01295FEE
:102810003F4F8B899C8942E050E0B9010E94C1166C
:102820009C0181E0232B09F080E06C960FB6F894B0
:10283000DEBF0FBECDBFDF91CF911F910F910895E5
:10284000CF93DF93CDB7DEB72C970FB6F894DEBFEA
:102850000FBECDBF998788877B876A874C8719828F
:102860001A821B821C821D822A853B858885998558
:1028700040E0B9010E94BB129F838E838E819F81AD
:10288000992324F480E090E0DC017BC08C85282F24
:10289000880F330B8E819F8128173907B1F18E8104
:1028A0009F818D9719F481E089832FC08E819F814C
:1028B000C0975CF18E819F81CA973CF58A819B818C
:1028C000AC81BD81880F991FAA1FBB1F9C01AD0160
:1028D000220F331F441F551F220F331F441F551F44
:1028E000280F391F4A1F5B1F8E819F81092E000C04
:1028F000AA0BBB0B820F931FA41FB51FC097A10982
:10290000B1098A839B83AC83BD8388859985FC014B
:10291000808191810A96FC01208131818885998589
:10292000F9011995888599850E9469129F838E8384
:102930008E819F81C0972CF08E819F81CA970CF465
:10294000A5CF8C85282F880F330B8E819F81281768
:10295000390709F49BCF8981882379F08A819B818B
:10296000AC81BD81B095A095909581959F4FAF4F5B
:10297000BF4F8A839B83AC83BD838A819B81AC815B
:10298000BD81BC01CD012C960FB6F894DEBF0FBE01
:10299000CDBFDF91CF910895CF93DF93CDB7DEB751
:1029A00061970FB6F894DEBF0FBECDBF9E878D87AF
:1029B000788B6F87498B19821A821B821C821D8239
:1029C0001E8280E090E0A0E8BFE389879A87AB870A
:1029D000BC872F8538898D859E8541E0B9010E948D
:1029E000BB1298878F838F819885992324F480E088
:1029F00090E0DC01B9C08989282F880F330B8F81C3
:102A000098852817390709F451C08F8198858D97CB
:102A100019F481E089834AC08F8198858E9719F4D3
:102A200081E08A8343C08F819885C0970CF43EC0B3
:102A30008F819885CA97D4F58B819C81AD81BE81A9
:102A4000880F991FAA1FBB1F9C01AD01220F331FC6
:102A5000441F551F220F331F441F551F280F391FB6
:102A60004A1F5B1F8F819885092E000CAA0BBB0B98
:102A7000820F931FA41FB51FC097A109B1098B83B3
:102A80009C83AD83BE838A81882381F02DEC3CEC4E
:102A90004CEC5DE369857A858B859C850E94314588
:102AA000DC01CB0189879A87AB87BC878D859E85A2
:102AB000FC01808191810A96FC01208131818D8504
:102AC0009E85F90119958D859E850E9469129887CA
:102AD0008F838F819885C0972CF08F819885CA97B6
:102AE0000CF489CF8F8198858E9721F48A81882371
:102AF00009F481CF8989282F880F330B8F8198851E
:102B00002817390709F477CF8981882379F08B81D9
:102B10009C81AD81BE81B095A095909581959F4F88
:102B2000AF4FBF4F8B839C83AD83BE838A81882345
:102B300099F06B817C818D819E810E947C44DC01B7
:102B4000CB0129853A854B855C85BC01CD010E946E
:102B50003145DC01CB0108C06B817C818D819E8178
:102B60000E947C44DC01CB01BC01CD0161960FB613
:102B7000F894DEBF0FBECDBFDF91CF910895CF9304
:102B8000DF93CDB7DEB72A970FB6F894DEBF0FBE3E
:102B9000CDBF9E838D8378876F835A8749871A823A
:102BA000198229813A8189859A8528173907D8F4AD
:102BB0008D819E810E9417129C838B838B819C81C7
:102BC000992384F08F8198859C012F5F3F4F388730
:102BD0002F832B81FC01208389819A8101969A831E
:102BE0008983DFCF000089819A812A960FB6F894F5
:102BF000DEBF0FBECDBFDF91CF910895CF93DF939E
:102C0000CDB7DEB72B970FB6F894DEBF0FBECDBFA2
:102C10009E838D836F83598748873B872A878A8560
:102C20009B85892B19F480E090E02EC01A821982CE
:102C300029813A818A859B852817390718F58D8166
:102C40009E810E9417129C838B838B819C81992388
:102C5000CCF08F81282F880F330B8B819C81281714
:102C6000390781F0888599859C012F5F3F4F39870F
:102C700028872B81FC01208389819A8101969A8380
:102C80008983D6CF89819A812B960FB6F894DEBFBF
:102C90000FBECDBFDF91CF910895CF93DF9300D0CA
:102CA00000D0CDB7DEB79C838B837E836D838B8111
:102CB0009C8165EC72E00E94602D8D819E810E9456
:102CC00017129A83898389819A8199236CF02981CB
:102CD0008B819C81622F0E9416428D819E810E9471
:102CE00017129A838983EFCF00008B819C812696EF
:102CF0000FB6F894DEBF0FBECDBFDF91CF91089520
:102D0000CF93DF93CDB7DEB727970FB6F894DEBF2A
:102D10000FBECDBF9C838B837E836D834F838B815E
:102D20009C8165EC72E00E94602D8D819E810E94E5
:102D300017129A83898389819A819923B4F08F81AC
:102D4000282F880F330B89819A812817390769F05A
:102D500029818B819C81622F0E9416428D819E81E8
:102D60000E9417129A838983E6CF00008B819C8191
:102D700027960FB6F894DEBF0FBECDBFDF91CF917F
:102D80000895CF93DF93CDB7DEB762970FB6F8946F
:102D9000DEBF0FBECDBF9E878D87788B6F875A8B26
:102DA000498B8F8598899A83898329893A89C901B2
:102DB000880F991F820F931F880F991F9C018F8581
:102DC0009889280F391F89819A818217930718F5EE
:102DD00089819A81FC0182819381892BB1F42981B7
:102DE0003A818F859889A901481B590BCA019C011A
:102DF000359527958BEA9AEA289FA001299F500DC7
:102E0000389F500D1124CA0123C189819A810696E9
:102E10009A838983CACF8D859E850E9417129887D1
:102E20008F838F81988599231CF48FEF9FEF10C1BA
:102E30008F8598899C838B8329893A89C901880F5A
:102E4000991F820F931F880F991F9C018F85988966
:102E5000280F391F8B819C8182179307E0F68B81A5
:102E60009C81FC01208131818B819C81FC018481CA
:102E70009581820F931FFC018081282F880F330BCF
:102E80008F81988528173907A9F58B819C81FC01D2
:102E9000848195819C012F5F3F4F8B819C81FC0138
:102EA000358324838B819C81FC01248135818B8136
:102EB0009C81FC018281938141E02817390709F048
:102EC00040E0442309F4BBC02B813C818F85988965
:102ED000A901481B590BCA019C01359527958BEA1E
:102EE0009AEA289FA001299F500D389F500D112468
:102EF000CA01AEC08B819C81FC0184819581892BA4
:102F000009F49FC08B819C81FC01848195819A8703
:102F100089878B819C81FC01848195819C01215052
:102F200031098B819C81FC01358324838B819C81B9
:102F3000FC01208131818B819C81FC018481958100
:102F4000820F931FFC018081282F880F330B8F8104
:102F500098852817390709F069C08B819C81FC018D
:102F600084819581892B71F48B819C81FC01848102
:102F700095819C012F5F3F4F8B819C81FC013583A4
:102F8000248360C029853A858B819C81FC018481E2
:102F90009581A901481B590BCA019C878B871E820A
:102FA0001D828B819C81FC01248135818D819E81D4
:102FB0008217930718F58B819C81FC012081318158
:102FC0008D819E81820F931FFC0160818B819C818A
:102FD000FC01208131814B855C858D819E81840F30
:102FE000951F820F931FFC018081681731F48D813A
:102FF0009E8101969E838D83D4CF00008B819C811E
:10300000FC01248135818D819E812817390779F44F
:103010008B819C81FC01848195819C012F5F3F4FB6
:103020008B819C81FC01358324830CC000008B8143
:103030009C81FC0184819581892B21F06ACF00005D
:1030400001C000008B819C8106969C838B83F4CE0B
:1030500062960FB6F894DEBF0FBECDBFDF91CF9161
:103060000895CF93DF93CDB7DEB7C854D1090FB61B
:10307000F894DEBF0FBECDBF9E01285B3F4FF90124
:1030800080838FEF89831B821A828A819B81181625
:10309000190604F18A819B8180509E4FFC0120819A
:1030A000CE01885B9F4FFC018081281769F48A81DB
:1030B0009B818F559C4F9F838E838E819F81FC01C6
:1030C0008491888788858EC28A819B8101969B83A3
:1030D0008A83DBCF1D821C828C819D811816190684
:1030E0003CF18C819D8180509E4FFC0180818F3FFF
:1030F000C9F48C819D8180509E4F9E01285B3F4F7B
:10310000F9012081FC0120838C819D818F559C4F8A
:103110009A87898789859A85FC0184918B878B851D
:10312000898306C08C819D8101969D838C83D4CF39
:1031300089818F3F09F455C28981082E000C990BB3
:103140008230910509F4C3C08330910534F40097AF
:1031500081F0019709F464C044C28430910509F4F8
:1031600064C1843091050CF409C1059709F4B4C118
:1031700038C284E490E0FC01108285E490E0FC0118
:10318000108284E490E024E430E0F90120812260A0
:10319000FC01208385E490E025E430E0F901208102
:1031A0002160FC012083CE01885B9F4FFC01808160
:1031B000882F90E080549C4F9D878C878C859D85BF
:1031C000FC0184918E878E85882F90E0880F991F4F
:1031D00084559C4F988B8F878F859889FC0125910A
:1031E0003491CF013A8B298B988B8F8789899A8963
:1031F0009093210680932006CE01885B9F4FFC01AF
:103200008081882F90E08C529C4F9C8B8B8B8B897C
:103210009C89FC0184918D8B8D8980932206E1C16C
:1032200080E890E0FC01108281E890E0FC011082CF
:1032300081E890E021E830E0F90120812860FC017C
:10324000208381E890E021E830E0F90120812160CD
:10325000FC012083CE01885B9F4FFC018081882F79
:1032600090E080549C4F9F8B8E8B8E899F89FC01B0
:103270008491888F888D882F90E0880F991F8455BE
:103280009C4F9A8F898F898D9A8DFC01259134915D
:10329000CF013C8F2B8F9A8F898F8B8D9C8D909334
:1032A000280680932706CE01885B9F4FFC01808112
:1032B000882F90E08C529C4F9E8F8D8F8D8D9E8D90
:1032C000FC0184918F8F8F8D809329068AC180EBBA
:1032D00090E0FC01108281EB90E0FC01108280EB19
:1032E00090E020EB30E0F90120812260FC01208396
:1032F00081EB90E021EB30E0F90120812160FC01BD
:103300002083CE01885B9F4FFC018081882F90E055
:1033100080549C4F99A388A388A199A1FC01849112
:103320008AA38AA1882F90E0880F991F84559C4F0B
:103330009CA38BA38BA19CA1FC0125913491CF016F
:103340003EA32DA39CA38BA38DA19EA190932F069A
:1033500080932E06CE01885B9F4FFC018081882FD1
:1033600090E08C529C4F98A78FA38FA198A5FC0149
:10337000849189A789A58093300633C180E990E0C4
:10338000FC01108281E990E0FC01108281E990E06B
:1033900021E930E0F90120812860FC01208381E9E6
:1033A00090E021E930E0F90120812160FC012083D7
:1033B000CE01885B9F4FFC018081882F90E0805474
:1033C0009C4F9BA78AA78AA59BA5FC0184918CA7EB
:1033D0008CA5882F90E0880F991F84559C4F9EA73D
:1033E0008DA78DA59EA5FC0125913491CF0138AB09
:1033F0002FA79EA78DA78FA598A990933606809397
:103400003506CE01885B9F4FFC018081882F90E0BC
:103410008C529C4F9AAB89AB89A99AA9FC018491E3
:103420008BAB8BA980933706DCC080EA90E0FC016F
:10343000108281EA90E0FC01108281EA90E021EAAA
:1034400030E0F90120812860FC01208381EA90E0CE
:1034500021EA30E0F90120812160FC012083CE01C6
:10346000885B9F4FFC018081882F90E080549C4FA7
:103470009DAB8CAB8CA99DA9FC0184918EAB8EA9D0
:10348000882F90E0880F991F84559C4F98AF8FAB81
:103490008FA998ADFC0125913491CF013AAF29AFA6
:1034A00098AF8FAB89AD9AAD90933D0680933C0663
:1034B000CE01885B9F4FFC018081882F90E08C5269
:1034C0009C4F9CAF8BAF8BAD9CADFC0184918DAFBD
:1034D0008DAD80933E0685C080E291E0FC011082B4
:1034E00081E291E0FC01108281E291E021E231E091
:1034F000F90120812860FC01208381E291E021E232
:1035000031E0F90120812160FC012083CE01885B3C
:103510009F4FFC018081882F90E080549C4F9FAF8B
:103520008EAF8EAD9FADFC012491CE01805C9F4F8C
:10353000FC012083CE01805C9F4FFC018081882F9D
:1035400090E0880F991F9C0124553C4FCE018F5B62
:103550009F4FFC0131832083CE018F5B9F4FFC0185
:1035600080819181FC0145915491CF019E012D5B99
:103570003F4FF901518340839E012F5B3F4FF9017B
:1035800091838083CE018D5B9F4FFC01808191816F
:103590009093440680934306CE01885B9F4FFC01C5
:1035A0008081882F90E09C012C523C4FCE018B5B98
:1035B0009F4FFC0131832083CE018B5B9F4FFC0129
:1035C00080819181FC012491CE01895B9F4FFC0198
:1035D0002083CE01895B9F4FFC018081809345064B
:1035E00000008981C85BDF4F0FB6F894DEBF0FBEC5
:1035F000CDBFDF91CF910895CF93DF93CDB7DEB7E5
:1036000061970FB6F894DEBF0FBECDBF8B877D8765
:103610006C872E873F87488B598B81E089831A827C
:103620001B821C821D821E821F82188619868B8532
:103630000E9431188A878A8588230CF499C261E038
:103640008B850E949C268A85882321F08A8582307A
:1036500009F022C18C859D859C0140E050E080E00E
:1036600092E1AAE7B0E0BC01CD010E940443DA0177
:10367000C9010197A109B1098E839F83A887B987E2
:1036800081E089838E819F81A885B9858F3F9105CF
:10369000A105B10509F008F4E2C08C859D859C0167
:1036A00040E050E080E492E4AFE0B0E0BC01CD0146
:1036B0000E940443DA01C9010197A109B1098E836F
:1036C0009F83A887B98782E089838A85823011F534
:1036D0008E819F81A885B9858F3F9105A105B10590
:1036E000C9F0C0F08C859D859C0140E050E080E9E8
:1036F00090EDA3E0B0E0BC01CD010E940443DA01EB
:10370000C9010197A109B1098E839F83A887B98751
:1037100083E089838E819F81A885B9858F3F91053C
:10372000A105B10509F008F49AC08C859D859C011E
:1037300040E050E088E498EEA1E0B0E0BC01CD01AB
:103740000E940443DA01C9010197A109B1098E83DE
:103750009F83A887B9878A85882311F483E001C0F5
:1037600084E089838A85823011F58E819F81A885C6
:10377000B9858F3F9105A105B105C9F0C0F08C85D1
:103780009D859C0140E050E084E294EFA0E0B0E031
:10379000BC01CD010E940443DA01C9010197A109CE
:1037A000B1098E839F83A887B98785E089838E813D
:1037B0009F81A885B9858F3F9105A105B10509F0C5
:1037C00008F44DC08C859D859C0140E050E082E16D
:1037D0009AE7A0E0B0E0BC01CD010E940443DA0109
:1037E000C9010197A109B1098E839F83A887B98771
:1037F0008A85882311F484E001C086E089838E8164
:103800009F81A885B9858F3F9105A105B10539F143
:1038100030F18C859D859C0140E050E080E092E194
:10382000AAE7B0E0BC01CD010E940443DA01C9015E
:10383000072E7AE0B695A795979587957A95D1F753
:10384000702D0197A109B1098E839F83A887B9873D
:103850008A85882311F485E001C087E089838A8501
:10386000882369F485E490E025E430E0F9012081C3
:10387000322F387F2981232BFC01208384C081EBE8
:1038800090E021EB30E0F9012081322F387F29814F
:10389000232BFC01208377C08C859D859C0140E013
:1038A00050E080E092E1AAE7B0E0BC01CD010E94C7
:1038B0000443DA01C9010197A109B1098E839F83ED
:1038C000A887B98781E089838E819F81A885B98582
:1038D0000097A140B105C0F08C859D859C0140E01A
:1038E00050E088E498EEA1E0B0E0BC01CD010E9478
:1038F0000443DA01C9010197A109B1098E839F83AD
:10390000A887B98783E089838A85813069F481E853
:1039100090E021E830E0F9012081322F387F2981C1
:10392000232BFC0120832FC08A85833069F481E931
:1039300090E021E930E0F9012081322F387F2981A0
:10394000232BFC0120831FC08A85843069F481EA1F
:1039500090E021EA30E0F9012081322F387F29817F
:10396000232BFC0120830FC08A85853061F481E21E
:1039700091E021E231E0F9012081322F387F298165
:10398000232BFC0120838E859F85A889B989892BEB
:103990008A2B8B2B01F18C859D85880F991F9C01AB
:1039A00040E050E08E859F85A889B989BC01CD0192
:1039B0000E94F442DC01CB0128EE33E040E050E00D
:1039C000BC01CD010E940443DA01C9018A839B83B3
:1039D000AC83BD8307C08FEF9FEFDC018A839B839D
:1039E000AC83BD838A85082E000C990B823091052B
:1039F00009F44CC0833091052CF4009779F00197BD
:103A000041F1B6C08430910509F478C08430910545
:103A10000CF457C0059709F48EC0AAC087E490E063
:103A20002E81FC0120838A819B81AC81BD818093A2
:103A30001C0690931D06A0931E06B0931F068EE6EB
:103A400090E02EE630E0F90120812260FC01208325
:103A50008FC088E890E02E813F81FC013183208374
:103A60008A819B81AC81BD8180932306909324063B
:103A7000A0932506B09326068FE690E02FE630E06F
:103A8000F90120812260FC01208372C083EB90E069
:103A90002E81FC0120838A819B81AC81BD81809332
:103AA0002A0690932B06A0932C06B0932D0680E750
:103AB00090E020E730E0F90120812260FC012083C2
:103AC00057C088E990E02E813F81FC01318320833B
:103AD0008A819B81AC81BD818093310690933206AF
:103AE000A0933306B093340681E790E021E730E0FD
:103AF000F90120812260FC0120833AC088EA90E02D
:103B00002E813F81FC01318320838A819B81AC819E
:103B1000BD818093380690933906A0933A06B093FE
:103B20003B0682E790E022E730E0F9012081226045
:103B3000FC0120831DC088E291E02E813F81FC01C1
:103B4000318320838A819B81AC81BD8180933F0634
:103B500090934006A0934106B093420683E790E01D
:103B600023E730E0F90120812260FC01208300007E
:103B7000000061960FB6F894DEBF0FBECDBFDF9197
:103B8000CF910895CF93DF931F92CDB7DEB789838E
:103B90008981882F90E08230910509F18330910569
:103BA0002CF4009769F0019781F054C0843091059E
:103BB000E9F18430910584F1059709F441C04AC0C8
:103BC0008EE690E0FC01108245C08FE690E02FE683
:103BD00030E0F90120812D7FFC0120833BC080E78C
:103BE00090E020E730E0F90120812D7FFC01208367
:103BF00080EB90E021E0FC01208381EB90E021EB61
:103C000030E0F9012081287F2460FC01208383EBD0
:103C100090E0FC0110821EC081E790E021E730E0D7
:103C2000F90120812D7FFC01208314C082E790E000
:103C300022E730E0F90120812D7FFC0120830AC0BA
:103C400083E790E023E730E0F90120812D7FFC013C
:103C50002083000000000F90DF91CF910895CF9353
:103C6000DF93CDB7DEB727970FB6F894DEBF0FBE50
:103C7000CDBF8F838FEF89831B821A828A819B81BC
:103C80001816190624F18A819B8180509E4FFC01F1
:103C900090818F819817A9F48A819B818F559C4FC1
:103CA0009D838C838C819D81FC0184918E838E8188
:103CB00089838A819B8180509E4F2FEFFC01208356
:103CC00006C08A819B8101969B838A83D7CF898195
:103CD0000E94C21D60E08F810E942A280000279662
:103CE0000FB6F894DEBF0FBECDBFDF91CF91089520
:103CF0001F920F9200905F000F92112400905B00C2
:103D00000F922F933F934F935F936F937F938F9374
:103D10009F93AF93BF93EF93FF93CF93DF93CDB771
:103D2000DEB780912A0690912B06A0912C06B091C7
:103D30002D0621E0892B8A2B8B2B09F420E02223EE
:103D4000A1F14091300680912E0690912F0620918E
:103D50002E0630912F06F90120812427FC012083B3
:103D600080912A0690912B06A0912C06B0912D06E9
:103D700021E0181619061A061B060CF020E0222373
:103D8000C1F080912A0690912B06A0912C06B0914B
:103D90002D060197A109B10980932A0690932B065D
:103DA000A0932C06B0932D0604C0809100020E94BF
:103DB0002F1E0000DF91CF91FF91EF91BF91AF9146
:103DC0009F918F917F916F915F914F913F912F9133
:103DD0000F9000925B000F9000925F000F901F9079
:103DE0001895CF93DF93CDB7DEB70000DF91CF9169
:103DF0000895CF93DF9300D01F921F92CDB7DEB707
:103E000089837B836A835D834C838981883008F052
:103E100000C18981882F90E0880F991F8F5F9D4F87
:103E20002A813B81FC01318320838981882F90E0A6
:103E3000092E000CAA0BBB0B40E050E027E030E05D
:103E4000841B950B2817390708F4E3C0FC01882769
:103E5000EE58FF4F8F4F0C94454389E690E029E6DA
:103E600030E0F9012081322F3C7F2C81232BFC0193
:103E700020838DE390E02DE330E0F9012081216083
:103E8000FC012083C6C089E690E029E630E0F90114
:103E90002081422F437F2C813D81220F331F220F2F
:103EA000331F242BFC0120838DE390E02DE330E0D1
:103EB000F90120812260FC012083ABC089E690E0FB
:103EC00029E630E0F9012081422F4F7C2C813D8191
:103ED00022953295307F3227207F3227242BFC0118
:103EE00020838DE390E02DE330E0F9012081246010
:103EF000FC0120838EC089E690E029E630E0F901DC
:103F00002081422F4F732C813D81002436952795C7
:103F10000794369527950794322F202D242BFC01EA
:103F200020838DE390E02DE330E0F90120812860CB
:103F3000FC0120836EC08AE690E02AE630E0F901B9
:103F40002081322F3C7F2C81232BFC0120838DE3A9
:103F500090E02DE330E0F90120812061FC01208315
:103F600058C08AE690E02AE630E0F9012081422F2D
:103F7000437F2C813D81220F331F220F331F242BBF
:103F8000FC0120838DE390E02DE330E0F9012081F6
:103F90002062FC0120833DC08AE690E02AE630E002
:103FA000F9012081422F4F7C2C813D812295329551
:103FB000307F3227207F3227242BFC0120838DE3A2
:103FC00090E02DE330E0F90120812064FC012083A2
:103FD00020C08AE690E02AE630E0F9012081422FF5
:103FE0004F732C813D810024369527950794369593
:103FF00027950794322F202D242BFC0120838DE35D
:1040000090E02DE330E0F90120812068FC0120835D
:10401000000000000F900F900F900F900F90DF9115
:10402000CF910895CF93DF931F92CDB7DEB78983E9
:104030008981883008F074C08981882F90E0092E2A
:10404000000CAA0BBB0B40E050E027E030E0841BE3
:10405000950B2817390708F457C0FC018827E65844
:10406000FF4F8F4F0C9445438DE390E02DE330E0FC
:10407000F90120812E7FFC01208346C08DE390E072
:104080002DE330E0F90120812D7FFC0120833CC02D
:104090008DE390E02DE330E0F90120812B7FFC01DE
:1040A000208332C08DE390E02DE330E0F9012081E0
:1040B000277FFC01208328C08DE390E02DE330E0D2
:1040C000F90120812F7EFC0120831EC08DE390E04A
:1040D0002DE330E0F90120812F7DFC01208314C005
:1040E0008DE390E02DE330E0F90120812F7BFC018E
:1040F00020830AC08DE390E02DE330E0F9012081B8
:104100002F77FC01208300008981882F90E0880FA1
:10411000991F8F5F9D4F21EF3EE1FC01318320838A
:1041200000000F90DF91CF9108951F920F920090A1
:104130005F000F92112400905B000F922F933F932A
:104140004F935F936F937F938F939F93AF93BF939F
:10415000EF93FF93CF93DF93CDB7DEB78091050246
:1041600090910602FC0119950000DF91CF91FF911B
:10417000EF91BF91AF919F918F917F916F915F91DF
:104180004F913F912F910F9000925B000F90009202
:104190005F000F901F9018951F920F9200905F0084
:1041A0000F92112400905B000F922F933F934F9337
:1041B0005F936F937F938F939F93AF93BF93EF938F
:1041C000FF93CF93DF93CDB7DEB780910702909135
:1041D0000802FC0119950000DF91CF91FF91EF914A
:1041E000BF91AF919F918F917F916F915F914F910F
:1041F0003F912F910F9000925B000F9000925F0013
:104200000F901F9018951F920F9200905F000F92D1
:10421000112400905B000F922F933F934F935F9375
:104220006F937F938F939F93AF93BF93EF93FF937E
:10423000CF93DF93CDB7DEB78091090290910A0248
:10424000FC0119950000DF91CF91FF91EF91BF9193
:10425000AF919F918F917F916F915F914F913F911E
:104260002F910F9000925B000F9000925F000F90D3
:104270001F9018951F920F9200905F000F921124CB
:1042800000905B000F922F933F934F935F936F9338
:104290007F938F939F93AF93BF93EF93FF93CF93AE
:1042A000DF93CDB7DEB780910B0290910C02FC0139
:1042B00019950000DF91CF91FF91EF91BF91AF91E0
:1042C0009F918F917F916F915F914F913F912F912E
:1042D0000F9000925B000F9000925F000F901F9074
:1042E00018951F920F9200905F000F92112400907A
:1042F0005B000F922F933F934F935F936F937F9346
:104300008F939F93AF93BF93EF93FF93CF93DF93DD
:10431000CDB7DEB78091010290910202FC011995A0
:104320000000DF91CF91FF91EF91BF91AF919F91ED
:104330008F917F916F915F914F913F912F910F904E
:1043400000925B000F9000925F000F901F901895F5
:104350001F920F9200905F000F92112400905B005B
:104360000F922F933F934F935F936F937F938F930E
:104370009F93AF93BF93EF93FF93CF93DF93CDB70B
:10438000DEB78091030290910402FC0119950000B0
:10439000DF91CF91FF91EF91BF91AF919F918F915D
:1043A0007F916F915F914F913F912F910F9000926C
:1043B0005B000F9000925F000F901F9018951F9266
:1043C0000F9200905F000F92112400905B000F92FB
:1043D0002F933F934F935F936F937F938F939F930D
:1043E000AF93BF93EF93FF93CF93DF93CDB7DEB738
:1043F00080910D0290910E02FC0119950000DF9151
:10440000CF91FF91EF91BF91AF919F918F917F914C
:104410006F915F914F913F912F910F9000925B00B0
:104420000F9000925F000F901F9018951F920F92AF
:1044300000905F000F92112400905B000F922F9369
:104440003F934F935F936F937F938F939F93AF931C
:10445000BF93EF93FF93CF93DF93CDB7DEB78091F8
:104460000F0290911002FC0119950000DF91CF918D
:10447000FF91EF91BF91AF919F918F917F916F913C
:104480005F914F913F912F910F9000925B000F90A1
:1044900000925F000F901F9018951F920F9200904E
:1044A0005F000F9211248F939F93AF93BF93CF938D
:1044B000DF93CDB7DEB72597DEBFCDBF80914A062B
:1044C00090914B06A0914C06B0914D0689839A833A
:1044D000AB83BC8380914E068D8389819A81AB81A9
:1044E000BC810196A11DB11D89839A83AB83BC83D6
:1044F0008D818D5F8D838D818D3770F08D818D578E
:104500008D8389819A81AB81BC810196A11DB11DEA
:1045100089839A83AB83BC838D8180934E06898186
:104520009A81AB81BC8180934A0690934B06A093FD
:104530004C06B0934D068091460690914706A09197
:104540004806B09149060196A11DB11D809346060B
:1045500090934706A0934806B093490600000F9039
:104560000F900F900F900F90DF91CF91BF91AF916F
:104570009F918F910F9000925F000F901F90189560
:10458000CF93DF9300D01F921F92CDB7DEB78FE598
:1045900090E0FC0180818983F89480914A06909193
:1045A0004B06A0914C06B0914D068A839B83AC8349
:1045B000BD838FE590E02981FC0120838A819B8166
:1045C000AC81BD81BC01CD010F900F900F900F9079
:1045D0000F90DF91CF910895CF93DF9300D000D05B
:1045E000CDB7DEB78FE590E0FC0180818D83F89434
:1045F0008091460690914706A0914806B0914906E1
:1046000089839A83AB83BC8386E490E0FC0180813C
:104610008E8385E390E0FC018081882F90E081709B
:104620009927892B71F08E818F3F59F089819A816A
:10463000AB81BC810196A11DB11D89839A83AB8397
:10464000BC838FE590E02D81FC01208389819A81D4
:10465000AB81BC812227382F492F5A2F8E81882F7A
:1046600090E0A0E0B0E0820F931FA41FB51F880F59
:10467000991FAA1FBB1F880F991FAA1FBB1FBC0130
:10468000CD0126960FB6F894DEBF0FBECDBFDF91E9
:10469000CF910895EF92FF920F931F93CF93DF93E3
:1046A000CDB7DEB728970FB6F894DEBF0FBECDBFEB
:1046B0006D837E838F8398870E94EC22DC01CB017F
:1046C00089839A83AB83BC8337C00E94400917C09B
:1046D0008D819E81AF81B8850197A109B1098D8334
:1046E0009E83AF83B88789819A81AB81BC818851D1
:1046F0009C4FAF4FBF4F89839A83AB83BC838D811F
:104700009E81AF81B885892B8A2B8B2BA9F00E94C3
:10471000EC229B01AC0189819A81AB81BC8179013A
:104720008A01E81AF90A0A0B1B0BD801C701883E57
:104730009340A105B10560F68D819E81AF81B8855A
:10474000892B8A2B8B2B09F6000028960FB6F8943C
:10475000DEBF0FBECDBFDF91CF911F910F91FF90B4
:10476000EF900895CF93DF931F921F92CDB7DEB7DE
:104770009A83898389819A810297A0F089819A819D
:10478000880F991F880F991F9A83898389819A813D
:1047900005979A83898389819A810197F1F79A8392
:1047A000898301C000000F900F90DF91CF91089591
:1047B000CF93DF93CDB7DEB7789484E490E024E420
:1047C00030E0F90120812260FC01208384E490E044
:1047D00024E430E0F90120812160FC01208385E49C
:1047E00090E025E430E0F90120812260FC01208383
:1047F00085E490E025E430E0F90120812160FC01AE
:1048000020838EE690E02EE630E0F90120812160E1
:10481000FC01208381E890E0FC01108281E890E0B7
:1048200021E830E0F90120812260FC01208381E849
:1048300090E021E830E0F90120812160FC01208333
:1048400080E890E020E830E0F90120812160FC015F
:10485000208381EB90E021EB30E0F901208124609E
:10486000FC01208380EB90E020EB30E0F901208117
:104870002160FC01208381E990E021E930E0F90129
:1048800020812260FC01208381E990E021E930E071
:10489000F90120812160FC01208380E990E020E97A
:1048A00030E0F90120812160FC01208381EA90E061
:1048B00021EA30E0F90120812260FC01208381EAB5
:1048C00090E021EA30E0F90120812160FC012083A1
:1048D00080EA90E020EA30E0F90120812160FC01CB
:1048E000208381E291E021E231E0F9012081226020
:1048F000FC01208381E291E021E231E0F901208195
:104900002160FC01208380E291E020E231E0F901A6
:1049100020812160FC0120838AE790E02AE730E0D3
:10492000F90120812460FC0120838AE790E02AE7D6
:1049300030E0F90120812260FC0120838AE790E0C9
:104940002AE730E0F90120812160FC0120838AE719
:1049500090E02AE730E0F90120812068FC01208303
:1049600081EC90E0FC0110820000DF91CF9108956E
:10497000CF93DF931F92CDB7DEB789838981809370
:10498000110200000F90DF91CF910895CF93DF9334
:1049900000D0CDB7DEB78B838B81863318F08B8147
:1049A00086538B838BE790E02BE730E0F901208181
:1049B000422F477F2B81269526952695222F30E082
:1049C00021703327220F331F220F331F220F331F73
:1049D000242BFC0120838CE790E020911102222FF0
:1049E00030E000243695279507943695279507944F
:1049F000322F202D322F2B812770232BFC01208377
:104A00008AE790E02AE730E0F90120812064FC0188
:104A1000208300008AE790E0FC018081882F90E0ED
:104A200080749927892BB1F788E790E0FC01808199
:104A3000898389E790E0FC0180818A838A81882FBD
:104A400090E0382F22278981882F90E0822B932BAA
:104A50000F900F900F90DF91CF910895CF93DF9338
:104A600000D000D0CDB7DEB78C837E836D8361E04C
:104A70008C810E949C268D819E81892B29F460E087
:104A80008C810E942A284EC18D819E818F3F910585
:104A900029F461E08C810E942A2844C18C81882FEE
:104AA00090E088519C4F9A83898389819A81FC0187
:104AB00084918B838B81882F90E0092E000CAA0BA8
:104AC000BB0B41E050E021E130E0841B950B28173F
:104AD000390708F418C1FC018827EE57FF4F8F4FA4
:104AE0000C94454384E490E024E430E0F901208113
:104AF0002068FC01208387E490E02D81FC01208365
:104B000011C184E490E024E430E0F90120812062C6
:104B1000FC01208388E490E02D81FC01208302C108
:104B200080E890E020E830E0F90120812068FC0175
:104B3000208388E890E02D813E81FC013183208331
:104B4000F1C080E890E020E830E0F90120812062A7
:104B5000FC0120838AE890E02D813E81FC013183B5
:104B60002083E0C080E890E020E830E0F901208177
:104B70002860FC0120838CE890E02D813E81FC01BF
:104B800031832083CFC080EB90E020EB30E0F9014F
:104B900020812068FC01208383EB90E02D81FC01C3
:104BA0002083C0C080EB90E020EB30E0F901208151
:104BB0002062FC01208384EB90E02D81FC012083A6
:104BC000B1C080E990E020E930E0F901208120685F
:104BD000FC01208388E990E02D813E81FC01318336
:104BE0002083A0C080E990E020E930E0F901208135
:104BF0002062FC0120838AE990E02D813E81FC0146
:104C0000318320838FC080E990E020E930E0F90112
:104C100020812860FC0120838CE990E02D813E8179
:104C2000FC01318320837EC080EA90E020EA30E0FE
:104C3000F90120812068FC01208380EA90E020EACD
:104C400030E0F90120812F7BFC01208388EA90E08D
:104C50002D813E81FC013183208364C080EA90E095
:104C600020EA30E0F90120812062FC0120838AEAF9
:104C700090E02D813E81FC013183208353C080EA86
:104C800090E020EA30E0F90120812860FC012083D7
:104C90008CEA90E02D813E81FC013183208342C06B
:104CA00080E291E020E231E0F90120812068FC01FE
:104CB000208388E291E02D813E81FC0131832083B5
:104CC00031C080E291E020E231E0F90120812062F0
:104CD000FC0120838AE291E02D813E81FC01318339
:104CE000208320C080E291E020E231E0F9012081C0
:104CF0002860FC0120838CE291E02D813E81FC0143
:104D0000318320830FC08D819E81803891052CF4E2
:104D100060E08C810E942A2805C061E08C810E949D
:104D20002A2800C0000026960FB6F894DEBF0FBEFA
:104D3000CDBFDF91CF910895CF93DF93CDB7DEB78D
:104D400069970FB6F894DEBF0FBECDBF888F698F0D
:104D5000888D882F90E08C529C4F9A83898389811B
:104D60009A81FC0184918B838B818C83888D882F21
:104D700090E080549C4F9E838D838D819E81FC01A9
:104D800084918F838F8188878885882309F495C0D3
:104D90008885882F90E0880F991F8E559C4F9A87A1
:104DA000898789859A85FC0125913491CF013C87BB
:104DB0002B879A8789878B859C859E878D87888599
:104DC000882F90E0880F991F84559C4F988B8F8770
:104DD0008F859889FC0125913491CF013A8B298BDD
:104DE000988B8F8789899A899C8B8B8B898D882357
:104DF00031F58FE590E0FC0180818D8BF8948D85F5
:104E00009E85FC018081982F8C8180958923282F95
:104E10008D859E85FC0120838B899C89FC01808186
:104E2000982F8C8180958923282F8B899C89FC0160
:104E300020838FE590E02D89FC0120833FC0898D80
:104E4000823021F58FE590E0FC0180818E8BF89413
:104E50008D859E85FC018081982F8C81809589238A
:104E6000282F8D859E85FC0120838B899C89FC01E0
:104E700090818C81292F282B8B899C89FC01208390
:104E80008FE590E02E89FC01208318C08FE590E02B
:104E9000FC0180818F8BF8948D859E85FC0190812B
:104EA0008C81292F282B8D859E85FC0120838FE501
:104EB00090E02F89FC01208301C0000069960FB6A5
:104EC000F894DEBF0FBECDBFDF91CF910895CF9391
:104ED000DF931F92CDB7DEB789838981882F90E059
:104EE000092E000CAA0BBB0B41E050E021E130E0A1
:104EF000841B950B2817390708F4A7C0FC018827E5
:104F0000EC56FF4F8F4F0C94454380E890E020E82B
:104F100030E0F90120812F77FC01208396C080E8E2
:104F200090E020E830E0F90120812F7DFC01208312
:104F30008CC080E890E020E830E0F9012081277FF4
:104F4000FC01208382C084E490E024E430E0F90195
:104F500020812F77FC01208378C084E490E024E452
:104F600030E0F90120812F7DFC0120836EC080EBB1
:104F700090E020EB30E0F90120812F77FC012083C5
:104F800064C080EB90E020EB30E0F90120812F7DC0
:104F9000FC0120835AC080E990E020E930E0F9016B
:104FA00020812F77FC01208350C080E990E020E928
:104FB00030E0F90120812F7DFC01208346C080E98B
:104FC00090E020E930E0F9012081277FFC01208377
:104FD0003CC080EA90E020EA30E0F90120812F77A0
:104FE000FC01208332C080EA90E020EA30E0F90141
:104FF00020812F7DFC01208328C080EA90E020EAF8
:1050000030E0F9012081277FFC0120831EC080E26F
:1050100091E020E231E0F90120812F77FC0120832B
:1050200014C080E291E020E231E0F90120812F7D7F
:10503000FC0120830AC080E291E020E231E0F90126
:105040002081277FFC012083000000000F90DF916A
:10505000CF910895CF93DF93CDB7DEB765970FB6A5
:10506000F894DEBF0FBECDBF8C8B6D8B8C89882FE3
:1050700090E088519C4F9A83898389819A81FC01B1
:1050800084918B838B818C838C89882F90E08C52C8
:105090009C4F9E838D838D819E81FC0184918F83A3
:1050A0008F8188878C89882F90E080549C4F9A87C5
:1050B000898789859A85FC0184918B878B858C876C
:1050C0008C85882309F445C08C81882319F08C8154
:1050D0000E9467278C85882F90E0880F991F845540
:1050E0009C4F9E878D878D859E85FC0125913491EF
:1050F000CF01388B2F879E878D878F8598899A8BD4
:10510000898B8FE590E0FC0180818B8BF8948D89F1
:10511000882371F489899A89FC018081982F888578
:1051200080958923282F89899A89FC0120830BC0C7
:1051300089899A89FC0190818885292F282B898962
:105140009A89FC0120838FE590E02B89FC01208364
:1051500001C0000065960FB6F894DEBF0FBECDBF4C
:10516000DF91CF910895CF93DF93CDB7DEB76197ED
:105170000FB6F894DEBF0FBECDBF898B8989882F0B
:1051800090E088519C4F9A83898389819A81FC01A0
:1051900084918B838B818C838989882F90E08C52BA
:1051A0009C4F9E838D838D819E81FC0184918F8392
:1051B0008F8188878989882F90E080549C4F9A87B7
:1051C000898789859A85FC0184918B878B858C875B
:1051D0008C85882319F480E090E026C08C81882398
:1051E00019F08C810E9467278C85882F90E0880FAA
:1051F000991F8A549C4F9E878D878D859E85FC01C3
:1052000025913491CF01388B2F879E878D878F858D
:105210009889FC01908188858923882319F081E091
:1052200090E002C080E090E061960FB6F894DEBF97
:105230000FBECDBFDF91CF9108950F931F93CF93F2
:10524000DF93CDB7DEB76B970FB6F894DEBF0FBE16
:10525000CDBF8E8B6F8B288F398F4A8F5B8F8E8956
:10526000882F90E08C529C4F9A83898389819A8100
:10527000FC0184918B838B818C838E89882F90E0B5
:1052800080549C4F9E838D838D819E81FC018491EF
:105290008F838F8188878F89882311F08C8101C04B
:1052A00080E08987888D998DAA8DBB8D880F991F85
:1052B000AA1FBB1F880F991FAA1FBB1F880F991F0A
:1052C000AA1FBB1F880F991FAA1FBB1F689413F842
:1052D000B695A795979587951694D1F78A879B875A
:1052E000AC87BD878885882F90E0880F991F8A54E6
:1052F0009C4F9F878E878E859F85FC0125913491D9
:10530000CF01398B288B9F878E8788899989FC01EB
:105310008A859B85AC85BD858C019D0149856C8105
:10532000CF010E94D92ADC01CB018A8B9B8BAC8BED
:10533000BD8B8A899B89AC89BD89892B8A2B8B2B54
:1053400001F18A899B89AC89BD890196A11DB11D96
:10535000880F991FAA1FBB1F880F991FAA1FBB1F69
:10536000880F991FAA1FBB1F880F991FAA1FBB1F59
:10537000689413F8B695A795979587951694D1F7E5
:1053800003C080E090E0DC01BC01CD016B960FB65C
:10539000F894DEBF0FBECDBFDF91CF911F910F916B
:1053A0000895EF92FF920F931F93CF93DF93CDB7A2
:1053B000DEB7A3970FB6F894DEBF0FBECDBF8E8FBA
:1053C0006F8F28A339A34AA35BA38E8D882F90E00B
:1053D0008C529C4F9A83898389819A81FC018491A4
:1053E0008B838B818C838E8D882F90E080549C4F93
:1053F0009E838D838D819E81FC0184918F838F811B
:1054000088878F8D882311F08C8101C080E0898787
:105410000E94EC22DC01CB018A879B87AC87BD8789
:1054200019C00E94EC229B01AC018A859B85AC854A
:10543000BD85281B390B4A0B5B0B88A199A1AAA13A
:10544000BBA182179307A407B50720F480E090E082
:10545000DC01A0C08885882F90E0880F991F8A54AE
:105460009C4F9F878E878E859F85FC012591349167
:10547000CF01398B288B9F878E8788899989FC017A
:1054800090818C8198238985981759F219C00E94C0
:10549000EC229B01AC018A859B85AC85BD85281BD0
:1054A000390B4A0B5B0B88A199A1AAA1BBA182175A
:1054B0009307A407B50720F480E090E0DC016AC000
:1054C0008885882F90E0880F991F8A549C4F9B8B6A
:1054D0008A8B8A899B89FC0125913491CF013D8B70
:1054E0002C8B9B8B8A8B8C899D89FC0190818C8174
:1054F00098238985981759F60E94EC22DC01CB018C
:105500008E8B9F8BA88FB98F19C00E94EC229B01B4
:10551000AC018A859B85AC85BD85281B390B4A0B60
:105520005B0B88A199A1AAA1BBA182179307A4072D
:10553000B50720F480E090E0DC012CC08885882F3E
:1055400090E0880F991F8A549C4F9B8F8A8F8A8D79
:105550009B8DFC0125913491CF013D8F2C8F9B8F2A
:105560008A8F8C8D9D8DFC0190818C8198238985FB
:10557000981759F20E94EC229B01AC018E899F89F9
:10558000A88DB98D79018A01E81AF90A0A0B1B0B5B
:10559000D801C701BC01CD01A3960FB6F894DEBFB8
:1055A0000FBECDBFDF91CF911F910F91FF90EF9074
:1055B00008950F931F93CF93DF93CDB7DEB72C974A
:1055C0000FB6F894DEBF0FBECDBF9E838D836F8371
:1055D000488709871A872B873C8719821A821B8282
:1055E0001C8217C089859A85AB85BC850197A10966
:1055F000B10989879A87AB87BC8789859A85AB85EE
:10560000BC85892B8A2B8B2B21F480E090E0DC0178
:1056100054C08D819E81FC0190818F819823888563
:10562000981701F317C089859A85AB85BC850197CA
:10563000A109B10989879A87AB87BC8789859A8533
:10564000AB85BC85892B8A2B8B2B21F480E090E0E5
:10565000DC0133C08D819E81FC0190818F81982374
:105660008885981701F71CC089819A81AB81BC811C
:105670000196A11DB11D89839A83AB83BC832981C7
:105680003A814B815C8189859A85AB85BC852817D9
:1056900039074A075B0721F480E090E0DC010DC088
:1056A0008D819E81FC0190818F8198238885981738
:1056B000D9F289819A81AB81BC81BC01CD012C9644
:1056C0000FB6F894DEBF0FBECDBFDF91CF911F9113
:1056D0000F910895CF93DF9300D01F921F92CDB703
:1056E000DEB78B836C834D8319821A8239C061E0E7
:1056F0008C810E942A288D81882399F48B810E94B5
:10570000B3289C018A81882F90E0A90102C0440F30
:10571000551F8A95E2F7CA01982F8981892B8983C1
:1057200018C08B810E94B328AC018A81882F90E039
:1057300027E030E0B901681B790BCB019A0102C068
:10574000220F331F8A95E2F7C901982F8981892B8F
:10575000898360E08C810E942A288A818F5F8A83F6
:105760008A81883020F289810F900F900F900F90DE
:105770000F90DF91CF910895CF93DF9300D01F92C8
:105780001F92CDB7DEB78A836B834C832D8319823A
:1057900041C08C818823B9F48D81882F90E02981C4
:1057A000222F30E002C0959587952A95E2F7817007
:1057B000992721E0892B09F420E0822F682F8A8124
:1057C0000E942A281CC08D81882F90E02981222FD9
:1057D00030E047E050E0BA01621B730B9B0102C04E
:1057E000959587952A95E2F78170992721E0892B75
:1057F00009F420E0822F682F8A810E942A2861E024
:105800008B810E942A2860E08B810E942A2889814E
:105810008F5F89838981883008F4BBCF00000F90A7
:105820000F900F900F900F90DF91CF910895CF932D
:10583000DF9300D01F92CDB7DEB769837A838B8365
:105840009C8389819A81AB81BC81892B8A2B8B2B8C
:1058500041F089819A81AB81BC81BC01CD010E945C
:105860007D4700000F900F900F900F90DF91CF9128
:105870000895CF93DF9300D01F92CDB7DEB7698331
:105880007A838B839C8389819A81AB81BC81892BAC
:105890008A2B8B2B21F480E090E0DC010EC00E946B
:1058A0002F47DC01CB0129813A814B815C81BC010E
:1058B000CD010E942643DC01CB01BC01CD010F903C
:1058C0000F900F900F90DF91CF910895EF92FF927C
:1058D0000F931F93CF93DF93CDB7DEB72C970FB6FF
:1058E000F894DEBF0FBECDBF6D837E838F83988714
:1058F00029873A874B875C872D813E814F81588568
:1059000089859A85AB85BC85281739074A075B07C7
:105910002CF08D819E81AF81B88526C029853A857E
:105920004B855C858D819E81AF81B88579018A0127
:10593000E81AF90A0A0B1B0BD801C70189839A835D
:10594000AB83BC8389819A81AB81BC81BC01CD01D1
:105950000E94392C9B01AC018D819E81AF81B8855D
:10596000820F931FA41FB51FBC01CD012C960FB64B
:10597000F894DEBF0FBECDBFDF91CF911F910F9185
:10598000FF90EF900895AF92BF92CF92DF92EF9287
:10599000FF920F931F93CF93DF93CDB7DEB760973E
:1059A0000FB6F894DEBF0FBECDBF69837A838B83B9
:1059B0009C832D833E834F835887E986FA860B8725
:1059C0001C87AD86BE86CF86D88A29813A814B81D5
:1059D0005C818D819E81AF81B88579018A01E81A49
:1059E000F90A0A0B1B0B2E8D3F8D48A159A18D85FD
:1059F0009E85AF85B88959016A01A81AB90ACA0AF1
:105A0000DB0AD601C501A8019701BC01CD010E94A6
:105A1000F4427B018C0129853A854B855C858D811B
:105A20009E81AF81B885281B390B4A0B5B0BC801DF
:105A3000B7010E942643DA01C9019C01AD018D85A1
:105A40009E85AF85B889820F931FA41FB51FBC0127
:105A5000CD0160960FB6F894DEBF0FBECDBFDF91CB
:105A6000CF911F910F91FF90EF90DF90CF90BF905B
:105A7000AF900895CF93DF931F921F92CDB7DEB7FB
:105A80009A83898389819A810F900F90DF91CF91BA
:105A90000895CF93DF931F921F92CDB7DEB789830E
:105AA0006A838981882F90E0382F22278A81882F66
:105AB00090E0822B932B0F900F90DF91CF91089560
:105AC000CF93DF9300D01F92CDB7DEB79A8389833F
:105AD0007C836B8389819A810E94B5428B819C81F2
